:020000040800F2
:100000000020002051250008312600083126000874
:100010003126000831260008312600083126000864
:100020003126000831260008312600086126000824
:100030003126000831260008312600086127000813
:100040003126000831260008312600083126000834
:100050003126000831260008312600083126000824
:10006000312600083126000831260008713D0008BD
:10007000A13D0008D13D0008013E0008313E0008C6
:10008000613E0008913E0008214500083126000825
:1000900031260008312600083126000831260008E4
:1000A00031260008014600083126000831460008C4
:1000B00031260008312600083126000831260008C4
:1000C00031260008312600083126000831260008B4
:1000D00031260008312600083126000831260008A4
:1000E0003126000831260008312600083126000894
:1000F000312600083126000831260008C13E0008DC
:100100003126000831260008312600083126000873
:100110003126000831260008312600083126000863
:10012000F13E0008213F0008513F0008813F0008D0
:10013000B13F0008312600083126000831260008AA
:10014000312600083126000831260008014F00083A
:10015000E13F000811400008414000083126000836
:100160003126000831260008312600083126000813
:100170003126000831260008312600083126000803
:080180003126000831260008B9
:1001900040F6D87320F00042C3F6497301469A42F4
:1001A00000B583B016DDB2F1FF4F03DB01F054FE62
:1001B00003B000BD694600F06BFA00F003000128AF
:1001C00015D002280BD0B8B900980122019901F08E
:1001D00067F8EDE70021002201F062F8E8E70098F7
:1001E0000122019901F05CF800F10040E0E700987D
:1001F000019900F055FCDBE70098019900F050FCF4
:1002000000F10040D4E700BF000000000000000043
:1002100070B58AB0064600F0ABF84AF20004C2F2AC
:10022000000494F90030B3F1FF3F054603D0304697
:1002300001F01EF910B928460AB070BD304601F031
:10024000BFF84FF07E5102F0CFF80028F3D046F609
:1002500040533046C0F6000301930123009300236E
:10026000089301F011FB024646F64850C0F6000024
:100270000B46CDE90423CDE9022301F099F894F966
:100280000030022BCDE906010BD0684601F088F85A
:1002900038B1089B53B9DDE9060101F089FD054637
:1002A000C9E702F0D5F821230360F2E702F0D0F8A5
:1002B000089B0360EFE700BF0000000000000000A3
:1002C00070B58AB0064600F093FB4AF20004C2F211
:1002D000000494F90030B3F1FF3F054630D03046BA
:1002E00001F0C6F800282BD03046002102F05EF85D
:1002F00030B346F650533046C0F600030193012355
:1003000000930023089301F0BFFA2478CDE904019B
:10031000CDE90201BCB10020002102460B4601F0EC
:1003200031FC022CCDE9060111D102F091F8212314
:100330000360089B8BB9DDE9060101F039FD054634
:1003400028460AB070BD00220023CDE90623684686
:1003500001F026F80028ECD1E7E702F079F8089BD5
:100360000360E8E70000000000000000000000005B
:100370002DE9F04720F00045B5F17E5F04460646C2
:1003800000F0FD8000F3D580B5F17C5F10DAB5F1A7
:10039000485F80F20A814FF2CA21C7F2491101F089
:1003A0005DFD4FF07E5102F01FF8002840F0C8803C
:1003B000204601F005F801464FF07E5001F04CFD5B
:1003C0004FF07C5101F054FE4EF60871C3F6110156
:1003D000044601F04DFE47F60471C3F64F2101F0CB
:1003E0003DFD214601F044FE41F24611C3F6245181
:1003F00001F032FD214601F03BFE40F6A821C3F694
:100400004E6101F02BFD214601F032FE4BF29001CE
:10041000C3F6A66101F020FD214601F029FE4AF64F
:10042000AB21C3F62A6101F019FD214601F020FE3F
:100430004CF22E61C3F69D518146204601F018FE14
:1004400043F26131C3F6307101F006FD214601F03F
:100450000FFE45F22D71C4F2010101F0FFFC2146AF
:1004600001F006FE4DF23911C4F2190101F0F4FC5D
:10047000214601F0FDFD4FF07E5101F0EFFC80467A
:10048000204600F0B5FA49F69913C3F679739D42F8
:10049000074658DC014620F47E6501F0DFFC41464A
:1004A00025F01F058246484601F096FE014650465B
:1004B00001F0DEFD29468046284601F0D9FD0146BF
:1004C000204601F0C9FC29460446384601F0C6FC26
:1004D0000146204601F080FE014601F0BFFC0146C6
:1004E0004BF62E50CBF23B3001F0B6FC01464046B5
:1004F00001F0B2FC29460446284601F0AFFC014653
:1005000040F6DB70C3F6497001F0A6FC01462046B8
:1005100001F0A2FC014640F6DB70C3F6497001F021
:100520009BFC002ED4BF00F1004404462046BDE8E9
:10053000F087014601F090FC014601F04DFE0446B3
:100540002046BDE8F0874146484601F045FE014699
:10055000384601F08DFD394601F080FC014601F07E
:100560007DFC4BF62E51C3F23B3101F077FC014686
:1005700040F6DB70C3F6C97001F06EFCD1E740F6BF
:10058000DB71C3F6C97101F073FD4BF62E51CBF24E
:100590003B310546204601F06BFD0146284601F03F
:1005A0005DFC04462046BDE8F087014601F060FD91
:1005B0004EF60871C3F61101054601F059FD47F6E4
:1005C0000471C3F64F2101F049FC294601F050FDAA
:1005D00041F24611C3F6245101F03EFC294601F0D8
:1005E00047FD40F6A821C3F64E6101F037FC2946CD
:1005F00001F03EFD4BF29001C3F6A66101F02CFC28
:10060000294601F035FD4AF6AB21C3F62A6101F017
:1006100025FC294601F02CFD4CF22E61C3F69D51BC
:100620000646284601F024FD43F26131C3F63071DD
:1006300001F012FC294601F01BFD45F22D71C4F2B8
:10064000010101F00BFC294601F012FD4DF23911B8
:10065000C4F2190101F000FC294601F009FD4FF038
:100660007E5101F0FBFB0146304601F0B5FD01462D
:10067000204601F0FDFC0146204601F0EFFB044658
:100680002046BDE8F08700BF000000000000000029
:1006900040F6D8732DE9F04FC3F6497320F00046B9
:1006A00087B09E4205460C4640F38E804CF6E333FD
:1006B000C4F216039E4226DC002840F34E814FF41C
:1006C000786126F00F06C3F6C97101F0C5FB4FF43F
:1006D0007D63C3F6C9739E42054600F0848044F2F0
:1006E00043410127C3F2357101F0B6FB014620609A
:1006F000284601F0B1FB44F24341C3F2357101F0E9
:10070000ABFB606064E04FF47863C4F249339E420F
:1007100040F38480B6F1FF4F5EDA4FEAE659A9F163
:1007200086094FEAC953F61A304601F069FE01F016
:1007300049FC034601463046039301F08DFB4FF020
:10074000874101F095FC064601F05AFE01F03AFCA3
:10075000014607463046049701F07EFB4FF0874183
:1007600001F086FC0021059001F016FE002800F043
:1007700018810DF10C0A0326384600210AF10408FD
:10078000013E01F009FE40B158F8047D0021013E10
:10079000384601F001FE0028F6D13346914E50460E
:1007A00021464A4601960226009600F059FA002D8D
:1007B00007460DDA22684742636802F10042226070
:1007C00003F10043636003E00027002308604B60EF
:1007D000384607B0BDE8F08F0146002701F03CFB2A
:1007E00060602060F4E74FF488410127C3F235715F
:1007F00001F032FB4AF20831C2F68561054601F08C
:100800002BFB01462060284601F026FB4AF2083106
:10081000C2F6856101F020FB6060D9E700F0D0FDF1
:100820004FF68411C3F62271804601F021FC4FF08F
:100830007C5101F013FB01F0E3FD074601F0C2FB20
:100840004FF47861C3F6C971824601F011FC01468C
:10085000404601F001FB44F24341C3F2357180464A
:10086000504601F005FC1F2F81461CDC46F2A023F8
:10087000791EC0F6000326F0FF0253F821309A4299
:1008800011D04946404601F0E7FA01462060404653
:1008900001F0E2FA494601F0DFFA002D606097DAD4
:1008A00022687F4288E74946404601F0D5FAF615AE
:1008B000C0F3C7530146F31A2060082BE7DD4FF45D
:1008C00088415046C3F2357101F0D2FB8146404663
:1008D000494601F0C1FA83464046594601F0BCFA48
:1008E000494601F0B9FA4AF20831C2F685618046FC
:1008F000504601F0BDFB414601F0AEFA8146584634
:10090000494601F0A9FAC0F3C7530146F61A206020
:10091000192ED8BFD846BADD4FF423415046C2F64F
:10092000856101F0A5FB06465846314601F094FA70
:1009300080465846414601F08FFA314601F08CFA64
:1009400043F23211C2F28D410646504601F090FB4F
:10095000314601F081FA814693E74FF4786126F041
:100960000F06C3F6C97101F079FA4FF47D63C3F63F
:10097000C9739E42054618D044F243414FF0FF37F9
:10098000C3F2357101F06AFA01462060284601F091
:1009900063FA44F24341C3F2357101F05FFA6060DB
:1009A00016E703260DF10C0AF7E64FF488414FF0E5
:1009B000FF37C3F2357101F051FA4AF20831C2F63D
:1009C0008561054601F04AFA01462060284601F09B
:1009D00043FA4AF20831C2F6856101F03FFA6060DD
:1009E000F6E600BF206300080000000000000000E1
:1009F00020F000420346B2F1FF4F70B504463AD2F0
:100A0000002A36D0002840DBC115B2F5000F09D20C
:100A100010F4000241D15B00013213F4000FFAD050
:100A20000131891A23F07F43A1F17F0223F40003EF
:100A300012F0010F43F4000318BF5B0000265410AE
:100A400019215B0035464FF08072A8189842DEBF2E
:100A5000C0EB03038518B61852085B000139F4D1C6
:100A600013B106F001039E19E40504F17C5404EB74
:100A70006604204670BD014601F0FAFA01462046A0
:100A800001F0ECF90446204670BD014601F0E4F99E
:100A9000014601F0A1FB0446EBE70022C0E700BFDE
:100AA0002DE9F84320F00046B6F1485F05460F46B1
:100AB0005BDA01F0A5FC002800F0CA802946284630
:100AC00001F0D6FA4DF24E71CAF64751044601F0D4
:100AD000CFFA47F2F641C3F20F1101F0BFF92146F8
:100AE00001F0C6FA4FF27C21C3F2934101F0B4F950
:100AF000214601F0BDFA40F60151C3F2D07101F078
:100B0000ADF9214601F0B4FA40F66131C3F6B621E1
:100B100001F0A2F9214601F0ABFA4AF6AB21C3F687
:100B20002A5101F09BF9214601F0A2FA80462046A5
:100B30004FF07C5101F09CFA41460646204601F0F8
:100B400097FA39460446284601F092FA01462046B3
:100B500001F082F90146304601F07EF901464FF07E
:100B60007E5001F079F9BDE8F883014601F080FA82
:100B70004DF24E71CAF64751044601F079FA47F238
:100B8000F641C3F20F1101F069F9214601F070FA44
:100B90004FF27C21C3F2934101F05EF9214601F04E
:100BA00067FA40F60151C3F2D07101F057F92146BE
:100BB00001F05EFA40F66131C3F6B62101F04CF95E
:100BC000214601F055FA4AF6AB21C3F62A5101F04D
:100BD00045F9214601F04CFA49F69913C3F6996399
:100BE0009E428046A3DD0023C3F648739E4227DC65
:100BF00006F17F464FF07E50314601F02DF98146D7
:100C000020464FF07C5101F033FA314601F024F9CF
:100C100041460646204601F02BFA3946044628464E
:100C200001F026FA0146204601F016F90146304649
:100C300001F012F90146484601F00EF9BDE8F883CB
:100C40004FF000090026C3F63879C3F69066D7E75F
:100C50004FF07E50BDE8F883000000000000000067
:100C60002DE9F04FDDB046F240651C460791013B8F
:100C70006699C0F600050193D31E48BF131D03906B
:100C800055F82150DB1023EAE3730893DB43069504
:100C9000069902EBC303019A049311EB02081BD4DB
:100CA000089B33AF67999D1AA84401EB850609E0BC
:100CB0003068043601F086F9454505F1010547F82D
:100CC000040F09D0002DF3DA00200436454547F81B
:100CD000040F05F10105F5D1069A002AC0F2CC8275
:100CE000069A0CA9A1460DF12C0A059101EB820B85
:100CF000019B002BC0F25F8134A9DDF80C8001EB71
:100D000089070026002557F8041D013558F8040B03
:100D100001F0AEF90146304601F0A0F8A5420646C2
:100D2000F1D14AF8046FDA4509F10109E0D1069AD8
:100D300048A9531E924601EB82015CAA9B000A91CE
:100D4000D21809930B92059BBAF1000F53F82A5061
:100D500022DD48A903EB8A060F1F99464FF06E511A
:100D6000284601F085F901F04BFB01F02BF94FF01B
:100D70008741804601F07CF90146284601F06CF875
:100D800001F03EFB414647F8040F56F8040D01F010
:100D900065F84E450546E1D10499284600F0A8FBC8
:100DA0004FF07851054601F063F900F011FB4FF068
:100DB000824101F05DF90146284601F04DF80546F3
:100DC00001F01EFB074601F0FDF80146284601F040
:100DD00043F8049A002A064640F3D0800AF1FF3314
:100DE000C2F10801C2F107055CAA02EB830353F8C4
:100DF000502C52FA01F03F1810FA01F1521A43F840
:100E0000502C42FA05FBBBF1000F32DD0137BAF17D
:100E1000000F40F32F8248AB002503EB8A0107E067
:100E200022B10125C2F5807243F8042C8B420AD00E
:100E300053F8042B002DF3D001258B42C2F1FF02A1
:100E400043F8042CF4D1049A002A0FDD012A00F0A3
:100E50009E80022A0AD10AF1FF335CAA02EB8303C7
:100E600053F8502C02F03F0243F8502CBBF1020F14
:100E700071D03046002101F08FFA002800F0A080E8
:100E8000069B9A450DDD48A90A9801EB8A030022CA
:100E900053F8041D834242EA0102F9D1002A40F0CE
:100EA000C6800B9A52F8503C002B40F0E181099B20
:100EB00048A9CA18012352F8041D01330029FAD0A9
:100EC00053440AF101099945029338DC089A0AEB68
:100ED00004036799013B0AEB020B059A02EB8A0AAD
:100EE00001EB8B0B34A901EB830100915BF8040F3C
:100EF00001F068F8019B009A002B42F8040F009261
:100F000020DB09EB040734A9DDF80C80002600255E
:100F100001EB870757F8041D013558F8040B01F061
:100F2000A7F80146304600F099FFA5420646F1D1E8
:100F3000029A09F101094AF8046F9145D6DDDDF8FE
:100F400008A000E7029A09F1010900264AF8046F97
:100F50009145CBDDF3E731464FF07E5000F07CFF4A
:100F60000646002D85D004994FF07E5000F0C0FA5F
:100F70000146304600F070FF06467AE713D15CA9BF
:100F800001EB8A0353F8543C4FEA232B3BE70AF169
:100F9000FF335CA901EB830353F8502C02F07F026E
:100FA00043F8502C62E74FF07C5101F013FA20B95E
:100FB0004FF0000B5DE70026B3E64FF0020B25E78C
:100FC0000097002834D1049A3046514200F090FA3C
:100FD0004FF08741044601F0FDF9002800F04F81F1
:100FE0004FF06E51204601F043F85CAB03EB8A05ED
:100FF00001F006FA00F0E6FF0AF1010A5CAA4FF0E0
:10100000874102EB8A07064601F032F80146204686
:1010100000F022FF049B0833049301F0F1F945F836
:10102000500C304601F0ECF947F8500C17E00097EF
:10103000049B0AF1FF3A5CAC083B04934FEA8A0335
:10104000E21852F8502C52B948A9049ACB1853F818
:10105000041D0AF1FF3A083A0029F8D004924FF033
:101060007E50049900F044FABAF1000F05464CDBBB
:101070000AF10106059A48AFB600BC19961954F852
:10108000040D00F09FFF294600F0F2FF4FF06E5173
:1010900046F8040D284600F0EBFFBC420546EED1B1
:1010A0000AF1FF39CDF804A0DDF818A04FF00008D0
:1010B000BAF1000FC0F2D880B8F1000FC0F2D480AE
:1010C00005990025744F002401EB890601E0444591
:1010D0000DDC56F8041F013457F8040F00F0C8FF68
:1010E0000146284600F0BAFEA2450546EFDA5CACA0
:1010F00009F1FF3904EB880319F1020F08F1010827
:1011000043F8F05CD4D1DDF804A0669A032A13D822
:10111000DFE802F0936565180020BBF1000F57D09F
:10112000079900F10040219B209A03F10043886059
:1011300002F100424B600A60009A02F007005DB0C5
:10114000BDE8F08FBAF1000FE6DD20AD05EB8A04B3
:1011500054F8048C54F804794046394600F07EFE79
:1011600006464046314600F077FE0146384600F01C
:1011700075FEAC4226606060EAD1BAF1010FCBDDAA
:101180000AF1FF3405EB840454F804894046A7684B
:10119000394600F063FE06464046314600F05CFEEC
:1011A0000146384600F05AFEAC426660A060EBD1C2
:1011B0000AF1010A04F10805002004EB8A0454F83E
:1011C000041D00F04BFEAC42F9D1BBF1000FA7D1DA
:1011D000209A219B079CA06022606360ACE7BAF173
:1011E000000F57DB0AF1010420AD002005EB840459
:1011F00054F8041D00F032FEAC42F9D1BBF1000FEF
:1012000034D000F1004307990B600146209800F0AC
:1012100023FEBAF1000F08DD20AC04EB8A0A54F873
:10122000041F00F01BFE5445F9D1BBF1000F01D0A3
:1012300000F10040079A50607EE7BAF1000F27DB0B
:101240000AF1010420AD002005EB840454F8041DCC
:1012500000F004FEAC42F9D1BBF1000F01D000F167
:101260000040079C206067E7002540E70346CAE787
:10127000012325E60025E6E50CAB059357E520465E
:101280005CA901EB8A0401F0BBF844F8500CE6E6D7
:101290000020E1E70020B1E74866000800000000F8
:1012A0002DE9F84320F00043B3F1485F04460D46B2
:1012B000904603DA01F0A4F8002859D021462046D0
:1012C00000F0D6FE2146064600F0D2FE4CF6D311C1
:1012D000C2F62E710746304600F0CAFE42F634715F
:1012E000C3F2D72100F0B8FD314600F0C1FE4EF642
:1012F0001B71C3F2386100F0B1FD314600F0B8FE59
:1013000040F60151C3F6501100F0A6FD314600F041
:10131000AFFE48F68901C3F6084100F09FFD814603
:10132000B8F1000F27D028464FF07C5100F0A0FE06
:1013300049468046384600F09BFE0146404600F094
:101340008BFD314600F094FE294600F085FD4AF6FB
:10135000AB21C3F62A610546384600F089FE0146F6
:10136000284600F07BFD0146204600F075FD04464E
:101370002046BDE8F8830146304600F079FE4AF683
:10138000AB21C3F62A6100F067FD394600F070FE1C
:101390000146204600F062FD04462046BDE8F88381
:1013A0000020704700000000000000000000000066
:1013B00000210020C7F6F871704700BF0000000050
:1013C00020F00040704700BF000000000000000057
:1013D0002DE9F04120F0004601460446F50D7F3D21
:1013E000162D1ADC002D804620DB4FF6FF77C0F269
:1013F0007F072F4107420DD04FF2CA21C7F2491192
:1014000000F02CFD002100F0EFFFE8B1002C1FDB05
:1014100028EA07010846BDE8F081B6F1FF4FF9D38D
:1014200000F01CFD01460846BDE8F0814FF2CA21DC
:10143000C7F2491100F012FD002100F0D5FF18B1EC
:10144000002C0EDB0021E5E721460846BDE8F081CF
:101450004FF4000353FA05F504EB050828EA0701E9
:10146000D8E70021CBF68071002E08BF2146D1E7D6
:10147000D0F1010338BF0023B0F1004F08BF43F0A3
:101480000103002B2ED1A0F5000300F1FF42B3F1C0
:10149000FE4F2CBF00230123B2F1FE4F38BF43F0B3
:1014A0000103EBB94FF6FE73411EC0F27F0300F15A
:1014B0000042013A99428CBF002101219A428CBF1F
:1014C0000B4641F001037BB910F5000F14BF002358
:1014D0000123B0F1FF4F14BF184643F001007047DD
:1014E000042070470220704703207047000000006E
:1014F00010B50C4630F000410346024625D0B1F14C
:10150000FF4F24D2B1F5000F27D3C90D0919FE29C9
:1015100033DC0029C4BF22F0FF4242EAC15314DC8D
:1015200011F1160F38DA4CF25032944225DC44F2B5
:1015300060201946C0F6A25000F03AF844F260214B
:10154000C0F6A25100F094FD0346184610BD0146B6
:1015500000F084FC0346184610BD4FF0984100F09F
:1015600087FD43F6B042CFF6FF7294420346E5DBB7
:10157000C0F3C75102461939C8E74FF2CA201946CD
:10158000C7F2491000F014F84FF2CA21C7F249110E
:1015900000F06EFD0346D8E701F1190022F0FF428A
:1015A0004FF04C5142EAC05000F062FD0346CCE7D8
:1015B00001F0004120F0004041EA0000704700BF08
:1015C00081F0004102E000BF83F0004330B54FEAF4
:1015D00041044FEA430594EA050F08BF90EA020F61
:1015E0001FBF54EA000C55EA020C7FEA645C7FEAF4
:1015F000655C00F0E2804FEA5454D4EB5555B8BF17
:101600006D420CDD2C4480EA020281EA030382EA87
:10161000000083EA010180EA020281EA0303362D19
:1016200088BF30BD11F0004F4FEA01314FF4801CEC
:101630004CEA113102D0404261EB410113F0004FFE
:101640004FEA03334CEA133302D0524263EB4303B5
:1016500094EA050F00F0A780A4F10104D5F1200E53
:101660000DDB02FA0EFC22FA05F2801841F10001AE
:1016700003FA0EF2801843FA05F359410EE0A5F182
:1016800020050EF1200E012A03FA0EFC28BF4CF0B3
:10169000020C43FA05F3C01851EBE37101F0004569
:1016A00007D54FF0000EDCF1000C7EEB00006EEB76
:1016B0000101B1F5801F1BD3B1F5001F0CD3490800
:1016C0005FEA30004FEA3C0C04F101044FEA445257
:1016D00012F5800F80F09A80BCF1004F08BF5FEADE
:1016E000500C50F1000041EB045141EA050130BDBE
:1016F0005FEA4C0C404141EB010111F4801FA4F161
:101700000104E9D191F0000F04BF01460020B1FAB5
:1017100081F308BF2033A3F10B03B3F120020CDAED
:101720000C3208DD02F1140CC2F10C0201FA0CF0CB
:1017300021FA02F10CE002F11402D8BFC2F1200C30
:1017400001FA02F120FA0CFCDCBF41EA0C019040E6
:10175000E41AA2BF01EB0451294330BD6FEA04042F
:101760001F3C1CDA0C340EDC04F11404C4F120021A
:1017700020FA04F001FA02F340EA030021FA04F32C
:1017800045EA030130BDC4F10C04C4F1200220FA83
:1017900002F001FA04F340EA0300294630BD21FAC1
:1017A00004F0294630BD94F0000F83F4801306BF87
:1017B00081F480110134013D4EE77FEA645C18BF7B
:1017C0007FEA655C29D094EA050F08BF90EA020F12
:1017D00005D054EA000C04BF1946104630BD91EA0A
:1017E000030F1EBF0021002030BD5FEA545C05D10D
:1017F0004000494128BF41F0004130BD14F580044C
:101800003CBF01F5801130BD01F0004545F0FE41BF
:1018100041F470014FF0000030BD7FEA645C1ABFF4
:10182000194610467FEA655C1CBF0B46024650EA2B
:10183000013406BF52EA033591EA030F41F4002157
:1018400030BD00BF90F0000F04BF0021704730B5DD
:101850004FF4806404F132044FF000054FF00001B2
:1018600050E700BF90F0000F04BF0021704730B573
:101870004FF4806404F1320410F0004548BF404248
:101880004FF000013EE700BF42004FEAE2014FEA9D
:1018900031014FEA02701FBF12F07F4393F07F4F78
:1018A00081F06051704792F0000F14BF93F07F4FAA
:1018B000704730B54FF4607401F0004521F00041ED
:1018C00020E700BF50EA010208BF704730B54FF073
:1018D00000050AE050EA010208BF704730B511F078
:1018E000004502D5404261EB41014FF4806404F1B0
:1018F00032045FEA915C3FF4DCAE4FF003025FEA32
:10190000DC0C18BF03325FEADC0C18BF033202EBB9
:10191000DC02C2F1200300FA03FC20FA02F001FA13
:1019200003FE40EA0E0021FA02F11444C1E600BFB2
:1019300070B54FF0FF0C4CF4E06C1CEA11541DBF65
:101940001CEA135594EA0C0F95EA0C0F00F0DEF830
:101950002C4481EA030621EA4C5123EA4C5350EA15
:10196000013518BF52EA033541F4801143F4801366
:1019700038D0A0FB02CE4FF00005E1FB02E506F0F7
:101980000042E0FB03E54FF00006E1FB03569CF04C
:10199000000F18BF4EF0010EA4F1FF04B6F5007F52
:1019A00064F5407404D25FEA4E0E6D4146EB0606C4
:1019B00042EAC62141EA55514FEAC52040EA5E504D
:1019C0004FEACE2EB4F1FD0C88BFBCF5E06F1ED8F7
:1019D000BEF1004F08BF5FEA500E50F1000041EB2E
:1019E000045170BD06F0004646EA010140EA0200DB
:1019F00081EA0301B4EB5C04C2BFD4EB0C0541EAFD
:101A0000045170BD41F480114FF0000E013C00F311
:101A1000AB8014F1360FDEBF002001F0004170BD35
:101A2000C4F10004203C35DA0C341BDC04F114044E
:101A3000C4F1200500FA05F320FA04F001FA05F2DA
:101A400040EA020001F0004221F0004110EBD370A7
:101A500021FA04F642EB06015EEA430E08BF20EAD3
:101A6000D37070BDC4F10C04C4F1200500FA04F376
:101A700020FA05F001FA04F240EA020001F0004108
:101A800010EBD37041F100015EEA430E08BF20EA7B
:101A9000D37070BDC4F1200500FA05F24EEA020EC3
:101AA00020FA04F301FA05F243EA020321FA04F0F2
:101AB00001F0004121FA04F220EA020000EBD370A9
:101AC0005EEA430E08BF20EAD37070BD94F0000FA9
:101AD0000FD101F00046400041EB010111F4801FDD
:101AE00008BF013CF7D041EA060195F0000F18BF8E
:101AF000704703F00046520043EB030313F4801FCA
:101B000008BF013DF7D043EA0603704794EA0C0F83
:101B10000CEA135518BF95EA0C0F0CD050EA410699
:101B200018BF52EA4306D1D181EA030101F0004116
:101B30004FF0000070BD50EA410606BF104619463E
:101B400052EA430619D094EA0C0F02D150EA01364A
:101B500013D195EA0C0F05D152EA03361CBF10468B
:101B600019460AD181EA030101F0004141F0FE412A
:101B700041F470014FF0000070BD41F0FE4141F4AE
:101B8000780170BD70B54FF0FF0C4CF4E06C1CEAAE
:101B900011541DBF1CEA135594EA0C0F95EA0C0F63
:101BA00000F0A7F8A4EB050481EA030E52EA03351E
:101BB0004FEA013100F088804FEA03334FF080553F
:101BC00045EA131343EA12634FEA022245EA11156C
:101BD00045EA10654FEA00260EF000419D4208BF1D
:101BE000964244F1FD0404F5407402D25B084FEACA
:101BF0003202B61A65EB03055B084FEA32024FF476
:101C000080104FF4002CB6EB020E75EB030E22BFD2
:101C1000B61A754640EA0C005B084FEA3202B6EB92
:101C2000020E75EB030E22BFB61A754640EA5C0041
:101C30005B084FEA3202B6EB020E75EB030E22BFD1
:101C4000B61A754640EA9C005B084FEA3202B6EBD2
:101C5000020E75EB030E22BFB61A754640EADC0091
:101C600055EA060E18D04FEA051545EA16754FEAF3
:101C700006164FEAC30343EA52734FEAC2025FEA11
:101C80001C1CC0D111F4801F0BD141EA00014FF0A0
:101C900000004FF0004CB6E711F4801F04BF014371
:101CA0000020B4F1FD0C88BFBCF5E06F3FF6AFAE8D
:101CB000B5EB030C04BFB6EB020C5FEA500C50F11D
:101CC000000041EB045170BD0EF0004E4EEA1131A0
:101CD00014EB5C04C2BFD4EB0C0541EA045170BDA7
:101CE00041F480114FF0000E013C90E645EA060EEB
:101CF0008DE60CEA135594EA0C0F08BF95EA0C0F19
:101D00003FF43BAF94EA0C0F0AD150EA01347FF460
:101D100034AF95EA0C0F7FF425AF104619462CE737
:101D200095EA0C0F06D152EA03353FF4FDAE10469A
:101D3000194622E750EA410618BF52EA43067FF4EB
:101D4000C5AE50EA41047FF40DAF52EA43057FF47B
:101D5000EBAE12E7000000000000000000000000F1
:101D60004FEA410212F5001215D211D56FF47873C3
:101D7000B3EB625212D94FEAC12343F0004343EA66
:101D8000505311F0004F23FA02F018BF4042704741
:101D90004FF00000704750EA013005D111F00040CB
:101DA00008BF6FF0004070474FF00000704700BF61
:101DB0004FEA4102B2F1E04324BFB3F5001CDCF16D
:101DC000FE5C0DD901F0004C4FEAC0024CEA5070A5
:101DD000B2F1004F40EB830008BF20F001007047D4
:101DE00011F0804F21D113F13872BCBF01F00040D7
:101DF000704741F480114FEA5252C2F11802C2F109
:101E0000200C10FA0CF320FA02F018BF40F0010089
:101E10004FEAC1234FEAD32303FA0CFC40EA0C003B
:101E200023FA02F34FEA4303CCE77FEA625307D178
:101E300050EA01331EBF4FF0FE4040F440007047AF
:101E400001F0004040F0FE4040F40000704700BF49
:101E500080F0004002E000BF81F0004142001FBF5F
:101E60005FEA410392EA030F7FEA226C7FEA236C68
:101E70006AD04FEA1262D2EB1363C1BFD21841405D
:101E800048404140B8BF5B42192B88BF704710F0F3
:101E9000004F40F4000020F07F4018BF404211F096
:101EA000004F41F4000121F07F4118BF494292EAFE
:101EB000030F3FD0A2F1010241FA03FC10EB0C002A
:101EC000C3F1200301FA03F100F0004302D54942B7
:101ED00060EB4000B0F5000F13D3B0F1807F06D364
:101EE00040084FEA310102F10102FE2A51D2B1F15C
:101EF000004F40EBC25008BF20F0010040EA030051
:101F00007047490040EB000010F4000FA2F10102FD
:101F1000EDD1B0FA80FCACF1080CB2EB0C0200FA87
:101F20000CF0AABF00EBC25052421843BCBFD040D5
:101F30001843704792F0000F81F4000106BF80F44F
:101F400000000132013BB5E74FEA41037FEA226C12
:101F500018BF7FEA236C21D092EA030F04D092F0DD
:101F6000000F08BF0846704790EA010F1CBF002011
:101F7000704712F07F4F04D1400028BF40F000406E
:101F8000704712F100723CBF00F50000704700F08E
:101F9000004343F0FE4040F4000070477FEA2262B5
:101FA00016BF08467FEA23630146420206BF5FEA86
:101FB000412390EA010F40F4800070474FF0000386
:101FC00004E000BF10F0004348BF40425FEA000C4D
:101FD00008BF704743F0964301464FF000001CE0F5
:101FE00050EA010208BF70474FF000030AE000BF4B
:101FF00050EA010208BF704711F0004302D5404289
:1020000061EB41015FEA010C02BF844601460020FA
:1020100043F0B64308BFA3F18053A3F50003BCFA15
:102020008CF2083AA3EBC25310DB01FA02FC6344C2
:1020300000FA02FCC2F12002BCF1004F20FA02F2C9
:1020400043EB020008BF20F00100704702F12002BC
:1020500001FA02FCC2F1200250EA4C0021FA02F21D
:1020600043EB020008BF20EADC707047000000006C
:102070004FF0FF0C1CEAD0521EBF1CEAD15392EA6B
:102080000C0F93EA0C0F6FD01A4480EA010C400247
:1020900018BF5FEA41211ED04FF0006343EA5010A1
:1020A00043EA5111A0FB01310CF00040B1F5000FE3
:1020B0003EBF490041EAD3715B0040EA010062F192
:1020C0007F02FD2A1DD8B3F1004F40EBC25008BF7C
:1020D00020F00100704790F0000F0CF0004C08BF9A
:1020E00049024CEA502040EA51207F3AC2BFD2F167
:1020F000FF0340EAC250704740F400004FF0000375
:10210000013A5DDC12F1190FDCBF00F000407047AE
:10211000C2F10002410021FA02F1C2F1200200FAEC
:1021200002FC5FEA310040F1000053EA4C0308BFB3
:1021300020EADC70704792F0000F00F0004C02BF04
:10214000400010F4000F013AF9D040EA0C0093F07F
:10215000000F01F0004C02BF490011F4000F013BD9
:10216000F9D041EA0C018FE70CEAD15392EA0C0F47
:1021700018BF93EA0C0F0AD030F0004C18BF31F0B2
:10218000004CD8D180EA010000F00040704790F088
:10219000000F17BF90F0004F084691F0000F91F02C
:1021A000004F14D092EA0C0F01D142020FD193EAF2
:1021B0000C0F03D14B0218BF084608D180EA01007A
:1021C00000F0004040F0FE4040F40000704740F056
:1021D000FE4040F4400070474FF0FF0C1CEAD05224
:1021E0001EBF1CEAD15392EA0C0F93EA0C0F69D080
:1021F000A2EB030280EA010C49024FEA402037D0EB
:102200004FF0805343EA111143EA10130CF00040E1
:102210008B4238BF5B0042F17D024FF4000C8B42D1
:1022200024BF5B1A40EA0C00B3EB510F24BFA3EBB1
:10223000510340EA5C00B3EB910F24BFA3EB910381
:1022400040EA9C00B3EBD10F24BFA3EBD10340EADB
:10225000DC001B0118BF5FEA1C1CE0D1FD2A3FF621
:1022600050AF8B4240EBC25008BF20F001007047D6
:102270000CF0004C4CEA50207F32C2BFD2F1FF0379
:1022800040EAC250704740F400004FF00003013AAA
:1022900037E792F0000F00F0004C02BF400010F44E
:1022A000000F013AF9D040EA0C0093F0000F01F062
:1022B000004C02BF490011F4000F013BF9D041EA84
:1022C0000C0195E70CEAD15392EA0C0F08D14202B7
:1022D0007FF47DAF93EA0C0F7FF470AF084676E78A
:1022E00093EA0C0F04D14B023FF44CAF08466EE763
:1022F00030F0004C18BF31F0004CCAD130F0004231
:102300007FF45CAF31F000437FF43CAF5FE700BF88
:102310004FF0FF3C06E000BF4FF0010C02E000BFB1
:102320004FF0010C4DF804CD4FEA40024FEA410353
:102330007FEA226C18BF7FEA236C11D001B052EA09
:10234000530C18BF90EA010F58BFB2EB030088BFCF
:10235000C81738BF6FEAE17018BF40F0010070473E
:102360007FEA226C02D15FEA402C05D17FEA236C20
:10237000E4D15FEA412CE1D05DF8040B704700BF67
:10238000844608466146FFE70FB5FFF7C9FF0028FE
:1023900048BF10F1000F0FBD4DF808EDFFF7F4FF37
:1023A0000CBF012000205DF808FB00BF4DF808EDD0
:1023B000FFF7EAFF34BF012000205DF808FB00BFF3
:1023C0004DF808EDFFF7E0FF94BF012000205DF815
:1023D00008FB00BF4DF808EDFFF7D2FF94BF0120C6
:1023E00000205DF808FB00BF4DF808EDFFF7C8FFBF
:1023F00034BF012000205DF808FB00BF0000000092
:102400004FEA4002B2F1FE4F0FD34FF09E03B3EB01
:1024100012620DD94FEA002343F0004310F0004F41
:1024200023FA02F018BF404270474FF00000704797
:1024300012F1610F01D1420205D110F0004008BF36
:102440006FF0004070474FF0000070470000000040
:102450004AF20403C2F2000318687047000000004B
:10246000032AC9B270B408D82AB10346121803F877
:10247000011B9342FBD170BC70478218044601E0F7
:1024800004F8011B14F0030FFAD14FF0013303FBE2
:1024900001F31FE044F8403C44F83C3C44F8383C2D
:1024A00044F8343C44F8303C44F82C3C44F8283C94
:1024B00044F8243C44F8203C44F81C3C44F8183CC4
:1024C00044F8143C44F8103C44F80C3C44F8083CF4
:1024D00044F8043C161B254640343F2EDADC2C46DB
:1024E00007E044F8103C44F80C3C44F8083C44F83D
:1024F000043C161B254610340F2EF2DC01E045F893
:10250000043B541B032CFADC01E005F8011B954247
:10251000FBD3B0E700000000000000000000000056
:1025200001E040F8042B8842FBD370470000000014
:1025300070470000000000000000000000000000E4
:10254000FEE70000000000000000000000000000A6
:1025500072B6254B83F30988244B4FF040425A60F2
:10256000234AD2F8881041F47001C2F88810002282
:10257000E1EE102ADA60062383F31488BFF36F8F2D
:1025800002F076FF1B481C494FF05532FFF7C8FF99
:102590004FF0553219481449FFF7C2FF184A194B3A
:1025A00003E052F8041B43F8041B17498B42F8D38D
:1025B00016481749174C0022FFF7B2FFFFF7B8FF84
:1025C00002E054F8043B9847134B9C42F9D303F0C4
:1025D000F7F8124C02E054F8043B9847104B9C4229
:1025E000F9D3FFF7ADBF00BF00A0002030EF00E03F
:1025F00000ED00E00000002000200020002000206E
:10260000686D000800A0002030A1002030A100204B
:1026100078D000208801000888010008880100089F
:102620008801000800000000000000000000000019
:10263000FEE70000000000000000000000000000B5
:1026400072B6FEE70000000000000000000000007D
:1026500000F0DEFA00DF00000000000000000000D3
:10266000EFF30982064BD2F8CC10596099686831B3
:102670009960683282F30988002383F311887047D8
:1026800030EF00E00000000000000000000000004B
:102690000A4B002210B59A60094A0720DA6010211F
:1026A00000F0AEF80A204FF4007100F0A9F80B20FA
:1026B0008021BDE8104000F0A3B800BF00ED00E0AD
:1026C0000003FA0500000000000000000000000008
:1026D00010B5202383F31188194B5B6813F4006352
:1026E0002AD0EFF30981A1F1680383F309884FF041
:1026F0008072DA61134A906990F82340806834B19F
:1027000012689268824294BF0022012205E012689A
:102710009268824234BF0022012222B10A4A9A61A1
:10272000F1EE10FA01E0094A9A61094B5A684A66CB
:1027300042F001025A6010BD83F3118810BD00BF42
:1027400000ED00E0DCA2002051260008542600081D
:1027500030EF00E00000000000000000000000007A
:1027600010B5202383F3118800F0AAF8002383F327
:102770001188BDE81040FFF7ABBF0000000000006B
:102780002DE9F04F2DED108AC1F80CD0D0F80CD007
:10279000BDEC108ABDE8F08F0000000000000000D2
:1027A000002383F311882846A04700F0F1FA704710
:1027B00082080F4BC03270B500F0030453F822605A
:1027C000E400FF25A54026EA050511FA04F4254397
:1027D00043F822500121420900F01F0011FA00F0D5
:1027E00002F1600143F8210043F8220070BD00BFF0
:1027F00000E100E000000000000000000000000018
:102800008208094B063200F0030030B5C00053F8CF
:102810002250FF24844025EA040411FA00F0044306
:1028200043F8224030BD00BF00ED00E00000000092
:10283000024B034A9B699A61FEE700BFDCA20020BD
:10284000806600080000000000000000000000009A
:1028500007B5FFF71DFF00F0BBF800F069F800F0C6
:10286000E7FC00F035FD40210C4800F0E1F90C498F
:102870000C4B8861012280F82020C361002383F380
:10288000118862B608488969886100934FF4A47181
:10289000064B074800F00CFA0EBD00BF30A1002027
:1028A000DCA20020002000208566000831280008F6
:1028B00080A10020000000000000000000000000D7
:1028C00038B5144B9B6993F8232012B1013A83F871
:1028D00023205A6A104C01325A62E3680133E360E4
:1028E0002368A34214D09A68013A9A600BE00D68FD
:1028F000CA686860CB60056083F3118808699047F7
:10290000202383F31188216803488B68002BEED0C5
:1029100038BD00BFDCA20020CCA2002000000000D7
:10292000014B1860FFF78CBEC8A200200000000019
:10293000044B4FF0FF329A6001325B601B60DA603B
:10294000704700BFCCA20020000000000000000083
:10295000C2600B4A036130B51368154601E01B687D
:10296000091B9C688C42FAD35A680360AB424260F0
:1029700010605860816002D09A68511A996030BD29
:10298000CCA20020000000000000000000000000B9
:102990000368074A934203D0996882688A189A604C
:1029A0004268136003685A600023C360704700BF29
:1029B000CCA2002000000000000000000000000089
:1029C000024B186802681A6053607047DCA200204E
:1029D000034B00225B601B609A605B611B61704768
:1029E000DCA2002000000000000000000000000049
:1029F000002380F820308268054B1B68996891425B
:102A0000FBD25A680360426010605860704700BF94
:102A1000DCA2002000000000000000000000000018
:102A200008B5202383F3118890F82030032B0AD0B7
:102A300001D82BB110E0052B09D00D2B0CD106E0ED
:102A400083F3118808BD836A9A6801329A604368EB
:102A500002681A60026853604FF0FF338362FFF729
:102A6000C7FF002383F3118808BD000000000000A9
:102A700070B50D4DAC69142384F8233084F8200020
:102A8000FFF79EFF0123E26980F82030ADF1640377
:102A90009A42A86102D90548FFF742FFA86921467A
:102AA000BDE87040FFF76CBEDCA200209066000815
:102AB00030B5B1F1FF3F87B005460B4C0DD0A3698F
:102AC0000A4A01A8FFF744FF2846FFF7D1FF049BFD
:102AD0002BB101A8FFF75CFF01E0FFF7C9FFA36975
:102AE000986A07B030BD00BFDCA20020212A000890
:102AF00070B5114E8162B36981689A68914204464B
:102B000003D8BDE87040FFF773BF1846FFF770FFAA
:102B10000123C26984F82030ADF164039A4205466E
:102B2000B46102D90548FFF7FBFE20462946BDE8FF
:102B30007040FFF725BE00BFDCA2002090660008B1
:102B400070B50E4DAC69FFF73BFF012380F82030D4
:102B50001333A86184F823302046FFF749FFE26968
:102B6000ADF164039A4202D90548FFF7D9FEA8697E
:102B70002146BDE87040FFF703BE00BFDCA2002085
:102B80009066000800000000000000000000000047
:102B900070B5124DAC69FFF713FF012380F82030A8
:102BA000013B84F82030A368A8612E462D68AA68EE
:102BB0009A42FBD86B68E269636025601C60ADF1E6
:102BC00064039A426C6002D90548FFF7A9FEB06918
:102BD0002146BDE87040FFF7D3BD00BFDCA2002056
:102BE00090660008000000000000000000000000E7
:102BF000044B1A689B6992689B689A4201D9FFF757
:102C0000C7BF7047DCA200200000000000000000E9
:102C1000044B9B6993F823300BB9FFF791BFFFF783
:102C2000B7BF00BFDCA200200000000000000000D1
:102C3000022280F82020023A10B5816080F821201D
:102C40001424416402640121C263426282610A4A1F
:102C500080F8234080F8221051690261416150617F
:102C600000F12C02C26200F130024263026300F103
:102C70004C020861C26110BDDCA20020000000000F
:102C800001E000F8012B8842FBD3704700000000F0
:102C90006439411810B5C1600B64029B4B64034B4F
:102CA0000B661146BDE81040FFF7C2BFA127000820
:102CB0002DE9F34100F14C0804460D461746414604
:102CC000FF221E46FFF7DCFF404661195522FFF741
:102CD000D7FF202383F31188089B294600933A46A7
:102CE00033462046FFF7D4FF00210446FFF700FFDC
:102CF000002383F311882046BDE8FC81000000001A
:102D000008B50146202383F311880620FFF7D0FE83
:102D1000002383F3118808BD0000000000000000BC
:102D200008B5202383F31188054BD968411A02D0D6
:102D30000620FFF7BDFE002383F3118808BD00BF06
:102D4000CCA20020000000000000000000000000F5
:102D50000E4B10B59C69A06203E00368E362FFF7C5
:102D600047FE234653F82C0F9842F6D194F82130B1
:102D700013F0030F04D1636922691A612269536158
:102D80000E20BDE81040FFF773BE00BFDCA200209C
:102D9000202383F31188FFF7DBBF00000000000051
:102DA0004B68016043604860186070470000000095
:102DB0000346006802681A60536070470000000014
:102DC000406000608160704700000000000000006B
:102DD000826810B50C46511E00290346816010DA46
:102DE0001CB982604FF0FF3010BD074A9069194648
:102DF0008362FFF7D5FF03202146BDE81040FFF7AF
:102E000057BE002010BD00BFDCA200200000000063
:102E100083680133002B10B5836007DCFFF7C8FF20
:102E200000228262BDE81040FFF7E2BD10BD000045
:102E300000234060006083607047000000000000D5
:102E400008B5C36B90F8202041EA0303082AC36346
:102E500003D1826A134206D108BD092A07D1826ACA
:102E60001340934203D1FFF7C3FD0023836208BDE3
:102E700070B505460E46046807E0E3686068A1681F
:102E80003343E360FFF7DCFF2468AC42F5D170BD4B
:102E900010B5C1608160016001EB820104464160B0
:102EA0001C301146FFF78CFF04F110000021BDE833
:102EB0001040FFF785BF0000000000000000000088
:102EC00070B504460D461C301146FFF781FF0646DB
:102ED00078B9A368626843F8045B9342A36028BF93
:102EE000236804F1100028BFA360FFF791FFFFF7EC
:102EF0007FFE304670BD00000000000000000000B2
:102F000008B5202383F31188FFF7DAFF002383F34A
:102F1000118808BD00000000000000000000000053
:102F200008B5436A002B0FDD013B436283684268AA
:102F300043F8041B9342836024BF0368836010300E
:102F4000FFF766FF002008BD4FF0FF3008BD00000E
:102F500070B504460D4610301146FFF739FF06469E
:102F600080B9E36853F8042B2A606268E3609342F7
:102F700028BF236804F11C0028BFE360FFF748FF67
:102F8000FFF736FE304670BD000000000000000074
:102F900008B5202383F31188FFF7DAFF002383F3BA
:102FA000118808BD000000000000000000000000C3
:102FB0000346006802681A60536070470000000012
:102FC00051B1074B9B699862426818605A60436030
:102FD0000D201360FFF76CBD4FF0FF30704700BF4E
:102FE000DCA2002000000000000000000000000043
:102FF00010B5C361029B406000248A1800608460A1
:1030000041618161C1600261036210BD0000000086
:10301000C36810B54361836100230446836007E001
:103020002046FFF7C5FFFFF7E3FC6FF00103836263
:103030002368A342F4D110BD00000000000000008E
:1030400070B5202304460D4683F31188C3695BB134
:10305000984709E020462946FFF7B2FF002803DA27
:10306000334683F3118870BDA668002EF2D0A369A1
:103070002269013EA66013F8010B9342A36124BFAD
:10308000E368A361002383F3118870BD0000000092
:103090002DE9F047984604460D469146C76920231E
:1030A00083F3118800265FB12046B84708E0204628
:1030B0004146FFF785FF18B1534683F311881BE0A3
:1030C000D4F808A0BAF1000FF1D00AF1FF33A360E1
:1030D000A36913F8012BAA552269A361934224BF67
:1030E000E368A361002383F3118801364E4503D0C2
:1030F000203383F31188D6E73046BDE8F08700001F
:10310000C361009B41618161C160891840600060BA
:10311000826001610362704700000000000000004F
:10312000C368026910B543618361D31A04468360A2
:1031300007E02046FFF73CFFFFF75AFC6FF0010362
:1031400083622368A342F4D110BD00000000000098
:10315000F8B504460D461646202383F3118809E08E
:1031600020463146FFF72CFF002803DA3B4683F365
:103170001188F8BDA768002FF2D06369013FA760EE
:1031800003F8015B22696361934224BFE3686361D2
:10319000E3690BB120469847002383F31188184652
:1031A000F8BD00000000000000000000000000006A
:1031B0002DE9F047994604460D461746D0F81C8085
:1031C000202383F31188002608E020464946FFF7B4
:1031D000F7FE18B1534683F3118821E0D4F808A014
:1031E000BAF1000FF1D00AF1FF33A3602A786369C6
:1031F00003F8012B22696361934224BFE368636192
:10320000B8F1000F01D02046C047002383F3118896
:103210000136013F04D00135203383F31188DDE707
:103220003046BDE8F087000000000000000000000C
:10323000054A064B22F007021A60054A054B22F0A8
:1032400007021A60704700BF7FD00020FCA2002058
:1032500000C00120F8A200200000000000000000D3
:10326000064B0749C21D0968186822F00702091AAF
:10327000914226BF82181A6000207047FCA20020ED
:10328000F8A2002000000000000000000000000084
:1032900008B5202383F31188FFF7E2FF002383F3AF
:1032A000118808BD000000000000000000000000C0
:1032B000024B1868024B1B68C01A7047F8A2002026
:1032C000FCA2002000000000000000000000000040
:1032D0000448054B036000238360C3601030FFF790
:1032E000A7BD00BF00A3002091320008000000002D
:1032F00010B500F025FF074801F0B2FA00F038F8E9
:1033000000F096F800F064FA00F062F9BDE81040B1
:1033100002F0B6B8006800080000000000000000DD
:10332000084B81425B6802D9834207D301E08342A4
:1033300006D28B422CBF002001207047002070472E
:1033400001207047001000E00000000000000000B5
:1033500038B5054B5C68051920462946FFF7E0FFA4
:103360000028F9D138BD00BF001000E000000000C7
:1033700000F09EBF00000000000000000000000000
:1033800001230370013B43608360C36003614361B9
:103390001830FFF74DBD00000000000000000000E5
:1033A00010B52023044683F31188416000F0B0FF7C
:1033B00002232370023B83F3118810BD000000003C
:1033C00010B5C3600323826001610370BDE8104043
:1033D00000F0DEBF00000000000000000000000060
:1033E00010B51C46202383F311882346FFF7E8FF1E
:1033F000002383F3118810BD0000000000000000CE
:1034000038B51D460446202383F311882B46074D0B
:10341000FFF7D6FFAB6902206361FFF729FBAB69B9
:10342000986A002383F3118838BD00BFDCA2002016
:1034300001F02EB9000000000000000000000000B4
:1034400001230370013B436070470000000000004F
:1034500010B52023044683F31188416089880181D7
:1034600001F026F902232370023B83F3118810BD7B
:1034700008B5202383F3118801F0C2F9002383F3F8
:10348000118808BD000000000000000000000000DE
:1034900070B5046AD4F854321B681A78042A24D10F
:1034A0005A69DB89558A13F002031ED1E169A269CA
:1034B0008A1A6169521AAA4217D383F31188B2FBA0
:1034C000F5F3D4F854226B431068012104F10C0287
:1034D00000F0E6F9202383F31188D4F854321868F9
:1034E0000121BDE8704000F0FBB970BD0000000094
:1034F00070B5046AD4F854321B681A78042A1FD1B4
:103500009B8913F002031BD1E26B256CAD1AA26BF1
:10351000AD1A15D083F31188D4F8543201211868FC
:1035200004F130022B4600F0CBF9202383F31188FD
:10353000D4F8543218680121BDE8704000F0E8B9B1
:1035400070BD00000000000000000000000000004E
:103550000C30FFF79DBD00000000000000000000DF
:103560000C304FF0FF33FFF793BD00000000000068
:103570003030FFF71DBE000000000000000000001A
:1035800030304FF0FF33FFF713BE000000000000A3
:103590000C30FFF755BD00000000000000000000E7
:1035A0000C304FF0FF31FFF74BBD00000000000072
:1035B0003030FFF7CDBD000000000000000000002B
:1035C00030304FF0FF32FFF7C3BD000000000000B5
:1035D0007047000000000000000000000000000034
:1035E00013B503460D4A43F8042B044643600123F8
:1035F000037204F1540100904FF480720C30084BB8
:10360000FFF7F6FC04F1300004F5AA714FF4807264
:10361000044B0094FFF774FD1CBD00BFA0660008BA
:1036200091340008F13400080000000000000000A0
:10363000202383F311880B68C0F85412986002238A
:103640000372023B83F31188704700000000000002
:1036500070B5866806F10C0504462846FFF7D8FCCD
:1036600006F13000FFF75CFD301D0121FFF700FC83
:103670006369204601212A465B8A00F011F9204641
:103680000121BDE8704000F02BB9000000000000EF
:1036900090F8303003F06003202B1AD190F83120DD
:1036A000212A06D0222AA3F120030DD0202A12D1EC
:1036B00005E00A4B436207238362073B06E0074AA3
:1036C00042620722826201E043628362C362012098
:1036D0007047002070471846704700BFF8A00020D0
:1036E000F8B5876804460D46202383F31188082126
:1036F000381DFFF7BDFBFB6B3E6CF61ABB6BF61A71
:103700000DD0002383F3118833462046294607F164
:10371000300200F0D5F8202383F3118813E02B1D2D
:1037200054F823104B690A8A5B68013A13400ED1A2
:1037300083F311882046294607F1300200F0C0F8D3
:10374000202383F311882046294600F0E1F8002366
:1037500083F31188F8BD00000000000000000000A5
:10376000F8B5876804460E46202383F311880421A8
:10377000381DFFF77DFB6369FA695D8ABB6979696A
:10378000D21A521AAA4212D3002383F31188B2FB31
:10379000F5F36B432046314607F10C0200F080F848
:1037A000202383F311882046314600F099F8002346
:1037B00083F31188F8BD0000000000000000000045
:1037C0007047000000000000000000000000000042
:1037D00001F006BC00000000000000000000000036
:1037E00001230370013B436083608381C381704781
:1037F00038B50446202383F3118800254160056114
:1038000045618561C56101F013FC022323702B46DD
:1038100083F3118838BD00000000000000000000A4
:1038200070B5064650690D46144618B100211022A5
:10383000FEF716FEA06918B100211022FEF710FE57
:103840002B1D3046294646F82340BDE8704001F064
:10385000C7BC0000000000000000000000000000E5
:1038600030B50C1D002550F82440A4692560E260A5
:103870006360A560BDE8304001F082BD000000003B
:1038800030B50C1D002550F8244064692560E260C5
:103890006360A560BDE8304001F08ABD0000000013
:1038A00030B50C1D012550F82440A4696360002345
:1038B0002560E260A360BDE8304001F061BD00001A
:1038C00030B50C1D012550F8244064696360002365
:1038D0002560E260A360BDE8304001F069BD0000F2
:1038E00070B5C48954FA01F313F001064FF00103D7
:1038F00007D18B4043EA0404C48101F079FD3046CE
:1039000070BD184670BD00000000000000000000FF
:1039100070B5848954FA01F313F001064FF00103E6
:1039200007D18B4043EA0404848101F069FD3046ED
:1039300070BD184670BD00000000000000000000CF
:10394000034602220270023A028783F83A2080F886
:103950003B208281C281026142618261C26183F83F
:10396000202001F0CDBB000000000000000000009E
:10397000F8B50023044680F8203000F1300201F051
:10398000EFFC63689B6823B120469847002840F00D
:10399000F68094F8303013F0600540F0DE8094F843
:1039A000316003F07F0343EA0626B6F5407F3BD043
:1039B00010DC022E00F08A8004DC2EB3012E40F0D1
:1039C000CC807DE0B6F5807F25D0B6F5817F40F0D4
:1039D000C48097E0B6F5C06F47D009DC40F20233EF
:1039E0009E4200F0A280B6F5A06F40F0B68027E0BE
:1039F000B6F5106F53D040F602439E4260D0B6F544
:103A0000006F40F0AA8044E004F1380363620223AF
:103A1000A362E662B3E094F83230012B40F09D805F
:103A2000238F23F0020307E094F83230012B40F09B
:103A30009480238F43F0020323876562A5625FE0D1
:103A4000238EB3F5A06F40F0838094F83230204687
:103A500084F83A3001F0B4FB63681B6813B1204668
:103A6000012198470323237072E0626894F835704F
:103A700094F83430566894F8331094F83220204685
:103A800043EA0723B047002867D0436863620368AE
:103A900003E004F13B0363620123A36230E094F886
:103AA000323084F83B300BB9033300E00423237039
:103AB00063681B68002B4BD020460221984747E0E3
:103AC0005F4B63620223A362023B44E094F834102C
:103AD00011F0800F01F00F0103D0204601F030FCFF
:103AE00002E0204601F01CFC012802D0022834D15B
:103AF00003E0544BA662636202E0534BA062636230
:103B0000E5623CE094F832303BBB94F8343013F07B
:103B10000F011DD013F0800F03D0204601F0A0FC50
:103B200016E0204601F094FC12E094F83230A3B97C
:103B300094F8343013F00F010AD013F0800FC9B29B
:103B400003D0204601F07CFC02E0204601F070FC2E
:103B500000236362A362E36211E02046002101F0CA
:103B60006FFC2046002101F063FC63681B6813B101
:103B7000204605219847052384F82030F8BD94F8A5
:103B8000372094F8363043EA0223A26A9A4288BF6B
:103B9000A36294F93030A56A002B28DA9DB1012385
:103BA00084F8203020462B460021626AFFF768FE29
:103BB000202383F3118800212046FFF7A9FE00236C
:103BC00083F31188F8BD022384F8203020462B4669
:103BD00029462A46FFF744FE202383F31188204616
:103BE0002946FFF77DFE2B4683F31188F8BD9DB172
:103BF000032384F8203020462B460021626AFFF719
:103C00002FFE202383F3118800212046FFF768FE52
:103C1000002383F31188F8BD042384F82030204664
:103C20002B4629462A46FFF72BFE202383F31188D3
:103C300020462946FFF76CFE2B4683F31188F8BD1A
:103C4000C0660008E0660008D066000800000000BA
:103C500038B590F82030012B044602D0042B39D11E
:103C600033E090F8371090F83620836A42EA012258
:103C7000934216D20269128AB3FBF2F502FB1535A4
:103C80007DB92B4629462A46FFF7FAFD202383F308
:103C9000118820462946FFF73BFE2B4683F3118807
:103CA00038BD0021022384F8203020460B460A4606
:103CB000FFF7D6FD202383F3118800212046FFF76C
:103CC0000FFE002383F3118838BDC36A03B1984700
:103CD00000230DE0002101F0B3FB2046002101F09C
:103CE000A7FB63681B6813B120460521984705238D
:103CF00084F8203038BD0000000000000000000003
:103D000090F82030022B10B5044614D0032B1BD1A1
:103D10000021013380F820300A460B46FFF7B0FD42
:103D2000202383F3118800212046FFF7F1FD0023B3
:103D300083F3118810BD03699B699B6823B9C36A2B
:103D400003B1984700230EE02046002101F078FBE4
:103D50002046002101F06CFB63681B6813B120460C
:103D600005219847052384F8203010BD000000008D
:103D7000074B3D22196810B59A60064A13681BB1BB
:103D8000506801F03D019847BDE81040FEF7A0BC27
:103D90000060024020A3002000000000000000009E
:103DA000084B4FF47462196810B59A60064A93681C
:103DB00023B18909D06801F03D019847BDE8104062
:103DC000FEF786BC0060024020A300200000000037
:103DD000084B4FF47412196810B59A60064A1369BB
:103DE00023B1090C506901F03D019847BDE810402E
:103DF000FEF76EBC0060024020A30020000000001F
:103E0000084B4FF07462196810B59A60064A9369BE
:103E100023B1890DD06901F03D019847BDE81040FC
:103E2000FEF756BC0060024020A300200000000006
:103E3000074B3D22596810B5DA60064A136A1BB178
:103E4000506A01F03D019847BDE81040FEF740BCC4
:103E50000060024020A300200000000000000000DD
:103E6000084B4FF47462596810B5DA60064A936AD9
:103E700023B18909D06A01F03D019847BDE810409F
:103E8000FEF726BC0060024020A3002000000000D6
:103E9000084B4FF47412596810B5DA60064A136B78
:103EA00023B1090C506B01F03D019847BDE810406B
:103EB000FEF70EBC0060024020A3002000000000BE
:103EC000084B4FF07462596810B5DA60064A936B7C
:103ED00023B1890DD06B01F03D019847BDE810403A
:103EE000FEF7F6BB0060024020A3002000000000A7
:103EF000074B3D22196810B59A60064A136C1BB136
:103F0000506C01F03D019847BDE81040FEF7E0BB62
:103F10000064024020A30020000000000000000018
:103F2000084B4FF47462196810B59A60064A936C96
:103F300023B18909D06C01F03D019847BDE81040DC
:103F4000FEF7C6BB0064024020A300200000000072
:103F5000084B4FF47412196810B59A60064A136D35
:103F600023B1090C506D01F03D019847BDE81040A8
:103F7000FEF7AEBB0064024020A30020000000005A
:103F8000084B4FF07462196810B59A60064A936D39
:103F900023B1890DD06D01F03D019847BDE8104077
:103FA000FEF796BB0064024020A300200000000042
:103FB000074B3D22596810B5DA60064A136E1BB1F3
:103FC000506E01F03D019847BDE81040FEF780BB00
:103FD0000064024020A30020000000000000000058
:103FE000084B4FF47462596810B5DA60064A936E54
:103FF00023B18909D06E01F03D019847BDE810401A
:10400000FEF766BB0064024020A300200000000011
:10401000084B4FF47412596810B5DA60064A136FF2
:1040200023B1090C506F01F03D019847BDE81040E5
:10403000FEF74EBB0064024020A3002000000000F9
:10404000084B4FF07462596810B5DA60064A936FF6
:1040500023B1890DD06F01F03D019847BDE81040B4
:10406000FEF736BB0064024020A3002000000000E1
:104070000A4B00221A6013460949C8580021016002
:1040800008480C3381500832C02BF5D1064AC13B99
:104090009360D360054A9360D3607047A0A300206B
:1040A000F066000820A30020006002400064024087
:1040B000F8B51E4E457A3768012404FA05FC1CEA5F
:1040C000070F2FD11A4C44F8352004EBC5056B605F
:1040D0004CEA070313F0FF0F336004D0154C256B37
:1040E00045F40015256313F47F4F04D0114B1C6B6E
:1040F00044F480041C6303681C6824F001041C6001
:104100001C6814F00104FBD1067A45683D2717FAB4
:1041100006F62E6021251C605D612AB1807A0901B6
:10412000FEF746FB2046F8BD1046F8BDA0A30020D0
:1041300020A3002000380240000000000000000022
:10414000254B26481A6942F001021A6100221A61C1
:10415000596941F0010159615A61996941F00101C0
:1041600099619A61196A19621A62596A41F00101EA
:1041700059621B495A62486007208A6008601949E1
:10418000C86840F08070C8601749086840F00100B6
:104190000860196C41F0805119641449086840F4B2
:1041A00080700860196F01F44071B1F5007F03D091
:1041B0004FF4803119671A671B6F074A13F4004FD9
:1041C00007D1136F43F400731367136F43F4004375
:1041D0001367FFF74DBF00BF003802403F90020059
:1041E00010E000E0F0ED00E0001000E000700040A2
:1041F000274B4FF080521A64264B4FF480421A60CE
:10420000244B5B6813F4804FFAD0214B1A6842F0BC
:1042100001021A601E4B1A6812F0020FFAD01A68D7
:1042200042F480321A601A4B1A6812F4003FFAD036
:104230005A6F42F001025A67154B5A6F12F0020F83
:10424000FAD0154A5A601A6842F080721A60104B10
:104250001A6812F0007FFAD09968104A41EA020207
:104260009A600F4A40F2057111609A6842F00202AA
:104270009A60074B9A6802F00C02082AF9D15A6C2E
:1042800042F480425A645A6E42F480425A66704741
:1042900000380240007000400854400700B408385D
:1042A000003C024000000000000000000000000090
:1042B00070B50E4B0E4C0F4D00225A602046FFF792
:1042C0005FF80D4BE562A3620C4B23630C4C204658
:1042D000FFF756F80B4BA3620B4B183D12206021E1
:1042E000E5622363BDE87040FEF762BA0023014037
:1042F000A4A300208067000800200140162C0200C3
:10430000D8A3002000210140162C0202000000006A
:104310000378012B10B5044629D1154B98420ED1D4
:10432000144AC06A23460621FFF7C2FEE36A124A16
:104330001B689A60114B5A6C42F4807210E0104B6B
:1043400098420ED10B4AC06A23460621FFF7B0FE01
:10435000E36A0C4A1B689A60084B5A6C42F400727C
:104360005A64A36A00225A609A6001329A6010BDB2
:10437000A4A30020314400084C2001400038024032
:10438000D8A300204C2101400000000000000000E4
:104390000369016B1A6830B50AB141F48071C26AD1
:1043A00085681268C468D5609D88012C88BF41F07B
:1043B00008016C4354601160116841F00101116003
:1043C000826A002111609969D160D9691161196A05
:1043D000D162596A1163996A516319695B6941F045
:1043E000806143F4407341F4807143F003035160F2
:1043F000936030BD000000000000000000000000DD
:10440000C36A1A68116821F0010110B511601168C2
:1044100011F00101FBD15A681B7A3D2414FA03F311
:104420001360836A0122596099609A6010BD000090
:1044300011F00C0F38B504460D461ED0FFF7E0FF13
:104440002369DB684BB10522002122702046984782
:104450002378052B01D1033B237000222261202306
:1044600083F31188606920B1213B62618362FEF7AA
:10447000BFFA002383F3118838BD0369002B4BD0AA
:1044800011F0100F05D09B681BB1C26881685208FB
:10449000984715F0200F3FD021690B688BB18B68CE
:1044A000002B39D0E268012A07D98D88A16852080B
:1044B0005543204601EB450101E0A168204698479D
:1044C00038BD2046FFF79CFF21698B68A3B1042209
:1044D0002270E268012A07D98D88A16852085543E5
:1044E000204601EB450101E0A1682046984723786A
:1044F000042B03D1023B00E002232370002222613F
:10450000202383F31188606918B162618262FEF72B
:104510006FFA002383F3118838BD0000000000000B
:10452000314B1A68002112F0200F10B5196027D006
:104530002E4CE36A1B685B6813B3236903B3204600
:10454000FFF75EFF2369DB684BB105220121227072
:10455000204698472378052B01D1033B2370002286
:104560002261202383F31188606930B11F4B5A61A7
:104570004FF0FF338362FEF73BFA002383F3118889
:104580001B4B1A68002112F0200F196027D0194C1C
:10459000E36A1B685B6813B3236903B32046FFF724
:1045A0002FFF2369DB684BB10522012122702046D1
:1045B00098472378052B01D1033B23700022226109
:1045C000202383F31188606930B10A4B5A614FF0A0
:1045D000FF338362FEF70CFA002383F31188BDE8F2
:1045E0001040FEF775B800BF00200140A4A30020D2
:1045F00000210140D8A300200000000000000000BE
:104600000648074B4FF6FE7210B51A8243689B6846
:104610009847BDE81040FEF75BB800BF0CA400202F
:104620000000014000000000000000000000000049
:10463000134B10B51A8A9C8914404FF6E17114F09F
:10464000020F198203D00F4843681B69984714F082
:10465000040F03D00B4843689B69984714F0080F78
:1046600003D0084843681B6A984714F0100F03D022
:10467000044843689B6A9847BDE81040FEF728B895
:10468000000001400CA40020000000000000000019
:1046900010B5034C2046FEF7D3FE024B236110BD3C
:1046A0000CA40020000001400000000000000000F9
:1046B000F8B503784F4D012B04461CD1A84214D104
:1046C0004D4B5A6C42F001025A645A6A42F00102A0
:1046D0005A6200225A6219207021FEF769F81B20E5
:1046E0007021FEF765F8454BE360236946F66802E2
:1046F0001A839A8309E0036900221A809A811A8238
:104700005A639A63DA631A645A626168E0680B68F4
:104710002269CF68B0FBF3F3013B13852389013B8A
:104720009BB2D3628B8D938007F00F03012B02D0D5
:10473000022B04D100E0002343F0010300E000233A
:104740004E6906F00F00012803D0022803D143F080
:10475000200343F01003C86900F00F0CBCF1010FF7
:1047600004D0BCF1020F03D143F4007343F480730F
:10477000D1F824C00CF00F0CBCF1010F04D0BCF137
:10478000020F03D143F4005343F48053AC421DD1D4
:1047900007F0F004102C03D0202C03D143F00803C1
:1047A00043F0040306F0F004102C03D0202C03D1B6
:1047B00043F0800343F0400300F0F000102803D0E2
:1047C000202803D143F4006343F48063138401235E
:1047D00093828B68003B18BF0123938100231382CF
:1047E000CB8D6FEA43436FEA5343A2F844308523ED
:1047F0001380F8BD0CA400200038024000BD010564
:10480000036910B501F10C0403EB84046260426893
:1048100002EBC102126962B19A89022092B210FAC7
:1048200001F1114205D189B241EA0202C9439A81DC
:10483000198210BD00000000000000000000000010
:104840004B6843608B688360CB68C3600B694361CE
:104850004B6903628B6943620B6803607047000019
:104860001E4B1A6B6FEA52226FEA422210B51A638E
:104870001A6D6FEA522204466FEA42221A652146F7
:104880001748FFF7DDFF04F11C011648FFF7D8FFBA
:1048900004F138011448FFF7D3FF04F15401134821
:1048A000FFF7CEFF04F170011148FFF7C9FF04F1D3
:1048B0008C011048FFF7C4FF04F1A8010E48FFF770
:1048C000BFFF04F1C4010D48FFF7BAFF0C4804F123
:1048D000E001BDE81040FFF7B3BF00BF0038024061
:1048E000000002400004024000080240000C0240A8
:1048F000001002400014024000180240001C024058
:104900000020024000000000000000000000000045
:104910002DE9F04302F0040602F0180502F06004ED
:1049200002F0030702F4F062B608ED086409D20948
:10493000002311F0010F4AD003F007084FEA88085E
:104940004FF00F0902FA08FC072B09FA08F86FEA82
:10495000080808D8D0F8209008EA090848EA0C0CA2
:10496000C0F820C007E0D0F8249008EA090848EA17
:104970000C0CC0F824C0D0F804804FF0010C0CFAE5
:1049800003FC28EA0C0C4CEA060CC0F804C04FF0FB
:1049900003094FEA430CD0F8088009FA0CFC6FEACF
:1049A0000C0C0CEA080848EA0508C0F80880D0F8A2
:1049B0000C800CEA080848EA0408C0F80C80D0F81B
:1049C00000800CEA080C4CEA070CC0F800C049084B
:1049D00005D07600AD00A400BF000133A9E7BDE813
:1049E000F083000000000000000000000000000054
:1049F0000346006802681A605360704700000000B8
:104A0000026CC36B30B59468002202F14801490181
:104A1000585800280ADA4FF0804058505101591870
:104A2000D1F8081911F0020FF8D001E00020585019
:104A30005101591800204FF0FF35C1F81009C1F895
:104A4000085902F1580149015D5885420ADA4FF0D0
:104A50008040585051015918D1F8081B11F0100F1F
:104A6000F8D000E058505101591800200132C1F827
:104A7000100B0138A242C1F8080BC6D94FF0011241
:104A8000C3F81C2830BD000000000000000000003A
:104A9000036C1B68436470470000000000000000C6
:104AA00030B513460C4603E054F8045B013B056047
:104AB000002BF9D101EB820030BD000000000000A6
:104AC0000332033310B592089B0805E0046813B164
:104AD00041F8044B013B013A002AF7D110BD000018
:104AE0000368C91801601846704700000000000004
:104AF000890141F020010161036913F0200FFBD10E
:104B00000C20FEF725BC00000000000000000000A3
:104B100010B5044C206D18B1FDF76AFF0023236522
:104B200010BD00BF20A40020000000000000000015
:104B30002DE9F74FA24AA3499369C66B99610446D0
:104B4000202383F311882378012B05D0A36C6BB944
:104B5000736913F0100F09D1B369994943F0100339
:104B6000B3618B6902202365FDF782FF002383F385
:104B700011881F463DE1E06B016A01F4F013B3F5C3
:104B8000802F13D0B3F5402F73D101F00F030433FE
:104B900047F6F07254F8233001EA020200F5805023
:104BA000196A12090823FFF78BFF62E001F00F0971
:104BB00009F1040747F6F07554F827309A6913682D
:104BC00001EA05052D0900F58050002B38D0D76883
:104BD0002B461CE0032B06D979693A69914202D32E
:104BE000FA687A6113E0D0F800E0002279692EFAC1
:104BF00002FC01F801CBD7F810C07961614524BFF0
:104C0000F9687961013B04D00832202AEED1002BEB
:104C1000E0D1202383F31188BB685B19BB6006E0F9
:104C20003846FFF7E5FEFDF7E3FE002383623B68AD
:104C3000BB42F5D1FDF7DCFF002383F311880EE0C2
:104C4000D2F804E09368D168C3EB0E032A46FFF75D
:104C500037FF54F827309B69DA685219DA6009F196
:104C6000040954F829309B699A6855199D6000E041
:104C7000B846726912F010027FF47DAF4FF0010A5E
:104C8000A36C0AFA08FA1AEA030F474600F0AF804D
:104C9000202383F31188B36823F00103B360A36C6E
:104CA00023EA0A03A364134683F311884FEA083208
:104CB0000192B1463D1D54F82520536999685E68FC
:104CC000B14279D2128A761AB24238BF1646E26BE6
:104CD00079015118D1F8181989B2B6EB810F73D840
:104CE000196802F5805B002950D00199DD68B8464B
:104CF0008B44274634462EE0A20815D0A9692B69BB
:104D00005B1A48BF03339B109A4228BF1A46930090
:104D10005846E41AFFF7C4FE2B69A861984202D3F3
:104D2000EB68AB6117E0C4B1002328691946AA6992
:104D300012F801EB8242AA6128BFEA680EFA03FE6C
:104D400028BFAA61013C41EA0E0102D00833202BA2
:104D5000EDD1CBF80010002CCED13C4620234746A5
:104D600083F31188AB689B19AB6006E02846FFF718
:104D70003FFEFDF73DFE002383622B68AB42F5D179
:104D8000FDF736FF002383F311880DE00199F21C33
:104D90000BEB01009208D968FFF782FE54F825302A
:104DA0005B69DA689219DA603B1D54F823305B695D
:104DB0009A6896199E607DE74E46012206E000BF84
:104DC000DCA20020C06700084E460022202383F3A7
:104DD0001188B36843F00103B3602AB9D6F83438B8
:104DE0004AEA0303C6F83438002383F311880137F5
:104DF000FFB2236C9B689F427FF63AAF202383F378
:104E00001188A0E600000000000000000000000083
:104E1000F8B51E4CE56B4301EB184FF0FF32D3F8A9
:104E20000879C3F8082917F0010F064611D0D5F804
:104E3000103813F0010F0CD0A2890123834022EA1D
:104E40000303A381031D314654F8233020469B6899
:104E5000984717F0800F18D00122D5F8343812FA8D
:104E600006F61E4211D0202383F31188A36C46EA74
:104E70000303A364D5F8343823EA0606C5F834687A
:104E8000FFF746FE002383F31188F8BD20A400201D
:104E9000F8B5184DEE6B4301F3184FF0FF32D3F81D
:104EA000087BC3F8082B17F0080F04460BD0D6F880
:104EB000143813F0080F06D0031D214655F823308F
:104EC00028465B68984717F0010F11D0D6F81438C0
:104ED00013F0010F0CD0EA8906480123A34022EA0F
:104EE0000303EB81231D214655F82330DB689847E7
:104EF000F8BD00BF20A4002000000000000000005A
:104F000070B5354EF56B6B69AC691C4014F4805F6D
:104F10006C6108D03046FEF713FD73681B6813B14F
:104F200030460021984714F4005F18BFD5F80838C0
:104F300014F0080F04D07368DB680BB1264898475B
:104F400014F0100F0BD0202383F31188AB6923F0EA
:104F50001003AB61FFF7DCFD002383F3118814F429
:104F6000802FD5F8185817D015F0010F02D0002067
:104F7000FFF74EFF15F0020F02D00120FFF748FFA8
:104F800015F0040F02D00220FFF742FF15F0080FC2
:104F900002D00320FFF73CFF14F4002F17D015F4C4
:104FA000803F02D00020FFF773FF15F4003F02D0CE
:104FB0000120FFF76DFF15F4802F02D00220FFF7CC
:104FC00067FF15F4002F02D00320FFF761FFBDE853
:104FD0007040FDF77DBB00BF20A400200000000052
:104FE00070B50E4C2046FEF7FBFB0023E3642365FF
:104FF0004FF0A043E36304F1A405094B04F158000A
:105000002946FF222364FDF73BFE284604F5E271A2
:105010005522BDE87040FDF733BE00BF20A400203C
:10502000B067000800000000000000000000000061
:105030000378012B73B50546C46B53D12A4B9842B4
:105040000ED12A4B5A6B42F080025A635A6942F0E1
:1050500080025A6100225A614320E021FDF7A8FB3B
:105060000023AB64EB6C53B905F158004FF4DC71CD
:1050700002221F4B0095FDF70BFE2865E8641D4BCF
:10508000EE6BE3601C4BC4F800380023C4F8003E0C
:105090004FF45023A36301233361336913F0010FED
:1050A000FBD10C20FEF754F93369002BFCDA002603
:1050B000A6602846FFF7A4FC6B68C4F81068DB689C
:1050C000C4F81468C4F81C6813B94FF4405301E0E5
:1050D00043F20803A3614FF0FF336361A36843F019
:1050E0000103A3607CBD00BF20A400200038024063
:1050F000314B000840140040030020020000000073
:1051000070B5C46B054600212046FFF7F1FC2B6CFF
:105110009868002303F1480149014FF00062625092
:1051200003F15801490162505A01A2180133FF21CD
:105130008342C2F80819C2F8081BEBD94FF0FF33BD
:10514000C4F818384FF00113C4F81C382846FFF78C
:105150009FFC2B6C1B686362EB6B10221A611E694B
:1051600016F01006FBD10C20FEF7F2F8D4F8003848
:1051700023F4FE63C4F80038A36943F4402343F0EA
:105180001003A3610923C4F81038C4F814380A4B7B
:105190002B610A4BC4F8106B05F14400C4F8003BC6
:1051A0001021C4F81069C4F80039FFF799FC40F4E5
:1051B0008010A06270BD00BFD06700084080001062
:1051C000C36B90F83A10D3F8002822F4FE6242EA4A
:1051D0000112C3F800287047000000000000000022
:1051E0000B1D2DE9F04150F82330C46B1A6802F012
:1051F0000302022A06460D4607D0032A07D041497A
:10520000414F012A18BF0F4602E0404F00E0404FD7
:105210006A01A2180021C2F8101BD96805F15802D2
:1052200069B15B8A520147EA0303A3500121D4F814
:105230001C2805F1100311FA03F313430DE0530189
:105240000121E25822F40042E25005F11003D4F8A3
:105250001C2811FA03F322EA0303C4F81C386B017B
:10526000E3180022C3F810292B1D56F823309A6842
:105270005AB3B3F810809B8B4FEA9808012B88BF74
:1052800003FB08F8414606F14400FFF729FC05F14D
:105290003F0304EB830340EA084058602946F06B63
:1052A000FFF726FC2B1D012256F823301B8A43EA08
:1052B000855343EA070705F148035B0112FA05F538
:1052C000E750D4F81C381D4317E005F13F0304EB09
:1052D0008303104AF06B5A602946FFF709FC05F179
:1052E00048035B01E25822F40042E2500122D4F864
:1052F0001C3812FA05F523EA0505C4F81C58BDE868
:10530000F08100BF008000100080041000800810B1
:1053100000800C10000400020000000000000000EB
:105320005831C36B49015B5813F4004005D003F4B6
:105330000013002B0CBF022001207047000000006A
:105340004831C36B49015B5813F4004005D003F4A6
:105350000013002B0CBF022001207047000000004A
:10536000043150F82130196A0B6813604B685360A0
:105370007047000000000000000000000000000076
:105380000B1D490150F82320C06B538A9269526863
:10539000013AD21810B5411843F0C044B2FBF3F300
:1053A00044EAC343C1F8103B10BD000000000000F8
:1053B0000B1D10B550F82340C26B63695B6823B9BD
:1053C000490152184FF4002308E0208A5C1E24187B
:1053D000B4FBF0F0490143EAC0435218C2F8103957
:1053E00010BD0000000000000000000000000000F0
:1053F0005831C36B49015A5842F080625A50704785
:1054000001F14802C36B5201985840F00440985093
:105410000120D3F8342810FA01F11143C3F83418ED
:1054200070470000000000000000000000000000C5
:105430005831C36B49015A5842F400125A50704710
:105440004831C36B49015A5842F400125A50704710
:105450005831C36B49015A5822F400125A50704710
:105460004831C36B49015A5822F400125A50704710
:10547000FEF7BEBE000000000000000000000000BB
:105480007047000000000000000000000000000065
:10549000F0B5002B08BF0B4600F10B0700F10A0422
:1054A000B1FBF2F602FB161606F13005392DC8BF26
:1054B00006F13705B3FBF2F3264604F8015913B1A0
:1054C000B1FBF2F1ECE7BA1BF15CC154013393423A
:1054D000FAD1C018F0BD000000000000000000007C
:1054E0000023FFF7D5BF000000000000000000000F
:1054F0000EB42DE9F0478BB013AB054653F8044BBF
:1055000009932178002900F02D810134252904D048
:105510002B6828469B689847F3E723782D2B03D107
:1055200001344FF0010A01E04FF0000A23782E2BDE
:1055300002D10134302600E0202622464FF0000838
:1055400012F8013BA3F13001C9B20929144605D96B
:105550002A2B07D1099B191D099119780A2303FBEE
:105560000818EDE72E2B13D11146002211F8013B4C
:10557000A3F13000C0B209280C4605D92A2B08D166
:10558000099B181D099018780A2303FB0202EDE716
:1055900000226C2B01D04C2B03D1217809B10134AE
:1055A0000B46642B3DD00DD8552B00F0928003D8CC
:1055B000442B36D04F2B0BE0582B11D0632B40F0EF
:1055C00092800FE0732B16D005D8662B39D06F2B45
:1055D00040F089807BE0752B7BD0782B40F0838076
:1055E000102277E0099B0AAF1A1D1B68099207F881
:1055F0001C3D20267AE0099B191D1F685E4B09910E
:10560000002F08BF1F4647F6FF73002A08BF1A463F
:105610003B4619781846013300296AD0013AF8D57B
:1056200067E0099B1A1D09921968002906DA2D23E3
:105630008DF80C3049420DF10D0000E003A80A225C
:105640004DE0099B073323F0070303F10802D3E978
:1056500000010992FCF7ACFB07EE900AF5EEC07A68
:10566000F1EE10FA07D52D238DF80C30F1EE677AA4
:105670000DF10D0700E003AF17EE900AFCF704F9F7
:10568000CDE90001FCF76CFB81460A224946002364
:105690003846FFF7FDFE07462E2307F8013B484634
:1056A000FCF7E0F802460B46DDE90001FBF78CFF52
:1056B0002FA3D3E90023FCF73BF9FCF751FB0A22A7
:1056C000014642F210733846FFF7E2FE09E0082275
:1056D00000E00A22099B191D0991196803A8FFF728
:1056E000FFFE03AF06E00AAF07F81C3D0DF10D0009
:1056F00000E02026C7EB0009C9EB080828EAE87893
:10570000BAF1000F1FD1C8F10008B8F1000F1AD08C
:1057100039782D2908D1302E06D12B6828469B6870
:105720009847013709F1FF392B6828469B683146B5
:10573000984718F10108F7D105E02B6817F8011B0D
:105740009B6828469847B9F10109F6D506E02B6811
:1057500028469B683146984708F1FF38B8F1000F9A
:10576000F5D1CEE60BB0BDE8F04703B0704700BFFF
:1057700000000000006AF84000690008AFF30080F4
:105780000A4B0B4A9B6910B59A610A4C4FF40053BF
:1057900023834FF4FA70FDF7B3FA4FF40053638399
:1057A0004FF4FA70FDF7ACFAEFE700BFDCA200207F
:1057B00010690008000C024000000000000000001A
:1057C000F0B55C4B5C4C0022ADF5BC5D89B05A6015
:1057D000FDF78EFD2368DB6B9A6B22F400229A633F
:1057E00000F0AEFCFDF734F85448FDF7F9FE214611
:1057F0005248FDF71DFF2368DB6B9A6B22F40022F1
:105800009A634FF47A70FDF77BFA20684C49FDF7F4
:10581000EFFF2368DB6B9A6B42F400229A6302E08D
:105820001420FDF76DFA454DD5F854321B681B78EE
:10583000042BF5D1434B44484FF4DC714022002443
:105840000094FDF735FA0DF5BC500C3000F068F906
:1058500000F006FA28463D493D4AFFF749FEFDF7AC
:1058600027FD3C4902462846FFF742FE28463A49B2
:10587000FFF73EFE00F0F4FC00F042FB254602ABD1
:10588000364803EB84010022FDF73AFB30B90134BE
:1058900040F2DC539C4208BF0024F0E70DF5BC51F8
:1058A0002F481C314FF0FF32FDF772FB0DF5BA5750
:1058B000383700262B4B282000FB063039464FF0A6
:1058C000FF320136FDF764FB0437052EF2D106EEF8
:1058D000905ADFED257AB8EE667A053EC7EE276A64
:1058E00016EE900AFBF7D0FF02460B4613481F49FD
:1058F000FFF7FEFD0DF5BC531C331868FBF7C4FF22
:1059000002460B460D481A49FFF7F2FD0DF5BA5352
:1059100038330A489A5917490436FFF7E9FD142E1F
:10592000F4D106481449FFF7E3FD0520FDF7E8F937
:105930000135A4E700380140606B000800A8002092
:10594000806A00088157000848A6002018690008EE
:10595000406900084C6900086A69000888AA0020AC
:10596000D0CD002014BC00205655E942A46900089F
:10597000A9690008AD690008A169000800000000DD
:1059800002290CD0032904D00748012918BF0020A0
:105990007047032A05D8054800EBC2007047044849
:1059A00070470020704700BF706B0008406B000814
:1059B000406A000800000000000000000000000035
:1059C000022938B504460D4611D1202383F31188EE
:1059D0000121074AFDF724FF20462946054AFDF725
:1059E0001FFF2046FDF734FE002383F3118838BDE6
:1059F000C0690008506A00080000000000000000B4
:105A000070470000000000000000000000000000DF
:105A100030B589B0002303930493314B314A9B691D
:105A20004FF400719A61054682222F48FEF770FFFD
:105A30002E480021FDF7B4FC2C482D490DF11E0223
:105A40000123FDF7DDFCBDF81E0000F0C9FA0028B7
:105A5000F2D128482849FDF7FBFC284BDC68244993
:105A600022480DF11E020123FDF7CAFCBDF81E00FD
:105A700000F0DEFA05A9069000222148FDF788FA19
:105A800070B9069800F02CFB1E4A0690034600925F
:105A9000284603A9059A00F0E3FA07EE900A01E010
:105AA000DFED197A9FED197A67EE877A1148FCEEDF
:105AB000E77A028917EE903A5A434FF47A73B2FBB1
:105AC000F3F2002192B2FDF7D3FC0A340699104894
:105AD0000022FDF715FA2046FDF722F9BFE700BFC7
