:020000040800F2
:1000000000200020813200086133000861330008BD
:100010006133000861330008613300086133000870
:100020006133000861330008613300089133000830
:10003000613300086133000861330008913400081F
:100040006133000861330008613300086133000840
:100050006133000861330008613300086133000830
:10006000613300086133000861330008314C000837
:10007000614C0008914C0008C14C0008F14C00088C
:10008000214D0008514D0008E1530008613300087C
:1000900061330008613300086133000861330008F0
:1000A00061330008C154000861330008F1540008AE
:1000B00061330008613300086133000861330008D0
:1000C00061330008613300086133000861330008C0
:1000D00061330008613300086133000861330008B0
:1000E00061330008613300086133000861330008A0
:1000F000613300086133000861330008814D000856
:10010000613300086133000861330008613300087F
:10011000613300086133000861330008613300086F
:10012000B14D0008E14D0008114E0008414E000895
:10013000714E000861330008613300086133000824
:10014000613300086133000861330008C15D0008B5
:10015000A14E0008D14E0008014F0008613300088D
:10016000613300086133000861330008613300081F
:10017000613300086133000861330008613300080F
:0801800061330008613300083F
:100190002DE9F04720F00044B4F1FF4F0546064634
:1001A00037DA4FF6FF73C3F657739C4214DD4FF6F0
:1001B000FF73C3F69F739C4240F379814FF6FF7340
:1001C000C4F2BF039C4240F39E800028C0F27C82B0
:1001D0004FF07E50BDE8F087B4F1465F2BDAB4F102
:1001E000806F80F259814FF0824102F0D9FD47F2D1
:1001F000D451C3F683710446284602F0D1FD01466E
:10020000204602F0C3FC4FF0785102F0C9FDBDE872
:10021000F087C60F7000C0F1010002F06BFD2946A7
:1002200004464FF07E5002F06FFE0146204602F079
:10023000ADFCBDE8F087014602F0B2FD45F2B161C8
:10024000CBF2C771044602F0ABFD41F28941C3F61F
:10025000BD3102F099FC214602F0A2FD45F28F214A
:10026000C3F6E94102F090FC214602F099FD46F602
:10027000EB31C3F6A66102F087FC214602F090FD47
:1002800047F2D451C3F6036102F080FC4EF21A210A
:10029000CBF284610646204602F082FD4EF64961AB
:1002A000C3F60A1102F072FC214602F079FD48F211
:1002B0001611C3F6A63102F069FC214602F070FD6A
:1002C00042F66321C3F6855102F060FC214602F03C
:1002D00067FD4BF6CE31C3F6CB6102F057FC2146E9
:1002E00002F05EFD4FF07E5102F050FC01463046B8
:1002F00002F00AFE0146284602F052FD294602F0AD
:1003000045FCBDE8F08700F0C3FC0146074602F05B
:1003100047FD01464FF07E5002F0F6FD4DF66D337D
:10032000C4F236039C42054640F349814CF27521E4
:10033000CCF2F13102F034FD42F20B31C4F28041D3
:1003400002F022FC294602F02BFD46F24141C4F2A4
:100350001F4102F019FC294602F022FD4AF2EA216F
:10036000C4F2203102F010FC294602F019FD41F2DE
:100370004B01C4F28E1102F007FC294602F010FD79
:1003800049F6D451C3F64C7102F0FEFB294602F047
:1003900007FD4AF29201C3F6214102F0F5FB48F253
:1003A0001271CCF2B3118146284602F0F9FC44F2F6
:1003B000A731C4F2ED3102F0E9FB294602F0F0FC6E
:1003C00049F2CE01C4F21F5102F0E0FB294602F0CF
:1003D000E7FC4FF6BB51C4F2475102F0D7FB294668
:1003E00002F0DEFC41F25971C4F2C04102F0CEFBD2
:1003F000294602F0D5FC4EF27151C4F2A23102F04E
:10040000C5FB294602F0CCFC4BF25941C4F2F21173
:1004100002F0BCFB294602F0C3FC4FF07E5102F013
:10042000B5FB27F47E6424F01F042146804604F1C6
:10043000004002F0B5FC0021C3F6107102F0A4FBED
:1004400000F0AEFE39460546204602F09DFB2146EF
:100450008246384602F09AFB0146504602F0A0FC64
:1004600041460446484602F04FFD0146204602F050
:100470008DFB00F095FE0146284602F091FC002E0F
:10048000C0F23481394602F03FFD01464FF07E5004
:1004900002F07AFBBDE8F08747F2D451C3F603615E
:1004A00002F07EFC294602F071FBBDE8F08700F007
:1004B000EFFB4FF07E5102F067FB4FF6C011CBF619
:1004C0000D31044602F06CFC45F2B311C3F6115134
:1004D00002F05CFB214602F063FC41F6C241C3F628
:1004E000E35102F051FB214602F05AFC4FF65461F1
:1004F000C3F6A26102F04AFB214602F051FC49F228
:100500000821C3F6BE6102F03FFB214602F048FC21
:1005100046F60501C3F6D46102F038FB214602F02D
:100520003FFC4CF6C651C3F61A3102F02DFB45F6DE
:10053000A321C3F644410546204602F031FC46F6AD
:100540001361C3F65F4102F021FB214602F028FC53
:1005500043F20731C3F6016102F018FB214602F0B5
:100560001FFC41F6E721C3F6935102F00FFB214631
:1005700002F016FC45F28571C3F60A7102F006FB23
:10058000214602F00DFC4FF23131C3F6D95102F091
:10059000FDFA214602F004FC4FF07E5102F0F6FA1B
:1005A000002EC0F296800146284602F0ADFC45F2CE
:1005B0000B61C3F6587102F0E9FABDE8F08740F22A
:1005C0007E71CCF21D1102F0EBFB49F22B31C4F22B
:1005D000A22102F0D9FA294602F0E2FB49F6E7210E
:1005E000C4F2383102F0D0FA294602F0D9FB46F2C3
:1005F0008C51C4F2223102F0C7FA294602F0D0FB36
:1006000048F25701C4F2792102F0BEFA294602F0FD
:10061000C7FB4FF22201C4F2281102F0B5FA2946B5
:1006200002F0BEFB4AF2B701C3F6317102F0ACFA38
:10063000294602F0B5FB4AF29301C3F6214102F0CC
:10064000A3FA47F69771CBF677518146284602F018
:10065000A7FB43F67C71C4F2D20102F097FA294657
:1006600002F09EFB44F21F51C4F2D92102F08EFA2F
:10067000294602F095FB48F20B11C4F2D63102F084
:1006800085FA294602F08CFB45F6C901C4F22141E6
:1006900002F07CFA294602F083FB44F66F01C4F2B3
:1006A000D93102F073FA294602F07AFB4AF6630167
:1006B000C4F2093102F06AFA294602F071FB43F2F2
:1006C000CE51C4F29D11A3E60020CBF68070BDE8A8
:1006D000F0870146284602F017FC014645F20B6000
:1006E000CBF6587002F050FABDE8F087394602F0B8
:1006F0000BFC4FF07E5102F047FABDE8F08700BFD7
:100700002DE9F04720F00044B4F1FF4F05460646BE
:1007100080F28F804FF6FF73C3F657739C4213DD50
:100720004FF6FF73C3F69F739C4240F37D814FF6F3
:10073000FF73C4F2DF139C4240F39280002840F321
:10074000FC810020BDE8F087B4F10E5FC0F281802B
:10075000014602F025FB45F2B161CBF2C7710446B8
:1007600002F01EFB41F28941C3F6BD3102F00CFAE2
:10077000214602F015FB45F28F21C3F6E94102F054
:1007800003FA214602F00CFB46F6EB31C3F6A661F4
:1007900002F0FAF9214602F003FB47F2D451C3F606
:1007A000036102F0F3F94EF21A21CBF2846107469D
:1007B000204602F0F5FA4EF64961C3F60A1102F03E
:1007C000E5F9214602F0ECFA48F21611C3F6A6311B
:1007D00002F0DCF9214602F0E3FA42F66321C3F6A7
:1007E000855102F0D3F9214602F0DAFA4BF6CE3108
:1007F000C3F6CB6102F0CAF9214602F0D1FA4FF0FC
:100800007E5102F0C3F90146384602F07DFBB5F196
:100810007A5F014680F2F580284602F0C1FA294647
:1008200002F0B4F901464FF07E5002F0ADF9BDE898
:10083000F087C00F400002F059FA294604464FF0F5
:100840007E5002F061FB0146204602F09FF9BDE8B0
:10085000F08729464FF07E5002F096F9BDE8F08708
:1008600000F016FA0146074602F09AFA01464FF0E8
:100870007E5002F049FB4DF66C33C4F236039C42C5
:10088000054640F35E814FF6FF73F20FC4F2BF03DB
:100890009C42D4BF002302F00103002B40F0F08102
:1008A0004CF27521CCF2F13102F07AFA42F20B31BE
:1008B000C4F2804102F068F9294602F071FA46F26A
:1008C0004141C4F21F4102F05FF9294602F068FA83
:1008D0004AF2EA21C4F2203102F056F9294602F028
:1008E0005FFA41F24B01C4F28E1102F04DF9294634
:1008F00002F056FA49F6D451C3F64C7102F044F9AD
:10090000294602F04DFA4AF29201C3F6214102F063
:100910003BF948F21271CCF2B3118146284602F03D
:100920003FFA44F2A731C4F2ED3102F02FF9294623
:1009300002F036FA49F2CE01C4F21F5102F026F954
:10094000294602F02DFA4FF6BB51C4F2475102F08E
:100950001DF9294602F024FA41F25971C4F2C0414E
:1009600002F014F9294602F01BFA4EF27151C4F25A
:10097000A23102F00BF9294602F012FA4BF259416A
:10098000C4F2F21102F002F9294602F009FA4FF01E
:100990007E5102F0FBF827F47E6424F01F04214608
:1009A000804604F1004002F0FBF90021C3F610710B
:1009B00002F0EAF800F0F4FB39460546204602F062
:1009C000E3F821468246384602F0E0F801465046F8
:1009D00002F0E6F941460446484602F095FA01461F
:1009E000204602F0D3F800F0DBFB0146284602F077
:1009F000D7F9002E40F33A81394602F085FABDE876
:100A0000F087284602F0CCF94FF07C510446284686
:100A100002F0BAF8214602F0B9F801464FF07C50D6
:100A200002F0B2F8BDE8F08700F032F94FF07E51E5
:100A300002F0AAF84FF6C011CBF60D31044602F0D1
:100A4000AFF945F2B311C3F6115102F09FF82146F8
:100A500002F0A6F941F6C241C3F6E35102F094F860
:100A6000214602F09DF94FF65461C3F6A26102F0EF
:100A70008DF8214602F094F949F20821C3F6BE61CF
:100A800002F082F8214602F08BF946F60501C3F622
:100A9000D46102F07BF8214602F082F94CF6C6518F
:100AA000C3F61A3102F070F845F6A321C3F64441AB
:100AB0000546204602F074F946F61361C3F65F411D
:100AC00002F064F8214602F06BF943F20731C3F6F5
:100AD000016102F05BF8214602F062F941F6E7217C
:100AE000C3F6935102F052F8214602F059F945F24B
:100AF0008571C3F60A7102F049F8214602F050F9F7
:100B00004FF23131C3F6D95102F040F8214602F0DC
:100B100047F94FF07E5102F039F8002EC0F296806E
:100B20000146284602F0F0F901464AF2D470C3F6B5
:100B30001E6002F029F8BDE8F0874FF08040BDE864
:100B4000F08740F27E71CCF21D1102F029F949F2D2
:100B50002B31C4F2A22102F017F8294602F020F945
:100B600049F6E721C4F2383102F00EF8294602F0C6
:100B700017F946F28C51C4F2223102F005F82946E9
:100B800002F00EF948F25701C4F2792101F0FCFF9E
:100B9000294602F005F94FF22201C4F2281101F0B2
:100BA000F3FF294602F0FCF84AF2B701C3F63171AF
:100BB00001F0EAFF294602F0F3F84AF29301C3F686
:100BC000214101F0E1FF47F69771CBF6775181465D
:100BD000284602F0E5F843F67C71C4F2D20101F038
:100BE000D5FF294602F0DCF844F21F51C4F2D921A6
:100BF00001F0CCFF294602F0D3F848F20B11C4F201
:100C0000D63101F0C3FF294602F0CAF845F6C90102
:100C1000C4F2214101F0BAFF294602F0C1F844F6BE
:100C20006F01C4F2D93101F0B1FF294602F0B8F8E2
:100C30004AF66301C4F2093101F0A8FF294602F027
:100C4000AFF843F2CE51C4F29D119BE6014628460F
:100C500002F05AF945F20B61C3F6587101F096FFA4
:100C60004FF07E5101F092FFBDE8F087394602F067
:100C70004BF901464FF0804001F086FFBDE8F08758
:100C80004FF08040BDE8F087000000000000000049
:100C900020F00040704700BF00000000000000008E
:100CA00040F6D87320F00042C3F6497301469A42D9
:100CB00000B583B016DDB2F1FF4F03DB01F064FF36
:100CC00003B000BD694600F083FB00F0030001287B
:100CD00015D002280BD0B8B900980122019901F073
:100CE0007FF9EDE70021002201F07AF9E8E70098AA
:100CF0000122019901F074F900F10040E0E7009849
:100D0000019900F06DFDDBE70098019900F068FDA6
:100D100000F10040D4E700BF000000000000000028
:100D200070B58AB0064600F0ABF84AF20004C2F291
:100D3000000494F90030B3F1FF3F054603D030467C
:100D400001F02EFA10B928460AB070BD3046FFF700
:100D50009FFF4FF07E5102F0DFF90028F3D047F6F5
:100D600030733046C0F60003019301230093002343
:100D7000089301F021FC024647F63870C0F60000E7
:100D80000B46CDE90423CDE9022301F0B1F994F932
:100D90000030022BCDE906010BD0684601F0A0F926
:100DA00038B1089B53B9DDE9060101F099FE05460B
:100DB000C9E702F0E5F921230360F2E702F0E0F968
:100DC000089B0360EFE700BF000000000000000088
:100DD00070B58AB0064600F0ABFC4AF20004C2F2DD
:100DE000000494F90030B3F1FF3F054630D030469F
:100DF00001F0D6F900282BD03046002102F06EF920
:100E000030B347F640733046C0F600030193012328
:100E100000930023089301F0CFFB2478CDE904016F
:100E2000CDE90201BCB10020002102460B4601F0D1
:100E300041FD022CCDE9060111D102F0A1F92123D7
:100E40000360089B8BB9DDE9060101F049FE054608
:100E500028460AB070BD00220023CDE9062368466B
:100E600001F03EF90028ECD1E7E702F089F9089B90
:100E70000360E8E700000000000000000000000040
:100E80002DE9F04720F00045B5F17E5F04460646A7
:100E900000F0FD8000F3D580B5F17C5F10DAB5F18C
:100EA000485F80F20A814FF2CA21C7F2491101F06E
:100EB0006DFE4FF07E5102F02FF9002840F0C880FF
:100EC0002046FFF7E5FE01464FF07E5001F05CFE44
:100ED0004FF07C5101F064FF4EF60871C3F611012A
:100EE000044601F05DFF47F60471C3F64F2101F09F
:100EF0004DFE214601F054FF41F24611C3F6245144
:100F000001F042FE214601F04BFF40F6A821C3F656
:100F10004E6101F03BFE214601F042FF4BF2900191
:100F2000C3F6A66101F030FE214601F039FF4AF612
:100F3000AB21C3F62A6101F029FE214601F030FF02
:100F40004CF22E61C3F69D518146204601F028FFE8
:100F500043F26131C3F6307101F016FE214601F013
:100F60001FFF45F22D71C4F2010101F00FFE214671
:100F700001F016FF4DF23911C4F2190101F004FE1F
:100F8000214601F00DFF4FF07E5101F0FFFD80463C
:100F9000204600F0CDFB49F69913C3F679739D42C4
:100FA000074658DC014620F47E6501F0EFFD41461E
:100FB00025F01F058246484601F0A6FF014650462F
:100FC00001F0EEFE29468046284601F0E9FE014682
:100FD000204601F0D9FD29460446384601F0D6FDE9
:100FE0000146204601F090FF014601F0CFFD014689
:100FF0004BF62E50CBF23B3001F0C6FD0146404689
:1010000001F0C2FD29460446284601F0BFFD014615
:1010100040F6DB70C3F6497001F0B6FD014620468C
:1010200001F0B2FD014640F6DB70C3F6497001F0F5
:10103000ABFD002ED4BF00F1004404462046BDE8BD
:10104000F087014601F0A0FD014601F05DFF044676
:101050002046BDE8F0874146484601F055FF01466D
:10106000384601F09DFE394601F090FD014601F041
:101070008DFD4BF62E51C3F23B3101F087FD014649
:1010800040F6DB70C3F6C97001F07EFDD1E740F693
:10109000DB71C3F6C97101F083FE4BF62E51CBF222
:1010A0003B310546204601F07BFE0146284601F013
:1010B0006DFD04462046BDE8F087014601F070FE54
:1010C0004EF60871C3F61101054601F069FE47F6B8
:1010D0000471C3F64F2101F059FD294601F060FE6D
:1010E00041F24611C3F6245101F04EFD294601F0AC
:1010F00057FE40F6A821C3F64E6101F047FD294690
:1011000001F04EFE4BF29001C3F6A66101F03CFDEA
:10111000294601F045FE4AF6AB21C3F62A6101F0EB
:1011200035FD294601F03CFE4CF22E61C3F69D517F
:101130000646284601F034FE43F26131C3F63071B1
:1011400001F022FD294601F02BFE45F22D71C4F27B
:10115000010101F01BFD294601F022FE4DF239117B
:10116000C4F2190101F010FD294601F019FE4FF0FB
:101170007E5101F00BFD0146304601F0C5FE0146EF
:10118000204601F00DFE0146204601F0FFFC04461A
:101190002046BDE8F08700BF00000000000000000E
:1011A00020F00042B2F1FF4F2DE9F843044600F26F
:1011B000AE804FEAD07500F0B18047F21721C4F23B
:1011C000B121884200F3B0804FF2B513C4F2CF23AF
:1011D0009A4294BF002305F00103002B40F0A08049
:1011E00047F21821C3F6B1618A4240F2A88041F269
:1011F0009153C3F685739A4240F2D2804AF63B215E
:10120000C3F6B87101F0CCFD47F26043C0F60003AD
:1012100003EB8503196901F0B9FC01F089FF07466A
:1012200001F068FD4FF4E341C3F63171054601F06A
:10123000B7FD0146204601F0A7FC4FF2D171C3F281
:1012400017718046284601F0ABFD8146404649466D
:1012500001F09AFC04462146204601F0A1FD4BF620
:101260004C31C3F23131064601F09AFD4EF60E21A3
:10127000C3F2DD5101F088FC314601F091FD4BF2E3
:101280005531C3F68A0101F081FC314601F088FD39
:1012900040F66131C3F6363101F076FC314601F09B
:1012A0007FFD4AF6AB21C3F62A6101F06FFC31469F
:1012B00001F076FD0146204601F066FC0546002F50
:1012C00056D00146204601F06BFD294604464FF0FA
:1012D000804001F059FC0146204601F015FE014610
:1012E000484601F051FC414601F04EFC01464FF0EA
:1012F0007E5001F049FC17F17D0F62DA64374FF040
:101300005861FF05381801F04BFD044603E0014623
:1013100001F03CFC04462046BDE8F883002DFAD0DD
:1013200000242046BDE8F8834FF2CA20C7F24910D6
:10133000014601F035FD04462046BDE8F883B2F1D0
:10134000465F28BF1F4686D24FF2CA21C7F2491115
:1013500001F01CFC4FF07E5101F0DEFE00283FF44E
:101360007AAF20464FF07E5101F010FC0446D2E7E0
:101370002046294601F014FD4FF0804106462846DC
:1013800001F002FC0146304601F0BEFD214601F0AD
:10139000FBFB01464FF07E5001F0F6FB0446BAE736
:1013A00047F260446F42C0F6000454F8251004EB85
:1013B000850401F0E9FB7D1BD4F808906F1C804682
:1013C00044E7FC052418A6E7000000000000000028
:1013D00040F6D8732DE9F04FC3F6497320F000466C
:1013E00087B09E4205460C4640F38E804CF6E333B0
:1013F000C4F216039E4226DC002840F34E814FF4CF
:10140000786126F00F06C3F6C97101F0BDFB4FF4F9
:101410007D63C3F6C9739E42054600F0848044F2A2
:1014200043410127C3F2357101F0AEFB0146206054
:10143000284601F0A9FB44F24341C3F2357101F0A3
:10144000A3FB606064E04FF47863C4F249339E42CA
:1014500040F38480B6F1FF4F5EDA4FEAE659A9F116
:1014600086094FEAC953F61A304601F061FE01F0D1
:1014700041FC034601463046039301F085FB4FF0E3
:10148000874101F08DFC064601F052FE01F032FC6E
:10149000014607463046049701F076FB4FF087413E
:1014A00001F07EFC0021059001F00EFE002800F006
:1014B00018810DF10C0A0326384600210AF10408B0
:1014C000013E01F001FE40B158F8047D0021013ECB
:1014D000384601F0F9FD0028F6D13346914E5046CA
:1014E00021464A4601960226009600F059FA002D40
:1014F00007460DDA22684742636802F10042226023
:1015000003F10043636003E00027002308604B60A1
:10151000384607B0BDE8F08F0146002701F034FBE4
:1015200060602060F4E74FF488410127C3F2357111
:1015300001F02AFB4AF20831C2F68561054601F046
:1015400023FB01462060284601F01EFB4AF20831C9
:10155000C2F6856101F018FB6060D9E7FFF798FBE0
:101560004FF68411C3F62271804601F019FC4FF04A
:101570007C5101F00BFB01F0DBFD074601F0BAFBEB
:101580004FF47861C3F6C971824601F009FC014647
:10159000404601F0F9FA44F24341C3F23571804606
:1015A000504601F0FDFB1F2F81461CDC47F28043B3
:1015B000791EC0F6000326F0FF0253F821309A424C
:1015C00011D04946404601F0DFFA0146206040460E
:1015D00001F0DAFA494601F0D7FA002D606097DA97
:1015E00022687F4288E74946404601F0CDFAF61569
:1015F000C0F3C7530146F31A2060082BE7DD4FF410
:1016000088415046C3F2357101F0CAFB814640461D
:10161000494601F0B9FA83464046594601F0B4FA0A
:10162000494601F0B1FA4AF20831C2F685618046B6
:10163000504601F0B5FB414601F0A6FA81465846F6
:10164000494601F0A1FAC0F3C7530146F61A2060DB
:10165000192ED8BFD846BADD4FF423415046C2F602
:10166000856101F09DFB06465846314601F08CFA33
:1016700080465846414601F087FA314601F084FA27
:1016800043F23211C2F28D410646504601F088FB0A
:10169000314601F079FA814693E74FF4786126F0FC
:1016A0000F06C3F6C97101F071FA4FF47D63C3F6FA
:1016B000C9739E42054618D044F243414FF0FF37AC
:1016C000C3F2357101F062FA01462060284601F04C
:1016D0005BFA44F24341C3F2357101F057FA60609E
:1016E00016E703260DF10C0AF7E64FF488414FF098
:1016F000FF37C3F2357101F049FA4AF20831C2F6F8
:101700008561054601F042FA01462060284601F055
:101710003BFA4AF20831C2F6856101F037FA60609F
:10172000F6E600BF007500080000000000000000A1
:1017300020F000420346B2F1FF4F70B504463AD2A2
:10174000002A36D0002840DBC115B2F5000F09D2BF
:1017500010F4000241D15B00013213F4000FFAD003
:101760000131891A23F07F43A1F17F0223F40003A2
:1017700012F0010F43F4000318BF5B000026541061
:1017800019215B0035464FF08072A8189842DEBFE1
:10179000C0EB03038518B61852085B000139F4D179
:1017A00013B106F001039E19E40504F17C5404EB27
:1017B0006604204670BD014601F0F2FA014620465B
:1017C00001F0E4F90446204670BD014601F0DCF961
:1017D000014601F099FB0446EBE70022C0E700BF99
:1017E0002DE9F84320F00046B6F1485F05460F4664
:1017F0005BDA01F09DFC002800F0CA8029462846EB
:1018000001F0CEFA4DF24E71CAF64751044601F08E
:10181000C7FA47F2F641C3F20F1101F0B7F92146BA
:1018200001F0BEFA4FF27C21C3F2934101F0ACF912
:10183000214601F0B5FA40F60151C3F2D07101F032
:10184000A5F9214601F0ACFA40F66131C3F6B621A4
:1018500001F09AF9214601F0A3FA4AF6AB21C3F64A
:101860002A5101F093F9214601F09AFA8046204668
:101870004FF07C5101F094FA41460646204601F0B3
:101880008FFA39460446284601F08AFA0146204676
:1018900001F07AF90146304601F076F901464FF041
:1018A0007E5001F071F9BDE8F883014601F078FA45
:1018B0004DF24E71CAF64751044601F071FA47F2F3
:1018C000F641C3F20F1101F061F9214601F068FA07
:1018D0004FF27C21C3F2934101F056F9214601F009
:1018E0005FFA40F60151C3F2D07101F04FF9214681
:1018F00001F056FA40F66131C3F6B62101F044F921
:10190000214601F04DFA4AF6AB21C3F62A5101F007
:101910003DF9214601F044FA49F69913C3F699635B
:101920009E428046A3DD0023C3F648739E4227DC17
:1019300006F17F464FF07E50314601F025F9814691
:1019400020464FF07C5101F02BFA314601F01CF992
:1019500041460646204601F023FA39460446284609
:1019600001F01EFA0146204601F00EF9014630460C
:1019700001F00AF90146484601F006F9BDE8F8838E
:101980004FF000090026C3F63879C3F69066D7E712
:101990004FF07E50BDE8F88300000000000000001A
:1019A0002DE9F04FDDB047F620051C460791013BBD
:1019B0006699C0F600050193D31E48BF131D03901E
:1019C00055F82150DB1023EAE3730893DB430695B7
:1019D000069902EBC303019A049311EB02081BD48E
:1019E000089B33AF67999D1AA84401EB850609E06F
:1019F0003068043601F07EF9454505F1010547F8E8
:101A0000040F09D0002DF3DA00200436454547F8CD
:101A1000040F05F10105F5D1069A002AC0F2CC8227
:101A2000069A0CA9A1460DF12C0A059101EB820B37
:101A3000019B002BC0F25F8134A9DDF80C8001EB23
:101A400089070026002557F8041D013558F8040BB6
:101A500001F0A6F90146304601F098F8A542064685
:101A6000F1D14AF8046FDA4509F10109E0D1069A8B
:101A700048A9531E924601EB82015CAA9B000A9181
:101A8000D21809930B92059BBAF1000F53F82A5014
:101A900022DD48A903EB8A060F1F99464FF06E51CD
:101AA000284601F07DF901F043FB01F023F94FF0E6
:101AB0008741804601F074F90146284601F064F838
:101AC00001F036FB414647F8040F56F8040D01F0CB
:101AD0005DF84E450546E1D10499284600F0A0FB8B
:101AE0004FF07851054601F05BF900F009FB4FF02B
:101AF000824101F055F90146284601F045F80546B6
:101B000001F016FB074601F0F5F80146284601F002
:101B10003BF8049A002A064640F3D0800AF1FF33CE
:101B2000C2F10801C2F107055CAA02EB830353F876
:101B3000502C52FA01F03F1810FA01F1521A43F8F2
:101B4000502C42FA05FBBBF1000F32DD0137BAF130
:101B5000000F40F32F8248AB002503EB8A0107E01A
:101B600022B10125C2F5807243F8042C8B420AD0C1
:101B700053F8042B002DF3D001258B42C2F1FF0254
:101B800043F8042CF4D1049A002A0FDD012A00F056
:101B90009E80022A0AD10AF1FF335CAA02EB83037A
:101BA00053F8502C02F03F0243F8502CBBF1020FC7
:101BB00071D03046002101F087FA002800F0A080A3
:101BC000069B9A450DDD48A90A9801EB8A0300227D
:101BD00053F8041D834242EA0102F9D1002A40F081
:101BE000C6800B9A52F8503C002B40F0E181099BD3
:101BF00048A9CA18012352F8041D01330029FAD05C
:101C000053440AF101099945029338DC089A0AEB1A
:101C100004036799013B0AEB020B059A02EB8A0A5F
:101C200001EB8B0B34A901EB830100915BF8040FEE
:101C300001F060F8019B009A002B42F8040F00921B
:101C400020DB09EB040734A9DDF80C800026002511
:101C500001EB870757F8041D013558F8040B01F014
:101C60009FF80146304600F091FFA5420646F1D1AB
:101C7000029A09F101094AF8046F9145D6DDDDF8B1
:101C800008A000E7029A09F1010900264AF8046F4A
:101C90009145CBDDF3E731464FF07E5000F074FF05
:101CA0000646002D85D004994FF07E5000F0B8FA1A
:101CB0000146304600F068FF06467AE713D15CA97A
:101CC00001EB8A0353F8543C4FEA232B3BE70AF11C
:101CD000FF335CA901EB830353F8502C02F07F0221
:101CE00043F8502C62E74FF07C5101F00BFA20B919
:101CF0004FF0000B5DE70026B3E64FF0020B25E73F
:101D00000097002834D1049A3046514200F088FAF6
:101D10004FF08741044601F0F5F9002800F04F81AB
:101D20004FF06E51204601F03BF85CAB03EB8A05A7
:101D300001F0FEF900F0DEFF0AF1010A5CAA4FF0A3
:101D4000874102EB8A07064601F02AF80146204641
:101D500000F01AFF049B0833049301F0E9F945F8F9
:101D6000500C304601F0E4F947F8500C17E00097AA
:101D7000049B0AF1FF3A5CAC083B04934FEA8A03E8
:101D8000E21852F8502C52B948A9049ACB1853F8CB
:101D9000041D0AF1FF3A083A0029F8D004924FF0E6
:101DA0007E50049900F03CFABAF1000F05464CDB76
:101DB0000AF10106059A48AFB600BC19961954F805
:101DC000040D00F097FF294600F0EAFF4FF06E5136
:101DD00046F8040D284600F0E3FFBC420546EED16C
:101DE0000AF1FF39CDF804A0DDF818A04FF0000883
:101DF000BAF1000FC0F2D880B8F1000FC0F2D48061
:101E000005990025744F002401EB890601E0444543
:101E10000DDC56F8041F013457F8040F00F0C0FF22
:101E20000146284600F0B2FEA2450546EFDA5CAC5A
:101E300009F1FF3904EB880319F1020F08F10108D9
:101E400043F8F05CD4D1DDF804A0669A032A13D8D5
:101E5000DFE802F0936565180020BBF1000F57D052
:101E6000079900F10040219B209A03F1004388600C
:101E700002F100424B600A60009A02F007005DB078
:101E8000BDE8F08FBAF1000FE6DD20AD05EB8A0466
:101E900054F8048C54F804794046394600F076FE34
:101EA00006464046314600F06FFE0146384600F0D7
:101EB0006DFEAC4226606060EAD1BAF1010FCBDD65
:101EC0000AF1FF3405EB840454F804894046A768FE
:101ED000394600F05BFE06464046314600F054FEAF
:101EE0000146384600F052FEAC426660A060EBD17D
:101EF0000AF1010A04F10805002004EB8A0454F8F1
:101F0000041D00F043FEAC42F9D1BBF1000FA7D194
:101F1000209A219B079CA06022606360ACE7BAF125
:101F2000000F57DB0AF1010420AD002005EB84040B
:101F300054F8041D00F02AFEAC42F9D1BBF1000FA9
:101F400034D000F1004307990B600146209800F05F
:101F50001BFEBAF1000F08DD20AC04EB8A0A54F82E
:101F6000041F00F013FE5445F9D1BBF1000F01D05E
:101F700000F10040079A50607EE7BAF1000F27DBBE
:101F80000AF1010420AD002005EB840454F8041D7F
:101F900000F0FCFDAC42F9D1BBF1000F01D000F123
:101FA0000040079C206067E7002540E70346CAE73A
:101FB000012325E60025E6E50CAB059357E5204611
:101FC0005CA901EB8A0401F0B3F844F8500CE6E692
:101FD0000020E1E70020B1E72878000800000000B9
:101FE0002DE9F84320F00043B3F1485F04460D4665
:101FF000904603DA01F09CF8002859D0214620468B
:1020000000F0CEFE2146064600F0CAFE4CF6D31183
:10201000C2F62E710746304600F0C2FE42F6347119
:10202000C3F2D72100F0B0FD314600F0B9FE4EF604
:102030001B71C3F2386100F0A9FD314600F0B0FE1B
:1020400040F60151C3F6501100F09EFD314600F0FC
:10205000A7FE48F68901C3F6084100F097FD8146C6
:10206000B8F1000F27D028464FF07C5100F098FEC1
:1020700049468046384600F093FE0146404600F04F
:1020800083FD314600F08CFE294600F07DFD4AF6C6
:10209000AB21C3F62A610546384600F081FE0146B1
:1020A000284600F073FD0146204600F06DFD044611
:1020B0002046BDE8F8830146304600F071FE4AF63E
:1020C000AB21C3F62A6100F05FFD394600F068FEDF
:1020D0000146204600F05AFD04462046BDE8F8833C
:1020E0000020704700000000000000000000000019
:1020F00000210020C7F6F871704700BF0000000003
:102100002DE9F04120F0004601460446F50D7F3DE3
:10211000162D1ADC002D804620DB4FF6FF77C0F22B
:102120007F072F4107420DD04FF2CA21C7F2491154
:1021300000F02CFD002100F0EFFFE8B1002C1FDBC8
:1021400028EA07010846BDE8F081B6F1FF4FF9D350
:1021500000F01CFD01460846BDE8F0814FF2CA219F
:10216000C7F2491100F012FD002100F0D5FF18B1AF
:10217000002C0EDB0021E5E721460846BDE8F08192
:102180004FF4000353FA05F504EB050828EA0701AC
:10219000D8E70021CBF68071002E08BF2146D1E799
:1021A000D0F1010338BF0023B0F1004F08BF43F066
:1021B0000103002B2ED1A0F5000300F1FF42B3F183
:1021C000FE4F2CBF00230123B2F1FE4F38BF43F076
:1021D0000103EBB94FF6FE73411EC0F27F0300F11D
:1021E0000042013A99428CBF002101219A428CBFE2
:1021F0000B4641F001037BB910F5000F14BF00231B
:102200000123B0F1FF4F14BF184643F0010070479F
:102210000420704702207047032070470000000030
:1022200010B50C4630F000410346024625D0B1F10E
:10223000FF4F24D2B1F5000F27D3C90D0919FE298C
:1022400033DC0029C4BF22F0FF4242EAC15314DC50
:1022500011F1160F38DA4CF25032944225DC44F278
:1022600060201946C0F6A25000F03AF844F260210E
:10227000C0F6A25100F094FD0346184610BD014679
:1022800000F084FC0346184610BD4FF0984100F062
:1022900087FD43F6B042CFF6FF7294420346E5DB7A
:1022A000C0F3C75102461939C8E74FF2CA20194690
:1022B000C7F2491000F014F84FF2CA21C7F24911D1
:1022C00000F06EFD0346D8E701F1190022F0FF424D
:1022D0004FF04C5142EAC05000F062FD0346CCE79B
:1022E00001F0004120F0004041EA0000704700BFCB
:1022F00081F0004102E000BF83F0004330B54FEAB7
:1023000041044FEA430594EA050F08BF90EA020F23
:102310001FBF54EA000C55EA020C7FEA645C7FEAB6
:10232000655C00F0E2804FEA5454D4EB5555B8BFD9
:102330006D420CDD2C4480EA020281EA030382EA4A
:10234000000083EA010180EA020281EA0303362DDC
:1023500088BF30BD11F0004F4FEA01314FF4801CAF
:102360004CEA113102D0404261EB410113F0004FC1
:102370004FEA03334CEA133302D0524263EB430378
:1023800094EA050F00F0A780A4F10104D5F1200E16
:102390000DDB02FA0EFC22FA05F2801841F1000171
:1023A00003FA0EF2801843FA05F359410EE0A5F145
:1023B00020050EF1200E012A03FA0EFC28BF4CF076
:1023C000020C43FA05F3C01851EBE37101F000452C
:1023D00007D54FF0000EDCF1000C7EEB00006EEB39
:1023E0000101B1F5801F1BD3B1F5001F0CD34908C3
:1023F0005FEA30004FEA3C0C04F101044FEA44521A
:1024000012F5800F80F09A80BCF1004F08BF5FEAA0
:10241000500C50F1000041EB045141EA050130BD80
:102420005FEA4C0C404141EB010111F4801FA4F123
:102430000104E9D191F0000F04BF01460020B1FA78
:1024400081F308BF2033A3F10B03B3F120020CDAB0
:102450000C3208DD02F1140CC2F10C0201FA0CF08E
:1024600021FA02F10CE002F11402D8BFC2F1200CF3
:1024700001FA02F120FA0CFCDCBF41EA0C019040A9
:10248000E41AA2BF01EB0451294330BD6FEA0404F2
:102490001F3C1CDA0C340EDC04F11404C4F12002DD
:1024A00020FA04F001FA02F340EA030021FA04F3EF
:1024B00045EA030130BDC4F10C04C4F1200220FA46
:1024C00002F001FA04F340EA0300294630BD21FA84
:1024D00004F0294630BD94F0000F83F4801306BF4A
:1024E00081F480110134013D4EE77FEA645C18BF3E
:1024F0007FEA655C29D094EA050F08BF90EA020FD5
:1025000005D054EA000C04BF1946104630BD91EACC
:10251000030F1EBF0021002030BD5FEA545C05D1CF
:102520004000494128BF41F0004130BD14F580040E
:102530003CBF01F5801130BD01F0004545F0FE4182
:1025400041F470014FF0000030BD7FEA645C1ABFB7
:10255000194610467FEA655C1CBF0B46024650EAEE
:10256000013406BF52EA033591EA030F41F400211A
:1025700030BD00BF90F0000F04BF0021704730B5A0
:102580004FF4806404F132044FF000054FF0000175
:1025900050E700BF90F0000F04BF0021704730B536
:1025A0004FF4806404F1320410F0004548BF40420B
:1025B0004FF000013EE700BF42004FEAE2014FEA60
:1025C00031014FEA02701FBF12F07F4393F07F4F3B
:1025D00081F06051704792F0000F14BF93F07F4F6D
:1025E000704730B54FF4607401F0004521F00041B0
:1025F00020E700BF50EA010208BF704730B54FF036
:1026000000050AE050EA010208BF704730B511F03A
:10261000004502D5404261EB41014FF4806404F172
:1026200032045FEA915C3FF4DCAE4FF003025FEAF4
:10263000DC0C18BF03325FEADC0C18BF033202EB7C
:10264000DC02C2F1200300FA03FC20FA02F001FAD6
:1026500003FE40EA0E0021FA02F11444C1E600BF75
:1026600070B54FF0FF0C4CF4E06C1CEA11541DBF28
:102670001CEA135594EA0C0F95EA0C0F00F0DEF8F3
:102680002C4481EA030621EA4C5123EA4C5350EAD8
:10269000013518BF52EA033541F4801143F4801329
:1026A00038D0A0FB02CE4FF00005E1FB02E506F0BA
:1026B0000042E0FB03E54FF00006E1FB03569CF00F
:1026C000000F18BF4EF0010EA4F1FF04B6F5007F15
:1026D00064F5407404D25FEA4E0E6D4146EB060687
:1026E00042EAC62141EA55514FEAC52040EA5E5010
:1026F0004FEACE2EB4F1FD0C88BFBCF5E06F1ED8BA
:10270000BEF1004F08BF5FEA500E50F1000041EBF0
:10271000045170BD06F0004646EA010140EA02009D
:1027200081EA0301B4EB5C04C2BFD4EB0C0541EABF
:10273000045170BD41F480114FF0000E013C00F3D4
:10274000AB8014F1360FDEBF002001F0004170BDF8
:10275000C4F10004203C35DA0C341BDC04F1140411
:10276000C4F1200500FA05F320FA04F001FA05F29D
:1027700040EA020001F0004221F0004110EBD3706A
:1027800021FA04F642EB06015EEA430E08BF20EA96
:10279000D37070BDC4F10C04C4F1200500FA04F339
:1027A00020FA05F001FA04F240EA020001F00041CB
:1027B00010EBD37041F100015EEA430E08BF20EA3E
:1027C000D37070BDC4F1200500FA05F24EEA020E86
:1027D00020FA04F301FA05F243EA020321FA04F0B5
:1027E00001F0004121FA04F220EA020000EBD3706C
:1027F0005EEA430E08BF20EAD37070BD94F0000F6C
:102800000FD101F00046400041EB010111F4801F9F
:1028100008BF013CF7D041EA060195F0000F18BF50
:10282000704703F00046520043EB030313F4801F8C
:1028300008BF013DF7D043EA0603704794EA0C0F46
:102840000CEA135518BF95EA0C0F0CD050EA41065C
:1028500018BF52EA4306D1D181EA030101F00041D9
:102860004FF0000070BD50EA410606BF1046194601
:1028700052EA430619D094EA0C0F02D150EA01360D
:1028800013D195EA0C0F05D152EA03361CBF10464E
:1028900019460AD181EA030101F0004141F0FE41ED
:1028A00041F470014FF0000070BD41F0FE4141F471
:1028B000780170BD70B54FF0FF0C4CF4E06C1CEA71
:1028C00011541DBF1CEA135594EA0C0F95EA0C0F26
:1028D00000F0A7F8A4EB050481EA030E52EA0335E1
:1028E0004FEA013100F088804FEA03334FF0805502
:1028F00045EA131343EA12634FEA022245EA11152F
:1029000045EA10654FEA00260EF000419D4208BFDF
:10291000964244F1FD0404F5407402D25B084FEA8C
:102920003202B61A65EB03055B084FEA32024FF438
:1029300080104FF4002CB6EB020E75EB030E22BF95
:10294000B61A754640EA0C005B084FEA3202B6EB55
:10295000020E75EB030E22BFB61A754640EA5C0004
:102960005B084FEA3202B6EB020E75EB030E22BF94
:10297000B61A754640EA9C005B084FEA3202B6EB95
:10298000020E75EB030E22BFB61A754640EADC0054
:1029900055EA060E18D04FEA051545EA16754FEAB6
:1029A00006164FEAC30343EA52734FEAC2025FEAD4
:1029B0001C1CC0D111F4801F0BD141EA00014FF063
:1029C00000004FF0004CB6E711F4801F04BF014334
:1029D0000020B4F1FD0C88BFBCF5E06F3FF6AFAE50
:1029E000B5EB030C04BFB6EB020C5FEA500C50F1E0
:1029F000000041EB045170BD0EF0004E4EEA113163
:102A000014EB5C04C2BFD4EB0C0541EA045170BD69
:102A100041F480114FF0000E013C90E645EA060EAD
:102A20008DE60CEA135594EA0C0F08BF95EA0C0FDB
:102A30003FF43BAF94EA0C0F0AD150EA01347FF423
:102A400034AF95EA0C0F7FF425AF104619462CE7FA
:102A500095EA0C0F06D152EA03353FF4FDAE10465D
:102A6000194622E750EA410618BF52EA43067FF4AE
:102A7000C5AE50EA41047FF40DAF52EA43057FF43E
:102A8000EBAE12E7000000000000000000000000B4
:102A90004FEA410212F5001215D211D56FF4787386
:102AA000B3EB625212D94FEAC12343F0004343EA29
:102AB000505311F0004F23FA02F018BF4042704704
:102AC0004FF00000704750EA013005D111F000408E
:102AD00008BF6FF0004070474FF00000704700BF24
:102AE0004FEA4102B2F1E04324BFB3F5001CDCF130
:102AF000FE5C0DD901F0004C4FEAC0024CEA507068
:102B0000B2F1004F40EB830008BF20F00100704796
:102B100011F0804F21D113F13872BCBF01F0004099
:102B2000704741F480114FEA5252C2F11802C2F1CB
:102B3000200C10FA0CF320FA02F018BF40F001004C
:102B40004FEAC1234FEAD32303FA0CFC40EA0C00FE
:102B500023FA02F34FEA4303CCE77FEA625307D13B
:102B600050EA01331EBF4FF0FE4040F44000704772
:102B700001F0004040F0FE4040F40000704700BF0C
:102B800080F0004002E000BF81F0004142001FBF22
:102B90005FEA410392EA030F7FEA226C7FEA236C2B
:102BA0006AD04FEA1262D2EB1363C1BFD218414020
:102BB00048404140B8BF5B42192B88BF704710F0B6
:102BC000004F40F4000020F07F4018BF404211F059
:102BD000004F41F4000121F07F4118BF494292EAC1
:102BE000030F3FD0A2F1010241FA03FC10EB0C00ED
:102BF000C3F1200301FA03F100F0004302D549427A
:102C000060EB4000B0F5000F13D3B0F1807F06D326
:102C100040084FEA310102F10102FE2A51D2B1F11E
:102C2000004F40EBC25008BF20F0010040EA030013
:102C30007047490040EB000010F4000FA2F10102C0
:102C4000EDD1B0FA80FCACF1080CB2EB0C0200FA4A
:102C50000CF0AABF00EBC25052421843BCBFD04098
:102C60001843704792F0000F81F4000106BF80F412
:102C700000000132013BB5E74FEA41037FEA226CD5
:102C800018BF7FEA236C21D092EA030F04D092F0A0
:102C9000000F08BF0846704790EA010F1CBF0020D4
:102CA000704712F07F4F04D1400028BF40F0004031
:102CB000704712F100723CBF00F50000704700F051
:102CC000004343F0FE4040F4000070477FEA226278
:102CD00016BF08467FEA23630146420206BF5FEA49
:102CE000412390EA010F40F4800070474FF0000349
:102CF00004E000BF10F0004348BF40425FEA000C10
:102D000008BF704743F0964301464FF000001CE0B7
:102D100050EA010208BF70474FF000030AE000BF0D
:102D200050EA010208BF704711F0004302D540424B
:102D300061EB41015FEA010C02BF844601460020BD
:102D400043F0B64308BFA3F18053A3F50003BCFAD8
:102D50008CF2083AA3EBC25310DB01FA02FC634485
:102D600000FA02FCC2F12002BCF1004F20FA02F28C
:102D700043EB020008BF20F00100704702F120027F
:102D800001FA02FCC2F1200250EA4C0021FA02F2E0
:102D900043EB020008BF20EADC707047000000002F
:102DA0004FF0FF0C1CEAD0521EBF1CEAD15392EA2E
:102DB0000C0F93EA0C0F6FD01A4480EA010C40020A
:102DC00018BF5FEA41211ED04FF0006343EA501064
:102DD00043EA5111A0FB01310CF00040B1F5000FA6
:102DE0003EBF490041EAD3715B0040EA010062F155
:102DF0007F02FD2A1DD8B3F1004F40EBC25008BF3F
:102E000020F00100704790F0000F0CF0004C08BF5C
:102E100049024CEA502040EA51207F3AC2BFD2F129
:102E2000FF0340EAC250704740F400004FF0000337
:102E3000013A5DDC12F1190FDCBF00F00040704771
:102E4000C2F10002410021FA02F1C2F1200200FAAF
:102E500002FC5FEA310040F1000053EA4C0308BF76
:102E600020EADC70704792F0000F00F0004C02BFC7
:102E7000400010F4000F013AF9D040EA0C0093F042
:102E8000000F01F0004C02BF490011F4000F013B9C
:102E9000F9D041EA0C018FE70CEAD15392EA0C0F0A
:102EA00018BF93EA0C0F0AD030F0004C18BF31F075
:102EB000004CD8D180EA010000F00040704790F04B
:102EC000000F17BF90F0004F084691F0000F91F0EF
:102ED000004F14D092EA0C0F01D142020FD193EAB5
:102EE0000C0F03D14B0218BF084608D180EA01003D
:102EF00000F0004040F0FE4040F40000704740F019
:102F0000FE4040F4400070474FF0FF0C1CEAD052E6
:102F10001EBF1CEAD15392EA0C0F93EA0C0F69D042
:102F2000A2EB030280EA010C49024FEA402037D0AD
:102F30004FF0805343EA111143EA10130CF00040A4
:102F40008B4238BF5B0042F17D024FF4000C8B4294
:102F500024BF5B1A40EA0C00B3EB510F24BFA3EB74
:102F6000510340EA5C00B3EB910F24BFA3EB910344
:102F700040EA9C00B3EBD10F24BFA3EBD10340EA9E
:102F8000DC001B0118BF5FEA1C1CE0D1FD2A3FF6E4
:102F900050AF8B4240EBC25008BF20F00100704799
:102FA0000CF0004C4CEA50207F32C2BFD2F1FF033C
:102FB00040EAC250704740F400004FF00003013A6D
:102FC00037E792F0000F00F0004C02BF400010F411
:102FD000000F013AF9D040EA0C0093F0000F01F025
:102FE000004C02BF490011F4000F013BF9D041EA47
:102FF0000C0195E70CEAD15392EA0C0F08D142027A
:103000007FF47DAF93EA0C0F7FF470AF084676E74C
:1030100093EA0C0F04D14B023FF44CAF08466EE725
:1030200030F0004C18BF31F0004CCAD130F00042F3
:103030007FF45CAF31F000437FF43CAF5FE700BF4B
:103040004FF0FF3C06E000BF4FF0010C02E000BF74
:103050004FF0010C4DF804CD4FEA40024FEA410316
:103060007FEA226C18BF7FEA236C11D001B052EACC
:10307000530C18BF90EA010F58BFB2EB030088BF92
:10308000C81738BF6FEAE17018BF40F00100704701
:103090007FEA226C02D15FEA402C05D17FEA236CE3
:1030A000E4D15FEA412CE1D05DF8040B704700BF2A
:1030B000844608466146FFE70FB5FFF7C9FF0028C1
:1030C00048BF10F1000F0FBD4DF808EDFFF7F4FFFA
:1030D0000CBF012000205DF808FB00BF4DF808ED93
:1030E000FFF7EAFF34BF012000205DF808FB00BFB6
:1030F0004DF808EDFFF7E0FF94BF012000205DF8D8
:1031000008FB00BF4DF808EDFFF7D2FF94BF012088
:1031100000205DF808FB00BF4DF808EDFFF7C8FF81
:1031200034BF012000205DF808FB00BF0000000054
:103130004FEA4002B2F1FE4F0FD34FF09E03B3EBC4
:1031400012620DD94FEA002343F0004310F0004F04
:1031500023FA02F018BF404270474FF0000070475A
:1031600012F1610F01D1420205D110F0004008BFF9
:103170006FF0004070474FF0000070470000000003
:103180004AF20403C2F2000318687047000000000E
:10319000032AC9B270B408D82AB10346121803F83A
:1031A000011B9342FBD170BC70478218044601E0BA
:1031B00004F8011B14F0030FFAD14FF0013303FBA5
:1031C00001F31FE044F8403C44F83C3C44F8383CF0
:1031D00044F8343C44F8303C44F82C3C44F8283C57
:1031E00044F8243C44F8203C44F81C3C44F8183C87
:1031F00044F8143C44F8103C44F80C3C44F8083CB7
:1032000044F8043C161B254640343F2EDADC2C469D
:1032100007E044F8103C44F80C3C44F8083C44F8FF
:10322000043C161B254610340F2EF2DC01E045F855
:10323000043B541B032CFADC01E005F8011B95420A
:10324000FBD3B0E700000000000000000000000019
:1032500001E040F8042B8842FBD3704700000000D7
:1032600070470000000000000000000000000000A7
:10327000FEE7000000000000000000000000000069
:1032800072B6254B83F30988244B4FF040425A60B5
:10329000234AD2F8881041F47001C2F88810002245
:1032A000E1EE102ADA60062383F31488BFF36F8FF0
:1032B00003F03EF81B481C494FF05532FFF7C8FF9A
:1032C0004FF0553219481449FFF7C2FF184A194BFD
:1032D00003E052F8041B43F8041B17498B42F8D350
:1032E00016481749174C0022FFF7B2FFFFF7B8FF47
:1032F00002E054F8043B9847134B9C42F9D303F087
:10330000BFF9124C02E054F8043B9847104B9C4222
:10331000F9D3FFF7ADBF00BF00A0002030EF00E001
:1033200000ED00E000000020002000200020002030
:10333000587F000800A0002030A1002030A100200C
:1033400044D2002088010008880100088801000894
:1033500088010008000000000000000000000000DC
:10336000FEE7000000000000000000000000000078
:1033700072B6FEE700000000000000000000000040
:1033800000F0DEFA00DF0000000000000000000096
:10339000EFF30982064BD2F8CC1059609968683176
:1033A0009960683282F30988002383F3118870479B
:1033B00030EF00E00000000000000000000000000E
:1033C0000A4B002210B59A60094A0720DA601021E2
:1033D00000F0AEF80A204FF4007100F0A9F80B20BD
:1033E0008021BDE8104000F0A3B800BF00ED00E070
:1033F0000003FA05000000000000000000000000CB
:1034000010B5202383F31188194B5B6813F4006314
:103410002AD0EFF30981A1F1680383F309884FF003
:103420008072DA61134A906990F82340806834B161
:1034300012689268824294BF0022012205E012685D
:103440009268824234BF0022012222B10A4A9A6164
:10345000F1EE10FA01E0094A9A61094B5A684A668E
:1034600042F001025A6010BD83F3118810BD00BF05
:1034700000ED00E0DCA20020813300088433000866
:1034800030EF00E00000000000000000000000003D
:1034900010B5202383F3118800F0AAF8002383F3EA
:1034A0001188BDE81040FFF7ABBF0000000000002E
:1034B0002DE9F04F2DED108AC1F80CD0D0F80CD0CA
:1034C000BDEC108ABDE8F08F000000000000000095
:1034D000002383F311882846A04700F0F1FA7047D3
:1034E00082080F4BC03270B500F0030453F822601D
:1034F000E400FF25A54026EA050511FA04F425435A
:1035000043F822500121420900F01F0011FA00F097
:1035100002F1600143F8210043F8220070BD00BFB2
:1035200000E100E0000000000000000000000000DA
:103530008208094B063200F0030030B5C00053F892
:103540002250FF24844025EA040411FA00F00443C9
:1035500043F8224030BD00BF00ED00E00000000055
:10356000024B034A9B699A61FEE700BFDCA2002080
:10357000607800080000000000000000000000006B
:1035800007B5FFF71DFF00F0BBF800F069F800F089
:103590006FFD00F0BDFD40210C4800F0E1F90C4941
:1035A0000C4B8861012280F82020C361002383F343
:1035B000118862B608488969886100934FF4A47144
:1035C000064B074800F00CFA0EBD00BF30A10020EA
:1035D000DCA200200020002065780008613500088A
:1035E00080A100200000000000000000000000009A
:1035F00038B5144B9B6993F8232012B1013A83F834
:1036000023205A6A104C01325A62E3680133E360A6
:103610002368A34214D09A68013A9A600BE00D68BF
:10362000CA686860CB60056083F3118808699047B9
:10363000202383F31188216803488B68002BEED088
:1036400038BD00BFDCA20020CCA20020000000009A
:10365000014B1860FFF78CBEC8A2002000000000DC
:10366000044B4FF0FF329A6001325B601B60DA60FE
:10367000704700BFCCA20020000000000000000046
:10368000C2600B4A036130B51368154601E01B6840
:10369000091B9C688C42FAD35A680360AB424260B3
:1036A00010605860816002D09A68511A996030BDEC
:1036B000CCA200200000000000000000000000007C
:1036C0000368074A934203D0996882688A189A600F
:1036D0004268136003685A600023C360704700BFEC
:1036E000CCA200200000000000000000000000004C
:1036F000024B186802681A6053607047DCA2002011
:10370000034B00225B601B609A605B611B6170472A
:10371000DCA200200000000000000000000000000B
:10372000002380F820308268054B1B68996891421D
:10373000FBD25A680360426010605860704700BF57
:10374000DCA20020000000000000000000000000DB
:1037500008B5202383F3118890F82030032B0AD07A
:1037600001D82BB110E0052B09D00D2B0CD106E0B0
:1037700083F3118808BD836A9A6801329A604368AE
:1037800002681A60026853604FF0FF338362FFF7EC
:10379000C7FF002383F3118808BD0000000000006C
:1037A00070B50D4DAC69142384F8233084F82000E3
:1037B000FFF79EFF0123E26980F82030ADF164033A
:1037C0009A42A86102D90548FFF742FFA86921463D
:1037D000BDE87040FFF76CBEDCA2002070780008E6
:1037E00030B5B1F1FF3F87B005460B4C0DD0A36952
:1037F0000A4A01A8FFF744FF2846FFF7D1FF049BC0
:103800002BB101A8FFF75CFF01E0FFF7C9FFA36937
:10381000986A07B030BD00BFDCA200205137000815
:1038200070B5114E8162B36981689A68914204460D
:1038300003D8BDE87040FFF773BF1846FFF770FF6D
:103840000123C26984F82030ADF164039A42054631
:10385000B46102D90548FFF7FBFE20462946BDE8C2
:103860007040FFF725BE00BFDCA200207078000882
:1038700070B50E4DAC69FFF73BFF012380F8203097
:103880001333A86184F823302046FFF749FFE2692B
:10389000ADF164039A4202D90548FFF7D9FEA86941
:1038A0002146BDE87040FFF703BE00BFDCA2002048
:1038B0007078000800000000000000000000000018
:1038C00070B5124DAC69FFF713FF012380F820306B
:1038D000013B84F82030A368A8612E462D68AA68B1
:1038E0009A42FBD86B68E269636025601C60ADF1A9
:1038F00064039A426C6002D90548FFF7A9FEB069DB
:103900002146BDE87040FFF7D3BD00BFDCA2002018
:1039100070780008000000000000000000000000B7
:10392000044B1A689B6992689B689A4201D9FFF719
:10393000C7BF7047DCA200200000000000000000AC
:10394000044B9B6993F823300BB9FFF791BFFFF746
:10395000B7BF00BFDCA20020000000000000000094
:10396000022280F82020023A10B5816080F82120E0
:103970001424416402640121C263426282610A4AE2
:1039800080F8234080F82210516902614161506142
:1039900000F12C02C26200F130024263026300F1C6
:1039A0004C020861C26110BDDCA2002000000000D2
:1039B00001E000F8012B8842FBD3704700000000B3
:1039C0006439411810B5C1600B64029B4B64034B12
:1039D0000B661146BDE81040FFF7C2BFD1340008A6
:1039E0002DE9F34100F14C0804460D4617464146C7
:1039F000FF221E46FFF7DCFF404661195522FFF704
:103A0000D7FF202383F31188089B294600933A4669
:103A100033462046FFF7D4FF00210446FFF700FF9E
:103A2000002383F311882046BDE8FC8100000000DC
:103A300008B50146202383F311880620FFF7D0FE46
:103A4000002383F3118808BD00000000000000007F
:103A500008B5202383F31188054BD968411A02D099
:103A60000620FFF7BDFE002383F3118808BD00BFC9
:103A7000CCA20020000000000000000000000000B8
:103A80000E4B10B59C69A06203E00368E362FFF788
:103A900047FE234653F82C0F9842F6D194F8213074
:103AA00013F0030F04D1636922691A61226953611B
:103AB0000E20BDE81040FFF773BE00BFDCA200205F
:103AC000202383F31188FFF7DBBF00000000000014
:103AD0004B68016043604860186070470000000058
:103AE0000346006802681A605360704700000000D7
:103AF000406000608160704700000000000000002E
:103B0000826810B50C46511E00290346816010DA08
:103B10001CB982604FF0FF3010BD074A906919460A
:103B20008362FFF7D5FF03202146BDE81040FFF771
:103B300057BE002010BD00BFDCA200200000000026
:103B400083680133002B10B5836007DCFFF7C8FFE3
:103B500000228262BDE81040FFF7E2BD10BD000008
:103B600010B50B461B688B4203D09C688268944258
:103B7000F8D25A68036042601060586010BD0000BF
:103B80000346006802681A60536070470000000036
:103B900042680168116003685A60704700000000C5
:103BA0000023406000608360704700000000000058
:103BB00070B51C4B84689D690646FCB92CE0A36077
:103BC00094F82030042B03D0052B0AD083B119E0E0
:103BD0002046FFF7DDFFA16AFFF7C2FFA36A9C68DA
:103BE0000CE02046FFF7D4FFA16AFFF7B9FF09E018
:103BF0002046FFF7CDFFFFF793FD03E0AB68A26817
:103C00009A42DCD328463146FFF7AAFF0420AE6271
:103C1000BDE87040FFF7C4BD2B6C8560C3602864AD
:103C200070BD00BFDCA2002000000000000000000A
:103C300008B5202383F31188FFF7BAFF002383F32D
:103C4000118808BD00000000000000000000000016
:103C500038B5154B9A69202383F31188146C2368B7
:103C6000E568A342156417D0536C07E02968A942A0
:103C700003D089688B4238BF0B46ED68002DF5D123
:103C800093602046FFF77CFF026CA060E26029464B
:103C90000464FFF7C5FD01E00023A360002383F364
:103CA0001188204638BD00BFDCA2002000000000C3
:103CB00008B5C36B90F8202041EA0303082AC363C8
:103CC00003D1826A134206D108BD092A07D1826A4C
:103CD0001340934203D1FFF723FD0023836208BD05
:103CE00070B505460E46046807E0E3686068A168A1
:103CF0003343E360FFF7DCFF2468AC42F5D170BDCD
:103D000010B5C1608160016001EB82010446416031
:103D10001C301146FFF7ECFE04F110000021BDE855
:103D20001040FFF7E5BE00000000000000000000AA
:103D300070B504460D461C301146FFF7E1FE0646FD
:103D400078B9A368626843F8045B9342A36028BF14
:103D5000236804F1100028BFA360FFF7F1FEFFF70E
:103D6000DFFD304670BD00000000000000000000D4
:103D700008B5202383F31188FFF7DAFF002383F3CC
:103D8000118808BD000000000000000000000000D5
:103D900070B504460D4610301146FFF7B1FE0646D9
:103DA00080B9E36853F8042B2A606268E3609342A9
:103DB00028BF236804F11C0028BFE360FFF7C0FEA2
:103DC000FFF7AEFD304670BD0000000000000000AF
:103DD00008B5202383F31188FFF7DAFF002383F36C
:103DE000118808BD00000000000000000000000075
:103DF0000346006802681A605360704700000000C4
:103E000051B1074B9B699862426818605A604360E1
:103E10000D201360FFF7E4BC4FF0FF30704700BF88
:103E2000DCA20020000000000000000000000000F4
:103E300010B5C361029B406000248A180060846052
:103E400041618161C1600261036210BD0000000038
:103E5000C36810B54361836100230446836007E0B3
:103E60002046FFF7C5FFFFF75BFC6FF0010383629D
:103E70002368A342F4D110BD000000000000000040
:103E800070B5202304460D4683F31188C3695BB1E6
:103E9000984709E020462946FFF7B2FF002803DAD9
:103EA000334683F3118870BDA668002EF2D0A36953
:103EB0002269013EA66013F8010B9342A36124BF5F
:103EC000E368A361002383F3118870BD0000000044
:103ED0002DE9F047984604460D469146C7692023D0
:103EE00083F3118800265FB12046B84708E02046DA
:103EF0004146FFF785FF18B1534683F311881BE055
:103F0000D4F808A0BAF1000FF1D00AF1FF33A36092
:103F1000A36913F8012BAA552269A361934224BF18
:103F2000E368A361002383F3118801364E4503D073
:103F3000203383F31188D6E73046BDE8F0870000D0
:103F4000C361009B41618161C1608918406000606C
:103F50008260016103627047000000000000000001
:103F6000C368026910B543618361D31A0446836054
:103F700007E02046FFF73CFFFFF7D2FB6FF001039D
:103F800083622368A342F4D110BD0000000000004A
:103F9000F8B504460D461646202383F3118809E040
:103FA00020463146FFF72CFF002803DA3B4683F317
:103FB0001188F8BDA768002FF2D06369013FA760A0
:103FC00003F8015B22696361934224BFE368636184
:103FD000E3690BB120469847002383F31188184604
:103FE000F8BD00000000000000000000000000001C
:103FF0002DE9F047994604460D461746D0F81C8037
:10400000202383F31188002608E020464946FFF765
:10401000F7FE18B1534683F3118821E0D4F808A0C5
:10402000BAF1000FF1D00AF1FF33A3602A78636977
:1040300003F8012B22696361934224BFE368636143
:10404000B8F1000F01D02046C047002383F3118848
:104050000136013F04D00135203383F31188DDE7B9
:104060003046BDE8F08700000000000000000000BE
:10407000054A064B22F007021A60054A054B22F05A
:1040800007021A60704700BF4BD20020FCA200203C
:1040900000C00120F8A20020000000000000000085
:1040A000064B0749C21D0968186822F00702091A61
:1040B000914226BF82181A6000207047FCA200209F
:1040C000F8A2002000000000000000000000000036
:1040D00008B5202383F31188FFF7E2FF002383F361
:1040E000118808BD00000000000000000000000072
:1040F000024B1868024B1B68C01A7047F8A20020D8
:10410000FCA20020000000000000000000000000F1
:104110000448054B036000238360C3601030FFF741
:104120003FBD00BF00A30020D140000800000000F8
:10413000F8B51D4C002818BF0446073104F11000E3
:1041400021F0070604F10807FFF772FD18E06B681D
:10415000B34214D306F108029342286801D23860B2
:1041600008E0A918A8506FF00702921BD3184B6003
:1041700039606E6045F8084BFFF76AFD11E02F4685
:104180003D68002DE3D1FFF763FD25684DB106F1D1
:104190000800A84720B10460466000F1080500E06F
:1041A00005462846F8BD00BF00A30020000000001F
:1041B00010B500F025FF074801F0B2FA00F038F81A
:1041C00000F096F800F064FA00F062F9BDE81040E3
:1041D00002F0B6B8E079000800000000000000001E
:1041E000084B81425B6802D9834207D301E08342D6
:1041F00006D28B422CBF0020012070470020704760
:1042000001207047001000E00000000000000000E6
:1042100038B5054B5C68051920462946FFF7E0FFD5
:104220000028F9D138BD00BF001000E000000000F8
:1042300000F09EBF00000000000000000000000031
:1042400001230370013B43608360C36003614361EA
:104250001830FFF7A5BC00000000000000000000BF
:1042600010B52023044683F31188416000F0B0FFAD
:1042700002232370023B83F3118810BD000000006D
:1042800010B5C3600323826001610370BDE8104074
:1042900000F0DEBF00000000000000000000000091
:1042A00010B51C46202383F311882346FFF7E8FF4F
:1042B000002383F3118810BD0000000000000000FF
:1042C00038B51D460446202383F311882B46074D3D
:1042D000FFF7D6FFAB6902206361FFF761FAAB69B4
:1042E000986A002383F3118838BD00BFDCA2002048
:1042F00001F02EB9000000000000000000000000E6
:1043000001230370013B4360704700000000000080
:1043100010B52023044683F3118841608988018108
:1043200001F026F902232370023B83F3118810BDAC
:1043300008B5202383F3118801F0C2F9002383F329
:10434000118808BD0000000000000000000000000F
:1043500070B5046AD4F854321B681A78042A24D140
:104360005A69DB89558A13F002031ED1E169A269FB
:104370008A1A6169521AAA4217D383F31188B2FBD1
:10438000F5F3D4F854226B431068012104F10C02B8
:1043900000F0E6F9202383F31188D4F8543218682A
:1043A0000121BDE8704000F0FBB970BD00000000C5
:1043B00070B5046AD4F854321B681A78042A1FD1E5
:1043C0009B8913F002031BD1E26B256CAD1AA26B23
:1043D000AD1A15D083F31188D4F85432012118682E
:1043E00004F130022B4600F0CBF9202383F311882F
:1043F000D4F8543218680121BDE8704000F0E8B9E3
:1044000070BD00000000000000000000000000007F
:104410000C30FFF75DBD0000000000000000000050
:104420000C304FF0FF33FFF753BD000000000000D9
:104430003030FFF7DDBD000000000000000000008C
:1044400030304FF0FF33FFF7D3BD00000000000015
:104450000C30FFF715BD0000000000000000000058
:104460000C304FF0FF31FFF70BBD000000000000E3
:104470003030FFF78DBD000000000000000000009C
:1044800030304FF0FF32FFF783BD00000000000026
:104490007047000000000000000000000000000065
:1044A00013B503460D4A43F8042B04464360012329
:1044B000037204F1540100904FF480720C30084BE9
:1044C000FFF7B6FC04F1300004F5AA714FF48072D6
:1044D000044B0094FFF734FD1CBD00BF807800083A
:1044E00051430008B1430008000000000000000034
:1044F000202383F311880B68C0F8541298600223BC
:104500000372023B83F31188704700000000000033
:1045100070B5866806F10C0504462846FFF798FC3E
:1045200006F13000FFF71CFD301D0121FFF7D8FB1D
:104530006369204601212A465B8A00F011F9204672
:104540000121BDE8704000F02BB900000000000020
:1045500090F8303003F06003202B1AD190F831200E
:10456000212A06D0222AA3F120030DD0202A12D11D
:1045700005E00A4B436207238362073B06E0074AD4
:1045800042620722826201E043628362C3620120C9
:104590007047002070471846704700BFF8A0002001
:1045A000F8B5876804460D46202383F31188082157
:1045B000381DFFF795FBFB6B3E6CF61ABB6BF61ACA
:1045C0000DD0002383F3118833462046294607F196
:1045D000300200F0D5F8202383F3118813E02B1D5F
:1045E00054F823104B690A8A5B68013A13400ED1D4
:1045F00083F311882046294607F1300200F0C0F805
:10460000202383F311882046294600F0E1F8002397
:1046100083F31188F8BD00000000000000000000D6
:10462000F8B5876804460E46202383F311880421D9
:10463000381DFFF755FB6369FA695D8ABB697969C3
:10464000D21A521AAA4212D3002383F31188B2FB62
:10465000F5F36B432046314607F10C0200F080F879
:10466000202383F311882046314600F099F8002377
:1046700083F31188F8BD0000000000000000000076
:104680007047000000000000000000000000000073
:1046900001F006BC00000000000000000000000067
:1046A00001230370013B436083608381C3817047B2
:1046B00038B50446202383F3118800254160056145
:1046C00045618561C56101F013FC022323702B460F
:1046D00083F3118838BD00000000000000000000D6
:1046E00070B5064650690D46144618B100211022D7
:1046F000FEF74EFDA06918B100211022FEF748FD1B
:104700002B1D3046294646F82340BDE8704001F095
:10471000C7BC000000000000000000000000000016
:1047200030B50C1D002550F82440A4692560E260D6
:104730006360A560BDE8304001F082BD000000006C
:1047400030B50C1D002550F8244064692560E260F6
:104750006360A560BDE8304001F08ABD0000000044
:1047600030B50C1D012550F82440A4696360002376
:104770002560E260A360BDE8304001F061BD00004B
:1047800030B50C1D012550F8244064696360002396
:104790002560E260A360BDE8304001F069BD000023
:1047A00070B5C48954FA01F313F001064FF0010308
:1047B00007D18B4043EA0404C48101F079FD3046FF
:1047C00070BD184670BD0000000000000000000031
:1047D00070B5848954FA01F313F001064FF0010318
:1047E00007D18B4043EA0404848101F069FD30461F
:1047F00070BD184670BD0000000000000000000001
:10480000034602220270023A028783F83A2080F8B7
:104810003B208281C281026142618261C26183F870
:10482000202001F0CDBB00000000000000000000CF
:10483000F8B50023044680F8203000F1300201F082
:10484000EFFC63689B6823B120469847002840F03E
:10485000F68094F8303013F0600540F0DE8094F874
:10486000316003F07F0343EA0626B6F5407F3BD074
:1048700010DC022E00F08A8004DC2EB3012E40F002
:10488000CC807DE0B6F5807F25D0B6F5817F40F005
:10489000C48097E0B6F5C06F47D009DC40F2023320
:1048A0009E4200F0A280B6F5A06F40F0B68027E0EF
:1048B000B6F5106F53D040F602439E4260D0B6F575
:1048C000006F40F0AA8044E004F1380363620223E1
:1048D000A362E662B3E094F83230012B40F09D8091
:1048E000238F23F0020307E094F83230012B40F0CD
:1048F0009480238F43F0020323876562A5625FE003
:10490000238EB3F5A06F40F0838094F832302046B8
:1049100084F83A3001F0B4FB63681B6813B1204699
:10492000012198470323237072E0626894F8357080
:1049300094F83430566894F8331094F832202046B6
:1049400043EA0723B047002867D0436863620368DF
:1049500003E004F13B0363620123A36230E094F8B7
:10496000323084F83B300BB9033300E0042323706A
:1049700063681B68002B4BD020460221984747E014
:104980005F4B63620223A362023B44E094F834105D
:1049900011F0800F01F00F0103D0204601F030FC30
:1049A00002E0204601F01CFC012802D0022834D18C
:1049B00003E0544BA662636202E0534BA062636261
:1049C000E5623CE094F832303BBB94F8343013F0AD
:1049D0000F011DD013F0800F03D0204601F0A0FC82
:1049E00016E0204601F094FC12E094F83230A3B9AE
:1049F00094F8343013F00F010AD013F0800FC9B2CD
:104A000003D0204601F07CFC02E0204601F070FC5F
:104A100000236362A362E36211E02046002101F0FB
:104A20006FFC2046002101F063FC63681B6813B132
:104A3000204605219847052384F82030F8BD94F8D6
:104A4000372094F8363043EA0223A26A9A4288BF9C
:104A5000A36294F93030A56A002B28DA9DB10123B6
:104A600084F8203020462B460021626AFFF768FE5A
:104A7000202383F3118800212046FFF7A9FE00239D
:104A800083F31188F8BD022384F8203020462B469A
:104A900029462A46FFF744FE202383F31188204647
:104AA0002946FFF77DFE2B4683F31188F8BD9DB1A3
:104AB000032384F8203020462B460021626AFFF74A
:104AC0002FFE202383F3118800212046FFF768FE84
:104AD000002383F31188F8BD042384F82030204696
:104AE0002B4629462A46FFF72BFE202383F3118805
:104AF00020462946FFF76CFE2B4683F31188F8BD4C
:104B0000A0780008C0780008B07800080000000015
:104B100038B590F82030012B044602D0042B39D14F
:104B200033E090F8371090F83620836A42EA012289
:104B3000934216D20269128AB3FBF2F502FB1535D5
:104B40007DB92B4629462A46FFF7FAFD202383F339
:104B5000118820462946FFF73BFE2B4683F3118838
:104B600038BD0021022384F8203020460B460A4637
:104B7000FFF7D6FD202383F3118800212046FFF79D
:104B80000FFE002383F3118838BDC36A03B1984731
:104B900000230DE0002101F0B3FB2046002101F0CD
:104BA000A7FB63681B6813B12046052198470523BE
:104BB00084F8203038BD0000000000000000000034
:104BC00090F82030022B10B5044614D0032B1BD1D3
:104BD0000021013380F820300A460B46FFF7B0FD74
:104BE000202383F3118800212046FFF7F1FD0023E5
:104BF00083F3118810BD03699B699B6823B9C36A5D
:104C000003B1984700230EE02046002101F078FB15
:104C10002046002101F06CFB63681B6813B120463D
:104C200005219847052384F8203010BD00000000BE
:104C3000074B3D22196810B59A60064A13681BB1EC
:104C4000506801F03D019847BDE81040FEF7D8BB21
:104C50000060024020A300200000000000000000CF
:104C6000084B4FF47462196810B59A60064A93684D
:104C700023B18909D06801F03D019847BDE8104093
:104C8000FEF7BEBB0060024020A300200000000031
:104C9000084B4FF47412196810B59A60064A1369EC
:104CA00023B1090C506901F03D019847BDE810405F
:104CB000FEF7A6BB0060024020A300200000000019
:104CC000084B4FF07462196810B59A60064A9369F0
:104CD00023B1890DD06901F03D019847BDE810402E
:104CE000FEF78EBB0060024020A300200000000001
:104CF000074B3D22596810B5DA60064A136A1BB1AA
:104D0000506A01F03D019847BDE81040FEF778BBBE
:104D10000060024020A3002000000000000000000E
:104D2000084B4FF47462596810B5DA60064A936A0A
:104D300023B18909D06A01F03D019847BDE81040D0
:104D4000FEF75EBB0060024020A3002000000000D0
:104D5000084B4FF47412596810B5DA60064A136BA9
:104D600023B1090C506B01F03D019847BDE810409C
:104D7000FEF746BB0060024020A3002000000000B8
:104D8000084B4FF07462596810B5DA60064A936BAD
:104D900023B1890DD06B01F03D019847BDE810406B
:104DA000FEF72EBB0060024020A3002000000000A0
:104DB000074B3D22196810B59A60064A136C1BB167
:104DC000506C01F03D019847BDE81040FEF718BB5C
:104DD0000064024020A3002000000000000000004A
:104DE000084B4FF47462196810B59A60064A936CC8
:104DF00023B18909D06C01F03D019847BDE810400E
:104E0000FEF7FEBA0064024020A30020000000006C
:104E1000084B4FF47412196810B59A60064A136D66
:104E200023B1090C506D01F03D019847BDE81040D9
:104E3000FEF7E6BA0064024020A300200000000054
:104E4000084B4FF07462196810B59A60064A936D6A
:104E500023B1890DD06D01F03D019847BDE81040A8
:104E6000FEF7CEBA0064024020A30020000000003C
:104E7000074B3D22596810B5DA60064A136E1BB124
:104E8000506E01F03D019847BDE81040FEF7B8BAFA
:104E90000064024020A30020000000000000000089
:104EA000084B4FF47462596810B5DA60064A936E85
:104EB00023B18909D06E01F03D019847BDE810404B
:104EC000FEF79EBA0064024020A30020000000000C
:104ED000084B4FF47412596810B5DA60064A136F24
:104EE00023B1090C506F01F03D019847BDE8104017
:104EF000FEF786BA0064024020A3002000000000F4
:104F0000084B4FF07462596810B5DA60064A936F27
:104F100023B1890DD06F01F03D019847BDE81040E5
:104F2000FEF76EBA0064024020A3002000000000DB
:104F30000A4B00221A6013460949C8580021016033
:104F400008480C3381500832C02BF5D1064AC13BCA
:104F50009360D360054A9360D3607047A0A300209C
:104F6000D078000820A300200060024000640240C6
:104F7000F8B51E4E457A3768012404FA05FC1CEA90
:104F8000070F2FD11A4C44F8352004EBC5056B6090
:104F90004CEA070313F0FF0F336004D0154C256B68
:104FA00045F40015256313F47F4F04D0114B1C6B9F
:104FB00044F480041C6303681C6824F001041C6032
:104FC0001C6814F00104FBD1067A45683D2717FAE6
:104FD00006F62E6021251C605D612AB1807A0901E8
:104FE000FEF77EFA2046F8BD1046F8BDA0A30020CB
:104FF00020A3002000380240000000000000000054
:10500000254B26481A6942F001021A6100221A61F2
:10501000596941F0010159615A61996941F00101F1
:1050200099619A61196A19621A62596A41F001011B
:1050300059621B495A62486007208A600860194912
:10504000C86840F08070C8601749086840F00100E7
:105050000860196C41F0805119641449086840F4E3
:1050600080700860196F01F44071B1F5007F03D0C2
:105070004FF4803119671A671B6F074A13F4004F0A
:1050800007D1136F43F400731367136F43F40043A6
:105090001367FFF74DBF00BF003802403F9002008A
:1050A00010E000E0F0ED00E0001000E000700040D3
:1050B000274B4FF080521A64264B4FF480421A60FF
:1050C000244B5B6813F4804FFAD0214B1A6842F0EE
:1050D00001021A601E4B1A6812F0020FFAD01A6809
:1050E00042F480321A601A4B1A6812F4003FFAD068
:1050F0005A6F42F001025A67154B5A6F12F0020FB5
:10510000FAD0154A5A601A6842F080721A60104B41
:105110001A6812F0007FFAD09968104A41EA020238
:105120009A600F4A40F2057111609A6842F00202DB
:105130009A60074B9A6802F00C02082AF9D15A6C5F
:1051400042F480425A645A6E42F480425A66704772
:1051500000380240007000400854400700B408388E
:10516000003C0240000000000000000000000000C1
:1051700070B50E4B0E4C0F4D00225A602046FFF7C3
:105180005FF80D4BE562A3620C4B23630C4C204689
:10519000FFF756F80B4BA3620B4B183D1220602112
:1051A000E5622363BDE87040FEF79AB90023014031
:1051B000A4A300206079000800200140162C020002
:1051C000D8A3002000210140162C0202000000009C
:1051D0000378012B10B5044629D1154B98420ED106
:1051E000144AC06A23460621FFF7C2FEE36A124A48
:1051F0001B689A60114B5A6C42F4807210E0104B9D
:1052000098420ED10B4AC06A23460621FFF7B0FE32
:10521000E36A0C4A1B689A60084B5A6C42F40072AD
:105220005A64A36A00225A609A6001329A6010BDE3
:10523000A4A30020F15200084C2001400038024095
:10524000D8A300204C210140000000000000000015
:105250000369016B1A6830B50AB141F48071C26A02
:1052600085681268C468D5609D88012C88BF41F0AC
:1052700008016C4354601160116841F00101116034
:10528000826A002111609969D160D9691161196A36
:10529000D162596A1163996A516319695B6941F076
:1052A000806143F4407341F4807143F00303516023
:1052B000936030BD0000000000000000000000000E
:1052C000C36A1A68116821F0010110B511601168F4
:1052D00011F00101FBD15A681B7A3D2414FA03F343
:1052E0001360836A0122596099609A6010BD0000C2
:1052F00011F00C0F38B504460D461ED0FFF7E0FF45
:105300002369DB684BB105220021227020469847B3
:105310002378052B01D1033B237000222261202337
:1053200083F31188606920B1213B62618362FEF7DB
:10533000F7F9002383F3118838BD0369002B4BD0A4
:1053400011F0100F05D09B681BB1C268816852082C
:10535000984715F0200F3FD021690B688BB18B68FF
:10536000002B39D0E268012A07D98D88A16852083C
:105370005543204601EB450101E0A16820469847CE
:1053800038BD2046FFF79CFF21698B68A3B104223A
:105390002270E268012A07D98D88A1685208554316
:1053A000204601EB450101E0A1682046984723789B
:1053B000042B03D1023B00E0022323700022226170
:1053C000202383F31188606918B162618262FEF75D
:1053D000A7F9002383F3118838BD00000000000006
:1053E000314B1A68002112F0200F10B5196027D038
:1053F0002E4CE36A1B685B6813B3236903B3204632
:10540000FFF75EFF2369DB684BB1052201212270A3
:10541000204698472378052B01D1033B23700022B7
:105420002261202383F31188606930B11F4B5A61D8
:105430004FF0FF338362FEF773F9002383F3118883
:105440001B4B1A68002112F0200F196027D0194C4D
:10545000E36A1B685B6813B3236903B32046FFF755
:105460002FFF2369DB684BB1052201212270204602
:1054700098472378052B01D1033B2370002222613A
:10548000202383F31188606930B10A4B5A614FF0D1
:10549000FF338362FEF744F9002383F31188BDE8EC
:1054A0001040FDF7ADBF00BF00200140A4A30020C5
:1054B00000210140D8A300200000000000000000EF
:1054C0000648074B4FF6FE7210B51A8243689B6878
:1054D0009847BDE81040FDF793BF00BF0CA4002023
:1054E000000001400000000000000000000000007B
:1054F000134B10B51A8A9C8914404FF6E17114F0D1
:10550000020F198203D00F4843681B69984714F0B3
:10551000040F03D00B4843689B69984714F0080FA9
:1055200003D0084843681B6A984714F0100F03D053
:10553000044843689B6A9847BDE81040FDF760BF88
:10554000000001400CA4002000000000000000004A
:1055500010B5034C2046FEF7D3FE024B236110BD6D
:105560000CA400200000014000000000000000002A
:10557000F8B503784F4D012B04461CD1A84214D135
:105580004D4B5A6C42F001025A645A6A42F00102D1
:105590005A6200225A6219207021FDF7A1FF1B20D8
:1055A0007021FDF79DFF454BE360236946F66802D5
:1055B0001A839A8309E0036900221A809A811A8269
:1055C0005A639A63DA631A645A626168E0680B6826
:1055D0002269CF68B0FBF3F3013B13852389013BBC
:1055E0009BB2D3628B8D938007F00F03012B02D007
:1055F000022B04D100E0002343F0010300E000236C
:105600004E6906F00F00012803D0022803D143F0B1
:10561000200343F01003C86900F00F0CBCF1010F28
:1056200004D0BCF1020F03D143F4007343F4807340
:10563000D1F824C00CF00F0CBCF1010F04D0BCF168
:10564000020F03D143F4005343F48053AC421DD105
:1056500007F0F004102C03D0202C03D143F00803F2
:1056600043F0040306F0F004102C03D0202C03D1E7
:1056700043F0800343F0400300F0F000102803D013
:10568000202803D143F4006343F48063138401238F
:1056900093828B68003B18BF012393810023138200
:1056A000CB8D6FEA43436FEA5343A2F8443085231E
:1056B0001380F8BD0CA400200038024000BD010595
:1056C000036910B501F10C0403EB840462604268C5
:1056D00002EBC102126962B19A89022092B210FAF9
:1056E00001F1114205D189B241EA0202C9439A810E
:1056F000198210BD00000000000000000000000042
:105700004B6843608B688360CB68C3600B694361FF
:105710004B6903628B6943620B680360704700004A
:105720001E4B1A6B6FEA52226FEA422210B51A63BF
:105730001A6D6FEA522204466FEA42221A65214628
:105740001748FFF7DDFF04F11C011648FFF7D8FFEB
:1057500004F138011448FFF7D3FF04F15401134852
:10576000FFF7CEFF04F170011148FFF7C9FF04F104
:105770008C011048FFF7C4FF04F1A8010E48FFF7A1
:10578000BFFF04F1C4010D48FFF7BAFF0C4804F154
:10579000E001BDE81040FFF7B3BF00BF0038024092
:1057A000000002400004024000080240000C0240D9
:1057B000001002400014024000180240001C024089
:1057C0000020024000000000000000000000000077
:1057D0002DE9F04302F0040602F0180502F060041F
:1057E00002F0030702F4F062B608ED086409D2097A
:1057F000002311F0010F4AD003F007084FEA880890
:105800004FF00F0902FA08FC072B09FA08F86FEAB3
:10581000080808D8D0F8209008EA090848EA0C0CD3
:10582000C0F820C007E0D0F8249008EA090848EA48
:105830000C0CC0F824C0D0F804804FF0010C0CFA16
:1058400003FC28EA0C0C4CEA060CC0F804C04FF02C
:1058500003094FEA430CD0F8088009FA0CFC6FEA00
:105860000C0C0CEA080848EA0508C0F80880D0F8D3
:105870000C800CEA080848EA0408C0F80C80D0F84C
:1058800000800CEA080C4CEA070CC0F800C049087C
:1058900005D07600AD00A400BF000133A9E7BDE844
:1058A000F083000000000000000000000000000085
:1058B0000346006802681A605360704700000000E9
:1058C000026CC36B30B59468002202F148014901B3
:1058D000585800280ADA4FF08040585051015918A2
:1058E000D1F8081911F0020FF8D001E0002058504B
:1058F0005101591800204FF0FF35C1F81009C1F8C7
:10590000085902F1580149015D5885420ADA4FF001
:105910008040585051015918D1F8081B11F0100F50
:10592000F8D000E058505101591800200132C1F858
:10593000100B0138A242C1F8080BC6D94FF0011272
:10594000C3F81C2830BD000000000000000000006B
:10595000036C1B68436470470000000000000000F7
:1059600030B513460C4603E054F8045B013B056078
:10597000002BF9D101EB820030BD000000000000D7
:105980000332033310B592089B0805E0046813B195
:1059900041F8044B013B013A002AF7D110BD000049
:1059A0000368C91801601846704700000000000035
:1059B000890141F020010161036913F0200FFBD13F
:1059C0000C20FEF725BC00000000000000000000D5
:1059D00010B5044C206D18B1FDF7A2FE002323651D
:1059E00010BD00BF20A40020000000000000000047
:1059F0002DE9F74FA24AA3499369C66B9961044602
:105A0000202383F311882378012B05D0A36C6BB975
:105A1000736913F0100F09D1B369994943F010036A
:105A2000B3618B6902202365FDF7BAFE002383F37F
:105A300011881F463DE1E06B016A01F4F013B3F5F4
:105A4000802F13D0B3F5402F73D101F00F0304332F
:105A500047F6F07254F8233001EA020200F5805054
:105A6000196A12090823FFF78BFF62E001F00F09A2
:105A700009F1040747F6F07554F827309A6913685E
:105A800001EA05052D0900F58050002B38D0D768B4
:105A90002B461CE0032B06D979693A69914202D35F
:105AA000FA687A6113E0D0F800E0002279692EFAF2
:105AB00002FC01F801CBD7F810C07961614524BF21
:105AC000F9687961013B04D00832202AEED1002B1D
:105AD000E0D1202383F31188BB685B19BB6006E02B
