:020000040800F2
:10000000000F0020812400087126000871260008D6
:100010007126000871260008712600087126000864
:10002000712600087126000871260008A126000824
:10003000712600087126000871260008A127000813
:100040007126000871260008712600087126000834
:100050007126000871260008712600087126000824
:10006000712600087126000871260008113F00085B
:10007000413F0008713F0008A13F0008D13F000840
:10008000014000083140000881470008712600083F
:1000900071260008712600087126000871260008E4
:1000A000712600087148000871260008A148000860
:1000B00071260008712600087126000871260008C4
:1000C00071260008712600087126000871260008B4
:1000D00071260008712600087126000871260008A4
:1000E0007126000871260008712600087126000894
:1000F000712600087126000871260008614000087A
:100100007126000871260008712600087126000873
:100110007126000871260008712600087126000863
:1001200091400008C1400008F1400008214100084A
:100130005141000871260008712600087126000848
:100140007126000871260008712600085154000825
:1001500081410008B1410008E14100087126000812
:100160007126000871260008712600087126000813
:100170007126000871260008712600087126000803
:08018000712600087126000839
:1001900040F6D87320F00042C3F6497301469A42F4
:1001A00000B583B016DDB2F1FF4F03DB01F054FE62
:1001B00003B000BD694600F06BFA00F003000128AF
:1001C00015D002280BD0B8B900980122019901F08E
:1001D00067F8EDE70021002201F062F8E8E70098F7
:1001E0000122019901F05CF800F10040E0E700987D
:1001F000019900F055FCDBE70098019900F050FCF4
:1002000000F10040D4E700BF000000000000000043
:1002100070B58AB0064600F0ABF848F60074C2F23A
:10022000000494F90030B3F1FF3F054603D0304697
:1002300001F01EF910B928460AB070BD304601F031
:10024000BFF84FF07E5102F0CFF80028F3D047F608
:10025000B0033046C0F6000301930123009300234E
:10026000089301F011FB024647F25C50C0F6000013
:100270000B46CDE90423CDE9022301F099F894F966
:100280000030022BCDE906010BD0684601F088F85A
:1002900038B1089B53B9DDE9060101F089FD054637
:1002A000C9E702F0D5F821230360F2E702F0D0F8A5
:1002B000089B0360EFE700BF0000000000000000A3
:1002C00070B58AB0064600F093FB48F60074C2F29F
:1002D000000494F90030B3F1FF3F054630D03046BA
:1002E00001F0C6F800282BD03046002102F05EF85D
:1002F00030B347F6C0033046C0F600030193012334
:1003000000930023089301F0BFFA2478CDE904019B
:10031000CDE90201BCB10020002102460B4601F0EC
:1003200031FC022CCDE9060111D102F091F8212314
:100330000360089B8BB9DDE9060101F039FD054634
:1003400028460AB070BD00220023CDE90623684686
:1003500001F026F80028ECD1E7E702F079F8089BD5
:100360000360E8E70000000000000000000000005B
:100370002DE9F04720F00045B5F17E5F04460646C2
:1003800000F0FD8000F3D580B5F17C5F10DAB5F1A7
:10039000485F80F20A814FF2CA21C7F2491101F089
:1003A0005DFD4FF07E5102F01FF8002840F0C8803C
:1003B000204601F005F801464FF07E5001F04CFD5B
:1003C0004FF07C5101F054FE4EF60871C3F6110156
:1003D000044601F04DFE47F60471C3F64F2101F0CB
:1003E0003DFD214601F044FE41F24611C3F6245181
:1003F00001F032FD214601F03BFE40F6A821C3F694
:100400004E6101F02BFD214601F032FE4BF29001CE
:10041000C3F6A66101F020FD214601F029FE4AF64F
:10042000AB21C3F62A6101F019FD214601F020FE3F
:100430004CF22E61C3F69D518146204601F018FE14
:1004400043F26131C3F6307101F006FD214601F03F
:100450000FFE45F22D71C4F2010101F0FFFC2146AF
:1004600001F006FE4DF23911C4F2190101F0F4FC5D
:10047000214601F0FDFD4FF07E5101F0EFFC80467A
:10048000204600F0B5FA49F69913C3F679739D42F8
:10049000074658DC014620F47E6501F0DFFC41464A
:1004A00025F01F058246484601F096FE014650465B
:1004B00001F0DEFD29468046284601F0D9FD0146BF
:1004C000204601F0C9FC29460446384601F0C6FC26
:1004D0000146204601F080FE014601F0BFFC0146C6
:1004E0004BF62E50CBF23B3001F0B6FC01464046B5
:1004F00001F0B2FC29460446284601F0AFFC014653
:1005000040F6DB70C3F6497001F0A6FC01462046B8
:1005100001F0A2FC014640F6DB70C3F6497001F021
:100520009BFC002ED4BF00F1004404462046BDE8E9
:10053000F087014601F090FC014601F04DFE0446B3
:100540002046BDE8F0874146484601F045FE014699
:10055000384601F08DFD394601F080FC014601F07E
:100560007DFC4BF62E51C3F23B3101F077FC014686
:1005700040F6DB70C3F6C97001F06EFCD1E740F6BF
:10058000DB71C3F6C97101F073FD4BF62E51CBF24E
:100590003B310546204601F06BFD0146284601F03F
:1005A0005DFC04462046BDE8F087014601F060FD91
:1005B0004EF60871C3F61101054601F059FD47F6E4
:1005C0000471C3F64F2101F049FC294601F050FDAA
:1005D00041F24611C3F6245101F03EFC294601F0D8
:1005E00047FD40F6A821C3F64E6101F037FC2946CD
:1005F00001F03EFD4BF29001C3F6A66101F02CFC28
:10060000294601F035FD4AF6AB21C3F62A6101F017
:1006100025FC294601F02CFD4CF22E61C3F69D51BC
:100620000646284601F024FD43F26131C3F63071DD
:1006300001F012FC294601F01BFD45F22D71C4F2B8
:10064000010101F00BFC294601F012FD4DF23911B8
:10065000C4F2190101F000FC294601F009FD4FF038
:100660007E5101F0FBFB0146304601F0B5FD01462D
:10067000204601F0FDFC0146204601F0EFFB044658
:100680002046BDE8F08700BF000000000000000029
:1006900040F6D8732DE9F04FC3F6497320F00046B9
:1006A00087B09E4205460C4640F38E804CF6E333FD
:1006B000C4F216039E4226DC002840F34E814FF41C
:1006C000786126F00F06C3F6C97101F0C5FB4FF43F
:1006D0007D63C3F6C9739E42054600F0848044F2F0
:1006E00043410127C3F2357101F0B6FB014620609A
:1006F000284601F0B1FB44F24341C3F2357101F0E9
:10070000ABFB606064E04FF47863C4F249339E420F
:1007100040F38480B6F1FF4F5EDA4FEAE659A9F163
:1007200086094FEAC953F61A304601F069FE01F016
:1007300049FC034601463046039301F08DFB4FF020
:10074000874101F095FC064601F05AFE01F03AFCA3
:10075000014607463046049701F07EFB4FF0874183
:1007600001F086FC0021059001F016FE002800F043
:1007700018810DF10C0A0326384600210AF10408FD
:10078000013E01F009FE40B158F8047D0021013E10
:10079000384601F001FE0028F6D13346914E50460E
:1007A00021464A4601960226009600F059FA002D8D
:1007B00007460DDA22684742636802F10042226070
:1007C00003F10043636003E00027002308604B60EF
:1007D000384607B0BDE8F08F0146002701F03CFB2A
:1007E00060602060F4E74FF488410127C3F235715F
:1007F00001F032FB4AF20831C2F68561054601F08C
:100800002BFB01462060284601F026FB4AF2083106
:10081000C2F6856101F020FB6060D9E700F0D0FDF1
:100820004FF68411C3F62271804601F021FC4FF08F
:100830007C5101F013FB01F0E3FD074601F0C2FB20
:100840004FF47861C3F6C971824601F011FC01468C
:10085000404601F001FB44F24341C3F2357180464A
:10086000504601F005FC1F2F81461CDC46F6506304
:10087000791EC0F6000326F0FF0253F821309A4299
:1008800011D04946404601F0E7FA01462060404653
:1008900001F0E2FA494601F0DFFA002D606097DAD4
:1008A00022687F4288E74946404601F0D5FAF615AE
:1008B000C0F3C7530146F31A2060082BE7DD4FF45D
:1008C00088415046C3F2357101F0D2FB8146404663
:1008D000494601F0C1FA83464046594601F0BCFA48
:1008E000494601F0B9FA4AF20831C2F685618046FC
:1008F000504601F0BDFB414601F0AEFA8146584634
:10090000494601F0A9FAC0F3C7530146F61A206020
:10091000192ED8BFD846BADD4FF423415046C2F64F
:10092000856101F0A5FB06465846314601F094FA70
:1009300080465846414601F08FFA314601F08CFA64
:1009400043F23211C2F28D410646504601F090FB4F
:10095000314601F081FA814693E74FF4786126F041
:100960000F06C3F6C97101F079FA4FF47D63C3F63F
:10097000C9739E42054618D044F243414FF0FF37F9
:10098000C3F2357101F06AFA01462060284601F091
:1009900063FA44F24341C3F2357101F05FFA6060DB
:1009A00016E703260DF10C0AF7E64FF488414FF0E5
:1009B000FF37C3F2357101F051FA4AF20831C2F63D
:1009C0008561054601F04AFA01462060284601F09B
:1009D00043FA4AF20831C2F6856101F03FFA6060DD
:1009E000F6E600BFD06E0008000000000000000026
:1009F00020F000420346B2F1FF4F70B504463AD2F0
:100A0000002A36D0002840DBC115B2F5000F09D20C
:100A100010F4000241D15B00013213F4000FFAD050
:100A20000131891A23F07F43A1F17F0223F40003EF
:100A300012F0010F43F4000318BF5B0000265410AE
:100A400019215B0035464FF08072A8189842DEBF2E
:100A5000C0EB03038518B61852085B000139F4D1C6
:100A600013B106F001039E19E40504F17C5404EB74
:100A70006604204670BD014601F0FAFA01462046A0
:100A800001F0ECF90446204670BD014601F0E4F99E
:100A9000014601F0A1FB0446EBE70022C0E700BFDE
:100AA0002DE9F84320F00046B6F1485F05460F46B1
:100AB0005BDA01F0A5FC002800F0CA802946284630
:100AC00001F0D6FA4DF24E71CAF64751044601F0D4
:100AD000CFFA47F2F641C3F20F1101F0BFF92146F8
:100AE00001F0C6FA4FF27C21C3F2934101F0B4F950
:100AF000214601F0BDFA40F60151C3F2D07101F078
:100B0000ADF9214601F0B4FA40F66131C3F6B621E1
:100B100001F0A2F9214601F0ABFA4AF6AB21C3F687
:100B20002A5101F09BF9214601F0A2FA80462046A5
:100B30004FF07C5101F09CFA41460646204601F0F8
:100B400097FA39460446284601F092FA01462046B3
:100B500001F082F90146304601F07EF901464FF07E
:100B60007E5001F079F9BDE8F883014601F080FA82
:100B70004DF24E71CAF64751044601F079FA47F238
:100B8000F641C3F20F1101F069F9214601F070FA44
:100B90004FF27C21C3F2934101F05EF9214601F04E
:100BA00067FA40F60151C3F2D07101F057F92146BE
:100BB00001F05EFA40F66131C3F6B62101F04CF95E
:100BC000214601F055FA4AF6AB21C3F62A5101F04D
:100BD00045F9214601F04CFA49F69913C3F6996399
:100BE0009E428046A3DD0023C3F648739E4227DC65
:100BF00006F17F464FF07E50314601F02DF98146D7
:100C000020464FF07C5101F033FA314601F024F9CF
:100C100041460646204601F02BFA3946044628464E
:100C200001F026FA0146204601F016F90146304649
:100C300001F012F90146484601F00EF9BDE8F883CB
:100C40004FF000090026C3F63879C3F69066D7E75F
:100C50004FF07E50BDE8F883000000000000000067
:100C60002DE9F04FDDB047F2F0151C460791013B2E
:100C70006699C0F600050193D31E48BF131D03906B
:100C800055F82150DB1023EAE3730893DB43069504
:100C9000069902EBC303019A049311EB02081BD4DB
:100CA000089B33AF67999D1AA84401EB850609E0BC
:100CB0003068043601F086F9454505F1010547F82D
:100CC000040F09D0002DF3DA00200436454547F81B
:100CD000040F05F10105F5D1069A002AC0F2CC8275
:100CE000069A0CA9A1460DF12C0A059101EB820B85
:100CF000019B002BC0F25F8134A9DDF80C8001EB71
:100D000089070026002557F8041D013558F8040B03
:100D100001F0AEF90146304601F0A0F8A5420646C2
:100D2000F1D14AF8046FDA4509F10109E0D1069AD8
:100D300048A9531E924601EB82015CAA9B000A91CE
:100D4000D21809930B92059BBAF1000F53F82A5061
:100D500022DD48A903EB8A060F1F99464FF06E511A
:100D6000284601F085F901F04BFB01F02BF94FF01B
:100D70008741804601F07CF90146284601F06CF875
:100D800001F03EFB414647F8040F56F8040D01F010
:100D900065F84E450546E1D10499284600F0A8FBC8
:100DA0004FF07851054601F063F900F011FB4FF068
:100DB000824101F05DF90146284601F04DF80546F3
:100DC00001F01EFB074601F0FDF80146284601F040
:100DD00043F8049A002A064640F3D0800AF1FF3314
:100DE000C2F10801C2F107055CAA02EB830353F8C4
:100DF000502C52FA01F03F1810FA01F1521A43F840
:100E0000502C42FA05FBBBF1000F32DD0137BAF17D
:100E1000000F40F32F8248AB002503EB8A0107E067
:100E200022B10125C2F5807243F8042C8B420AD00E
:100E300053F8042B002DF3D001258B42C2F1FF02A1
:100E400043F8042CF4D1049A002A0FDD012A00F0A3
:100E50009E80022A0AD10AF1FF335CAA02EB8303C7
:100E600053F8502C02F03F0243F8502CBBF1020F14
:100E700071D03046002101F08FFA002800F0A080E8
:100E8000069B9A450DDD48A90A9801EB8A030022CA
:100E900053F8041D834242EA0102F9D1002A40F0CE
:100EA000C6800B9A52F8503C002B40F0E181099B20
:100EB00048A9CA18012352F8041D01330029FAD0A9
:100EC00053440AF101099945029338DC089A0AEB68
:100ED00004036799013B0AEB020B059A02EB8A0AAD
:100EE00001EB8B0B34A901EB830100915BF8040F3C
:100EF00001F068F8019B009A002B42F8040F009261
:100F000020DB09EB040734A9DDF80C80002600255E
:100F100001EB870757F8041D013558F8040B01F061
:100F2000A7F80146304600F099FFA5420646F1D1E8
:100F3000029A09F101094AF8046F9145D6DDDDF8FE
:100F400008A000E7029A09F1010900264AF8046F97
:100F50009145CBDDF3E731464FF07E5000F07CFF4A
:100F60000646002D85D004994FF07E5000F0C0FA5F
:100F70000146304600F070FF06467AE713D15CA9BF
:100F800001EB8A0353F8543C4FEA232B3BE70AF169
:100F9000FF335CA901EB830353F8502C02F07F026E
:100FA00043F8502C62E74FF07C5101F013FA20B95E
:100FB0004FF0000B5DE70026B3E64FF0020B25E78C
:100FC0000097002834D1049A3046514200F090FA3C
:100FD0004FF08741044601F0FDF9002800F04F81F1
:100FE0004FF06E51204601F043F85CAB03EB8A05ED
:100FF00001F006FA00F0E6FF0AF1010A5CAA4FF0E0
:10100000874102EB8A07064601F032F80146204686
:1010100000F022FF049B0833049301F0F1F945F836
:10102000500C304601F0ECF947F8500C17E00097EF
:10103000049B0AF1FF3A5CAC083B04934FEA8A0335
:10104000E21852F8502C52B948A9049ACB1853F818
:10105000041D0AF1FF3A083A0029F8D004924FF033
:101060007E50049900F044FABAF1000F05464CDBBB
:101070000AF10106059A48AFB600BC19961954F852
:10108000040D00F09FFF294600F0F2FF4FF06E5173
:1010900046F8040D284600F0EBFFBC420546EED1B1
:1010A0000AF1FF39CDF804A0DDF818A04FF00008D0
:1010B000BAF1000FC0F2D880B8F1000FC0F2D480AE
:1010C00005990025744F002401EB890601E0444591
:1010D0000DDC56F8041F013457F8040F00F0C8FF68
:1010E0000146284600F0BAFEA2450546EFDA5CACA0
:1010F00009F1FF3904EB880319F1020F08F1010827
:1011000043F8F05CD4D1DDF804A0669A032A13D822
:10111000DFE802F0936565180020BBF1000F57D09F
:10112000079900F10040219B209A03F10043886059
:1011300002F100424B600A60009A02F007005DB0C5
:10114000BDE8F08FBAF1000FE6DD20AD05EB8A04B3
:1011500054F8048C54F804794046394600F07EFE79
:1011600006464046314600F077FE0146384600F01C
:1011700075FEAC4226606060EAD1BAF1010FCBDDAA
:101180000AF1FF3405EB840454F804894046A7684B
:10119000394600F063FE06464046314600F05CFEEC
:1011A0000146384600F05AFEAC426660A060EBD1C2
:1011B0000AF1010A04F10805002004EB8A0454F83E
:1011C000041D00F04BFEAC42F9D1BBF1000FA7D1DA
:1011D000209A219B079CA06022606360ACE7BAF173
:1011E000000F57DB0AF1010420AD002005EB840459
:1011F00054F8041D00F032FEAC42F9D1BBF1000FEF
:1012000034D000F1004307990B600146209800F0AC
:1012100023FEBAF1000F08DD20AC04EB8A0A54F873
:10122000041F00F01BFE5445F9D1BBF1000F01D0A3
:1012300000F10040079A50607EE7BAF1000F27DB0B
:101240000AF1010420AD002005EB840454F8041DCC
:1012500000F004FEAC42F9D1BBF1000F01D000F167
:101260000040079C206067E7002540E70346CAE787
:10127000012325E60025E6E50CAB059357E520465E
:101280005CA901EB8A0401F0BBF844F8500CE6E6D7
:101290000020E1E70020B1E7F8710008000000003D
:1012A0002DE9F84320F00043B3F1485F04460D46B2
:1012B000904603DA01F0A4F8002859D021462046D0
:1012C00000F0D6FE2146064600F0D2FE4CF6D311C1
:1012D000C2F62E710746304600F0CAFE42F634715F
:1012E000C3F2D72100F0B8FD314600F0C1FE4EF642
:1012F0001B71C3F2386100F0B1FD314600F0B8FE59
:1013000040F60151C3F6501100F0A6FD314600F041
:10131000AFFE48F68901C3F6084100F09FFD814603
:10132000B8F1000F27D028464FF07C5100F0A0FE06
:1013300049468046384600F09BFE0146404600F094
:101340008BFD314600F094FE294600F085FD4AF6FB
:10135000AB21C3F62A610546384600F089FE0146F6
:10136000284600F07BFD0146204600F075FD04464E
:101370002046BDE8F8830146304600F079FE4AF683
:10138000AB21C3F62A6100F067FD394600F070FE1C
:101390000146204600F062FD04462046BDE8F88381
:1013A0000020704700000000000000000000000066
:1013B00000210020C7F6F871704700BF0000000050
:1013C00020F00040704700BF000000000000000057
:1013D0002DE9F04120F0004601460446F50D7F3D21
:1013E000162D1ADC002D804620DB4FF6FF77C0F269
:1013F0007F072F4107420DD04FF2CA21C7F2491192
:1014000000F02CFD002100F0EFFFE8B1002C1FDB05
:1014100028EA07010846BDE8F081B6F1FF4FF9D38D
:1014200000F01CFD01460846BDE8F0814FF2CA21DC
:10143000C7F2491100F012FD002100F0D5FF18B1EC
:10144000002C0EDB0021E5E721460846BDE8F081CF
:101450004FF4000353FA05F504EB050828EA0701E9
:10146000D8E70021CBF68071002E08BF2146D1E7D6
:10147000D0F1010338BF0023B0F1004F08BF43F0A3
:101480000103002B2ED1A0F5000300F1FF42B3F1C0
:10149000FE4F2CBF00230123B2F1FE4F38BF43F0B3
:1014A0000103EBB94FF6FE73411EC0F27F0300F15A
:1014B0000042013A99428CBF002101219A428CBF1F
:1014C0000B4641F001037BB910F5000F14BF002358
:1014D0000123B0F1FF4F14BF184643F001007047DD
:1014E000042070470220704703207047000000006E
:1014F00010B50C4630F000410346024625D0B1F14C
:10150000FF4F24D2B1F5000F27D3C90D0919FE29C9
:1015100033DC0029C4BF22F0FF4242EAC15314DC8D
:1015200011F1160F38DA4CF25032944225DC44F2B5
:1015300060201946C0F6A25000F03AF844F260214B
:10154000C0F6A25100F094FD0346184610BD0146B6
:1015500000F084FC0346184610BD4FF0984100F09F
:1015600087FD43F6B042CFF6FF7294420346E5DBB7
:10157000C0F3C75102461939C8E74FF2CA201946CD
:10158000C7F2491000F014F84FF2CA21C7F249110E
:1015900000F06EFD0346D8E701F1190022F0FF428A
:1015A0004FF04C5142EAC05000F062FD0346CCE7D8
:1015B00001F0004120F0004041EA0000704700BF08
:1015C00081F0004102E000BF83F0004330B54FEAF4
:1015D00041044FEA430594EA050F08BF90EA020F61
:1015E0001FBF54EA000C55EA020C7FEA645C7FEAF4
:1015F000655C00F0E2804FEA5454D4EB5555B8BF17
:101600006D420CDD2C4480EA020281EA030382EA87
:10161000000083EA010180EA020281EA0303362D19
:1016200088BF30BD11F0004F4FEA01314FF4801CEC
:101630004CEA113102D0404261EB410113F0004FFE
:101640004FEA03334CEA133302D0524263EB4303B5
:1016500094EA050F00F0A780A4F10104D5F1200E53
:101660000DDB02FA0EFC22FA05F2801841F10001AE
:1016700003FA0EF2801843FA05F359410EE0A5F182
:1016800020050EF1200E012A03FA0EFC28BF4CF0B3
:10169000020C43FA05F3C01851EBE37101F0004569
:1016A00007D54FF0000EDCF1000C7EEB00006EEB76
:1016B0000101B1F5801F1BD3B1F5001F0CD3490800
:1016C0005FEA30004FEA3C0C04F101044FEA445257
:1016D00012F5800F80F09A80BCF1004F08BF5FEADE
:1016E000500C50F1000041EB045141EA050130BDBE
:1016F0005FEA4C0C404141EB010111F4801FA4F161
:101700000104E9D191F0000F04BF01460020B1FAB5
:1017100081F308BF2033A3F10B03B3F120020CDAED
:101720000C3208DD02F1140CC2F10C0201FA0CF0CB
:1017300021FA02F10CE002F11402D8BFC2F1200C30
:1017400001FA02F120FA0CFCDCBF41EA0C019040E6
:10175000E41AA2BF01EB0451294330BD6FEA04042F
:101760001F3C1CDA0C340EDC04F11404C4F120021A
:1017700020FA04F001FA02F340EA030021FA04F32C
:1017800045EA030130BDC4F10C04C4F1200220FA83
:1017900002F001FA04F340EA0300294630BD21FAC1
:1017A00004F0294630BD94F0000F83F4801306BF87
:1017B00081F480110134013D4EE77FEA645C18BF7B
:1017C0007FEA655C29D094EA050F08BF90EA020F12
:1017D00005D054EA000C04BF1946104630BD91EA0A
:1017E000030F1EBF0021002030BD5FEA545C05D10D
:1017F0004000494128BF41F0004130BD14F580044C
:101800003CBF01F5801130BD01F0004545F0FE41BF
:1018100041F470014FF0000030BD7FEA645C1ABFF4
:10182000194610467FEA655C1CBF0B46024650EA2B
:10183000013406BF52EA033591EA030F41F4002157
:1018400030BD00BF90F0000F04BF0021704730B5DD
:101850004FF4806404F132044FF000054FF00001B2
:1018600050E700BF90F0000F04BF0021704730B573
:101870004FF4806404F1320410F0004548BF404248
:101880004FF000013EE700BF42004FEAE2014FEA9D
:1018900031014FEA02701FBF12F07F4393F07F4F78
:1018A00081F06051704792F0000F14BF93F07F4FAA
:1018B000704730B54FF4607401F0004521F00041ED
:1018C00020E700BF50EA010208BF704730B54FF073
:1018D00000050AE050EA010208BF704730B511F078
:1018E000004502D5404261EB41014FF4806404F1B0
:1018F00032045FEA915C3FF4DCAE4FF003025FEA32
:10190000DC0C18BF03325FEADC0C18BF033202EBB9
:10191000DC02C2F1200300FA03FC20FA02F001FA13
:1019200003FE40EA0E0021FA02F11444C1E600BFB2
:1019300070B54FF0FF0C4CF4E06C1CEA11541DBF65
:101940001CEA135594EA0C0F95EA0C0F00F0DEF830
:101950002C4481EA030621EA4C5123EA4C5350EA15
:10196000013518BF52EA033541F4801143F4801366
:1019700038D0A0FB02CE4FF00005E1FB02E506F0F7
:101980000042E0FB03E54FF00006E1FB03569CF04C
:10199000000F18BF4EF0010EA4F1FF04B6F5007F52
:1019A00064F5407404D25FEA4E0E6D4146EB0606C4
:1019B00042EAC62141EA55514FEAC52040EA5E504D
:1019C0004FEACE2EB4F1FD0C88BFBCF5E06F1ED8F7
:1019D000BEF1004F08BF5FEA500E50F1000041EB2E
:1019E000045170BD06F0004646EA010140EA0200DB
:1019F00081EA0301B4EB5C04C2BFD4EB0C0541EAFD
:101A0000045170BD41F480114FF0000E013C00F311
:101A1000AB8014F1360FDEBF002001F0004170BD35
:101A2000C4F10004203C35DA0C341BDC04F114044E
:101A3000C4F1200500FA05F320FA04F001FA05F2DA
:101A400040EA020001F0004221F0004110EBD370A7
:101A500021FA04F642EB06015EEA430E08BF20EAD3
:101A6000D37070BDC4F10C04C4F1200500FA04F376
:101A700020FA05F001FA04F240EA020001F0004108
:101A800010EBD37041F100015EEA430E08BF20EA7B
:101A9000D37070BDC4F1200500FA05F24EEA020EC3
:101AA00020FA04F301FA05F243EA020321FA04F0F2
:101AB00001F0004121FA04F220EA020000EBD370A9
:101AC0005EEA430E08BF20EAD37070BD94F0000FA9
:101AD0000FD101F00046400041EB010111F4801FDD
:101AE00008BF013CF7D041EA060195F0000F18BF8E
:101AF000704703F00046520043EB030313F4801FCA
:101B000008BF013DF7D043EA0603704794EA0C0F83
:101B10000CEA135518BF95EA0C0F0CD050EA410699
:101B200018BF52EA4306D1D181EA030101F0004116
:101B30004FF0000070BD50EA410606BF104619463E
:101B400052EA430619D094EA0C0F02D150EA01364A
:101B500013D195EA0C0F05D152EA03361CBF10468B
:101B600019460AD181EA030101F0004141F0FE412A
:101B700041F470014FF0000070BD41F0FE4141F4AE
:101B8000780170BD70B54FF0FF0C4CF4E06C1CEAAE
:101B900011541DBF1CEA135594EA0C0F95EA0C0F63
:101BA00000F0A7F8A4EB050481EA030E52EA03351E
:101BB0004FEA013100F088804FEA03334FF080553F
:101BC00045EA131343EA12634FEA022245EA11156C
:101BD00045EA10654FEA00260EF000419D4208BF1D
:101BE000964244F1FD0404F5407402D25B084FEACA
:101BF0003202B61A65EB03055B084FEA32024FF476
:101C000080104FF4002CB6EB020E75EB030E22BFD2
:101C1000B61A754640EA0C005B084FEA3202B6EB92
:101C2000020E75EB030E22BFB61A754640EA5C0041
:101C30005B084FEA3202B6EB020E75EB030E22BFD1
:101C4000B61A754640EA9C005B084FEA3202B6EBD2
:101C5000020E75EB030E22BFB61A754640EADC0091
:101C600055EA060E18D04FEA051545EA16754FEAF3
:101C700006164FEAC30343EA52734FEAC2025FEA11
:101C80001C1CC0D111F4801F0BD141EA00014FF0A0
:101C900000004FF0004CB6E711F4801F04BF014371
:101CA0000020B4F1FD0C88BFBCF5E06F3FF6AFAE8D
:101CB000B5EB030C04BFB6EB020C5FEA500C50F11D
:101CC000000041EB045170BD0EF0004E4EEA1131A0
:101CD00014EB5C04C2BFD4EB0C0541EA045170BDA7
:101CE00041F480114FF0000E013C90E645EA060EEB
:101CF0008DE60CEA135594EA0C0F08BF95EA0C0F19
:101D00003FF43BAF94EA0C0F0AD150EA01347FF460
:101D100034AF95EA0C0F7FF425AF104619462CE737
:101D200095EA0C0F06D152EA03353FF4FDAE10469A
:101D3000194622E750EA410618BF52EA43067FF4EB
:101D4000C5AE50EA41047FF40DAF52EA43057FF47B
:101D5000EBAE12E7000000000000000000000000F1
:101D60004FEA410212F5001215D211D56FF47873C3
:101D7000B3EB625212D94FEAC12343F0004343EA66
:101D8000505311F0004F23FA02F018BF4042704741
:101D90004FF00000704750EA013005D111F00040CB
:101DA00008BF6FF0004070474FF00000704700BF61
:101DB0004FEA4102B2F1E04324BFB3F5001CDCF16D
:101DC000FE5C0DD901F0004C4FEAC0024CEA5070A5
:101DD000B2F1004F40EB830008BF20F001007047D4
:101DE00011F0804F21D113F13872BCBF01F00040D7
:101DF000704741F480114FEA5252C2F11802C2F109
:101E0000200C10FA0CF320FA02F018BF40F0010089
:101E10004FEAC1234FEAD32303FA0CFC40EA0C003B
:101E200023FA02F34FEA4303CCE77FEA625307D178
:101E300050EA01331EBF4FF0FE4040F440007047AF
:101E400001F0004040F0FE4040F40000704700BF49
:101E500080F0004002E000BF81F0004142001FBF5F
:101E60005FEA410392EA030F7FEA226C7FEA236C68
:101E70006AD04FEA1262D2EB1363C1BFD21841405D
:101E800048404140B8BF5B42192B88BF704710F0F3
:101E9000004F40F4000020F07F4018BF404211F096
:101EA000004F41F4000121F07F4118BF494292EAFE
:101EB000030F3FD0A2F1010241FA03FC10EB0C002A
:101EC000C3F1200301FA03F100F0004302D54942B7
:101ED00060EB4000B0F5000F13D3B0F1807F06D364
:101EE00040084FEA310102F10102FE2A51D2B1F15C
:101EF000004F40EBC25008BF20F0010040EA030051
:101F00007047490040EB000010F4000FA2F10102FD
:101F1000EDD1B0FA80FCACF1080CB2EB0C0200FA87
:101F20000CF0AABF00EBC25052421843BCBFD040D5
:101F30001843704792F0000F81F4000106BF80F44F
:101F400000000132013BB5E74FEA41037FEA226C12
:101F500018BF7FEA236C21D092EA030F04D092F0DD
:101F6000000F08BF0846704790EA010F1CBF002011
:101F7000704712F07F4F04D1400028BF40F000406E
:101F8000704712F100723CBF00F50000704700F08E
:101F9000004343F0FE4040F4000070477FEA2262B5
:101FA00016BF08467FEA23630146420206BF5FEA86
:101FB000412390EA010F40F4800070474FF0000386
:101FC00004E000BF10F0004348BF40425FEA000C4D
:101FD00008BF704743F0964301464FF000001CE0F5
:101FE00050EA010208BF70474FF000030AE000BF4B
:101FF00050EA010208BF704711F0004302D5404289
:1020000061EB41015FEA010C02BF844601460020FA
:1020100043F0B64308BFA3F18053A3F50003BCFA15
:102020008CF2083AA3EBC25310DB01FA02FC6344C2
:1020300000FA02FCC2F12002BCF1004F20FA02F2C9
:1020400043EB020008BF20F00100704702F12002BC
:1020500001FA02FCC2F1200250EA4C0021FA02F21D
:1020600043EB020008BF20EADC707047000000006C
:102070004FF0FF0C1CEAD0521EBF1CEAD15392EA6B
:102080000C0F93EA0C0F6FD01A4480EA010C400247
:1020900018BF5FEA41211ED04FF0006343EA5010A1
:1020A00043EA5111A0FB01310CF00040B1F5000FE3
:1020B0003EBF490041EAD3715B0040EA010062F192
:1020C0007F02FD2A1DD8B3F1004F40EBC25008BF7C
:1020D00020F00100704790F0000F0CF0004C08BF9A
:1020E00049024CEA502040EA51207F3AC2BFD2F167
:1020F000FF0340EAC250704740F400004FF0000375
:10210000013A5DDC12F1190FDCBF00F000407047AE
:10211000C2F10002410021FA02F1C2F1200200FAEC
:1021200002FC5FEA310040F1000053EA4C0308BFB3
:1021300020EADC70704792F0000F00F0004C02BF04
:10214000400010F4000F013AF9D040EA0C0093F07F
:10215000000F01F0004C02BF490011F4000F013BD9
:10216000F9D041EA0C018FE70CEAD15392EA0C0F47
:1021700018BF93EA0C0F0AD030F0004C18BF31F0B2
:10218000004CD8D180EA010000F00040704790F088
:10219000000F17BF90F0004F084691F0000F91F02C
:1021A000004F14D092EA0C0F01D142020FD193EAF2
:1021B0000C0F03D14B0218BF084608D180EA01007A
:1021C00000F0004040F0FE4040F40000704740F056
:1021D000FE4040F4400070474FF0FF0C1CEAD05224
:1021E0001EBF1CEAD15392EA0C0F93EA0C0F69D080
:1021F000A2EB030280EA010C49024FEA402037D0EB
:102200004FF0805343EA111143EA10130CF00040E1
:102210008B4238BF5B0042F17D024FF4000C8B42D1
:1022200024BF5B1A40EA0C00B3EB510F24BFA3EBB1
:10223000510340EA5C00B3EB910F24BFA3EB910381
:1022400040EA9C00B3EBD10F24BFA3EBD10340EADB
:10225000DC001B0118BF5FEA1C1CE0D1FD2A3FF621
:1022600050AF8B4240EBC25008BF20F001007047D6
:102270000CF0004C4CEA50207F32C2BFD2F1FF0379
:1022800040EAC250704740F400004FF00003013AAA
:1022900037E792F0000F00F0004C02BF400010F44E
:1022A000000F013AF9D040EA0C0093F0000F01F062
:1022B000004C02BF490011F4000F013BF9D041EA84
:1022C0000C0195E70CEAD15392EA0C0F08D14202B7
:1022D0007FF47DAF93EA0C0F7FF470AF084676E78A
:1022E00093EA0C0F04D14B023FF44CAF08466EE763
:1022F00030F0004C18BF31F0004CCAD130F0004231
:102300007FF45CAF31F000437FF43CAF5FE700BF88
:102310004FF0FF3C06E000BF4FF0010C02E000BFB1
:102320004FF0010C4DF804CD4FEA40024FEA410353
:102330007FEA226C18BF7FEA236C11D001B052EA09
:10234000530C18BF90EA010F58BFB2EB030088BFCF
:10235000C81738BF6FEAE17018BF40F0010070473E
:102360007FEA226C02D15FEA402C05D17FEA236C20
:10237000E4D15FEA412CE1D05DF8040B704700BF67
:10238000844608466146FFE70FB5FFF7C9FF0028FE
:1023900048BF10F1000F0FBD4DF808EDFFF7F4FF37
:1023A0000CBF012000205DF808FB00BF4DF808EDD0
:1023B000FFF7EAFF34BF012000205DF808FB00BFF3
:1023C0004DF808EDFFF7E0FF94BF012000205DF815
:1023D00008FB00BF4DF808EDFFF7D2FF94BF0120C6
:1023E00000205DF808FB00BF4DF808EDFFF7C8FFBF
:1023F00034BF012000205DF808FB00BF0000000092
:102400004FEA4002B2F1FE4F0FD34FF09E03B3EB01
:1024100012620DD94FEA002343F0004310F0004F41
:1024200023FA02F018BF404270474FF00000704797
:1024300012F1610F01D1420205D110F0004008BF36
:102440006FF0004070474FF0000070470000000040
:1024500048F60473C2F200031868704700000000D9
:10246000704700BFAFF30080AFF30080AFF3008090
:10247000FEE700BFAFF30080AFF30080AFF3008052
:1024800072B66B4C84F309886A486B4D4FF0404339
:102490004360D5F8886046F47001C5F888100022C2
:1024A000E1EE102A0623C26083F31488BFF36F8F16
:1024B00003F0F6FA614A6248824218D213464FF09E
:1024C000553143F8041BD54300EB050C8342CCF394
:1024D00080050CD225B1196002F10803834206D2AF
:1024E0001A4642F8041B5960131D8342F8D3554A1B
:1024F000A24218D213464FF0553143F8041BD04383
:1025000004EB000EA342CEF380000CD220B1196080
:1025100002F10803A34206D21E4646F8041B596086
:10252000331DA342F8D34849484CA14222D248481F
:1025300002460B4652F8046B43F8046BCD4304EBA0
:10254000050CA342CCF3800514D23DB116681E6081
:1025500001F10803A34200F108020BD2114618460C
:1025600051F8045B40F8045B52685A60031D0A1D71
:10257000A342F3D3374A3848824216D21346002189
:1025800043F8041BD64384198342C4F380040CD25D
:1025900024B1196002F10803834206D21A4642F8B8
:1025A000041B5960131D8342F8D32C4D2C4EFFF7AA
:1025B00057FFB54219D22C46E94354F8043B77182B
:1025C0009847B442C7F380070FD22FB1236805F1B3
:1025D00008049847B44208D2254655F8042B904782
:1025E00060682C1D8047B442F6D31E4D1E4E03F08A
:1025F000E7FCB5421AD22C46EF4354F8043B06EBF5
:10260000070ECEF380079847B4420FD22FB122684D
:1026100005F108049047B44208D2254655F8040B4A
:10262000804761682C1D8847B442F6D3FFF720BF6E
:10263000008F002030EF00E000ED00E000000020FF
:10264000000F0020000F0020008F0020309000209D
:10265000D87800083090002078BF0020880100085A
:10266000880100088801000888010008AFF3008095
:10267000FEE700BFAFF30080AFF30080AFF3008050
:1026800072B6FEE7AFF30080AFF30080AFF30080D7
:1026900000F00EFB00DF00BFAFF30080AFF300805F
:1026A000EFF30982064BD2F8CC0058609968683184
:1026B0009960683282F30988002383F31188704798
:1026C00030EF00E0AFF30080AFF30080AFF30080A5
:1026D0000A4B002210B59A60094A07201021DA60DF
:1026E00000F0AEF80A204FF4007100F0A9F80B20BA
:1026F0008021BDE8104000F0A3B800BF00ED00E06D
:102700000003FA05AFF30080AFF30080AFF3008061
:1027100010B4202383F311881A48436813F400632C
:1027200020D0EFF30982A2F1680383F309881648E9
:102730004FF080748169DC6191F82340B4B1006886
:1027400089688068884294BF00210121B9B10F498E
:102750009961F1EE10FA0E4B596841F00100516693
:10276000586001E083F3118810BC704700688968E5
:102770008068884234BF002101210029E7D1054843
:102780009861E8E700ED00E0DC9100209126000868
:1027900030EF00E094260008AFF30080AFF3008034
:1027A00010B5202383F3118800F0AAF8002383F3E7
:1027B0001188BDE81040FFF7ABBF00BFAFF300804A
:1027C0002DE9F04F2DED108AC1F80CD0D0F80CD0C7
:1027D000BDEC108ABDE8F08FAFF30080AFF300804E
:1027E000002383F311882846A04700F081FB70473F
:1027F000F0B484080E4BC03400F0030253F8247088
:10280000D500FF264209AE4027EA060611FA05F573
:1028100000F01F0002F16007012111FA00F02E43C1
:1028200043F8246043F8270043F82200F0BC7047C7
:1028300000E100E0AFF30080AFF30080AFF3008071
:1028400030B48508084BAA1D00F0030053F822504D
:10285000C000FF24844025EA040411FA00F0044378
:1028600043F8224030BC704700ED00E0AFF3008039
:102870000248034A83699A61FEE700BFDC910020A9
:1028800030720008AFF30080AFF30080AFF3008038
:1028900010B582B0FFF71CFF00F0EAF800F068F80E
:1028A00000F06EFD00F0B4FD40210D4800F010FA7C
:1028B0000C490D4B8861012280F82020C361002360
:1028C00083F3118862B6094C896909488C611C46FA
:1028D0004FF4A471074B009400F07AFA02B010BDD7
:1028E00030900020DC910020000F0020387200089A
:1028F0008090002071280008AFF30080AFF30080C3
:1029000070B5144B9B6993F8232012B1013A83F8F8
:1029100023205A6A104C511C5962E3682168581CE4
:10292000A142E06015D08D68013D8D608DB92646CD
:102930000B68CA685E602360CD602B4683F3118804
:1029400008699047202383F311882168886800284C
:10295000EED070BDDC910020CC910020AFF3008060
:10296000014B1860FFF78CBEC8910020AFF30080C8
:10297000044B4FF0FF3000225B601B609860DA6010
:10298000704700BFCC910020AFF30080AFF3008010
:1029900070B40C4D03612C68C260A668B14204D9C2
:1029A0002468891BA6688E42FAD363680460AC422F
:1029B000436018606060816002D0A068411AA16025
:1029C00070BC7047CC910020AFF30080AFF3008063
:1029D0000368074A934203D099688268891899600E
:1029E00042681360016800234A60C360704700BFFB
:1029F000CC910020AFF30080AFF30080AFF30080F4
:102A0000202383F3118890F820300D2B11D8DFE8B4
:102A100003F025101007100B101010101010100BE1
:102A2000816A8B685A1C8A60416803680B6002687F
:102A300051604FF0FF3282620A4B8168002280F8B9
:102A400020201B689A689142FBD959680360416055
:102A500008605860002383F311887047002383F3D4
:102A600011887047DC910020AFF30080AFF3008045
:102A7000034B00225B601B609A605B611B617047C7
:102A8000DC910020AFF30080AFF30080AFF3008053
:102A90000022074B816880F820201B689A688A42D0
:102AA000FBD259680360416008605860704700BFFE
:102AB000DC910020AFF30080AFF30080AFF3008023
:102AC00070B50E4CA56985F82000142085F8230008
:102AD0002068E9690368ADF164025C60236001234A
:102AE0009142A06180F8203003D90548FFF738FFF4
:102AF000A0692946BDE87040FFF762BEDC91002066
:102B000040720008AFF30080AFF30080AFF30080A5
:102B100030B5B1F1FF3F87B0054611D00A4C0B4AE2
:102B2000A36901A8FFF734FF2846FFF7C9FF049BFC
:102B300013B101A8FFF74CFFA069806A07B030BD50
:102B4000FFF7BEFF004CF7E7DC910020012A0008E8
:102B50001A4B70B59D690446AA688068A1629042CC
:102B60000CD8002284F820201B6899688842FBD981
:102B700058682360606004605C6070BD002685F862
:102B800020601946096888688242FBD9EE69486866
:102B90002960ADF1640C01226645686005604D60F6
:102BA00084F820209C6105D820462946BDE8704065
:102BB000FFF706BE0248FFF7D3FEF5E7DC910020E1
:102BC00040720008AFF30080AFF30080AFF30080E5
:102BD00070B5144D2868AC690268A168556001237E
:102BE0002A601426002280F82030A8612B4684F841
:102BF000236084F820201B689E688E42FBD2E66921
:102C00005A682360ADF164018E42626014605C60BA
:102C100003D90548FFF7A4FEA8692146BDE8704026
:102C2000FFF7CEBDDC91002040720008AFF30080BA
:102C300070B5134D2868AC690668A16875600123FA
:102C4000002280F820302E602B46A86184F82020D6
:102C50001B689A688A42FBD8E6695A682360ADF11E
:102C600064018E42626014605C6003D90548FFF71E
:102C700077FEA8692146BDE87040FFF7A1BD00BFFF
:102C8000DC91002040720008AFF30080AFF30080B9
:102C9000044A9069116883688A689A4200D870472C
:102CA000FFF7C6BFDC910020AFF30080AFF30080D8
:102CB0000449886990F823300BB1FFF7B9BFFFF7DB
:102CC00087BF00BFDC910020AFF30080AFF300802E
:102CD000F0B40022114C80F8212002260125142393
:102CE00080F8206080F8233080F8225065694164C4
:102CF00000F1300600F12C0C00F14C0704618160FA
:102D0000456102646061C263426282612861C0F809
:102D10002CC046630663C761F0BC7047DC9100209D
:102D2000884214D20346C04303F8012B08188B4293
:102D300000F001000CD018B103F8012B8B4208D031
:102D4000184600F8012B5A70431C8B42F8D170478B
:102D500070477047AFF30080AFF30080AFF300809F
:102D60006439F0B44718C76014493B64049B396662
:102D70007B640025124E80F8215002231421012784
:102D800080F8231080F8227080F820307369426444
:102D900000F1300100F12C0C00F14C07066182605B
:102DA000436105647061C563456285611861C0F85F
:102DB0002CC041630163C761F0BC7047E127000884
:102DC000DC910020AFF30080AFF30080AFF3008010
:102DD000F0B51C4683B000F14C070346FF261D46A4
:102DE00005F8016B5E706B1CBB42F8D14718BB4203
:102DF00015D21D46552605F8016BDB43FB18BD4275
:102E000003F001030BD01BB105F8016BBD4206D0E6
:102E10002B4603F8016B6E705D1CBD42F8D1202378
:102E200083F311882346089C0094FFF799FF002143
:102E30000446FFF78DFE002383F31188204603B07C
:102E4000F0BD00BFAFF30080AFF30080AFF30080B0
:102E500008B50146202383F311880620FFF758FEAA
:102E6000002383F3118808BDAFF30080AFF3008027
:102E700008B5202383F31188054BD968411A02D085
:102E80000620FFF745FE002383F3118808BD00BF2D
:102E9000CC910020AFF30080AFF30080AFF300804F
:102EA0000F4B70B59C692546A06255F82C0FA842BF
:102EB00006D00168E162FFF7EBFDE06AA842F8D1B5
:102EC00094F8210010F0030F04D16369216919619E
:102ED000226953610E20BDE87040FFF7F1BD00BFCD
:102EE000DC910020AFF30080AFF30080AFF30080EF
:102EF000202383F31188FFF7D3BF00BFAFF3008017
:102F00004060006081607047AFF30080AFF30080E5
:102F100003468068421E002A10B49A6002DB00203B
:102F200010BC704759B10848826993625C681360AD
:102F3000032054605A60226010BCFFF7E9BD98601E
:102F40004FF0FF30ECE700BFDC910020AFF30080D2
:102F500003468068421C002A9A6000DD70471A68A8
:102F60001168104619604B6000239362FFF790BD13
:102F70000023406000608360704700BFAFF30080B3
:102F800008B5C26B90F8203041EA0202082BC263F8
:102F90000CD0092B00D008BD836A02EA03018B42E2
:102FA000F9D1FFF775FD0022826208BD836A1A42DB
:102FB000F7D108BDAFF30080AFF30080AFF300801E
:102FC00070B50468844205460E460AD0E26860681F
:102FD000A16842EA0603E360FFF7D2FF2468AC422F
:102FE000F4D170BDAFF30080AFF30080AFF3008089
:102FF00070B504460B4601EB82051C301146E360B8
:10300000A36023606560FFF77BFF04F110000021DF
:10301000BDE87040FFF774BFAFF30080AFF30080EE
:1030200070B504460D461C301146FFF771FF064689
:1030300078B9A368626843F8045B9342A36028BF31
:10304000236804F1100028BFA360FFF781FFFFF79A
:103050001FFE304670BD00BFAFF30080AFF30080AD
:1030600008B5202383F31188FFF7DAFF002383F3E9
:10307000118808BDAFF30080AFF30080AFF300808C
:10308000436A002B10B510DD82684468013B43623F
:1030900042F8041BA24228BF0368826028BF8360F5
:1030A0001030FFF755FF002010BD4FF0FF3010BD6E
:1030B00070B504460D4610301146FFF729FF06464D
:1030C00080B9E368626853F8041B93422960E360A7
:1030D00028BF236804F11C0028BFE360FFF738FF16
:1030E000FFF7D6FD304670BDAFF30080AFF3008030
:1030F00008B5202383F31188FFF7DAFF002383F359
:10310000118808BDAFF30080AFF30080AFF30080FB
:1031100010B4034619B94FF0FF3010BC7047064C8D
:10312000A2699062446810600D2054605A60226069
:1031300010BCFFF7EDBC00BFDC910020AFF30080B6
:1031400010B4C361019B40608A1800240060846051
:1031500041618161C1600261036210BC704700BFC0
:1031600038B5C1680446006861610023A042A161CE
:10317000A3600AD06FF00105026822605460FFF777
:1031800087FC85622068A042F6D138BDAFF300808D
:1031900070B5202304460D4683F31188C36903B13B
:1031A0009847A6684EB920462946FFF7B1FF002888
:1031B000F7DA334683F3118870BDA3692269013EB3
:1031C000A66013F8010B9342A36124BFE368A361D7
:1031D000002383F3118870BDAFF30080AFF300804C
:1031E0002DE9F0471D4604460E469146D0F81C8056
:1031F000202383F311880027B8F1000F01D0204667
:10320000C047D4F808A0BAF1000F0BD120462946D8
:10321000FFF77EFF0028F4D0534683F31188384629
:10322000BDE8F087A3690AF1FF31A16013F8010B33
:10323000F0552269A361934224BFE368A361002390
:1032400083F3118801374F45E9D0202383F3118898
:10325000D2E700BFAFF30080AFF30080AFF3008090
:1032600010B4C361019B40608C18006082604161B2
:103270008161C1600461036210BC7047AFF30080DC
:1032800038B50169C368044600686361CA1AA04280
:10329000A361A2600AD06FF0010502682260546049
:1032A000FFF7F6FB85622068A042F6D138BD00BF6B
:1032B000F8B504460D461646202383F31188A76807
:1032C0004FB920463146FFF723FF0028F7DA3B4687
:1032D00083F31188F8BD6369013FA76003F8015BC0
:1032E00022696361934224BFE3686361E3690BB1C0
:1032F00020469847002383F311881846F8BD00BF85
:103300002DE9F0471E4604460D461746D0F81C909E
:10331000202383F311884FF00008D4F808A0BAF1F5
:10332000000F21D00AF1FF31A1606369287803F80A
:10333000010B22696361934224BFE3686361B9F1C1
:10334000000F01D02046C847002383F31188013FB6
:1033500008F1010811D00135202383F31188D4F836
:1033600008A0BAF1000FDDD120463146FFF7D0FEAC
:103370000028D2D0534683F311884046BDE8F08739
:10338000054B064A064823F00701064B116020F062
:1033900007021A60704700BF7FBF0020FC91002029
:1033A00000C00120F8910020AFF30080AFF300804F
:1033B000202383F31188094A0949136809680730F3
:1033C00020F00700C91A88429DBF181810601846DF
:1033D0000020002383F31188704700BFFC91002078
:1033E000F8910020AFF30080AFF30080AFF30080CE
:1033F000024A034910680B68C01A7047F891002010
:10340000FC910020AFF30080AFF30080AFF30080A9
:10341000044B0549002203F1100019609A60DA603C
:10342000FFF7A6BD00920020B1330008AFF3008083
:1034300010B500F09DFF074801F052FB00F028F89E
:1034400000F07EF800F05CFA00F052F9BDE81040A0
:1034500002F02EBBB0730008AFF30080AFF3008022
:10346000084A5368C0188342516802D28B4205D97A
:1034700070478B42F7D98842F5D870478842F2D816
:10348000704700BF001000E0AFF30080AFF3008092
:1034900001F02EB8AFF30080AFF30080AFF30080EF
:1034A00000230122027043608360C36003614361B3
:1034B0001830FFF75DBD00BFAFF30080AFF30080B1
:1034C00010B52023044683F31188416001F040F8D1
:1034D00002232370002383F3118810BDAFF3008013
:1034E00038B51D46202383F31188032303708260BF
:1034F000C560016101F06CF8002383F3118838BDC9
:1035000070B51D460446202383F31188094E0161DE
:10351000032182600170C56001F05AF8B36902208E
:103520006361FFF7CDFAB2690023906A83F31188D3
:1035300070BD00BFDC910020AFF30080AFF30080CE
:1035400001F0DEB9AFF30080AFF30080AFF300808D
:103550000121002301704360704700BFAFF300807A
:1035600010B52023044683F31188416089880181C6
:1035700001F0D6F902232370002383F3118810BDD4
:1035800008B5202383F3118801F08AFA002383F31E
:10359000118808BDAFF30080AFF30080AFF3008067
:1035A00070B5046AD4F854321B681A78042A00D023
:1035B00070BDD889596910F002034A8AF8D1A1690F
:1035C000E5696069C1EB050CC0EB0C018A42EFD8DC
:1035D00083F31188D4F85402B1FBF2FE02FB0EF320
:1035E0000068012104F10C0200F0F2F9202383F3BA
:1035F0001188D4F8542210680121BDE8704000F011
:1036000007BA00BFAFF30080AFF30080AFF30080D4
:1036100010B5046AD4F854321B681A78042A00D012
:1036200010BD988910F00203FAD1E26B206CA16BF7
:10363000C2EB000CBCEB0102F2D083F31188D4F88A
:1036400054121346086804F13002012100F0D0F949
:10365000202383F31188D4F8543218680121BDE87F
:10366000104000F0EDB900BFAFF30080AFF3008071
:103670000C30FFF7B5BD00BFAFF30080AFF30080A3
:103680000C304FF0FF33FFF7ABBD00BFAFF300804E
:103690003030FFF735BE00BFAFF30080AFF30080DE
:1036A00030304FF0FF33FFF72BBE00BFAFF3008089
:1036B0000C30FFF76DBD00BFAFF30080AFF30080AB
:1036C0000C304FF0FF31FFF763BD00BFAFF3008058
:1036D0003030FFF7EDBD00BFAFF30080AFF30080E7
:1036E00030304FF0FF32FFF7E3BD00BFAFF3008093
:1036F000704700BFAFF30080AFF30080AFF30080EE
:1037000030B50F4A0F4B0546044645F8042B83B0ED
:10371000656001250C3004F1540125724FF480726C
:103720000094FFF70DFD04F1300004F5AA714FF489
:103730008072054B0094FFF793FD03B030BD00BFCE
:1037400050720008A135000811360008AFF3008060
:10375000202383F311880B68C0F85412022298606A
:103760000023027283F31188704700BFAFF300801B
:1037700070B5866806F10C0504462846FFF7F0FC94
:1037800006F13000FFF77CFD301D0121FFF718FC2A
:103790006369012120462A465B8A00F019F9204618
:1037A0000121BDE8704000F033B900BFAFF30080E5
:1037B00090F8301001F06003202B01D000207047FA
:1037C00090F83130212B0BD0222B03D0202B07D0A7
:1037D00000207047002242628262C262012070476C
:1037E00003490723002241628362C26201207047BD
:1037F000F88F0020AFF30080AFF30080AFF30080BC
:1038000070B52023866804460D4683F3118808218D
:10381000301DFFF7D5FB316CF06BB36B0A1AD21A6F
:103820001FD12A1D54F822305969188A4B68421E4C
:10383000134003D0002383F3118870BD83F31188F4
:103840002046294606F1300200F0D2F8202383F307
:1038500011882046294600F0F3F8002383F31188ED
:1038600070BD002383F3118813462046294606F1D4
:10387000300200F0BDF8202383F31188204629464A
:1038800000F0DEF8002383F3118870BDAFF30080F1
:1038900070B52023866804460D4683F31188042101
:1038A0007018FFF78DFB6269F069B1697369528A1C
:1038B000411AC91A8A4213D8002383F31188B1FB35
:1038C000F2FC02FB0CF32046294606F10C0200F044
:1038D0007FF8202383F311882046294600F098F8CA
:1038E000002383F3118870BDAFF30080AFF3008035
:1038F000704700BFAFF30080AFF30080AFF30080EC
:1039000001F036BEAFF30080AFF30080AFF300806C
:10391000002301220270436083608381C38170476A
:1039200038B50446202383F31188002541600561E2
:1039300045618561C56101F043FE022323702B467A
:1039400083F3118838BD00BFAFF30080AFF3008070
:103950000346506930B440B10546002445F8044B95
:103960000435446045F8044B2C60946944B1254605
:10397000002045F8040B0435606045F8040B28600E
:103980000C1D184643F8242030BC01F031BF00BFA5
:1039900030B40C1D002550F82440A4692560E26075
:1039A0006360A56030BC02F003B800BFAFF30080D5
:1039B00030B40C1D002550F8244064692560E26095
:1039C0006360A56030BC02F00BB800BFAFF30080AD
:1039D00030B40D1D50F82540A46901256360002313
:1039E0002560E260A36030BC01F0E2BFAFF300806D
:1039F00030B40D1D50F82540646901256360002333
:103A00002560E260A36030BC01F0EABFAFF3008044
:103A100070B5C48954FA01F313F0010601D00120F6
:103A200070BD012212FA01F545EA0404C48101F0D7
:103A3000F7FF304670BD00BFAFF30080AFF30080EA
:103A400070B5848954FA01F313F0010601D0012006
:103A500070BD012212FA01F545EA0404848101F0E7
:103A6000E7FF304670BD00BFAFF30080AFF30080CA
:103A700010B4002202240470028780F83A2080F8F3
:103A80003B208281C281026142618261C26180F811
:103A9000202010BC01F004BEAFF30080AFF3008023
:103AA000F8B50022044680F8202000F1300201F031
:103AB0006FFF63689B684BB32046984730B3A56A95
:103AC00094F8303094F837C094F836E04EEA0C2180
:103AD000A9423CBFA1620D4613F0800F40F08280E6
:103AE000002D6BD104202B4684F820002946204667
:103AF0002A46FFF75DFF202383F3118820462946DD
:103B0000FFF79EFF2B4683F31188F8BD94F8303001
:103B100013F060061A4611D00021204601F0A8FFDC
:103B20002046002101F09CFF6268136813B1204613
:103B300005219847052384F82030F8BD94F83170AA
:103B400003F07F0141EA0727B7F5407F00F0FD80D1
:103B500016DDB7F5C06F00F08D806CDDB7F5106F26
:103B600000F0B78040F6024C67457CD0B7F5006F97
:103B7000D2D1012504F13B016162A562E662A1E7B1
:103B8000022F00F0B88069DDB7F5807F00F08B80F0
:103B9000B7F5817FC0D194F832100029BCD194F8D8
:103BA000343013F00F0153D013F0800F40F0008138
:103BB000204601F065FF94F8302049E003212B46B0
:103BC00084F8201020460021626AFFF7E1FE2023DE
:103BD00083F3118800212046FFF71AFF002383F3A7
:103BE0001188F8BD9DB101202B4684F820000021EA
:103BF0002046626AFFF7DCFE202383F31188002150
:103C00002046FFF71DFF002383F31188F8BD022231
:103C10002B4684F82020204629462A46FFF7B8FE86
:103C2000202383F3118820462946FFF7F1FE2B4617
:103C300083F31188F8BD40F20230874272D0B7F5A5
:103C4000A06F7FF469AF238EB3F5A06F00F09E8064
:103C500000256562A562E562134633E7002F31D087
:103C6000012F7FF459AF5848022500226062A562F7
:103C7000E26227E7606894F8357094F834C04568CC
:103C800094F8331094F8322020464CEA0723A847D2
:103C900000283FF441AF4268056894F83030626212
:103CA000A562E6620EE794F832E0BEF1010F7FF400
:103CB00033AF218F666221F002052587A662E66296
:103CC0003546FFE6022504F138026262A562E7622A
:103CD000F8E694F8323084F83B30002B44D10325C9
:103CE000257061680B68002BB2D0204602219847EE
:103CF00094F83020ACE794F8341011F0800F36D1EE
:103D0000204601F00F0101F023FE012836D00228E1
:103D10007FF402AF2D4DA0626562E66294F8303008
:103D20000546CFE694F8320000287FF4F5AE94F80B
:103D3000343013F00F018BD013F0800F3ED12046AA
:103D400001F08EFE94F8302082E794F832000128CA
:103D50007FF4E2AE228F666242F0020CA4F838C013
:103D6000A662E6623546ADE604202070B9E720463B
:103D700001F00F0101F0FCFD0128C8D1144BA7622E
:103D80006362E66294F830303D469BE694F832E098
:103D9000204684F83AE001F01BFD65682B6813B1FA
:103DA000204601219847032194F8302021704FE7E5
:103DB000204601F06DFE94F8302049E7204601F0DE
:103DC00057FE94F8302043E77072000880720008B4
:103DD00090720008AFF30080AFF30080AFF3008073
:103DE00038B590F82030012B044619D0042B10D0A0
:103DF000002101F03DFE0021204601F031FE616806
:103E00000B6813B1204605219847052284F820202D
:103E100038BDC36A03B19847002384F8203038BD09
:103E200090F8371090F836C0836A4CEA01229A4223
:103E300007D90269B2F810E0B3FBFEF50EFB1535A9
:103E40009DB1002102200B4684F820000A4620463E
:103E5000FFF79EFD202383F3118800212046FFF702
:103E6000D7FD002383F3118838BD2B4629462A4607
:103E7000FFF79EFD202383F3118820462946FFF794
:103E8000DFFD2B4683F3118838BD00BFAFF3008000
:103E900090F82030022B10B5044626D0032B11D009
:103EA0000021204601F0E4FD2046002101F0D8FD6C
:103EB00063681B6813B1204605219847052184F8E3
:103EC000201010BD002104220B4680F820200A4655
:103ED000FFF76EFD202383F3118800212046FFF7B2
:103EE000AFFD002383F3118810BD026991698B68CF
:103EF000002BD5D1C36A03B19847002084F8200075
:103F000010BD00BFAFF30080AFF30080AFF30080BF
:103F10000748084A0368116810B53D24946013B13E
:103F2000406821409847BDE81040FEF7F1BB00BF54
:103F30002092002000600240AFF30080AFF30080C9
:103F40000848094A8368116810B54FF47464946096
:103F500023B18909C06801F03D019847BDE81040D0
:103F6000FEF7D6BB2092002000600240AFF3008035
:103F70000848094A0369116810B54FF47414946035
:103F800023B1090C406901F03D019847BDE810409C
:103F9000FEF7BEBB2092002000600240AFF300801D
:103FA0000848094A8369116810B54FF07464946039
:103FB00023B1890DC06901F03D019847BDE810406B
:103FC000FEF7A6BB2092002000600240AFF3008005
:103FD0000748084A036A516810B53D24D46013B1FC
:103FE000406A21409847BDE81040FEF791BB00BFF2
:103FF0002092002000600240AFF30080AFF3008009
:104000000848094A836A516810B54FF47464D46053
:1040100023B18909C06A01F03D019847BDE810400D
:10402000FEF776BB2092002000600240AFF30080D4
:104030000848094A036B516810B54FF47414D460F2
:1040400023B1090C406B01F03D019847BDE81040D9
:10405000FEF75EBB2092002000600240AFF30080BC
:104060000848094A836B516810B54FF07464D460F6
:1040700023B1890DC06B01F03D019847BDE81040A8
:10408000FEF746BB2092002000600240AFF30080A4
:104090000748084A036C116810B53D24946013B1B9
:1040A000406C21409847BDE81040FEF731BB00BF8F
:1040B0002092002000640240AFF30080AFF3008044
:1040C0000848094A836C116810B54FF47464946011
:1040D00023B18909C06C01F03D019847BDE810404B
:1040E000FEF716BB2092002000640240AFF3008070
:1040F0000848094A036D116810B54FF474149460B0
:1041000023B1090C406D01F03D019847BDE8104016
:10411000FEF7FEBA2092002000640240AFF3008058
:104120000848094A836D116810B54FF074649460B3
:1041300023B1890DC06D01F03D019847BDE81040E5
:10414000FEF7E6BA2092002000640240AFF3008040
:104150000748084A036E516810B53D24D46013B176
:10416000406E21409847BDE81040FEF7D1BA00BF2D
:104170002092002000640240AFF30080AFF3008083
:104180000848094A836E516810B54FF47464D460CE
:1041900023B18909C06E01F03D019847BDE8104088
:1041A000FEF7B6BA2092002000640240AFF3008010
:1041B0000848094A036F516810B54FF47414D4606D
:1041C00023B1090C406F01F03D019847BDE8104054
:1041D000FEF79EBA2092002000640240AFF30080F8
:1041E0000848094A836F516810B54FF07464D46071
:1041F00023B1890DC06F01F03D019847BDE8104023
:10420000FEF786BA2092002000640240AFF30080DF
:104210002A492B4AD1F824C02A482DE9F00FD1F8B9
:1042200000A0D1F818800F6BCE6B8D6CD1F80C907C
:10423000D1F854B0244C0023CAF80030C9F800303B
:10424000DFF888A0C8F80030CCF800303B6033605D
:104250000F6E2B60CE6E8D6FCBF80030CAF8003039
:104260003B601360336093601361936113629362E8
:1042700013639363136493642B60D1F88480D1F843
:1042800090C0D1F89C70D1F8A860D1F8B450C8F8AB
:1042900000304FF0FF31CCF8003013653B60936580
:1042A0003360136693662B601367A1609367E160C8
:1042B0008160C160BDE8F00F704700BFA0720008C8
:1042C000209200200064024000600240A092002082
:1042D0002DE9F041224D447A2E684FF0010C0CFA82
:1042E00004F7374235D1DFF880C047EA06060CEB09
:1042F000C40816F0FF0F4CF83420C8F804302E60C4
:1043000004D0184B1D6B45F400141C6316F47F4F4A
:1043100019D103681D6825F001041C601E6816F0A1
:104320000104FBD1067A45683D2717FA06F62E6090
:1043300021251C605D617AB1807A0901FEF758FA87
:104340002046BDE8F081074E336B43F480073763A6
:10435000DFE76046BDE8F0811046BDE8F08100BFB0
:10436000A09200200038024020920020AFF300808D
:10437000264B2749274870B41E69274D274C002239
:1043800046F001061E611A615E6946F001065E6133
:104390005A619E6946F001069E619A611E6A1E621C
:1043A0001A625E6A46F001065E621D4E5A624E60F7
:1043B00007268A600E60E96841F08071E960216833
:1043C00041F001012160196C41F0805119640168CC
:1043D00041F480710160186F00F44071B1F5007F05
:1043E00003D04FF4803018671A67084B1A6F12F425
:1043F000004F07D1196F41F400721A67186F40F42B
:104400000041196770BCFFF703BF00BF00380240CE
:1044100010E000E000700040F0ED00E0001000E06F
:104420003F900200AFF30080AFF30080AFF3008055
:10443000294B2A4A4FF080504FF4804110641A46AD
:104440001960516811F4804FFBD02449086840F08E
:1044500001030B600B68214A13F0020FFAD01068B9
:1044600040F48031116011460B681C4A13F4003F80
:10447000FAD0506F40F00101516711464B6F174A57
:1044800013F0020FFAD0164B5360106840F08071A1
:10449000116011460868114A10F0007FFAD0916847
:1044A000104841EA00031049936040F2057008602B
:1044B000936843F0020191609368084903F00C0C83
:1044C000BCF1080FF8D14A6C42F480434B64486E4B
:1044D00040F480424A667047007000400038024055
:1044E0000854400700B40838003C0240AFF3008095
:1044F00070B50F490F4D104C104E00224A602846EF
:10450000FEF7CEFF0E4B0F49AB6220462963EE62E9
:10451000FEF7C6FF0C480D4BA062A6F11802122050
:104520006021E2622363BDE87040FEF761B900BF1D
:1045300000230140A4920020D8920020307300088C
:1045400000200140162C020000210140162C02021E
:104550000378012B10B5044600D010BD16498842DF
:1045600009D0164B984216D0A36A00210122596047
:1045700099609A6010BD124AC06A06212346FFF76F
:10458000A7FEE06A0F4902680F489160436C43F44C
:1045900080724264E8E70A4AC06A06212346FFF7B0
:1045A00097FEE06A094B016807488B60426C42F451
:1045B00000714164D8E700BFA4920020D892002087
:1045C000814600084C200140003802404C21014047
:1045D0000369026B19682DE9F00709B142F4807292
:1045E000C768C16A9D8809688668D3F81080D3F8C7
:1045F0001490CE60012F07FB05F488BF42F008023B
:104600004C600A60D1F800C0826A9F69DE691D6A49
:104610005C6AD3F828A048F0806049F440734CF0FD
:10462000010CC1F800C040F4807043F00303002186
:104630001160D7601661D5621463C2F834A050606F
:104640009360BDE8F0077047AFF30080AFF30080E0
:10465000C16A0A6810B4146824F001031360136877
:1046600013F00103FBD10C7A826A49683D20A04017
:104670000860012053609360906010BC704700BFD9
:1046800011F00C0F38B50D4604464CD10369002BD0
:1046900048D011F0100F05D09B681BB1C26881682B
:1046A0005208984715F0200F3CD021690B687BB168
:1046B0008B68002B36D0E268012A53D98D88A16817
:1046C000520805FB02F5204601EB4501984738BD2D
:1046D0002046FFF7BDFF21698B68002B49D0E268B7
:1046E0000420012A207047D9B1F804C0A1685208FB
:1046F0000CFB02F5204601EB4501984794F800E0D9
:10470000BEF1040F35D000222261202383F31188EB
:10471000636923B1626118469A62FEF7B9F9002312
:1047200083F3118838BDFFF793FF2369DB683BB142
:10473000052220460021227098472078052815D0B0
:1047400000222261202383F31188636933B16261FF
:104750004FF0FF3218469A62FEF79AF9002383F36E
:10476000118838BD2046A168984738BD02212170C4
:10477000E6E702222270C6E72046A1689847BDE717
:10478000354B1A68002112F0200F10B5196005D0C2
:10479000324CE16A0A685068002832D1304B186800
:1047A000002210F0200F1A6027D02E4CE26A106809
:1047B000416811B3236903B32046FFF749FF21691C
:1047C000CB684BB10520207001212046984794F812
:1047D00000C0BCF1050F39D000222261202383F3F1
:1047E0001188606930B11F4B4FF0FF3181625A610F
:1047F000FEF74EF9002383F31188BDE81040FDF762
:1048000087BF2369002BC9D02046FFF721FF20690D
:10481000C3684BB10522012122702046984794F8C5
:1048200000C0BCF1050F14D000222261202383F3C5
:104830001188606930B1094B4FF0FF3181625A61D4
:10484000FEF726F9002383F31188A7E702222270DE
:10485000C2E702212170E7E700200140A492002076
:1048600000210140D8920020AFF30080AFF3008018
:104870000648074A436810B54FF6FE7111829B68DF
:104880009847BDE81040FDF743BF00BF0C930020E0
:1048900000000140AFF30080AFF30080AFF3008071
:1048A000154B10B5188A9C8904404FF6E17214F03C
:1048B000020F1A821AD114F0040F12D114F0080F4B
:1048C0000AD114F0100F03D00C484268916A88474F
:1048D000BDE81040FDF71CBF084843681A6A9047BE
:1048E000EFE7064841688B699847E7E70348426865
:1048F00011698847DFE700BF000001400C930020EA
:1049000010B5034C2046FEF723FE024B236110BD79
:104910000C93002000000140AFF30080AFF3008053
:10492000F8B50378012B044600F087800369584DE1
:1049300000221A809A811A825A639A63DA631A648F
:104940005A62616827890A68D4F80CC0CE68888DDD
:10495000BCFBF2FC7A1E97B206F00F020CF1FF3C92
:10496000012AA3F828C0DF62988003D0022A0CBF76
:1049700003220022D1F814C00CF00F00012827D028
:10498000022823D0CF6907F00F00012827D0022882
:104990004ED0486A00F00F00012827D0022842D0EC
:1049A000AC4227D0C88D89681A84003918BF01210C
:1049B0006FEA404C012098826FEA5C4C998100229A
:1049C00085211A82A3F844C01980F8BD42F0200264
:1049D000CF6907F00F00012842F01002D7D142F44E
:1049E0008072486A00F00F000128D7D142F480524B
:1049F000AC42D7D106F0F006102E2BD0202E27D0B7
:104A00000CF0F00CBCF1100F29D0BCF1200F24D019
:104A100007F0F007102F03D0202FC3D142F400621B
:104A200042F48062BEE742F4005242F48052DFE773
:104A300042F4007242F48072D3E7154DA84211D0BF
:104A4000236946F6680CA3F818C0A3F81CC078E7E1
:104A500042F0080242F00402D2E742F0800242F043
:104A60004002D5E70B4E706C40F001037364716A2D
:104A7000002241F001071920702177627262FDF770
:104A8000B7FE1B207021FDF7B3FE0348E060D7E7B7
:104A90000C9300200038024000BD0105AFF30080F8
:104AA00010B44468036904EBC10C01F10C0403EB7E
:104AB0008404DCF81000626058B19A89022092B236
:104AC00010FA01F1114204D189B2C843114399810E
:104AD000188210BC704700BFAFF30080AFF30080B6
:104AE0002DE9F007DFF8E8A1DFF8E881DAF8309087
:104AF000DFF8E4C16F4F704E704D714C7149724ACE
:104B0000724B6FEA59296FEA4929CAF83090DAF8EE
:104B100050906FEA59296FEA4929CAF85090D0F8A5
:104B20000490C8F80490D0F80890C8F80890D0F81D
:104B30000C90C8F80C90D0F81090C8F81490D0F8E9
:104B40001490C8F82090D0F81890C8F82490D0F8A5
:104B50000090C8F80090D0F82080CCF80480D0F8FD
:104B60002480CCF80880D0F82880CCF80C80D0F8CD
:104B70002C80CCF81480D0F83080CCF82080D0F88D
:104B80003480CCF82480D0F81C80CCF80080D0F899
:104B90003CC0C7F804C0D0F840C0C7F808C0D0F87F
:104BA00044C0C7F80CC0D0F848C0C7F814C0D0F84B
:104BB0004CC0C7F820C0D0F850C0C7F824C0D0F807
:104BC00038C0C7F800C0876D7760C76DB760076EE3
:104BD000F760476E7761876E3762C76E7762476DA1
:104BE0003760466F6E60866FAE60C66FEE60D0F85D
:104BF00080606E61D0F884602E62D0F888606E624A
:104C0000066F2E60D0F890506560D0F89450A56083
:104C1000D0F89850E560D0F89C506561D0F8A0506D
:104C20002562D0F8A4506562D0F88C502560D0F889
:104C3000AC404C60D0F8B0408C60D0F8B440CC6050
:104C4000D0F8B8404C61D0F8BC400C62D0F8C040FD
:104C50004C62D0F8A8400C60D0F8C8105160D0F871
:104C6000CC109160D0F8D010D160D0F8D410516140
:104C7000D0F8D8101162D0F8DC105162D0F8C4100E
:104C80001160D0F8E4205A60D0F8E8109960D0F8AC
:104C9000EC20DA60D0F8F0105961D0F8F4201A62F4
:104CA000D0F8F8105962D0F8E0201A60BDE8F0079B
:104CB000704700BF00080240000C02400010024094
:104CC0000014024000180240001C02400020024074
:104CD000003802400000024000040240AFF30080B0
:104CE0002DE9F00F02F00307C2F38006C2F3C105FD
:104CF000C2F34114C2F3C31200234FF00F094FF067
:104D0000010B924632E0D0F8208028EA0C0C4CEAE5
:104D10000202026242680BFA03FC22EA0C0848EA2B
:104D2000060242604FF003085A00D0F808C008FAA3
:104D300002F2D24302EA0C0C4CEA050CC0F808C09F
:104D4000D0F80CC002EA0C0C4CEA040CC0F80CC001
:104D5000D0F800C002EA0C0C4CEA070202604908D5
:104D600019D07600AD00A400BF00013311F0010F8F
:104D7000F5D003F007084FEA880C072B0AFA0CF26B
:104D800009FA0CFCBFD9D0F8248028EA0C0C4CEAB4
:104D900002024262BEE7BDE8F00F7047AFF3008049
:104DA0002DE9F04F984B99499A69D0F83C80916170
:104DB00087B00546202383F3118800262878012830
:104DC00006D0AC6C84B9D8F8147017F0100F0BD162
:104DD0008D48D8F81830816943F01002C8F81820BF
:104DE00002202965FDF76CFE002383F311881C4621
:104DF0000193D8F8140010F010023BD0E86B036A5E
:104E000003F4F012B2F5802F4ED0B2F5402FF0D15E
:104E100003F00F073A1DC3F30A1355F82210DF1CE5
:104E2000BB0800F580500A6AE3D0013B07681946C9
:104E300003F0010E42F8047B01230029D9D0BEF112
:104E4000000F05D007680023013942F8047BD0D059
:104E5000076813B142F8047B013B0139076813B1BD
:104E600042F8047B013B0139F2D1D8F8140010F06C
:104E70001002C3D1DDF80490AF6C4FF0010E0EFAB2
:104E800009F919EA070FCDF8109040F0C180019898
:104E9000296C441C8B68E7B29F4201973C46A8D915
:104EA000202383F3118889E703F00F0A0AF1040A2B
:104EB000C3F30A1955F82A2097693968002942D1A5
:104EC00009F1030C5FEA9C0100F58050FA68D7F8FD
:104ED00004E0BB682CD00EF1030CC3EB0C0B01F10A
:104EE000FF3E5FEA9B03D0F800C00EF0010E02D037
:104EF00042F804CB013B013919D0BEF1000F07D0B5
:104F0000D0F800E013B142F804EB013B01390ED0B8
:104F1000A646046813B142F8044B013B013904680A
:104F200013B142F8044B013B0139F2D17446FA68DF
:104F300002EB0900F86055F82A2091698B6803EBB1
:104F400009078F6055E700F58050FF68B9F1000F41
:104F500041D07B694946032906D93A699A4204D867
:104F6000FB6803297B61F8D87B69026803F8012B91
:104F7000D7F810E07B61734524BFFB687B61013982
:104F800029D07B694FEA122C03F801CBD7F810B077
:104F90007B615B4524BFFB687B6101391BD07B696A
:104FA0004FEA124B03F801BBD7F810E07B61734561
:104FB00024BFFB687B6101390DD07B69120E03F8B9
:104FC000012B3A697B61934224BFFB687B61013905
:104FD00001D07B69BFE7202383F31188BB68386861
:104FE00003EB0901B842B96008D002683A60576023
:104FF000FDF74EFD86623868B842F6D1FDF748FEEF
:10500000002383F3118896E7DC9100207073000879
:10501000202383F31188D8F80870A86C27F00103C7
:1050200020EA0901C8F808301346A96483F31188FF
:10503000DDF804B00BF1040ACDF808A055F82AC039
:10504000DCF8141088684F68874240F21781DDF859
:1050500004B0EB6BBCF810A04FEA4B1903EB090C42
:105060003F1ADCF81809CDF80C90BA4538BF5746FE
:105070001FFA80FEB7EB8E0F50D82403CDF81480B2
:10508000A0460A68002A5ED107F1030903F580549F
:105090005FEA990E04EB0800CB681ED00EF1FF3AD0
:1050A00053F804BB52460AF0010E44F808B09AB116
:1050B000BEF1000F05D053F804EB013A44F808E0C4
:1050C0000AD08E461C4654F8041B01605968231D03
:1050D000023A0160F6D17146CB68D819C860029BCC
:1050E00055F8234061698A684868BA1890428A6016
:1050F00040F2C080EB6BDDF80CC0B4F810A003EBFD
:105100000C0E871ADEF81809574528BF574682B299
:10511000B7EB820FB5D9DDF814800022202383F38A
:105120001188D8F8084044F00107C8F8087032B96F
:10513000D8F83408049A42EA0001C8F83418002369
:1051400083F31188A3E603F5805303EB080ECC68C4
:10515000002F3BD0D4F810903846AA46BB468308AF
:1051600050D1A56915F8013BA94598BFE268A56132
:1051700098BFA261013841D0A26912F801CB9145D4
:10518000A2619CBFE268A261013843EA0C2335D0DA
:10519000A26912F8011B9145A2619CBFE268A2615D
:1051A000013843EA014329D0A26912F8017B4A453C
:1051B000A26124BFE268A261013843EA07631DD0FF
:1051C000CEF800300028CAD155465F46202383F32D
:1051D0001188A3682068DA19A042A26008D001688B
:1051E00021604C60FDF754FC866220688442F6D151
:1051F000FDF74EFD002383F3118870E70020CEF801
:105200000030DFE7A569B9EB050148BF033189101C
:105210008B4238BF19464FEA810CCCEB0000E1B15C
:105220002B46013953F8047B0A46CEF8007001F092
:1052300001018AB129B153F8041B013ACEF80010DC
:105240000AD0194651F8047BCEF800705F680B1D38
:10525000023ACEF80070F4D165444D45A56105D3FE
:10526000E568A56100287FF47AAFADE700287FF4F8
:1052700079AFA9E7DDF8148001224FE772464DE7C8
:1052800000232DE9F0018A681C464FF0804C4FF056
:10529000FF3717E05E014450851903F158014901B9
:1052A000C5F81049C5F8087950F80180B8F1000F29
:1052B00026DB8619013393424450C6F8104BC6F8DA
:1052C000087B2DD803F1480149014558002DE1DA4A
:1052D0005E0100EB060840F801C008F51065A968FA
:1052E00011F0020FFBD0851903F158014901C5F8EF
:1052F0001049C5F8087950F80180B8F1000FD8DAE4
:1053000040F801C005F53065A96811F0100FFBD019
:10531000861901339342C6F8104BC6F8087BD1D9E1
:105320004FF00113C0F81C38BDE8F001704700BF12
:10533000890141F020030361026912F0200FFBD1C3
:105340000C20FEF78DB800BFAFF30080AFF30080F4
:10535000F8B51A4EF46B410163184FF0FF32D3F8E1
:10536000087BC3F8082B17F0080F054604D0D4F8C3
:10537000142812F0080F19D117F0010F04D0D4F837
:10538000140810F0010F00D1F8BD281DB6F80EE08A
:1053900056F820300948DB68012111FA05F22EEA9F
:1053A000020CA6F80EC029469847F8BD011D3046EC
:1053B00056F82120294653689847DDE720930020BE
:1053C000F8B5224DEC6B410163184FF0FF32D3F872
:1053D0000879C3F8082917F0010F064604D0D4F85D
:1053E000102812F0010F21D117F0800F1DD00122DB
:1053F000D4F8340812FA06F6064216D0202383F3B6
:105400001188AB6CD4F83428286D46EA030122EAEF
:105410000606A964C4F8346820B1FDF739FB0B49CE
:1054200000200865002383F31188F8BD031DB5F83B
:105430000CC055F82330012111FA00F22CEA0200C9
:10544000A8819B68284631469847CDE720930020E5
:1054500070B5434EF56B6B69AC691C4014F4805F0A
:105460006C6148D114F4005F18BFD5F8083814F007
:10547000080F04D07068C3680BB13948984714F01E
:10548000100F10D0202383F31188AA69306D22F009
:105490001001A96120B1FDF7FBFA314B002018651E
:1054A000002383F3118814F4802FD5F818580BD0FB
:1054B00015F0010F3ED115F0020F41D115F0040F88
:1054C00044D115F0080F47D114F4002F0BD015F478
:1054D000803F22D115F4003F25D115F4802F15D13E
:1054E00015F4002F03D1BDE87040FDF711B903207A
:1054F000FFF72EFFF7E73046FEF7BAFA73681B682E
:10550000002BAFD0304600219847ABE70220FFF7D1
:105510001FFF15F4002FE6D0E9E70020FFF718FF82
:1055200015F4003FD9D00120FFF712FF15F4802FAA
:10553000D6D0EBE70020FFF743FF15F0020FBDD0F8
:105540000120FFF73DFF15F0040FBAD00220FFF74E
:1055500037FF15F0080FB7D00320FFF731FFB3E78F
:1055600020930020AFF30080AFF30080AFF3008002
:1055700070B50E4C2046FEF7CBF90023E36423659B
:105580004FF0A04304F1A405E363094B2946FF2231
:1055900004F158002364FDF7C3FB284604F5E271CB
:1055A0005522BDE87040FDF7BBBB00BF2093002033
:1055B00060730008AFF30080AFF30080AFF30080AA
:1055C00070B50378C56B012B82B0044601D002B0E0
:1055D00070BD2D49884246D0E66C0023A364002E9E
:1055E00035D02A48E66B2A4BE86000224FF4502160
:1055F0000120C5F80038C5F8002EA9633061316973
:1056000011F0010FFBD10C20FDF72AFF3269002AAF
:10561000FCDA0026E06BAE60216CFFF731FE6068BB
:10562000C5F81068C368C5F81468C5F81C6853B19C
:1056300043F20802AA614FF0FF316961A86840F0A7
:105640000103AB60C3E74FF44051A961F3E704F1F4
:1056500058004FF4DC7102220E4B0094FDF780FBE2
:105660002065E064BDE70C4E726B42F0800171630F
:105670007069002240F0800373614320E021726171
:10568000FDF7B6F8A8E700BF2093002040140040C3
:1056900003002002A14D000800380240AFF3008053
:1056A0002DE9F84FC46B054600212046FFF740FE68
:1056B000D5F840B004F5106004F530634FF0006198
:1056C000DBF808A040F8081B43F8081BFF22026023
:1056D0001A600AF001000123BAF1000F35D068B159
:1056E00004F5126604F5326E02239A453160CEF855
:1056F0000010C4F82829C4F8282B26D35F1C5E01AB
:1057000003F1490E03F1480903F1580878015933B0
:10571000A61920184FEA4E1C4FEA49194FEA431EBA
:105720004FEA48187B1C9A4544F8091044F80810C1
:10573000C6F80829C6F8082B44F80C1044F80E10D7
:10574000C0F80829C0F8082BD8D2DBF80070EB6B42
:105750004FF0FF304FF001111022C4F81808C4F8C0
:105760001C186F6467621A611E6916F01006FBD17F
:105770000C20FDF775FED4F80028696C104B22F45C
:10578000FE60C4F80008A76947F4402C09224CF0D9
:105790001007A761C4F81028C4F81428094A01F1B9
:1057A000100041F480112A61C4F8106BC4F8003B6A
:1057B000C4F81069C4F800396864A162BDE8F88FC4
:1057C0004080001080730008AFF30080AFF30080CA
:1057D000C36B90F83A10D3F8002822F4FE6040EA38
:1057E0000112C3F800287047AFF30080AFF30080C8
:1057F0002DE9F0410F1D0D4650F82730C46B1A6893
:1058000002F00302022A064656D0032A73D04A4900
:105810004A48012A0CBF804688466A0104EB020C04
:10582000D9684FF0000ECCF810EB002950D0B3F837
:1058300012C005F15800410148EA0C00605005F122
:10584000100CD4F81C084FF0010E0EFA0CF141EACE
:105850000000C4F81C08A21899680020C2F81009BA
:1058600000294BD0998B1A8A706C920805F13F0C75
:10587000012988BF4A4304EB8C0E131840EA024109
:1058800073642046CEF804102946FFF751FD56F800
:105890002700028A05F148014B0142EA855C4CEA87
:1058A0000800E0500121D4F81C3811FA05F51D4319
:1058B000C4F81C58BDE8F0816A0104EB020CD968F9
:1058C000DFF880804FF0000ECCF810EB0029AED14D
:1058D00005F15801490105F1100C605820F4004011
:1058E00060500121D4F81C0801FA0CFE20EA0E01D8
:1058F000C4F81C18AFE7DFF850808EE705F13F0CC5
:1059000004EB8C0E0E492046CEF804102946FFF712
:105910000FFD05F1480043010120E25822F4004147
:10592000E150D4F81C3810FA05F523EA0505C4F84F
:105930001C58BDE8F08100BF0080001000800410FA
:10594000000400020080081000800C10AFF30080FB
:105950005831C36B49015B5813F4004004D013F471
:10596000001F0CBF02200120704700BFAFF3008072
:105970004831C36B49015B5813F4004004D013F461
:10598000001F0CBF02200120704700BFAFF3008052
:10599000043150F82130186A01684368116053607F
:1059A000704700BFAFF30080AFF30080AFF300801B
:1059B0000A1D10B450F82230C46B9869B3F812C0B5
:1059C0004268501E00EB0C0349014CF0C042B3FB8F
:1059D000FCF0611842EAC043C1F8103B10BC7047AC
:1059E0000A1D10B450F8222053695B687BB1B2F8ED
:1059F00010C0C06B5C1E64444901B4FBFCF200EBB8
:105A0000010C43EAC241CCF8101910BC7047C36BBB
:105A10004A0199184FF40020C1F81009F5E700BFBA
:105A20005831C36B4901585840F080625A50704752
:105A300001F14803C26B5B01D05840F00440D050E4
:105A40000120D2F83438884040EA0301C2F8341803
:105A5000704700BFAFF30080AFF30080AFF300806A
:105A60005831C36B4901585840F400125A507047DE
:105A70004831C36B4901585840F400125A507047DE
:105A80005831C36B4901585820F400125A507047DE
:105A90004831C36B4901585820F400125A507047DE
:105AA000FEF7C6BCAFF30080AFF30080AFF3008019
:105AB000704700BFAFF30080AFF30080AFF300800A
:105AC000F0B4002B08BF0B4600F10B0700F10A05EC
:105AD00000E03146B1FBF2F602FB161101F1300491
