:020000040800F2
:1000000000200020311300082114000821140008EA
:1000100021140008211400082114000821140008EC
:1000200021140008211400082114000851140008AC
:10003000211400082114000821140008511500089B
:1000400021140008211400082114000821140008BC
:1000500021140008211400082114000821140008AC
:10006000211400082114000821140008E12A0008C6
:10007000112B0008412B0008712B0008A12B000850
:10008000D12B0008012C000871320008211400084F
:10009000211400082114000821140008211400086C
:1000A00021140008313400082114000861340008CC
:1000B000211400082114000821140008211400084C
:1000C000211400082114000821140008211400083C
:1000D000211400082114000821140008211400082C
:1000E000211400082114000821140008211400081C
:1000F000013400082114000821140008312C0008E4
:1001000021140008211400082114000821140008FB
:1001100021140008211400082114000821140008EB
:10012000612C0008912C0008C12C0008F12C00085B
:10013000212D0008211400082114000821140008B2
:10014000211400082114000821140008413A000875
:10015000512D0008812D0008B12D00082114000840
:10016000211400082114000821140008211400089B
:10017000211400082114000821140008211400088B
:080180002114000821140008FD
:100190002DE9F043A04CA14B20680022C16B5A60AE
:1001A0008D6BADF5405D25F400268BB08E6301F0BC
:1001B00057FF05F0ADFA01F043FA994802F0E0F874
:1001C0002146974802F004F94FF47A7001F090FC50
:1001D0002068944902F0D4F92768FB6B9A6B42F4CB
:1001E00000249C638E4FD7F8540201680D78042DCB
:1001F00003D0142001F07CFCF4E74FF000088A4C97
:100200008A4BCDF800804FF4DC714022884801F021
:1002100047FC0FCC0BAE0FC694E8070086E807003A
:1002200052AE414642F6E062304607F061F881493D
:10023000814A384603F0E4FE01F0F2FE7F490246AF
:10024000384603F0DDFE38467D4903F0D9FE3846D6
:100250007C4903F0D5FE12A84146FF2207F048F87A
:10026000444645466E4F12AB3A6803EB0508D2F898
:100270001CC038464146FF226423E0475FFA80F9FC
:10028000B9F1000F05D038466F49424603F0B8FE79
:100290000024611CCCB209EB0500632CC5B207D861
:1002A00012AB5F1917F8012C0D2A01D00A2AD9D1F7
:1002B00004AA664912A805F073F9DDE9040100F00B
:1002C000D7FC00F041FA02460B465548604903F05E
:1002D00097FE3446002507EE105A9FED5E0AF8EEB1
:1002E000C76AA8B207EE900AF4EEC06AF1EE10FAFF
:1002F000F8EE670A9FED581A06D570EEA03A83EE25
:10030000814A84ED004A09E0C0EE811AB7EE002A66
:1003100072EE612A32EEA23A84ED003A013540F6DF
:10032000B83104348D42D6D10BA804F0C1FB04F0DF
:100330006FFC05F0BDFA322001F0DAFB04F0A8FDF5
:1003400000242546454856F82410002201F0A8FC58
:1003500048B9013440F6B830844208BF0024012077
:1003600001F0C6FBEEE702A94FF0FF323C4801F076
:10037000C7FC3C4803A94FF0FF3201F0C1FC4FF02D
:100380000008394B282206AF02FB083007EB880132
:100390004FF0FF3208F1010801F0B2FCB8F1050F8F
:1003A000EFD104EE905ADFED315AB8EE645A4FF0B7
:1003B000000985EE256A16EE100A00F0C5F902461E
:1003C0000B4617482A4903F01BFE029800F0BCF9BF
:1003D00002460B461248264903F012FE039800F02D
:1003E000B3F902460B460E48224903F009FE57F8BE
:1003F00009200B48204909F1040903F001FEB9F175
:10040000140FF4D106481D4903F0FAFD022001F053
:100410006FFB013596E700BF1085000800380140EA
:1004200028AB002030840008807F0008914200083B
:1004300070A9002078820008A0820008AC82000821
:10044000CA8200080483000843830008468300082A
:10045000498300080080BB4400803B45B0AD0020CC
:10046000D8F50020BCE40020F4E300205655E94212
:10047000568300085B8300085F8300084083000800
:1004800081F0004102E000BF83F0004330B54FEA45
:1004900041044FEA430594EA050F08BF90EA020FB2
:1004A0001FBF54EA000C55EA020C7FEA645C7FEA45
:1004B000655C00F0E2804FEA5454D4EB5555B8BF68
:1004C0006D420CDD2C4480EA020281EA030382EAD9
:1004D000000083EA010180EA020281EA0303362D6B
:1004E00088BF30BD11F0004F4FEA01314FF4801C3E
:1004F0004CEA113102D0404261EB410113F0004F50
:100500004FEA03334CEA133302D0524263EB430306
:1005100094EA050F00F0A780A4F10104D5F1200EA4
:100520000DDB02FA0EFC22FA05F2801841F10001FF
:1005300003FA0EF2801843FA05F359410EE0A5F1D3
:1005400020050EF1200E012A03FA0EFC28BF4CF004
:10055000020C43FA05F3C01851EBE37101F00045BA
:1005600007D54FF0000EDCF1000C7EEB00006EEBC7
:100570000101B1F5801F1BD3B1F5001F0CD3490851
:100580005FEA30004FEA3C0C04F101044FEA4452A8
:1005900012F5800F80F09A80BCF1004F08BF5FEA2F
:1005A000500C50F1000041EB045141EA050130BD0F
:1005B0005FEA4C0C404141EB010111F4801FA4F1B2
:1005C0000104E9D191F0000F04BF01460020B1FA07
:1005D00081F308BF2033A3F10B03B3F120020CDA3F
:1005E0000C3208DD02F1140CC2F10C0201FA0CF01D
:1005F00021FA02F10CE002F11402D8BFC2F1200C82
:1006000001FA02F120FA0CFCDCBF41EA0C01904037
:10061000E41AA2BF01EB0451294330BD6FEA040480
:100620001F3C1CDA0C340EDC04F11404C4F120026B
:1006300020FA04F001FA02F340EA030021FA04F37D
:1006400045EA030130BDC4F10C04C4F1200220FAD4
:1006500002F001FA04F340EA0300294630BD21FA12
:1006600004F0294630BD94F0000F83F4801306BFD8
:1006700081F480110134013D4EE77FEA645C18BFCC
:100680007FEA655C29D094EA050F08BF90EA020F63
:1006900005D054EA000C04BF1946104630BD91EA5B
:1006A000030F1EBF0021002030BD5FEA545C05D15E
:1006B0004000494128BF41F0004130BD14F580049D
:1006C0003CBF01F5801130BD01F0004545F0FE4111
:1006D00041F470014FF0000030BD7FEA645C1ABF46
:1006E000194610467FEA655C1CBF0B46024650EA7D
:1006F000013406BF52EA033591EA030F41F40021A9
:1007000030BD00BF90F0000F04BF0021704730B52E
:100710004FF4806404F132044FF000054FF0000103
:1007200050E700BF90F0000F04BF0021704730B5C4
:100730004FF4806404F1320410F0004548BF404299
:100740004FF000013EE700BF42004FEAE2014FEAEE
:1007500031014FEA02701FBF12F07F4393F07F4FC9
:1007600081F06051704792F0000F14BF93F07F4FFB
:10077000704730B54FF4607401F0004521F000413E
:1007800020E700BF50EA010208BF704730B54FF0C4
:1007900000050AE050EA010208BF704730B511F0C9
:1007A000004502D5404261EB41014FF4806404F101
:1007B00032045FEA915C3FF4DCAE4FF003025FEA83
:1007C000DC0C18BF03325FEADC0C18BF033202EB0B
:1007D000DC02C2F1200300FA03FC20FA02F001FA65
:1007E00003FE40EA0E0021FA02F11444C1E600BF04
:1007F00070B54FF0FF0C4CF4E06C1CEA11541DBFB7
:100800001CEA135594EA0C0F95EA0C0F00F0DEF881
:100810002C4481EA030621EA4C5123EA4C5350EA66
:10082000013518BF52EA033541F4801143F48013B7
:1008300038D0A0FB02CE4FF00005E1FB02E506F048
:100840000042E0FB03E54FF00006E1FB03569CF09D
:10085000000F18BF4EF0010EA4F1FF04B6F5007FA3
:1008600064F5407404D25FEA4E0E6D4146EB060615
:1008700042EAC62141EA55514FEAC52040EA5E509E
:100880004FEACE2EB4F1FD0C88BFBCF5E06F1ED848
:10089000BEF1004F08BF5FEA500E50F1000041EB7F
:1008A000045170BD06F0004646EA010140EA02002C
:1008B00081EA0301B4EB5C04C2BFD4EB0C0541EA4E
:1008C000045170BD41F480114FF0000E013C00F363
:1008D000AB8014F1360FDEBF002001F0004170BD87
:1008E000C4F10004203C35DA0C341BDC04F11404A0
:1008F000C4F1200500FA05F320FA04F001FA05F22C
:1009000040EA020001F0004221F0004110EBD370F8
:1009100021FA04F642EB06015EEA430E08BF20EA24
:10092000D37070BDC4F10C04C4F1200500FA04F3C7
:1009300020FA05F001FA04F240EA020001F0004159
:1009400010EBD37041F100015EEA430E08BF20EACC
:10095000D37070BDC4F1200500FA05F24EEA020E14
:1009600020FA04F301FA05F243EA020321FA04F043
:1009700001F0004121FA04F220EA020000EBD370FA
:100980005EEA430E08BF20EAD37070BD94F0000FFA
:100990000FD101F00046400041EB010111F4801F2E
:1009A00008BF013CF7D041EA060195F0000F18BFDF
:1009B000704703F00046520043EB030313F4801F1B
:1009C00008BF013DF7D043EA0603704794EA0C0FD5
:1009D0000CEA135518BF95EA0C0F0CD050EA4106EB
:1009E00018BF52EA4306D1D181EA030101F0004168
:1009F0004FF0000070BD50EA410606BF1046194690
:100A000052EA430619D094EA0C0F02D150EA01369B
:100A100013D195EA0C0F05D152EA03361CBF1046DC
:100A200019460AD181EA030101F0004141F0FE417B
:100A300041F470014FF0000070BD41F0FE4141F4FF
:100A4000780170BD70B54FF0FF0C4CF4E06C1CEAFF
:100A500011541DBF1CEA135594EA0C0F95EA0C0FB4
:100A600000F0A7F8A4EB050481EA030E52EA03356F
:100A70004FEA013100F088804FEA03334FF0805590
:100A800045EA131343EA12634FEA022245EA1115BD
:100A900045EA10654FEA00260EF000419D4208BF6E
:100AA000964244F1FD0404F5407402D25B084FEA1B
:100AB0003202B61A65EB03055B084FEA32024FF4C7
:100AC00080104FF4002CB6EB020E75EB030E22BF24
:100AD000B61A754640EA0C005B084FEA3202B6EBE4
:100AE000020E75EB030E22BFB61A754640EA5C0093
:100AF0005B084FEA3202B6EB020E75EB030E22BF23
:100B0000B61A754640EA9C005B084FEA3202B6EB23
:100B1000020E75EB030E22BFB61A754640EADC00E2
:100B200055EA060E18D04FEA051545EA16754FEA44
:100B300006164FEAC30343EA52734FEAC2025FEA62
:100B40001C1CC0D111F4801F0BD141EA00014FF0F1
:100B500000004FF0004CB6E711F4801F04BF0143C2
:100B60000020B4F1FD0C88BFBCF5E06F3FF6AFAEDE
:100B7000B5EB030C04BFB6EB020C5FEA500C50F16E
:100B8000000041EB045170BD0EF0004E4EEA1131F1
:100B900014EB5C04C2BFD4EB0C0541EA045170BDF8
:100BA00041F480114FF0000E013C90E645EA060E3C
:100BB0008DE60CEA135594EA0C0F08BF95EA0C0F6A
:100BC0003FF43BAF94EA0C0F0AD150EA01347FF4B2
:100BD00034AF95EA0C0F7FF425AF104619462CE789
:100BE00095EA0C0F06D152EA03353FF4FDAE1046EC
:100BF000194622E750EA410618BF52EA43067FF43D
:100C0000C5AE50EA41047FF40DAF52EA43057FF4CC
:100C1000EBAE12E700000000000000000000000042
:100C20004FEA410212F5001215D211D56FF4787314
:100C3000B3EB625212D94FEAC12343F0004343EAB7
:100C4000505311F0004F23FA02F018BF4042704792
:100C50004FF00000704750EA013005D111F000401C
:100C600008BF6FF0004070474FF00000704700BFB2
:100C70004FEA4102B2F1E04324BFB3F5001CDCF1BE
:100C8000FE5C0DD901F0004C4FEAC0024CEA5070F6
:100C9000B2F1004F40EB830008BF20F00100704725
:100CA00011F0804F21D113F13872BCBF01F0004028
:100CB000704741F480114FEA5252C2F11802C2F15A
:100CC000200C10FA0CF320FA02F018BF40F00100DB
:100CD0004FEAC1234FEAD32303FA0CFC40EA0C008D
:100CE00023FA02F34FEA4303CCE77FEA625307D1CA
:100CF00050EA01331EBF4FF0FE4040F44000704701
:100D000001F0004040F0FE4040F40000704700BF9A
:100D100080F0004002E000BF81F0004142001FBFB0
:100D20005FEA410392EA030F7FEA226C7FEA236CB9
:100D30006AD04FEA1262D2EB1363C1BFD2184140AE
:100D400048404140B8BF5B42192B88BF704710F044
:100D5000004F40F4000020F07F4018BF404211F0E7
:100D6000004F41F4000121F07F4118BF494292EA4F
:100D7000030F3FD0A2F1010241FA03FC10EB0C007B
:100D8000C3F1200301FA03F100F0004302D5494208
:100D900060EB4000B0F5000F13D3B0F1807F06D3B5
:100DA00040084FEA310102F10102FE2A51D2B1F1AD
:100DB000004F40EBC25008BF20F0010040EA0300A2
:100DC0007047490040EB000010F4000FA2F101024F
:100DD000EDD1B0FA80FCACF1080CB2EB0C0200FAD9
:100DE0000CF0AABF00EBC25052421843BCBFD04027
:100DF0001843704792F0000F81F4000106BF80F4A1
:100E000000000132013BB5E74FEA41037FEA226C63
:100E100018BF7FEA236C21D092EA030F04D092F02E
:100E2000000F08BF0846704790EA010F1CBF002062
:100E3000704712F07F4F04D1400028BF40F00040BF
:100E4000704712F100723CBF00F50000704700F0DF
:100E5000004343F0FE4040F4000070477FEA226206
:100E600016BF08467FEA23630146420206BF5FEAD7
:100E7000412390EA010F40F4800070474FF00003D7
:100E800004E000BF10F0004348BF40425FEA000C9E
:100E900008BF704743F0964301464FF000001CE046
:100EA00050EA010208BF70474FF000030AE000BF9C
:100EB00050EA010208BF704711F0004302D54042DA
:100EC00061EB41015FEA010C02BF8446014600204C
:100ED00043F0B64308BFA3F18053A3F50003BCFA67
:100EE0008CF2083AA3EBC25310DB01FA02FC634414
:100EF00000FA02FCC2F12002BCF1004F20FA02F21B
:100F000043EB020008BF20F00100704702F120020D
:100F100001FA02FCC2F1200250EA4C0021FA02F26E
:100F200043EB020008BF20EADC70704700000000BD
:100F30004FF0FF0C1CEAD0521EBF1CEAD15392EABC
:100F40000C0F93EA0C0F6FD01A4480EA010C400298
:100F500018BF5FEA41211ED04FF0006343EA5010F2
:100F600043EA5111A0FB01310CF00040B1F5000F34
:100F70003EBF490041EAD3715B0040EA010062F1E3
:100F80007F02FD2A1DD8B3F1004F40EBC25008BFCD
:100F900020F00100704790F0000F0CF0004C08BFEB
:100FA00049024CEA502040EA51207F3AC2BFD2F1B8
:100FB000FF0340EAC250704740F400004FF00003C6
:100FC000013A5DDC12F1190FDCBF00F00040704700
:100FD000C2F10002410021FA02F1C2F1200200FA3E
:100FE00002FC5FEA310040F1000053EA4C0308BF05
:100FF00020EADC70704792F0000F00F0004C02BF56
:10100000400010F4000F013AF9D040EA0C0093F0D0
:10101000000F01F0004C02BF490011F4000F013B2A
:10102000F9D041EA0C018FE70CEAD15392EA0C0F98
:1010300018BF93EA0C0F0AD030F0004C18BF31F003
:10104000004CD8D180EA010000F00040704790F0D9
:10105000000F17BF90F0004F084691F0000F91F07D
:10106000004F14D092EA0C0F01D142020FD193EA43
:101070000C0F03D14B0218BF084608D180EA0100CB
:1010800000F0004040F0FE4040F40000704740F0A7
:10109000FE4040F4400070474FF0FF0C1CEAD05275
:1010A0001EBF1CEAD15392EA0C0F93EA0C0F69D0D1
:1010B000A2EB030280EA010C49024FEA402037D03C
:1010C0004FF0805343EA111143EA10130CF0004033
:1010D0008B4238BF5B0042F17D024FF4000C8B4223
:1010E00024BF5B1A40EA0C00B3EB510F24BFA3EB03
:1010F000510340EA5C00B3EB910F24BFA3EB9103D3
:1011000040EA9C00B3EBD10F24BFA3EBD10340EA2C
:10111000DC001B0118BF5FEA1C1CE0D1FD2A3FF672
:1011200050AF8B4240EBC25008BF20F00100704727
:101130000CF0004C4CEA50207F32C2BFD2F1FF03CA
:1011400040EAC250704740F400004FF00003013AFB
:1011500037E792F0000F00F0004C02BF400010F49F
:10116000000F013AF9D040EA0C0093F0000F01F0B3
:10117000004C02BF490011F4000F013BF9D041EAD5
:101180000C0195E70CEAD15392EA0C0F08D1420208
:101190007FF47DAF93EA0C0F7FF470AF084676E7DB
:1011A00093EA0C0F04D14B023FF44CAF08466EE7B4
:1011B00030F0004C18BF31F0004CCAD130F0004282
:1011C0007FF45CAF31F000437FF43CAF5FE700BFDA
:1011D0004FF0FF3C06E000BF4FF0010C02E000BF03
:1011E0004FF0010C4DF804CD4FEA40024FEA4103A5
:1011F0007FEA226C18BF7FEA236C11D001B052EA5B
:10120000530C18BF90EA010F58BFB2EB030088BF20
:10121000C81738BF6FEAE17018BF40F0010070478F
:101220007FEA226C02D15FEA402C05D17FEA236C71
:10123000E4D15FEA412CE1D05DF8040B704700BFB8
:10124000844608466146FFE70FB5FFF7C9FF00284F
:1012500048BF10F1000F0FBD4DF808EDFFF7F4FF88
:101260000CBF012000205DF808FB00BF4DF808ED21
:10127000FFF7EAFF34BF012000205DF808FB00BF44
:101280004DF808EDFFF7E0FF94BF012000205DF866
:1012900008FB00BF4DF808EDFFF7D2FF94BF012017
:1012A00000205DF808FB00BF4DF808EDFFF7C8FF10
:1012B00034BF012000205DF808FB00BF00000000E3
:1012C0004FEA4002B2F1FE4F0FD34FF09E03B3EB53
:1012D00012620DD94FEA002343F0004310F0004F93
:1012E00023FA02F018BF404270474FF000007047E9
:1012F00012F1610F01D1420205D110F0004008BF88
:101300006FF0004070474FF0000070470000000091
:101310007047000000000000000000000000000016
:10132000FEE70000000000000000000000000000D8
:1013300072B62A4B83F3098829484FF04042A0F542
:10134000D67102600C6844F470030B600020E1EE7B
:10135000100A244A0621106081F31488BFF36F8FAE
:101360002149224CA14204D24FF0553441F8044B9C
:10137000F7E71F4B1948834204D24FF0553243F828
:10138000042BF7E702F004FE00201A4A1A498418D9
:101390008C4204D21949445884500430F5E7184B64
:1013A0001848834203D2002243F8042BF8E7FFF7E2
:1013B000AFFF154C154B9C4203D254F8040B8047E9
:1013C000F8E7FEF7E5FE124C124A944203D254F8B5
:1013D000041B8847F8E7FFF7A3FF00BF00A0002029
:1013E00034EF00E03CEF00E000000020002000208F
:1013F0000020002000A0002044A40020288C000829
:1014000048A4002044F80020880100088801000852
:1014100088010008880100080000000000000000AA
:10142000FEE70000000000000000000000000000D7
:1014300072B6FEE70000000000000000000000009F
:1014400000F0D6FA00DF00000000000000000000FD
:10145000EFF30982064BD2F8CC10596098686830D7
:101460009860683282F30988002383F311887047FB
:1014700030EF00E00000000000000000000000006D
:1014800008B50A480A4B00229A601021D86007204C
:1014900000F0AEF80A204FF4007100F0A9F80B201C
:1014A0008021BDE8084000F0A3B800BF0003FA05A2
:1014B00000ED00E00000000000000000000000005F
:1014C000202383F311881A4B586810F400632BD043
:1014D000EFF30983A3F1680282F30988154A4FF0FC
:1014E000807143F84C1C9169126891F8230092684E
:1014F000896820B18A4294BF0022012203E08A4217
:1015000034BF002201222AB10B4943F8501CF1EEEE
:1015100010FA02E0094843F8500C094A506858662E
:1015200040F001035360704783F31188704700BF98
:1015300000ED00E0F4A50020411400084414000868
:1015400030EF00E00000000000000000000000009C
:1015500008B5202383F3118800F0AAF8002383F351
:101560001188BDE80840FFF7ABBF00000000000095
:101570002DE9F04F2DED108AC1F80CD0D0F80CD029
:10158000BDEC108ABDE8F08F0000000000000000F4
:10159000002383F311882846A04700F0D9FA70474A
:1015A00082080F4BC03270B500F0030453F822607C
:1015B000E400FF2505FA04F501FA04F126EA050521
:1015C0000D4343F822500121420900F01F0001FAA7
:1015D00000F002F1600143F8210043F8220070BDE1
:1015E00000E100E00000000000000000000000003A
:1015F0008208094B063200F0030030B5C00053F8F2
:101600002250FF2404FA00F425EA040401FA00F150
:101610000C4343F8224030BD00ED00E00000000024
:10162000024B034A9869826130BFFDE7F4A50020B0
:10163000C07F000800000000000000000000000063
:1016400007B5FFF71DFF00F0ABF800F069F800F0F8
:10165000A7FC00F0F5FC40210C4800F0D9F90C493A
:101660000C4B88610122C36180F82020002383F3A2
:10167000118862B608488969886100934FF4A471A3
:10168000064B074800F00CFA0EBD00BF48A400202E
:10169000F4A5002000200020E07F000821160008AB
:1016A00098A40020000000000000000000000000DE
:1016B00010B5134B986990F8232012B1511E80F891
:1016C0002310436A5A1C42620E48C16802684B1CD0
:1016D0008242C36013D09068411E916009490A6834
:1016E000936863B91068D4684160D360086083F37D
:1016F00011881069A047202383F31188EEE710BDFD
:10170000F4A50020E4A50020000000000000000077
:10171000014B1860FFF78CBEE0A500200000000020
:10172000044B4FF0FF3200205B601B609A60D86072
:10173000704700BFE4A5002000000000000000008A
:1017400003610A4BC2601B689A688A4201D2891AF7
:10175000F9E75A680360426010605860816003488E
:10176000834202D09A68511A99607047E4A500201C
:101770000368074A934203D0996882688918996080
:1017800042681360036800215A60C160704700BF5F
:10179000E4A50020000000000000000000000000A0
:1017A000034B00225B601B609A605B611B617047AA
:1017B000F4A5002000000000000000000000000070
:1017C000002380F820308168054B1B689A688A42A4
:1017D000FBD259680360416008605860704700BFE1
:1017E000F4A5002000000000000000000000000040
:1017F00008B5202383F3118890F82030032B07D0FD
:1018000001D8A3B10DE0052B06D00D2B09D103E0C3
:10181000836A9A68511C996090E80C001A6002680B
:1018200053604FF0FF338362FFF7CAFF002383F357
:10183000118808BD0000000000000000000000004A
:1018400038B50F4B9C6984F8200018681422016891
:1018500084F823200125E26980F820504B609861CC
:10186000ADF16400824219601D4602D90548FFF7B8
:101870004FFFA8692146BDE83840FFF779BE00BF99
:10188000F4A50020D07F0008000000000000000048
:1018900010B54B1C86B004460ED00B4B0B4A9B690F
:1018A00001A8FFF74DFF2046FFF7CAFF049828B1B3
:1018B00001A8FFF75DFF01E0FFF7C2FF02498A6957
:1018C000906A06B010BD00BFF4A50020F117000813
:1018D00070B5114E8162B36981689A68914204467D
:1018E00003D8BDE87040FFF76BBF1846FFF768FFED
:1018F0000546ADF16401EB69B46101208B4284F8C7
:10190000200002D90548FFF703FF20462946BDE81D
:101910007040FFF72DBE00BFF4A50020D07F000867
:1019200038B50F4C2368A5691A680120142154604A
:1019300083F8200085F8231028462260A361FFF772
:101940003FFFEB69ADF16402934202D90548FFF70E
:10195000DFFEA0692946BDE83840FFF709BE00BF99
:10196000F4A50020D07F0008000000000000000067
:10197000134B1A6810B511689C69196001204B60FF
:1019800082F820009A61A168002284F820201B6858
:1019900098688842FBD85A68236062605C60E3699B
:1019A0001460ADF164018B4202D90648FFF7B0FE26
:1019B000034880692146BDE81040FFF7D9BD00BF4C
:1019C000F4A50020D07F0008000000000000000007
:1019D000044B1A68986991688368994201D9FFF7A6
:1019E000C7BF7047F4A50020000000000000000001
:1019F000044B986990F8231009B9FFF791BFFFF7DE
:101A0000B7BF00BFF4A500200000000000000000E8
:101A1000022280F82020002280F821200264C26384
:101A2000426282610C4A81604164012180F8221087
:101A30005169026110B54161506100F12C0214241A
:101A40000861C26200F1300100F14C0280F82340CD
:101A500041630163C26110BDF4A5002000000000D5
:101A6000884202D200F8012BFAE77047000000001C
:101A70006439411810B5C1600B64029B4B64044B80
:101A800004460B661146BDE81040FFF7C1BF00BF1A
:101A90009115000800000000000000000000000098
:101AA00073B51E4600F14C050024FF230355013495
:101AB0004C2CFAD143189D4203D2552405F8014B12
:101AC000F9E7202383F31188069B00933346FFF741
:101AD000CFFF00210446FFF7FBFE002383F31188AC
:101AE00020467CBD00000000000000000000000057
:101AF00008B50146202383F311880620FFF7C8FEAE
:101B0000002383F3118808BD0000000000000000DE
:101B10000D4B10B59C69A062214651F82C0F8842EC
:101B200004D00368E362FFF74BFEF5E794F8210069
:101B3000830704D1636922691A6121694B610E2010
:101B4000BDE81040FFF77CBEF4A5002000000000B7
:101B5000202383F31188FFF7DBBF000000000000A3
:101B600040600060816070470000000000000000DD
:101B700083685A1E002A10B50C46826011DA19B922
:101B800083604FF0FF3010BD074B9B69986242683D
:101B900018605A60436003201360BDE81040FFF7EF
:101BA00077BE002010BD00BFF4A50020000000009B
:101BB00082680346501C0028986007DC186801689A
:101BC00019604B6000238362FFF7FABD7047000085
:101BD0000023406000608360704700000000000048
:101BE00008B5C36B90F820201943082AC16303D1BC
:101BF000826A114206D108BD092A07D1836A1940B9
:101C0000994203D1FFF7DCFD0021816208BD00008D
:101C100070B5046805460E46AC4208D0E3686068BB
:101C2000A1683343E360FFF7DBFF2468F4E770BD8E
:101C300010B5C1608160016001EB82010446416022
:101C4000114600F11C00FFF78BFF04F1100000218A
:101C5000BDE81040FFF784BF000000000000000056
:101C600070B504460E4600F11C001146FFF780FFD8
:101C7000054678B9A368626843F8046B9342A36091
:101C800028BF236804F1100028BFA360FFF790FF6E
:101C9000FFF79EFE284670BD000000000000000017
:101CA00008B5202383F31188FFF7DAFF002383F3BD
:101CB000118808BD000000000000000000000000C6
:101CC00070B504460E4600F110001146FFF750FFB4
:101CD000054680B9E368606853F8042B834232609C
:101CE000E36028BF236804F11C0028BFE360FFF70E
:101CF0005FFFFFF76DFE284670BD0000000000008A
:101D000008B5202383F31188FFF7DAFF002383F35C
:101D1000118808BD00000000000000000000000065
:101D200008B58369002B10DD5A1EC368826153F821
:101D3000042B0A604168C3608B4224BF0368C36000
:101D40001C30FFF735FF002008BD4FF0FF3008BD05
:101D500051B1074B9B699862426818605A604360B2
:101D60000D201360FFF794BD4FF0FF30704700BFA8
:101D7000F4A50020000000000000000000000000AA
:101D800010B5C361029B406000248A180060846023
:101D900041618161C1600261036210BD0000000009
:101DA000C36810B50446436183610020A0602068C9
:101DB000A04208D0016821604C60FFF701FD6FF080
:101DC00001028262F3E710BD000000000000000085
:101DD00070B5202304460E4683F31188C36903B10E
:101DE0009847A5683DB920463146FFF7B1FF002866
:101DF000F7DA2B460BE0A1692269013DA56011F8D5
:101E0000010B9142A16124BFE168A161002383F32A
:101E1000118870BD000000000000000000000000FC
:101E20002DE9F0479A46044688469146C769202323
:101E300083F3118800250FB12046B847A6684EB934
:101E400020465146FFF784FF0028F7D0334683F33E
:101E5000118816E0A069013EA66010F8013B08F861
:101E600005302169A061884224BFE168A161002397
:101E700083F311880135A94503D0202383F311880A
:101E8000D9E72846BDE8F087000000000000000008
:101E9000C361009B41618161C1608918406000603D
:101EA00082600161036270470000000000000000D2
:101EB000C368026910B5044643618361D01AA0600B
:101EC0002068A04208D0016821604C60FFF778FCD0
:101ED0006FF001038362F3E710BD00000000000013
:101EE000F8B504460E461746202383F31188A568EB
:101EF0004DB920463946FFF72BFF0028F7DA2B466D
:101F000083F31188F8BD6369013DA56003F8016B97
:101F100022696361934228BFE368E16928BF636176
:101F200009B120468847002383F311881846F8BD7D
:101F30002DE9F0479A46044689461646D0F81C809B
:101F4000202383F311880027A5684DB92046514608
:101F5000FFF7FEFE0028F7D02B4683F311881BE025
:101F6000013DA56019F8013B656905F8013B206951
:101F70006561854224BFE0686061B8F1000F01D05F
:101F80002046C047002383F311880137013E03D068
:101F9000202383F31188D7E73846BDE8F087000097
:101FA000054A064B064922F007001860054821F053
:101FB00007020260704700BF4BF8002014A6002003
:101FC00000C0012010A6002000000000000000005A
:101FD000074B0849073020F0070209681868091AFA
:101FE000914202D382181A6070470020704700BFE8
:101FF00014A6002010A60020000000000000000031
:1020000008B5202383F31188FFF7E2FF002383F351
:10201000118808BD00000000000000000000000062
:10202000024B034918680A68801A704710A60020FE
:1020300014A60020000000000000000000000000C6
:102040000448054B002103608160C1601030FFF738
:10205000BFBD00BF18A6002001200008000000003E
:1020600008B500F025FF084801F052FA00F038F8F2
:1020700000F096F800F0CCF800F072FA00F078F971
:10208000BDE8084001F08CBF60810008000000003E
:10209000094B81425A6805D982420AD38A4208D242
:1020A000012070478242FBD28A422CBF00200120CF
:1020B00070470020704700BF001000E000000000E3
:1020C00038B5054B5C68051920462946FFF7E0FF47
:1020D0000028F9D138BD00BF001000E0000000006A
:1020E00000F096BF000000000000000000000000AB
:1020F00000210123037041608160C1600161416181
:102100001830FFF765BD000000000000000000006F
:1021100010B52023044683F31188416000F0A8FF26
:1021200002232370002383F3118810BD00000000F8
:1021300038B51D460446202383F31188032303701A
:102140008260C560016100F0D3FF002383F3118832
:1021500038BD00000000000000000000000000008A
:1021600038B51D460446202383F311880323C56038
:10217000084D82600161037000F0BAFFA8696061D8
:102180000220FFF75DFBA9690023886A83F31188A9
:1021900038BD00BFF4A500200000000000000000D2
:1021A00001F0D6B8000000000000000000000000B0
:1021B000012300210370416070470000000000000F
:1021C00010B52023044683F31188416001F0D0F854
:1021D00002232370002383F3118810BD0000000048
:1021E0000323037001F0F4B80000000000000000B9
:1021F00008B5202383F31188FFF7F2FF002383F350
:10220000118808BD00000000000000000000000070
:1022100001F05EB9000000000000000000000000B6
:10222000012300210370416070470000000000009E
:1022300038B5046AD4F8543218680278042A25D1D3
:10224000C389416903F0020083B24D8AF3B9E169A1
:10225000A269881A6169421AAA4217D383F31188C6
:10226000D4F85402B2FBF5F36B430068012104F18A
:102270000C0200F0DDF9202383F31188D4F85432E6
:1022800018680121BDE8384000F0F2B938BD0000FF
:1022900038B5046AD4F8543218680278042A21D177
:1022A000818901F0020398B2E0B9256CE26BA36B5F
:1022B000A91ACD1A16D0034683F31188D4F8540214
:1022C0002B460068012104F1300200F0C1F92023FF
:1022D00083F31188D4F8542210680121BDE83840F6
:1022E00000F0DEB938BD0000000000000000000072
:1022F0000C30FFF795BD000000000000000000005A
:102300000C304FF0FF33FFF78BBD000000000000E2
:102310003030FFF70DBE000000000000000000009C
:1023200030304FF0FF33FFF703BE00000000000025
:102330000C30FFF74DBD0000000000000000000061
:102340000C304FF0FF31FFF743BD000000000000EC
:102350003030FFF7C5BD00000000000000000000A5
:1023600030304FF0FF32FFF7BBBD0000000000002F
:1023700070470000000000000000000000000000A6
:1023800013B503460D4A43F8042B0446436001206D
:10239000207204F1540104F10C0000944FF4807297
:1023A000074BFFF7EDFC009404F1300004F5AA712F
:1023B0004FF48072034BFFF76BFD1CBD00800008DB
:1023C00031220008912200080000000000000000F7
:1023D000202383F311880B68C0F8541202219860FF
:1023E0000172002383F31188704700000000000091
:1023F00070B5856805F10C0604463046FFF7D0FC41
:1024000005F13000FFF754FD281D0121FFF700FC06
:1024100063692046012132465B8A00F009F92046B3
:102420000121BDE8704000F023B900000000000069
:1024300090F8303003F06001202919D190F8312054
:10244000212A0AD0222A4FF000030CD0202A0FD1D3
:10245000084907224162826207E0064B0721436276
:102460008162002301E043628362C36201207047FE
:102470000020704700A000200000000000000000C5
:10248000F8B5856804460E46202383F31188082199
:10249000281DFFF7BDFB2A6CEB6BA96BD01A471AFE
:1024A00008D0002383F311882046314605F130021D
:1024B0003B460EE0321D54F822305A69188A5368A0
:1024C000411E0B400ED183F311882046314605F1A1
:1024D000300200F0BDF8202383F3118820463146F6
:1024E00000F0DEF8002383F31188F8BD000000003F
:1024F000F8B5846805460F46202383F3118804212C
:10250000201DFFF785FB6B69E269A0695E8A63693C
:10251000111ACA1AB24212D3002383F31188B2FBF4
:10252000F6F373432846394604F10C0200F080F8B4
:10253000202383F311882846394600F099F80023B8
:1025400083F31188F8BD00000000000000000000C7
:1025500070470000000000000000000000000000C4
:1025600001F0DEBA000000000000000000000000E2
:10257000002101230370416081608181C181704726
:1025800038B50446202383F3118800254160056196
:1025900045618561C56101F0EBFA022323702B468A
:1025A00083F3118838BD0000000000000000000027
:1025B00070B5064650690D46144618B10021102228
:1025C00004F096FEA06918B10021102204F090FEDC
:1025D0002B1D3046294646F82340BDE8704001F0E7
:1025E0009FBB000000000000000000000000000091
:1025F00030B50C1D50F82450AC6900252560E26010
:102600006360A560BDE8304001F04ABC00000000F6
:1026100030B50C1D50F824506C6900252560E2602F
:102620006360A560BDE8304001F052BC00000000CE
:1026300030B50C1D50F82450AC69012563600023AF
:102640002560E260A360BDE8304001F029BC0000D5
:1026500030B50C1D50F824506C69012563600023CF
:102660002560E260A360BDE8304001F031BC0000AD
:1026700070B5C48944FA01F313F001060D464FF01A
:10268000010307D103FA01F31C43C48101F040FCAC
:10269000304670BD184670BD00000000000000000C
:1026A00070B5848944FA01F313F001060D464FF02A
:1026B000010307D103FA01F31C43848101F030FCCC
:1026C000304670BD184670BD0000000000000000DC
:1026D0000346022202700022028783F83A2080F823
:1026E0003B208281C281026142618261C26183F8C2
:1026F000202001F0A5BA000000000000000000004A
:10270000F8B50446002380F8203000F1300201F0D3
:10271000B7FB6068816831B994F8302012F0600628
:1027200040F0DB8004E0204688470028F4D0E6E053
:1027300094F8315002F07F0343EA0525B5F5407F58
:102740003FD010DC022D00F0888004DC4DB3012D59
:1027500040F0C3807BE0B5F5807F29D0B5F5817F5F
:1027600040F0BB8093E0B5F5C06F4AD009DC40F281
:102770000230854200F09C80B5F5A06F40F0AD803E
:102780002BE0B5F5106F51D040F6024295425ED075
:10279000B5F5006F40F0A18004F13B0363620120B6
:1027A00042E004F1380002216062A162E562A6E025
:1027B00094F83230012B40F09080208F20F00202FC
:1027C00007E094F83200012840F08780218F41F023
:1027D000020222876662A66257E0258EB5F5A06FD9
:1027E00076D194F83210204684F83A1001F088FA35
:1027F0006268136813B120460121984703202070B6
:1028000066E0626894F8357094F83430556894F84E
:10281000331094F83220204643EA0723A8470028C3
:102820005BD0456800686562A0622EE094F83220B3
:1028300084F83B200AB9032300E004236068237076
:102840000568002D44D020460221A84740E05849A1
:1028500002256162A56200213DE094F8341011F078
:10286000800F204601F00F0102D001F0F9FA01E0DB
:1028700001F0E6FA012805D002282ED14D4AA062C7
:10288000626202E04C4BA5626362E66237E094F854
:10289000322012BB94F8345015F00F0118D02A06DC
:1028A000204602D501F06CFB12E001F061FB0FE065
:1028B00094F8321089B994F8345015F00F0107D00C
:1028C0002B06204602D501F04BFB01E001F040FB56
:1028D00000216162A162E16211E02046002101F065
:1028E0003FFB2046002101F033FB63681A6812B1F8
:1028F000204605219047052084F82000F8BD94F873
:10290000375094F83630A16A94F9302043EA052014
:10291000814288BFA062002AA56A22DA85B101221D
:1029200084F820202B4620460021626AFFF770FEC3
:10293000202383F3118800212046FFF7B1FE21E018
:10294000022184F820102B46204629462A46FFF70C
:102950004FFE202383F3118820462946FFF788FE87
:1029600022E08DB1032084F820002B462046002170
:10297000626AFFF73DFE202383F311880021204681
:10298000FFF776FE002310E0042384F82030204671
:102990002B4629462A46FFF73BFE202383F3118866
:1029A00020462946FFF77CFE2B4683F31188F8BDAD
:1029B00020800008308000084080000800000000EF
:1029C00038B590F82030012B044602D0042B37D1C3
:1029D00031E090F8371090F83620836A42EA0121FE
:1029E0008B4214D205692A8AB3FBF2F102FB11353E
:1029F0006DB92B4629462A46FFF70AFE202383F3AA
:102A0000118820462946FFF74BFE2B4610E0002197
:102A1000022084F820000B4620460A46FFF7E8FD16
:102A2000202383F3118800212046FFF721FE002395
:102A300083F3118838BDC36A03B1984700210DE0C4
:102A4000002101F08DFA2046002101F081FA606832
:102A5000026812B1204605219047052184F8201014
:102A600038BD000000000000000000000000000071
:102A700090F82030022B10B5044614D0032B1BD144
:102A8000042180F8201000210B460A46FFF7C0FD04
:102A9000202383F3118800212046FFF701FE002345
:102AA00083F3118810BD02699369996821B9C26ADC
:102AB00002B1904700210EE02046002101F050FABB
:102AC0002046002101F044FA6068036813B12046F3
:102AD00005219847052184F8201010BD0000000052
:102AE00008B50748074B3D2219689A60036801F052
:102AF0003D010BB140689847BDE80840FEF7E0BCD7
:102B000038A6002000600240000000000000000025
:102B100008B5084B1968880900F03D0106484FF4D4
:102B200074629A6083680BB1C0689847BDE808403A
:102B3000FEF7C6BC0060024038A60020000000007E
:102B400008B5084B1968080C00F03D0106484FF421
:102B500074129A6003690BB140699847BDE8084058
:102B6000FEF7AEBC0060024038A600200000000066
:102B700008B5084B1968880D00F03D0106484FF074
:102B800074629A6083690BB1C0699847BDE80840D8
:102B9000FEF796BC0060024038A60020000000004E
:102BA00008B50748074B3D225968DA60036A01F00F
:102BB0003D010BB1406A9847BDE80840FEF780BC74
:102BC00038A6002000600240000000000000000065
:102BD00008B5084B5968880900F03D0106484FF4D4
:102BE0007462DA60836A0BB1C06A9847BDE8084036
:102BF000FEF766BC0060024038A60020000000001E
:102C000008B5084B5968080C00F03D0106484FF420
:102C10007412DA60036B0BB1406B9847BDE8084053
:102C2000FEF74EBC0060024038A600200000000005
:102C300008B5084B5968880D00F03D0106484FF073
:102C40007462DA60836B0BB1C06B9847BDE80840D3
:102C5000FEF736BC0060024038A6002000000000ED
:102C600008B50748074B3D2219689A60036C01F0CC
:102C70003D010BB1406C9847BDE80840FEF720BC11
:102C800038A60020006402400000000000000000A0
:102C900008B5084B1968880900F03D0106484FF453
:102CA00074629A60836C0BB1C06C9847BDE80840B1
:102CB000FEF706BC0064024038A6002000000000B9
:102CC00008B5084B1968080C00F03D0106484FF4A0
:102CD00074129A60036D0BB1406D9847BDE80840CF
:102CE000FEF7EEBB0064024038A6002000000000A2
:102CF00008B5084B1968880D00F03D0106484FF0F3
:102D000074629A60836D0BB1C06D9847BDE808404E
:102D1000FEF7D6BB0064024038A600200000000089
:102D200008B50748074B3D225968DA60036E01F089
:102D30003D010BB1406E9847BDE80840FEF7C0BBAF
:102D400038A60020006402400000000000000000DF
:102D500008B5084B5968880900F03D0106484FF452
:102D60007462DA60836E0BB1C06E9847BDE80840AC
:102D7000FEF7A6BB0064024038A600200000000059
:102D800008B5084B5968080C00F03D0106484FF49F
:102D90007412DA60036F0BB1406F9847BDE80840CA
:102DA000FEF78EBB0064024038A600200000000041
:102DB00008B5084B5968880D00F03D0106484FF0F2
:102DC0007462DA60836F0BB1C06F9847BDE808404A
:102DD000FEF776BB0064024038A600200000000029
:102DE0000B4B00221A6013460A4958580021016013
:102DF00009480C3311500832C02BF5D1074A4FF067
:102E0000FF339360D360C2F80834C2F80C347047C3
:102E1000B8A600205080000838A6002000600240BC
:102E2000F8B51F4E447A3768012505FA04FC1CEA00
:102E3000070F31D11B4D45F8342005EBC404636006
:102E40004CEA070313F0FF0F336004D0164E376BC4
:102E500047F40015356313F47F4F04D0124B1C6BFD
:102E600044F480061E6303681F6827F001051D6097
:102E70001C6814F00104FBD1067A45683D2707FA67
:102E800006F62E6021251C605D613AB1807A090149
:102E9000FEF786FB2046F8BD2846F8BD1046F8BD73
:102EA000B8A6002038A6002000380240000000002C
:102EB000254B1A6942F00100002218611A61596914
:102EC00041F0010058615A61996941F0010098612F
:102ED0009A61196A19621A62586A40F001015962CE
:102EE0001A481B495A62486007208A600860D1F876
:102EF000EC0D40F08070C1F8EC0D1649086840F008
:102F000001000860196C41F080501349186408688A
:102F100040F480700860196F01F44070B0F5007FD4
:102F200003D04FF4803119671A671B6F064A1B04E0
:102F300007D4106F40F400711167136F43F4004021
:102F40001067FFF74DBF00BF003802403F900200FE
:102F500010E000E0001000E0007000400000000001
:102F6000244B25484FF080524FF480411A64016091
:102F700042685104FCD5186840F0010119601D4BEE
:102F80001A689007FBD5186840F4803119601868FA
:102F9000184A8103FBD5536F43F001015167154A6D
:102FA000506F8007FBD5154B5360116841F080705E
:102FB000106011680F4B8901FBD59868104A40EAF0
:102FC0000201104A996040F205701060996841F062
:102FD00002009860074B9A6802F00C010829F9D1A9
:102FE000586C40F480425A64596E41F480405866EF
:102FF000704700BF0038024000700040085440078E
:1030000000B40838003C024000000000000000004E
:1030100010B50D4C2046FFF76BF80C4B0C490D48D2
:10302000A362E06221630C4C2046FFF761F80B4875
:103030000B4A0C4B206360211220A262E362BDE8C0
:103040001040FEF7ADBA00BFBCA600200020014032
:10305000162C0200E0800008F0A60020162C0202C8
:1030600000210140C88000080000000000000000AE
:103070000378012B10B504462BD1164884420ED19B
:103080000621154AE06A2346FFF7CAFEE06A134AA2
:1030900001688A6012494B6C43F4807310E0114957
:1030A0008C420ED106210C4AE06A2346FFF7B8FE97
:1030B000E26A0D4813680A4998604A6C42F400734A
:1030C0004B64A36A09490020012248605860986057
:1030D0009A6010BDBCA60020913100084C20014030
:1030E00000380240F0A600204C210140002301409E
:1030F0000269016B136830B50BB141F48071C56A88
:10310000C4682B688568806ADD609588012C88BF5B
:1031100041F008016C435C601960196841F00101DD
:103120001960002391690360D369C160116A03616A
:10313000536AC162916A036313695269416343F040
:10314000806141F4807312F0804F42F4407114BFEB
:1031500041F0030141F001014360816030BD000096
:10316000C36A1A68116810B521F00104146011686F
:1031700011F00101FBD15A681B7A806A3D2404FAE0
:1031800003F31360416081600121816010BD000084
:1031900011F00C0F38B504460D461BD0FFF7E0FFC9
:1031A0002069C3684BB10522002122702046984750
:1031B0002178052901D102202070002222612023DC
:1031C00083F31188606900284CD04FF0FF336261AF
:1031D000836245E00369002B47D0CA0605D59B688A
:1031E0001BB1C268816852089847AB063DD521697A
:1031F000086888B18B68002B37D0E268012A07D9AC
:103200008D88A16852085543204601EB450101E035
:10321000A1682046984738BD2046FFF7A1FF2169E5
:103220008B6893B104222270E268012A07D98D8845
:10323000A16852085543204601EB450101E0A16811
:10324000204698472078042801D1022323700022C9
:103250002261202383F31188606918B16261826260
:10326000FEF7AEFA002383F3118838BD000000009A
:10327000304B1A680021900610B5196027D52E4CE6
:10328000E06A03685A6812B3216901B32046FFF768
:1032900067FF2069C3684BB10522012122702046D7
:1032A00098472178052901D102202070224A002167
:1032B0001161202383F31188506928B14FF0FF3347
:1032C00083625161FEF77CFA002383F311881B4867
:1032D000026800210160910627D5194CE36A18683D
:1032E000426812B3216901B32046FFF739FF236911
:1032F000DB684BB1052020700121204698472278D9
:10330000052A01D1022121700D4A002111612023DB
:1033100083F31188506928B14FF0FF338362516104
:10332000FEF74EFA002383F31188BDE81040FEF744
:10333000C7B800BF00200140BCA60020002101400A
:10334000F0A60020000000000000000000000000C7
:103350000248034BC360FEF72BBF00BF24A7002029
:103360000004014000000000000000000000000018
:103370000378012B10B5044613D11148844210D1B3
:1033800010494A6C42F002034B64486A002340F043
:1033900002024A622C204B627021FEF701F90A49B1
:1033A000A1606068A2680368B2FBF3F1481EE3689D
:1033B00081B2002208201A80988019859A8110BD58
:1033C00024A700200038024000BD010500000000D5
:1033D000C3680139D9620122002005219A8258620E
:1033E00018829A81198070470000000000000000D8
:1033F000C36800221A801A829A8170470000000078
:1034000010B50A4C2078E368002204281A8204D1FF
:10341000022120462170FFF7EBFF636803485A68DA
:103420009047BDE81040FEF74BB800BF24A700202E
:10343000064808B54168064B4FF6FE721A828A6844
:103440009047BDE80840FEF73BB800BF34A7002016
:10345000000001400000000000000000000000002B
:10346000164B10B51A8A9C89A4B214404FF6E1702D
:1034700004F0020118828BB21BB111484268116935
:10348000884704F0040083B21BB10D48426891697B
:10349000884704F0080083B21BB109484268116AEA
:1034A000884704F01004A4B21CB1054843689A6A26
:1034B0009047BDE81040FEF703B800BF0000014090
:1034C00034A7002000000000000000000000000001
:1034D00010B5034C2046FEF7A3FE024B236110BD3E
:1034E00034A70020000001400000000000000000A0
:1034F0004B688A684360CB6882600A69C360426136
:103500004B698A6909680362426201607047000082
:103510001E4B1A6B10B504466FEA52206FEA402129
:1035200019631A6D6FEA52206FEA40211965184835
:103530002146FFF7DDFF04F11C011648FFF7D8FF15
:1035400004F138011448FFF7D3FF04F15401134884
:10355000FFF7CEFF04F170011148FFF7C9FF04F136
:103560008C011048FFF7C4FF04F1A8010E48FFF7D3
:10357000BFFF04F1C4010D48FFF7BAFF0C4804F186
:10358000E001BDE81040FFF7B3BF00BF00380240C4
:10359000000002400004024000080240000C02400B
:1035A000001002400014024000180240001C0240BB
:1035B00000200240000000000000000000000000A9
:1035C000026CC36B30B59468002202F148014D01D2
:1035D0005859002809DA4FF08040585103EB421542
:1035E000D5F808198807F9D501E00021595103EBF6
:1035F000421100204FF0FF35C1F81009C1F80859F9
:1036000002F1580149015D58854209DA4FF08040C6
:10361000585003EB4211D1F8080BC106F9D500E070
:10362000585003EB421100200132C1F8100BA242A6
:103630004FF0FF30C1F8080BC7D94FF00111C3F8A4
:103640001C1830BD00000000000000000000000059
:10365000F8B5C66B06EB41134FF0FF32D3F8087B89
:10366000C3F8082B3A0704460D4608D5D6F8143897
:103670001B0704D50A1D50F822305A689047FA07F4
:1036800011D5D6F81408C3070DD5E389281D0121EB
:1036900001FA05F123EA010254F82010E281CB6817
:1036A000204629469847F8BD0000000000000000B1
:1036B000C36B890141F0200018611A699106FCD49E
:1036C0000C20FEF7FDBC0000000000000000000020
:1036D000AD4B2DE9F74F0546C66BAC4A9869826140
:1036E000202383F311882978012904D0AC6C64B9B4
:1036F0007769F80609D4A44AB369916943F01000C8
:10370000B06129650220FEF79BF8002383F311883E
:103710001F462C6CA3689F42E2D8706910F010011C
:1037200000F08980EC6B236A03F4F012B2F5802F6D
:1037300018D0B2F5402FF0D103F00F0104F58050FE
:103740000C1DC3F30A1355F82420DC1C116AA308CE
:103750000222002BE1D0046812B141F8044B013A77
:10376000013BF6E703F00F0909F10400C3F30A185F
:1037700055F820108B691A6804F58050DC68002A1F
:1037800038D04146F1B1032906D9626923699A42CA
:1037900002D3E2686261F5E7D0F800B00022D4F805
:1037A00014E02BFA02F30EF8013B2369C4F814E08D
:1037B0009E4524BFE3686361013903D00832202AA3
:1037C000EDD1DFE7202383F31188A06800EB080226
:1037D000A2602068A04207D0036823605C60FDF708
:1037E000EFFF00218162F4E7FEF7F2F8002383F394
:1037F000118816E05A6802F1030C9A6808F1030177
:10380000C2EB0C028908920839B1D0F800A012B1BD
:1038100044F804AB013A0139F6E7DC6804EB080030
:10382000D86009F1040455F824309969886800EBE0
:1038300008028A6071E74FF00109AA6C09FA07F9DA
:1038400019EA020F00F0B880202383F31188B468CE
:10385000A86C24F0010320EA0902B360AA640B46B5
:1038600083F31188391D55F8214063699A685868B7
:10387000824280F08D80B4F81080EC6B811A04EBEA
:103880004712884528BF8846D2F8180981B2B8EB9C
:10389000810F7FD81A68781C04EB0030002A5BD0B7
:1038A000DC680190424622B390082AD0D4F818E090
:1038B000D4F810A00423CEEB0A0C9CFBF3F1884251
:1038C00038BF01464FEA810BCBEB0202F4460CF104
:1038D000040C29B15CF8040C019B01391860F6E76F
:1038E0000EEB0B015145A16102D3E068A061DAE75C
:1038F0003AB9202383F31188A36803EB0801A16080
:1039000019E00020D4F810B08646A36913F801AB83
:103910005B45A36128BFE3680AFA00F128BFA361F1
:10392000013A4EEA010E02D008302028EDD101986C
:10393000C0F800E0B7E72068A04207D00268226024
:103940005460FDF73DFF00238362F4E7FEF740F883
:10395000002383F311880EE008F10304A208DC6859
:10396000043422B154F8041C013A0160F8E7D96824
:1039700001EB0802DA603C1D55F824205069836889
:1039800003EB080181606DE7F4A5002020810008A9
:10399000012400E00024202383F31188B26842F060
:1039A0000100B0602CB9D6F8343849EA0301C6F8F2
:1039B0003418002383F311880137FFB2A9E600BF52
:1039C000F8B5C56B05EB41134FF0FF32D3F808791A
:1039D000C3F80829FB0704460E460FD5D5F8103862
:1039E000DA070BD58289012303FA01F322EA0303E4
:1039F0000A1D838150F822309A6890473B061BD5F8
:103A00000121D5F8340801FA06F6064214D0202325
:103A100083F31188A36CD5F83428206D334322EA50
:103A20000606A364C5F8346818B1FDF7C9FE002086
:103A30002065002383F31188F8BD0000000000001A
:103A400070B5344EF46B6369A5691D40E904656186
:103A500008D53046FEF73CFE73681B6813B130464C
:103A600000219847AA0448BFD4F808382B0704D58A
:103A700028484168CA6802B19047E80610D520235B
:103A800083F31188A06920F01006A661214E306DE5
:103A900018B1FDF795FE00233365002383F31188E9
:103AA0006903D4F8184817D5E20703D5194800214F
:103AB000FFF786FFA30703D516480121FFF780FF14
:103AC000600703D513480221FFF77AFF210703D5CA
:103AD00010480321FFF774FF2A0317D5E30303D52A
:103AE0000C480021FFF7B4FDA00303D509480121CC
:103AF000FFF7AEFD610303D506480221FFF7A8FDDD
:103B0000220303D503480321FFF7A2FDBDE870405F
:103B1000FDF7D6BC48A70020000000000000000010
:103B200038B50E4C2046FEF723FD0D4904F1A405DF
:103B30004FF0A0400023E063216404F158002946BF
:103B4000FF22E3642365FDF78BFF284604F5E2714D
:103B50005522BDE83840FDF783BF00BF48A70020CD
:103B600010810008000000000000000000000000BC
:103B70000378012B73B50546C46B52D129488542A1
:103B80000ED129494A6B42F080064E634B690022F0
:103B900043F0800048614A614320E021FDF700FDC9
:103BA000EE6C0021A96456B9009505F158004FF458
:103BB000DC7102221D4BFDF75BFF2865E8641C4B9E
:103BC0001C48EE6BE36000224FF450210123C4F83F
:103BD0000008C4F8002EA16333613069C007FCD42B
:103BE0000C20FEF76DFA3269002AFCDA0026A66086
:103BF0002846FFF7E5FC6968C4F81068CB68C4F88C
:103C00001468C4F81C6813B94FF4405001E043F243
:103C100008004FF0FF32A0616261A16841F001032A
:103C2000A3607CBD48A7002000380240D1360008C0
:103C300040140040030020020000000000000000CB
:103C400070B505460021C46BFFF732FD2A6C9668FB
:103C5000002303F1480040014FF00061215003F1BF
:103C600058004001215004EB43110133FF20B342BF
:103C7000C1F80809C1F8080BEBD91268E86B4FF0DE
:103C8000FF364FF001111023C4F81868C4F81C184F
:103C90006A6462620361066916F01006FBD10C20AB
:103CA000FEF70EFAD4F8001821F4FE62C4F80028DA
:103CB000A06940F4402343F01001A1610B48696CF6
:103CC0000B4B0922C4F81028C4F81428286101F10C
:103CD000100241F48010C4F8106BC4F8003BC4F823
:103CE0001069C4F800396A64A06270BD30810008B0
:103CF00040800010000000000000000000000000F4
:103D0000C36B90F83A10D3F8002822F4FE6040EA22
:103D10000112C3F8002870470000000000000000F6
:103D2000F8B50B1D064650F82330C46B1A6802F034
:103D3000030002280D4607D0032807D03B493C4F1B
:103D4000012818BF0F4602E03A4F00E03A4F04EB5B
:103D50004512D9680020C2F8100B05F1580269B16C
:103D6000598A520147EA0100A05005F11002D4F827
:103D70001C18012000FA02F008430DE05001215800
:103D800021F4004222500120D4F81C1805F1100241
:103D900000FA02F221EA0200C4F81C0804EB451202
:103DA00098680021C2F8101928B3988B198A736C8F
:103DB0008A08012888BF424305F13F00D11843EA31
:103DC000024204EB8003716430465A602946FFF7D3
:103DD0006FFC291D56F82120108A05F1480140EAA0
:103DE00085534A011F43A7500123D4F81C0803FA46
:103DF00005F5054317E005F13F0304EB83010F4A86
:103E000030464A602946FFF753FC05F1480043015C
:103E1000E15821F40042E2500123D4F81C0803FACF
:103E200005F520EA0505C4F81C58F8BD008000100F
:103E3000008004100080081000800C1000040002B4
:103E40005831C36B49015A5812F4004004D012F49F
:103E5000001F0CBF0220012070470000000000007E
:103E60004831C36B49015A5812F4004004D012F48F
:103E7000001F0CBF0220012070470000000000005E
:103E8000043150F82130186A0168116043685360AA
:103E9000704700000000000000000000000000006B
:103EA0000B1D10B550F82320C06B538A92695268DD
:103EB000013AD21843F0C04400EB4111B2FBF3F3D6
:103EC00044EAC342C1F8102B10BD000000000000FE
:103ED0000B1D10B550F8234062695368C26B23B9BB
:103EE00002EB41114FF4002308E0208A5C1E2418E5
:103EF000B4FBF0F043EAC04302EB4111C1F81039C2
:103F000010BD0000000000000000000000000000E4
:103F10005831C36B49015A5842F08060585070477D
:103F200001F14802C36B5201985840F00440985088
:103F30000120D3F8342800FA01F11143C3F83418F2
:103F400070470000000000000000000000000000BA
:103F50005831C36B49015A5842F400105850704709
:103F60004831C36B49015A5842F400105850704709
:103F70005831C36B49015A5822F400105850704709
:103F80004831C36B49015A5822F400105850704709
:103F9000FEF7E6BF00000000000000000000000087
:103FA000704700000000000000000000000000005A
:103FB000F0B5002B08BF0B4600F10B0C00F10A070F
:103FC000B1FBF2F602FB161101F13005392DC8BF25
:103FD00001F13705B3FBF2F33C463D703146013F3A
:103FE000002BEDD1C4EB0C02E15CC15401339342D0
:103FF000FAD1C018F0BD0000000000000000000071
:104000000EB42DE9F04F2DED028B88B013AA0746B0
:1040100052F8043B01921E4616F8011B002900F0DD
:104020002881252905D03B6838469A689047334651
:10403000F1E758782D2803D19E1C4FF0010B01E0C9
:104040004FF0000B33782E2B03D101364FF03008A0
:1040500001E04FF02008019A31464FF0000911F8B5
:10406000013BA3F13004E5B2092D0E4603D92A2BFA
:1040700005D1157804320A2000FB0959EFE72E2BF1
:10408000019213D100250E4616F8013BA3F1300032
:10409000C4B2092C314605D92A2B01D0019206E081
:1040A000147804320A2606FB0545ECE700256C2B44
:1040B00001D04C2B03D132780AB101361346642B60
:1040C0003ED016D8552B00F08F8003D8442B37D024
:1040D0004F2B14E0582B19D0632B40F09080019C9B
:1040E000251D2168019508AC4FF0200804F8181D23
:1040F00088E0732B0CD005D8662B31D06F2B7ED186
:10410000082272E0752B6FD0782B78D110226CE0EA
:1041100001995D480C680A1D002C08BF044647F64B
:10412000FF730192002D08BF1D462146084601314C
:104130000278002A68D063195A1A002AF6DA63E076
:10414000019C251D01952168002906DA2D208DF896
:10415000080049420DF1090000E002A80A2249E0E6
:104160000198C21D22F0070303F10804D3E90001FE
:104170000194FCF77DFD08EE100AB5EEC08AF1EE61
:1041800010FA07D52D258DF80850B1EE488A0DF1AB
:10419000090000E002A8FDEEC88A0A22002318EEFA
:1041A000901AFFF705FF82462E210AF8011B18EE30
:1041B000100AFCF7C9FA044618EE900A0D46FCF7FF
:1041C000B1FA02460B4620462946FCF75DF92CA3BE
:1041D000D3E90023FCF70CFBFCF722FD0A22014681
:1041E00042F21073504606E00A220198031D019323
:1041F000016802A80023FFF7DBFE02AC06E008AC72
:1042000004F8183D601C01E04FF02008C4EB000AE0
:10421000CAEB090929EAE975BBF1000F15D16D4216
:104220009DB121782D2909D1B8F1300F06D13B6815
:1042300038469A68904701340AF1FF3A396838469F
:104240008B68414698470135F8D1BAF1010A06D486
:10425000396838468B6814F8011B9847F5E7002D3C
:104260003FF4E5AE38684146826838469047013DE4
:10427000F5E708B0BDEC028BBDE8F04F03B0704726
:1042800000000000006AF84060820008AFF3008080
:1042900038B5094B094A98698261094C4FF40055B9
:1042A00025834FF4FA70FDF723FC65834FF4FA7011
:1042B000FDF71EFCF1E700BFF4A5002070820008A6
:1042C000000C0240000000000000000000000000A0
:1042D00002290CD0032904D00748012918BF002067
:1042E0007047032A05D8054800EBC2007047044810
:1042F00070470020704700BF20850008F084000848
:10430000F083000800000000000000000000000032
:10431000022938B504460D4611D1202383F31188B4
:104320000121074AFEF744F920462946054AFEF7CF
:104330003FF92046FEF75CF8002383F3118838BD6F
:1043400070830008008400080000000000000000E6
:1043500070470000000000000000000000000000A6
:104360002DE970462DED108BCB4C94B0002110221E
:1043700006460CA802F0BCFF94E8030008AB83E8F3
:10438000030004F108000FC8183414AD05E90F004C
:1043900094E803000AAA82E80300C049C04B8C6974
:1043A000C048A36100214FF0000ACDF81CA0FDF722
:1043B000AFFEBD48BD49FDF703FFBB484FF4FA719E
:1043C000FDF716FF6420FDF793FB0020B84901F0CC
:1043D0006FF9042406900022B6480699FDF760FCA8
:1043E000601E10F0FF04F6D1202383F31188AB4D3B
:1043F000B149AA6902200A60FDF722FA234683F335
:104400001188AE4B1888C0F5805507EE105AB8EEEB
:10441000C70AF3EE0EFA60EE2F0ADFEDA9EA20EEEE
:10442000AE1AF1EE047AB4EEE71AF1EE10FACCDC33
:10443000214622469F48CDF818A0FDF731FCA14A3D
:10444000A149C2F800A0C1F800A0012395489F49E6
:104450000DF11602FDF784FE04F010030134A4B23E
:1044600013B10A20FDF744FBBDF8160000F080FDF3
:104470000028EAD11420FDF73BFB954807A900224C
:10448000FDF73EFC0028F5D19FED92BA0446F0EE10
:104490004BAAF0EE4B9AB0EE4B8A202383F311889F
:1044A0007E48854A856902201560FDF7C9F9002319
:1044B00083F31188884B89484FF49D71022202F0E2
:1044C000AFFFDFED842A00238449C8180233B0F817
:1044D0009C5001EE905AB8EEE12AB3F59E7F72EE41
:1044E000822AF1D19FED7E3AC2EE833AB6EE00FA0F
:1044F00013EE900A00F064FD704A11880DEE100A68
:10450000C1F5805009EE100A96ED065A3AEEE96AB6
:10451000B8EEC94A65EE0F5AF0EEC66A64EE2F4A4D
:10452000F4EEE56AF1EE10FA64EEAEBA0EDDF4EEEA
:10453000EA9AF1EE10FAF7EE008ABFEE00AAC8BFC1
:10454000F0EE4A8AF0EE69AA45EEA8AA08A810A9DA
:10455000644A0AABF5EE008A00F002FEB4EEE8DA37
:10456000F1EE10FA1ADDDDED06CADDED08DA2CEE0B
:10457000ACEA9FED5D1A2EEE2D7AF7EE000A27EEDB
:104580002D0A08A840EE010A10A9CDED000A1DEE83
:10459000102A1AEE903A00F063FD0FE0DDED099A63
:1045A000F4EEE9AAF1EE10FA08DD9DED06CAB5EECB
:1045B00040CAF1EE10FA08BFCDED09AA444807A998
:1045C0000022FDF79DFB50B9DDED077A9DED082A2D
:1045D00077EECD1AC1EE822A3AEEA2AA01E09DED55
:1045E00009AA424D374B384A85ED00AA9FED409A03
:1045F0009DED0F4A93ED00CA3BEE8A3A64EE094AFC
:1046000073EE4C3A44EEA83AD6ED03BA1168F4EED4
:10461000EB3AF1EE10FA069104DD73EEEB5A3AEE46
:1046200065AA0AE096ED025AF4EEC53AF1EE10FAE8
:1046300044BF75EE633A3AEE23AAF0EE4C9AF0EEE0
:1046400048CA4FF00009D6ED066A3CEE4B8A66EE8A
:104650008FDAB0EEC86AB4EE6D6AF1EE10FAC8BF38
:10466000B0EE4CBA7AEE4BBA96ED05EAF0EEEBDA24
:10467000F4EECEDAF1EE10FA3ED59DED068A96ED17
:10468000040AB0EEC87AB4EEC07AF1EE10FA33D56F
:10469000CDF818A021E100BFA07F0008F4A50020FC
:1046A00060850008F0A6002024A7002008A00020B4
:1046B000000080C0D8AF002000B00020C0D700208C
:1046C00000008039ECD70020B8D7002030850008E2
:1046D000B0AD002000000000C151000840D3002010
:1046E00000001D430AD7233CCDCCCC3DBCD70020D5
:1046F0000AD7233C0AD7233B069801F001F9054667
:104700001BEE900A01F0FCF8854240F0A2809DED7E
:10471000068AD6ED006A28EE08EA36EEA67A8EEE14
:1047200007EAF4EECEDAF1EE10FA28DD1BEE900A7D
:1047300001F0E6F8D6ED004ADDED065A24EE895A7E
:1047400010B945EE285A01E045EE685ACDED065AFB
:104750009DED066A96ED017AF0EEC66AF4EEC76A40
:10476000F1EE10FA40F3B8801BEE900A01F0C8F8A1
:10477000D6ED01CA002869D0F1EE6CCA66E019F0E6
:10478000FF0F51D017EE100AFBF7DEFF04461EEEB6
:10479000100A0D46FBF7D8FFCDE902011DEE900A85
:1047A000FBF7D2FF02460B46DDE90201FBF76CFE88
:1047B00002460B4620462946FCF71AF8FCF758FA41
:1047C00001F066F9DDED06DA08EE100A1BEE900A3C
:1047D0003DEEECEA01F094F808B9B1EE488AD6ED66
:1047E000000A20EE891A3EEE083A61EE281AB0EE71
:1047F000C30AB4EEE10AF1EE10FA0CDD13EE100A72
:1048000001F07EF896ED002A08B1B1EE422A5FED84
:10481000472A22EE223A7CEE837A14AB03EB89021C
:10482000CDED067A42ED097A1BEE900A9DED068ADF
:1048300001F066F8D6ED00BA10B16BEE893A01E0EE
:104840006BEEC93A23EEA84A78EE04CACDED06CA4B
:1048500042E05CBB19F0FF0F28D0DDED060A96EDB3
:10486000002A30EEEC1A62EE092A31EE604A22EE9E
:10487000A83AF0EEC41AF4EEC31AF1EE10FA0CDD09
:1048800014EE100A01F03CF8D6ED007A08B1F1EE12
:10489000677A5FED683A27EEA34A7CEE84CA14ACCF
:1048A00004EB8900CDED06CA40ED09CA1BEE900A63
:1048B0009DED068A01F024F8D6ED004A10B124EEF1
:1048C000895A01E024EEC95A65EE285A012438EECF
:1048D000656A8DED066A00E000245FFA89F5042D13
:1048E00018D0069906A800F0E3FE14A901EB89038D
:1048F000DDED06DA43F8200C25B96DEE890A40EEAD
:10490000A89A07E0012D05D12DEE89EAB4EE000A40
:104910004EEE009A9DED061A09F1010961EE091AA1
:10492000B9F1050F01EEA8CA02D0F0EE48CA8AE636
:1049300000250CAA074852F8251000220135FDF782
:10494000AFF9042DF5D11DEE101A00220248FDF733
:10495000A7F9A2E5D8AF0020C4D7002000000000CE
:1049600037B5202383F311883A4801A9FDF7D8F918
:104970000346002848D183F31188374B3748DDEDD3
:10498000017A9FED376A93ED007A27EE860AF5EEFD
:10499000006A00EE267AF5EE407AF1EE10FA83ED29
:1049A000007AC0ED007A4FF0010002D100F048FE1D
:1049B00012E000F045FEDDED010AF5EEC00AF1EE71
:1049C00010FAD4BF0020012000F04AFE9DED011A2C
:1049D000F0EEC11ACDED011A9DED012AB5EE402A87
:1049E000F1EE10FA09D0DFED1F2A82EE823AFCEEDA
:1049F000C33A13EE901A88B201E04FF6FF7000F050
:104A00003FFE202383F31188124A0023147E83F390
:104A10001188A4B9202383F31188134D2B6843B167
:104A20009C621846FCF7CCFE2C60234683F3118869
:104A30000EE083F31188184600F002FE08E0032C14
:104A400006D10A480A490B4A40F23B13FDF770FBB6
:104A50003EBD00BFD8AF0020ECD70020B8D7002063
:104A60000AD7233C00401C4400B00020F0A60020E0
:104A7000A085000840D300200000000000000000D6
:104A8000044B8B4205D004480449054A0123FDF735
:104A90004FBB704740D30020F0A60020708500086F
:104AA000C0D700200000000000000000000000004F
:104AB00013B5802204460E490E48FDF7B9F880224E
:104AC0000D480E49FDF7B4F880220D490D48FDF759
:104AD000AFF8002000F0B4FD00F072FD009442F247
:104AE00038114122084B0948FCF7DAFF1CBD00BF12
:104AF000D8AD0020B0AD0020C4D7002040D10020A8
:104B0000B8D50020D8AF00206143000808B00020CD
:104B100070470000000000000000000000000000DE
:104B20001F4B204A73B59869002182611E48FDF72A
:104B3000EFFA1D481D491E4A40F2DC53FDF7F8FA12
:104B400000251024202383F31188154E194BB169D9
:104B500002201960FCF774FEB0690023826A83F3B7
:104B60001188134E14481549002A18BF3046013CDD
:104B700000F0AEF814F0FF04E4D1114801A9224678
:104B8000FDF7BEF800B9019D294600220D48FDF74A
:104B900087F80D490D4809680022FDF781F8D0E734
:104BA000F4A50020D0850008BCA60020E085000800
:104BB00020EA0020F0E30020FCEF0020F4E30020D6
:104BC000C4D70020D8F50020BCD70020BCE40020CA
:104BD00010B5202383F31188084C206848B1084B96
:104BE000CA1A514251EB02038362FCF7E9FD00202F
:104BF0002060002383F3118810BD00BFF0E3002084
:104C000020EA00200000000000000000000000007A
:104C100013B50024104B1149282000FB043001EB90
:104C2000442180220134FDF703F8052CF2D18022C3
:104C30000B480C49FCF7FCFF80220B480B49FCF7A2
:104C4000F7FF002200924FF4A7614222084B094867
:104C5000FCF726FF1CBD00BFF4E30020F0D70020C6
:104C6000D8F5002000F60020BCE40020F0E1002090
:104C7000214B0008E8E400200000000000000000D4
:104C800030B5072290E8180069B16FF0060159436A
:104C900002FB04151B190A2195FBF1F55A434560E7
:104CA00092FBF1F20CE0E51855430A2195FBF1F572
:104CB00045606FF006056C4302FB034393FBF1F282
:104CC000026030BD00000000000000000000000095
:104CD000F8B53A4B1A7800230E461C461D46384F4D
:104CE000C15ABF5617FB0155364FC15ABF56013244
:104CF00017FB0144D2B2023340F2DC51772A88BF5D
:104D000000228B42EBD12D482F4F027001212F48FA
:104D1000FFF7B6FF3F78FB0707D52D480121FFF7C6
:104D2000AFFF2C480021FFF7ABFF2B480021FFF716
:104D3000A7FF0023294A995848199850D2180833D8
:104D40005168282B01EB04005060F3D10137FFB20A
:104D50001D4B102F1F7030D10024204D55F83420EA
:104D600005EBC40191ED010A07EE102AF8EEC00A26
:104D7000F8EEC77A20EEA01A07EEA71A11EE100A75
:104D800000F086FE164B03EB840201341060D2ED76
:104D9000001ABCEEE12A304612EE101A0022090A6F
:104DA000FCF77EFF2836052CD7D128460021282283
:104DB00002F09EFA044B00201870F8BD3CF8002069
:104DC00090860008108600083DF8002018F80020A2
:104DD00008F8002010F8002020F8002000F800203B
:104DE00028F8002000000000000000000000000083
:104DF00007EE900A9FED060AB8EE677A9FED051A56
:104E0000C7EE000A60EE811A11EE900A00F0B0BD04
:104E10000000E145DB0F49400000000000000000F9
:104E200010B504460846FFF7E3FF07EE904A9FEDF2
:104E3000130AB8EE677A01EE100AC0EE070AB7EE61
:104E4000002A61EE201AF4EE421AF1EE10FACCBFFD
:104E500012EE100A11EE900A00F0CAFDDFED082AEA
:104E600003EE100AC3EE223A9FED064A63EE844A2F
:104E7000BCEEE45A15EE100A80B210BD2A57444C1D
:104E8000DB0F49400000E145000000000000000089
:104E900010B586B0684600210A2202F029FA9DE882
:104EA000070003AB03C300241A80E0B203280FD825
:104EB000DFE800F00206080B4FF08042116C09E0B9
:104EC000234903E0234B996B04E02349C96B01E0BC
:104ED0002248416B224B03EB8402D2ED007ABCEEF8
:104EE000E70A89B210EE100AFFF79AFF2DF81400B6
:104EF0000134052CD9D1BDF80000BDF80230BDF851
:104F000004204FF080410864C1F83C38C1F8382CC7
:104F100001F58061BDF80600BDF80820C86301F501
:104F20009E3322205A63FCF7E3FD002303A83DF8DB
:104F300003101A5A6420891A0029B8BF4942B2FBEB
:104F4000F0F29142ABDC02330A2BEFD106B010BD78
:104F500000080040000C00400004004000400140F8
:104F600028F8002000000000000000000000000001
:104F70000E4B1A78511CCAB21A700D4B5AB100EE82
:104F8000900AD3ED001AB8EEE01A012031EE812A22
:104F900083ED002A704793ED007ADFED067A87EE05
:104FA000270A104683ED000A704700BF3EF8002034
:104FB00040F8002000007F430000000000000000D7
:104FC000064B07EE900A93ED007ADFED050A37EE07
:104FD000C70A20EE201A11EE100A704740F8002090
:104FE00028FA62BC00000000000000000000000081
:104FF000D1ED017A92ED027A91ED006AD2ED006A6C
:1050000027EE870A06EE260A80ED000AD2ED031A83
:10501000D1ED000A92ED011A27EEA12A00EE812AB5
:1050200080ED012AD1ED032A92ED024A91ED023A78
:10503000D2ED003A62EE844A43EE234AC0ED024AC2
:10504000D2ED037A91ED025AD2ED015A22EEA76A0F
:1050500005EE256A80ED036A70470000000000003D
:10506000D0ED005A90ED015A07EE103A91ED031A77
:1050700077EE457AB1EE650A91ED024A91ED016A4B
:10508000D1ED006A60EE011A47EE841A60EE060A5E
:1050900010B547EEA60A20EE212A07EEA02A04EE5C
:1050A000902A88B045EEE74ADDED0A2A32EE223A30
:1050B0000C46C4EE833A04AA40EEA35AC0ED005A4F
:1050C000D1ED035A91ED027A60EE254A47EE874A08
:1050D00004EEA35A80ED015A27EEA75A67EE807AB4
:1050E00020EE000AC5EE036A684687EE836AC0EECA
:1050F000030ACDED046A8DED056A8DED066ACDEDEE
:10510000070AFFF775FF04A869462246FFF770FFFC
:1051100094ED004A94ED012AD4ED023AD4ED034A0D
:105120009DED041ADDED052A9DED067A9DED075AE9
:1051300074EE411A32EE623A73EEC75A74EEC56AE3
:10514000C4ED001A84ED013AC4ED025AC4ED036ABD
:1051500008B010BD000000000000000000000000CA
:10516000D0ED006AD3ED007A26EEA70A07EE102AEA
:1051700091ED001A60EE000AF5EE001A00EE871AB3
:10518000D1ED032AB4EE611AF1EE10FAC8BFB0EE09
:10519000611A81ED001A93ED012A47EE022A9FED74
:1051A000063AF4EE432AF1EE10FAC8BFF0EE432AB5
:1051B000C1ED032A704700BFE9A2A342000000002E
:1051C00003880A88934203D394BF002001207047CC
:1051D0004FF0FF30704700000000000000000000AA
:1051E000034620B1026812F8010B1A6070474FF0B5
:1051F000FF307047000000000000000000000000C9
:1052000010B504462046FFF7EBFF431C05D02028CD
:10521000F8D00928F6D00A28F4D014B154F8043C88
:10522000187010BD00000000000000000000000029
:10523000174B1A6813185A7802F00303022B08BFA1
:1052400020380A29C3B217D0102909D008291BD148
:10525000303BD8B2072894BF18464FF0FF30704754
:10526000A3F13000C1B2092910D9A3F14102052AE6
:105270000AD8A3F137007047303BD8B2092894BF51
:1052800018464FF0FF3070474FF0FF30704700BFB7
:1052900014A000200000000000000000000000003A
:1052A0002DE9F04105460E469046FFF7A9FF441C44
:1052B0003DD02D2801D02B2804D12D38474247411D
:1052C00000241BE0C0B23146FFF7B2FF00270446BE
:1052D00014E012180A2E53781FD103F00401CAB249
:1052E000F2B1B8F1000F1BD015B155F8043C18709D
:1052F000C0B23146FFF79CFF744324182846FFF7DD
:105300006FFF0D4B1A6811184B7803F00301022947
:1053100008BF2038411CDCD106E013F0440FE0D177
:1053200015B155F8041C087017B1644200E0002460
:105330002046BDE8F08100BF14A00020000000005E
:105340002DE9F04F814689B00F4692464FF0000894
:105350003B78002B00F01081252B07F1010140F074
:1053600001817B78002B00F00781874C2268D718D9
:1053700097F801B00BF00400C3B2002B0CBF4FF044
:10538000500B4FF0000B0B78D4180F46607800F0EC
:105390000404E4B2013124B1303B0A2707FB0B3B84
:1053A000F1E76F2B00F0CE8006D8632B20D0642B62
:1053B00025D0442BCCD125E0752B20D0782B00F0C4
:1053C000C480732BC4D1DAF800400AF10405A34469
:1053D0004846FFF705FF421C05D10021217008F166
:1053E0000108AA46B4E75C45F7D004F8010BEFE7E3
:1053F0004846FFF7F5FEDAF800201070ADE04846A9
:105400000A21A4E04846FFF7FBFE431C00F0918010
:105410002D2801D02B2808D1B0F12D06754255EB6F
:105420000602002306921E4608E00A21C0B2FFF7DA
:10543000FFFEFBF777F9069403460E469FED507B7F
:105440008DED047B4FF0000ECDF80CE0CDF808E0B8
:1054500048460193CDF800E0FFF7C2FE451C019BD2
:10546000DDF800C056D048490C6825186A7802F06B
:105470000401CCB214B1BBF1000F08D12E2840D0EA
:10548000B9F1000F46D059F8042C107042E0029D8B
:105490003038079031461846DDB100223B4BCDF83D
:1054A00000C0FBF7CFFA05460C460798FBF73AF920
:1054B0002A462346FBF79CF90B460246DDE9040128
:1054C000FAF7E4FFDDF800C0039ECDE9040163466E
:1054D00019E000222D4BCDF800C0FBF789F90646F4
:1054E00007980C46FBF71EF90B460246214630464C
:1054F000FAF7CCFFDDF800C0039E05460C46634674
:1055000003E0234C0025012002909E4603962B4683
:1055100026469DE7029939B1039BDDE90401624605
:10552000FAF7B4FF03460E46069D25B106F1004684
:1055300001E023462646DAF800001C463546C0E95D
:1055400000450AE04846082101E0484610215A4635
:10555000FFF7A6FEDAF80030186008F101080AF13A
:10556000040AF5E6D9F8002012F8010B83420F4631
:10557000C9F800203FF4ECAE404609B0BDE8F08F1A
:10558000000000000000000014A0002000002440E3
:105590000000F03FAFF300800000000000000000BA
:1055A0000EB40FB505AA019052F8041B01A803928E
:1055B000FFF7C6FE04B05DF804EB03B070470000CF
:1055C0001C4B5A6C42F001005864596A41F00102C8
:1055D0005A62586A20F001015962174B1749DA687C
:1055E00042F00100D8600B889AB242F08000532349
:1055F00041F2873208800B85CA62088B83B243F47C
:10560000605241F286300A8388630B8C9AB242F072
:1056100010000884B1F844306FEA43426FEA524008
:1056200083B2A1F844300A8890B240F001030B80A5
:10563000704700BF00380240002004E00000014035
:10564000044B002814BF4FF080604FF480609861D5
:10565000704700BF00100240000000000000000082
:10566000044B002814BF4FF000504FF400509861D5
:10567000704700BF00100240000000000000000062
:10568000094B1A8822F080010A04110C19805A6A09
:10569000511C421ED9629A6319888AB242F0800175
:1056A0001980D862704700BF000001400000000070
:1056B00010B5DFED137A06EE901A9FED127A26EE02
:1056C000A70A2DED028B60EE070AB5EE008A20EEE8
:1056D000881A044611EE100A00F01AF901EE900A39
:1056E00031EEA12A72EE082A1CB122EE083A84EDAE
:1056F000003A22EE888A18EE100ABDEC028B10BD2B
:105700000AD7233B000048450000000000000000CD
:10571000624B1A6C42F00F0070B51864596C41F47A
:1057200080345C641D6A45F00F061E625A6A42F4BA
:1057300080305862196A21F00F041C625D6A4FF0D4
:10574000804025F480365E6283889AB242F0600120
:1057500041F61F448180C4620589AEB246F08003E1
:105760000381828B91B241F0680441F60345848342
:10577000C563868BB3B243F4F04282832425484A42
:10578000056491888CB244F0500641F6BB33968094
:10579000D36211898CB244F095061681138B99B2AD
:1057A00041F4D04441F6983614839663938B99B2B2
:1057B00041F078043B4B9483D5639E88B1B241F0AD
:1057C000400441F643469C80DE6219898CB244F065
:1057D000A5061E81198B8CB244F0680641F63E4145
:1057E0001E8359631C8BA6B246F4F04119832E49DF
:1057F0009D638C88A6B246F0500441F68C368C80AE
:10580000CE620C89A6B246F0A5040C810E8BB4B210
:1058100044F4D04641F676340E838C638E8BB4B25A
:1058200044F07806214C8E83CD63A688B6B246F04C
:105830004006A68041F69A46E6622689B6B246F050
:1058400015062681268BB6B246F078062683656358
:105850000025456255624FF498755D6241F2D2159C
:105860004D6241F2E54565620588ADB245F001053E
:105870000580088880B240F001000880118888B255
:1058800040F0010111801A8890B240F001011980A6
:1058900023889AB242F00100208070BD0038024097
:1058A00000080040000C004000040040004001409F
:1058B0004FF080431A8C90B240F480511984B3F8B1
:1058C000202490B240F48071A3F82014B3F820286B
:1058D00090B240F48071A3F82018B3F8202C90B255
:1058E00040F01001A3F8201C03F5A0331A8C90B2ED
:1058F00040F0010119847047000000000000000022
:1059000000F00040704700BF0000000000000000F1
:1059100008B5C0F3C7537F3B162B0146024612DC85
:10592000002B17DB4FF6FF70C0F27F0040FA03F048
:10593000084206D04FF4800141FA03F1891821EAA8
:105940000001084608BD802BFBD1FBF7E7F90146B3
:10595000084608BD013300F00041F2D141F07E510C
:10596000EFE700BF000000000000000000000000A2
:1059700000B540F6D87320F00042C3F649739A424E
:1059800083B0014616DDB2F1FF4F03DBFBF7C4F92C
:1059900003B000BD694600F05BFA00F00300012887
:1059A00015D002280BD0B8B900980199012201F056
:1059B00017FBEDE70021002201F012FBE8E7009859
:1059C0000199012201F00CFB00F10040E0E7009892
:1059D000019900F05DFCDBE70098019900F058FCAC
:1059E00000F10040D4E700BF00000000000000000C
:1059F00070B5244C8AB0064600F09AF894F900304D
:105A00000133054603D0304601F0D2FB10B92846D9
:105A10000AB070BD304601F073FB4FF07E51FBF7CA
:105A200043FC0028F3D0184A01210025304601929A
:105A300000910895FAF788FE02460B461348CDE917
:105A40000423CDE9022301F053FB94F90030022B2B
:105A5000CDE906010BD0684601F042FB38B1089849
:105A600050B9DDE90601FBF703F90546CFE701F080
:105A700037FC21210160F2E701F032FC089A026054
:105A8000EFE700BF10A0002010870008188700086B
:105A900070B5244C8AB0054600F08AFB94F90030BA
:105AA0000133064608D0284601F082FB20B1284683
:105AB0000021FBF7DBFB10B930460AB070BD1A4A73
:105AC000012128460026009101920896FAF73CFE33
:105AD0002478CDE90401CDE902017CB9002200233C
