:020000040800F2
:100000000020001031D1000821D2000821D20008C0
:1000100021D2000821D2000821D2000821D20008F4
:1000200021D2000821D2000821D2000851D20008B4
:1000300021D2000821D2000821D2000851D30008A3
:1000400021D2000821D2000821D2000821D20008C4
:1000500021D2000821D2000821D2000821D20008B4
:1000600021D2000821D2000821D2000851E900085D
:1000700081E90008B1E90008E1E9000811EA000897
:1000800041EA000871EA0008E1F0000821D2000806
:1000900021D2000821D2000821D2000821D2000874
:1000A00021D20008A1F2000821D20008D1F20008F4
:1000B00021D2000821D2000821D2000821D2000854
:1000C00021D2000821D2000821D2000821D2000844
:1000D00021D2000821D2000821D2000821D2000834
:1000E00021D2000821D2000821D2000821D2000824
:1000F00071F2000821D2000821D20008A1EA00080C
:1001000021D2000821D2000821D2000821D2000803
:1001100021D2000821D2000821D2000821D20008F3
:10012000D1EA000801EB000831EB000861EB0008A0
:1001300091EB000821D2000821D2000821D200084A
:1001400021D2000821D2000821D20008B1F800080D
:10015000C1EB0008F1EB000821EC000821D20008F7
:1001600021D2000821D2000821D2000821D20008A3
:1001700021D2000821D2000821D2000821D2000893
:0801800021D2000821D2000881
:100190002DE9F04FB84BB94C00222DED028B5A607F
:1001A0002368DB6B9A6BADF5435D22F400229A6302
:1001B00083B00DF08DFE11F0A3F80DF041F9B048B9
:1001C0000EF016F82146AE480EF03AF84FF47A7069
:1001D0000DF08EFB2068AB490EF00AF92368A84C9D
:1001E000DB6B9A6B42F400229A6302E014200DF05C
:1001F0007FFBD4F854321B681B78042BF6D1002700
:10020000A14E00974FF4DC714022A04BA0480DF0A6
:1002100047FB0FCE0FAC0FC496E80F000DF5F47935
:1002200084E80F009B498A2217A802F061FE394634
:1002300042F6E062484602F01BFF9749974A904811
:100240000FF016FE0DF024FE954902468C480FF083
:100250000FFE8B4893490FF00BFE894892490FF02F
:1002600007FE874817A90FF003FE39463AA8FF2278
:1002700002F0FEFE12ADB3EE0E7AF7EE007A4FF00A
:10028000FF334FF0010AB84605ED0A7A45ED097AC9
:100290007B4F45F82C3C5446F0EE478AB0EE678A17
:1002A000A5F12C063B687648D3F81CC03AAA02EBAD
:1002B000080B64235946C8F1FF02E047C3B23BB1C3
:1002C0006F487A4903935A460FF0D2FD039B0024EE
:1002D00098445FFA88F81CB10134E4B2632C09D861
:1002E0003AAA02EB080313F8013C0D2B04D00A2BA9
:1002F000D8D101E0642C3ED0A5F1240300936C49D1
:10030000A5F1280332463AA803F01AFA326869497F
:1003100080465B480FF0ACFD55F8280C01F0FCFF5F
:1003200002460B46564864490FF0A2FD55F8240CCE
:1003300001F0F2FF5FFA88F802460B4650485F4929
:100340000FF096FDB8F1030F09D133680133062B86
:1003500005D8079B022BDDED087A15D10FE0484840
:1003600057490FF085FD4FF0000A454817A90FF0D7
:100370007FFDD04696E7BAF1000F93D0E9E7B2EEE1
:100380000E7AF4EEC77A01E0F4EEE87AF1EE10FAB4
:100390000EDD3B484B490FF06BFD079BF2EE0E7AEA
:1003A000022BB3EE0E7A18BFF0EE477ACDED087A45
:1003B000DFED457A9DED087A27EE277AF2EE047A92
:1003C000C7EE277A42F6E063FCEEE77A17EE904A32
:1003D000A4B2B3EB840F05D229483C490FF048FD85
:1003E00040F6B83403274FF0060E660096FBF7F68A
:1003F0000799DDED097AB4FBFEFE6508B4FBF7F75B
:100400004B4600229FED327A4FF07C5C6EE0032970
:1004100002DDC3ED007A17E00CD1A01A704502DAB4
:10042000C3ED007A60E0A84202DAC3F800C05BE0E6
:10043000B04203E0022907D1A01AB842B4BFF0EEDF
:10044000676AF0EE476A4DE0B1F1FF3F0CD105EE6F
:10045000100AF8EE455A05EE104AA84277EEA76A50
:10046000B8EE456A03D337E00129F0D03CE066EEF0
:10047000A56AC6EE866A35E000380140902301087F
:10048000F00A0020B022010850150108610101089E
:10049000380900205D210108C81F0108F01F01086C
:1004A000FC1F01081A20010854200108AA20010895
:1004B000AD200108B6200108C1200108C7200108AD
:1004C000CF200108ED20010800007A44172101081F
:1004D000CDCC4C3ECDCC4C3D85EE866A38EE466A9E
:1004E00066EE866AC3ED006A0132043390B2A04220
:1004F0008DD30FA810F0ACFA10F05AFBFF2010F0CB
:10050000CFFF5FED0D7A12AD45ED097A5FED0F8AF1
:10051000B0EE678AA5F13408A44855F8241C0022DF
:100520000DF0F6FA0028F7D0A14841464FF0FF320F
:100530000DF01EFBD8ED007A37EEC87AB0EEC77A20
:10054000B4EEE87AF1EE10FAE6DCF5EE407AF1EE80
:1005500010FAE1D010F054FC96489749974E0FF0EE
:1005600087FC4FF0804393ED107ADB6A013306EE8F
:10057000103AB8EE477AF8EE467A0025C7EE276AB9
:10058000282716EE900A01F0C7FE02460B4689485E
:100590008B490FF06DFC8B4B93ED0F7ADB6A0133C7
:1005A00005EE103AB8EE477AF8EE457A87EE276AFC
:1005B00016EE100A01F0B0FE02460B467D48824955
:1005C0000FF056FC814B93ED0E7ADB6A013306EE99
:1005D000903AB8EE477AF8EE667A87EE275A15EE2B
:1005E000100A01F099FE02460B46724876490FF058
:1005F0003FFC774B93ED0F7ADB6A013306EE103A3E
:10060000B8EE477AF8EE467AC7EE276A16EE900AF9
:1006100001F082FE02460B4666486B490FF028FC4B
:100620006C4B93ED0D7ADB6A013305EE103AB8EEB0
:10063000477AF8EE457A87EE276A16EE100A01F03F
:100640006BFE02460B465B485F490FF011FC6249A6
:1006500058480FF00DFC56480DF01AFA5F480DF09F
:1006600017FA07FB056001350DF012FA052DF8D1D8
:1006700000259FED5B8A2E462F460DF1180A0DF1DD
:10068000280B4A4859F8261000220DF041FA38B9D3
:1006900001360120A64208BF00260DF029F9F0E737
:1006A00041464FF0FF3242480DF062FA4B48514646
:1006B0004FF0FF320DF05CFA0023404A03932820EC
:1006C00000FB03200BEB83014FF0FF320DF050FADB
:1006D000039B0133052BF0D105EE107AF8EE457A35
:1006E00087EE886A16EE100A01F016FE02460B46E7
:1006F00030483C490FF0BCFBD8F8000001F00CFE7C
:1007000002460B462B4837490FF0B2FBDAF80000DF
:1007100001F002FE0B460246294926480FF0A8FBCD
:1007200000235BF8032023482F4903930FF0A0FB1D
:10073000039B0433142BF4D11E4827490FF098FB78
:1007400002200DF0D5F8079B0137052B10D1C823E7
:10075000B7FBF3F203FB127353B90135EDB2042D6D
:1007600088BF0025012000FA05F0C0B210F098FE05
:10077000104803680122D3F81CC03AA90023E047BF
:1007800010F0FF0F3FF47DAF9DF8E830232B7FF48E
:1007900078AFBFF34F8F154A154BD16801F4E06174
:1007A0000B43D360BFF34F8FFEE700BF780D0020EF
:1007B00098550020F00A002041210108B443002090
:1007C000C320010800080040C1200108000C0040BF
:1007D0000004004000400140EA2001087C44002061
:1007E0005655E942532101085821010800ED00E067
:1007F0000400FA05000000000000000000000000F6
:1008000000F00040704700BF01F00040704700BF9B
:1008100008B5C0F3C7537F3B0146162B024612DCD6
:10082000002B17DB4FF6FF70C0F27F0040FA03F099
:10083000084206D04FF4800141FA03F1891821EAF9
:100840000001084608BD802BFBD102F04FF801469D
:10085000084608BD00F00041013308BF41F07E5159
:10086000084608BD00000000000000000000000075
:1008700040F6D87320F00042C3F6497301469A420D
:1008800000B583B016DDB2F1FF4F03DB02F02CF8A8
:1008900003B000BD694600F05BFC00F003000128D6
:1008A00015D002280BD0B8B900980122019901F0A7
:1008B0005FFAEDE70021002201F05AFAE8E700981C
:1008C0000122019901F054FA00F10040E0E700989C
:1008D000019900F03DFEDBE70098019900F038FE39
:1008E00000F10040D4E700BF00000000000000005D
:1008F00070B58AB0064600F013F940F20004C2F267
:10090000000494F900300133054603D0304601F06D
:100910000FFB10B928460AB070BD304601F0B8FA96
:100920004FF07E5102F0A8FA0028F3D042F2305383
:100930003046C0F60103019301230093002308937E
:1009400001F0EAFC024642F2C050C0F601000B463C
:10095000CDE90423CDE9022301F092FA94F90030A5
:10096000022BCDE906010BD0684601F081FA38B1BF
:10097000089B53B9DDE9060101F062FF0546C9E7AE
:1009800002F0AEFA21230360F2E702F0A9FA089B15
:100990000360EFE70000000000000000000000001E
:1009A00070B58AB0054600F04BFA40F20004C2F27E
:1009B000000494F900300133064608D0284601F0BF
:1009C000B7FA20B12846002102F056FA10B130469D
:1009D0000AB070BD42F240532846C0F601030193AD
:1009E0000023089301F098FC2478CDE90401CDE9B7
:1009F00002016CBB4FF6FF734FF06042CCF2EF7315
:100A0000CDE906232846002102F00EFA78B1022330
:100A100000939C4228D0684601F02AFA20B3089B34
:100A20003BBBDDE9060101F00BFF0646CFE70123E2
:100A3000022C009313D0684601F01AFA78B142F202
:100A4000C050C0F6010001F01BFACDE90601E6E74F
:100A500000230022CFF6F073CDE90623D2E702F09F
:100A60003FFA21230360EAE702F03AFA2223036007
:100A7000D5E702F035FA089B0360D2E700000000DA
:100A800070B58AB0054600F00BFD40F20004C2F2DA
:100A9000000494F900300133064608D0284601F0DE
:100AA00047FA20B12846002102F0C8F910B93046B3
:100AB0000AB070BD42F250532846C0F601030193BC
:100AC000012300930023089301F026FC2478CDE94C
:100AD0000401CDE902017CB900220023CDE90623FF
:100AE000684601F0C5F988B1089BA3B9DDE90601A4
:100AF00001F0A6FE0646DAE70020002102460B467A
:100B000001F088FD022CCDE90601E9D102F0E8F9F7
:100B100021230360E8E702F0E3F9089B0360E5E7BF
:100B20002DE9F04720F00045B5F17E5F044606460A
:100B300000F0FD8000F3D580B5F17C5F10DAB5F1EF
:100B4000485F80F20A814FF2CA21C7F2491101F0D1
:100B5000CDFE4FF07E5102F08FF9002840F0C880A2
:100B6000204601F095F901464FF07E5001F0BCFEA1
:100B70004FF07C5101F0C4FF4EF60871C3F611012D
:100B8000044601F0BDFF47F60471C3F64F2101F0A2
:100B9000ADFE214601F0B4FF41F24611C3F62451E7
:100BA00001F0A2FE214601F0ABFF40F6A821C3F6FA
:100BB0004E6101F09BFE214601F0A2FF4BF2900135
:100BC000C3F6A66101F090FE214601F099FF4AF6B6
:100BD000AB21C3F62A6101F089FE214601F090FFA6
:100BE0004CF22E61C3F69D518146204601F088FFEC
:100BF00043F26131C3F6307101F076FE214601F017
:100C00007FFF45F22D71C4F2010101F06FFE214614
:100C100001F076FF4DF23911C4F2190101F064FEC2
:100C2000214601F06DFF4FF07E5101F05FFE8046DE
:100C3000204600F035FC49F69913C3F679739D42BE
:100C4000074658DC014620F47F6501F04FFE41461F
:100C500025F00F058246484602F006F80146504648
:100C600001F04EFF29468046284601F049FF014623
:100C7000204601F039FE29460446384601F036FE8A
:100C80000146204601F0F0FF014601F02FFE01462B
:100C90004BF62E50CBF23B3001F026FE014640468B
:100CA00001F022FE29460446284601F01FFE0146B7
:100CB00040F6DB70C3F6497001F016FE014620468F
:100CC00001F012FE014640F6DB70C3F6497001F0F8
:100CD0000BFE002ED4BF00F1004404462046BDE8C0
:100CE000F087014601F000FE014601F0BDFF044619
:100CF0002046BDE8F0874146484601F0B5FF014671
:100D0000384601F0FDFE394601F0F0FD014601F0E4
:100D1000EDFD4BF62E51C3F23B3101F0E7FD0146EC
:100D200040F6DB70C3F6C97001F0DEFDD1E740F696
:100D3000DB71C3F6C97101F0E3FE4BF62E51CBF225
:100D40003B310546204601F0DBFE0146284601F016
:100D5000CDFD04462046BDE8F087014601F0D0FEF7
:100D60004EF60871C3F61101054601F0C9FE47F6BB
:100D70000471C3F64F2101F0B9FD294601F0C0FE10
:100D800041F24611C3F6245101F0AEFD294601F0AF
:100D9000B7FE40F6A821C3F64E6101F0A7FD294633
:100DA00001F0AEFE4BF29001C3F6A66101F09CFD8E
:100DB000294601F0A5FE4AF6AB21C3F62A6101F0EF
:100DC00095FD294601F09CFE4CF22E61C3F69D5123
:100DD0000646284601F094FE43F26131C3F63071B5
:100DE00001F082FD294601F08BFE45F22D71C4F21F
:100DF000010101F07BFD294601F082FE4DF239111F
:100E0000C4F2190101F070FD294601F079FE4FF09E
:100E10007E5101F06BFD0146304601F025FF014691
:100E2000204601F06DFE0146204601F05FFD0446BC
:100E30002046BDE8F08700BF000000000000000071
:100E400020F0004201462DE9F84F002A00F0B28060
:100E500000280246C0F2D480B0F1FF4F80F2CC806F
:100E60000027B0F5000F06DA4FF098416FF0180731
:100E700001F046FE024622F07F444FF6203024F473
:100E80000004C0F24A002018D21500F400037F3A93
:100E900083F07E50D71920434FF07E5107EBD35794
:100EA00001F022FD04F10F0323F400030F2B05468C
:100EB00040F387804FF0804145F6304801F016FD41
:100EC000CFF6CF78A044C4F5571404F5227444EA51
:100ED00008080146284601F0C7FE8146384601F061
:100EE000B9FD49468346484601F00AFE014682465E
:100EF00001F006FE48F69701C3F61761064601F0B9
:100F0000FFFD43F22531C3F63A6101F0EFFC3146B3
:100F100001F0F6FD44F62511C3F6926101F0E6FCFE
:100F2000314601F0EDFD4AF6AB21C3F62A7101F01E
:100F3000DDFC514601F0E4FD4DF24F01C3F61C61AA
:100F40008246304601F0DCFD48F62961C3F6636154
:100F500001F0CCFC314601F0D3FD4CF6CD41C3F697
:100F6000CC6101F0C3FC314601F0CAFD0146504698
:100F700001F0BCFCB8F1000F064640F3B0804FF022
:100F80007C51284601F0BCFD294601F0B9FD04461C
:100F9000002F5AD1314601F0A9FC494601F0B0FDBD
:100FA0000146204601F0A0FC0146284601F09CFCC9
:100FB000BDE8F88F00214FF04C4001F055FEBDE830
:100FC000F88F002101F030FF08B3002F00F084807B
:100FD000384601F03FFD4FF4E341C3F63171054659
:100FE00001F08EFD4FF2D171C3F21771044628460D
:100FF00001F086FD0146204601F078FCBDE8F88F3F
:1010000001F072FC002101F02FFEBDE8F88F2946A7
:10101000284601F075FD4AF6AB21C3F6AA610446E5
:10102000284601F06DFD01464FF07C5001F05CFC5C
:101030000146204601F064FD0446002F2DD12846CC
:10104000214601F051FCBDE8F88F4FF4E3415846CA
:10105000C3F6317101F054FD31460746204601F0D8
:1010600045FC494601F04CFD4FF2D171C3F21771B6
:101070000646584601F044FD0146304601F036FC74
:101080000146204601F030FC294601F02DFC0146C6
:10109000384601F029FCBDE8F88F384601F0DAFC4B
:1010A0004FF4E341C3F63171074601F029FD4FF2D9
:1010B000D171C3F217710646384601F021FD014691
:1010C000204601F011FC294601F00EFC0146304695
:1010D00001F00AFCBDE8F88F0020BDE8F88F1FB3CF
:1010E0004FF4E3415846C3F6317101F009FD314632
:1010F0000446284601F0F8FB494601F001FD4FF295
:10110000D171C3F217710646584601F0F9FC014649
:10111000304601F0E9FB294601F0E6FB0146204696
:1011200001F0E2FBBDE8F88F3146284601F0DCFB18
:10113000494601F0E5FC0146284601F0D5FBBDE833
:10114000F88F00BF00000000000000000000000059
:1011500040F6D8732DE9F04FC3F6497320F00044F0
:1011600089B09C4206460D4640F388804CF6E33336
:10117000C4F216039C4225DC00284FF47861C3F6C4
:10118000C97140F34D8101F0AFFB4FF47D6324F052
:101190000F04C3F6C9739C4206467ED044F2434115
:1011A0000127C3F2357101F09FFB014628603046EC
:1011B00001F09AFB44F24341C3F2357101F094FB14
:1011C00068605FE04FF47863C4F249339C427FDD8E
:1011D000B4F1FF4F5ADA4FEAE459A9F18609A4EBBA
:1011E000C954204601F054FE01F034FC0346014688
:1011F0002046059301F078FB4FF0874101F080FC19
:10120000074601F045FE01F025FC0146044638463C
:10121000069401F069FB4FF0874101F071FC002159
:101220000327079001F000FE88B103272046002124
:101230000DF11808013F01F0F7FD40B158F8044DD9
:101240000021013F204601F0EFFD0028F6D10223E6
:101250000093914B05A829464A4601933B4600F06E
:1012600057FA002E07460DDA2A6847426B6802F1EA
:1012700000422A6003F100436B6003E0002728600E
:1012800000234B60384609B0BDE8F08F01460027C7
:1012900001F02AFB68602860F4E74FF488410127D9
:1012A000C3F2357101F020FB4AF20831C2F68561C4
:1012B000044601F019FB01462860204601F014FBAA
:1012C0004AF20831C2F6856101F00EFB6860D9E789
:1012D00000F0DEFD4FF68411C3F62271804601F066
:1012E0000FFC4FF07C5101F001FB01F0D1FD0746EE
:1012F00001F0B0FB4FF47861C3F6C971834601F089
:10130000FFFB0146404601F0EFFA44F24341C3F2CD
:1013100035718146584601F0F3FB1F2F824648463F
:1013200023DC41F2B053791EC0F6010324F0FF0222
:1013300053F821309A4218D0514601F0D5FA804630
:10134000C5F800804146484601F0CEFA514601F00A
:10135000CBFA002E686095DA08F1004800F10040F1
:10136000C5F800807F4268608CE7514601F0BCFA06
:10137000E315C0F3C75280469A1A082AE0DD4FF4FD
:1013800088415846C3F23571039301F0B9FB80469A
:101390004846414601F0A8FA04464846214601F075
:1013A000A3FA414601F0A0FA4AF20831C2F685617B
:1013B0008046584601F0A4FB414601F095FA82466A
:1013C0002046514601F090FA039BC0F3C752804675
:1013D0009B1A192BDCBF2860A146B3DD4FF42341D3
:1013E0005846C2F6856101F08BFB80462046414697
:1013F00001F07AFA81462046494601F075FA4146E5
:1014000001F072FA43F23211C2F28D41044658469D
:1014100001F076FB214601F067FA824648468BE7E9
:1014200001F064FA4FF47D6324F00F04C3F6C9732E
:101430009C42064614D044F243414FF0FF37C3F2BA
:10144000357101F053FA01462860304601F04CFA3C
:1014500044F24341C3F2357101F048FA686011E784
:101460004FF488414FF0FF37C3F2357101F03EFA77
:101470004AF20831C2F68561044601F037FA0146A6
:101480002860204601F030FA4AF20831C2F6856140
:1014900001F02CFA6860F5E6301601080000000043
:1014A00020F000420346B2F1FF4F70B5044637D238
:1014B000A2B300283EDBC415B2F5000F09D210F428
:1014C00000023FD15B0001321902FBD5C2F10102DB
:1014D000A41823F07F437F3C23F40003E20743F486
:1014E00000034FF0807248BF5B0000266010192196
:1014F0005B003546AC189C42DEBFC4EB0303A51865
:10150000B61852085B000139F4D113B106F001039B
:10151000F618761006F17C5606EBC054204670BDD6
:10152000014601F0EDFA0146204601F0DFF90446DC
:10153000204670BD014601F0D7F9014601F094FB49
:101540000446EBE70122C3E70000000000000000B2
:101550002DE9F84320F00046B6F1485F05460F46F6
:101560005BDA01F095FC002800F0CA802946284685
:1015700001F0C6FA4DF24E71CAF64751044601F029
:10158000BFFA47F2F641C3F20F1101F0AFF921465D
:1015900001F0B6FA4FF27C21C3F2934101F0A4F9B5
:1015A000214601F0ADFA40F60151C3F2D07101F0CD
:1015B0009DF9214601F0A4FA40F66131C3F6B62147
:1015C00001F092F9214601F09BFA4AF6AB21C3F6ED
:1015D0002A5101F08BF9214601F092FA804620460B
:1015E0004FF07C5101F08CFA41460646204601F04E
:1015F00087FA39460446284601F082FA0146204619
:1016000001F072F90146304601F06EF901464FF0E3
:101610007E5001F069F9BDE8F883014601F070FAE7
:101620004DF24E71CAF64751044601F069FA47F28D
:10163000F641C3F20F1101F059F9214601F060FAA9
:101640004FF27C21C3F2934101F04EF9214601F0A3
:1016500057FA40F60151C3F2D07101F047F9214623
:1016600001F04EFA40F66131C3F6B62101F03CF9C3
:10167000214601F045FA4AF6AB21C3F62A5101F0A2
:1016800035F9214601F03CFA49F69913C3F69963FE
:101690009E428046A3DD0023C3F648739E4227DCAA
:1016A00006F17F464FF07E50314601F01DF981462C
:1016B00020464FF07C5101F023FA314601F014F935
:1016C00041460646204601F01BFA394604462846A4
:1016D00001F016FA0146204601F006F901463046AF
:1016E00001F002F90146484601F0FEF8BDE8F88332
:1016F0004FF000090026C3F63879C3F69066D7E7A5
:101700004FF07E50BDE8F8830000000000000000AC
:101710002DE9F04FDFB0151DD41E58BF25460B93A1
:1017200041F65014013B0393C0F60104689BED1091
:1017300025EAE5750C950646099154F82340EB43DC
:1017400002EBC30307930894089A039C2F1BA51868
:1017500015D4699B7D1901354FF0000803EB87090B
:1017600022AC0020002F03DB59F8080001F072F9C9
:10177000013744F80800AF4208F10408F1D1089B92
:10178000002BC0F2DE82089B4AA80B9C49AD9B004F
:101790000293C7184FEA840B039A002AC0F208820A
:1017A00022AB4FF0000803EB840A4FF0000956F813
:1017B000080008F104085AF8041D01F0A1F90146D7
:1017C000484601F093F8D8458146F0D145F8049F8A
:1017D0000134BD42E0D1DDF820800EAC029AA4189D
:1017E0000D944FEA88045EA80319B8F1000F029423
:1017F00053F850AC22DD029A0DAC4AAB9D18A718E5
:101800004FF06E51504601F07BF901F041FB01F0C1
:1018100021F94FF08741814601F072F901465046A7
:1018200001F062F801F034FB494644F8040F55F822
:10183000040D01F05BF8BC428246E1D107995046A5
:1018400000F096FB4FF07851044601F059F900F092
:1018500027FB4FF0824101F053F90146204601F089
:1018600043F8044601F014FB054601F0F3F8014685
:10187000204601F039F8079A002A074640F37381A1
:10188000079B08F1FF320EACC3F10801C3F107005A
:1018900054F8223043FA01F42D1904FA01F15B1ACD
:1018A0000EA943FA00FA41F82230BAF1000F30DDF8
:1018B0000135B8F1000F40F37981029C0EAB191984
:1018C000002407E022B10124C2F5807243F8042C01
:1018D0008B420AD053F8042B002CF3D001248B4206
:1018E000C2F1FF0243F8042CF4D1079A002A0DDD5F
:1018F000012A00F04181022A08D108F1FF330EA924
:1019000051F8232002F03F0241F82320BAF1020FE0
:1019100078D03846002101F087FA002800F08C804A
:10192000089A08F1FF3082420DDC029C0EA90022C9
:101930000B190D9C53F8041DA34242EA0102F9D190
:10194000002A40F0E781089B0EAC5A1E54F8223062
:10195000002B40F0F48104EB8202012352F8041DB5
:1019600001330029FAD0434408F101029A420A9354
:1019700045DC0A9C0C9BC8EB040A0B9C08EB03019A
:10198000029804EB0803039C4FEA8A0ACDF814A0DE
:10199000A21822AC0694551C699C069A04EB810897
:1019A0004AAC24180294002402EB8303049358F8F1
:1019B000040F4FF0000901F04DF8039A049B002A30
:1019C000185113DB069B4FF0000A03EB850756F80E
:1019D0000A000AF1040A57F8041D01F091F80146C3
:1019E000484600F083FFDA458146F0D1059B043478
:1019F000029A01359C4242F8049F0292D7D1DDF849
:101A00002880EEE639464FF07E5000F06DFF074625
:101A1000002C3FF47EAF07994FF07E5000F0A8FAFB
:101A20000146384600F060FF00210746384601F0C5
:101A3000FBF900287FF474AF079B384602955446A3
:101A4000594200F095FA4FF08741054601F00AFA35
:101A5000002800F07C814FF06E51284601F050F8CC
:101A6000079A0832079201F013FA00F0F3FF4FF0E3
:101A70008741064601F044F80146284600F034FF4D
:101A800001F006FA0EAB43F82800304601F000FAE8
:101A900008F101080EA941F828004FF07E5007997F
:101AA00000F066FAB8F1000F054653DBC8EB887703
:101AB0004FEA88060EAB4AA8BF0003EB0609043FB5
:101AC00086194FF0000B59F80B0000F0C3FF2946B0
:101AD00001F016F84FF06E5146F80B00284601F061
:101AE0000FF8ABF1040BBB450546ECD19D4F08F157
:101AF000010BDDF820A00025CDF80C800494BAF18C
:101B0000000FC0F20581002DC0F202814FF00009E4
:101B10000024C84601E0A84510DC56F8091008F179
:101B2000010857F8090009F1040900F0E9FF01462E
:101B3000204600F0DBFEC2450446ECDA5EA9043E16
:101B400001EB850301355D4543F8A04CD7D1DDF8A5
:101B50000C80049C689A032A43D8DFE812F0C40082
:101B600098009800480011D108F1FF330EAA52F8EE
:101B700023304FEA232A98E608F1FF330EA850F8E5
:101B8000232002F07F0240F82320BFE64FF07C5173
:101B90004FF0000A01F066F900283FF4BAAE0135B3
:101BA000B8F1000F4FF0020A3FF787AE00249CE621
:101BB0004FF00009013445F8049FBD427FF4ECADBD
:101BC00009E60020002C5BD0369B00F10040099C08
:101BD00003F10042099B9860379B226003F10043A8
:101BE0006360029A02F007005FB0BDE8F08FB8F1C1
:101BF000000FE6DD08F1FF3536AF35AA07EB8505A6
:101C00002E4656F804B9D6F808A058460192514617
:101C100000F06CFE81465846494600F065FE0146DC
:101C2000504600F063FE019AC6F804909642B060F8
:101C3000E7D1B8F1010FC4DD55F804A9D5F8089033
:101C40005046494600F052FE06465046314600F0E6
:101C50004BFE0146484600F049FEBD426E60A8605A
:101C6000EAD108F1010805F10806002005EB880516
:101C700055F8041D00F03AFEB542F9D1002CA3D16D
:101C8000099C369BA0602360379B6360A9E7002016
:101C9000B8F1000F0BDB08F1010536AE002006EBB2
:101CA000850555F8041D00F021FEB542F9D100F17B
:101CB000004304B90346099A01463698136000F0C0
:101CC00013FEB8F1000F08DD36AD05EB880855F8B6
:101CD000041F00F00BFE4545F9D10CB100F10040A6
:101CE000099B58607DE7B8F1000F39DB08F1010569
:101CF00036AE002006EB850555F8041D00F0F6FD14
:101D0000B542F9D10CB100F10040099C206068E7B0
:101D1000002413E70EA9079A0295544651F8203083
:101D2000083A0792D3B901EB8003804653F8041DAB
:101D300008F1FF38083A0029F8D00792ADE60123F0
:101D400011E60B9A9C0002944FEA820B43E5284669
:101D500001F09EF80EAA42F828009EE680469CE616
:101D60000020CFE75C19010800000000000000001F
:101D70002DE9F84320F00043B3F1485F04460F46D5
:101D8000904603DA01F084F8002859D02146204615
:101D900000F0B6FE2146054600F0B2FE4CF6D31127
:101DA000C2F62E710646284600F0AAFE42F63471AD
:101DB000C3F2D72100F098FD294600F0A1FE4EF6AF
:101DC0001B71C3F2386100F091FD294600F098FEC6
:101DD00040F60151C3F6501100F086FD294600F08F
:101DE0008FFE48F68901C3F6084100F07FFD814669
:101DF000B8F1000F27D04FF07C51384600F080FE3C
:101E000049468046304600F07BFE0146404600F0E1
:101E10006BFD294600F074FE394600F065FD4AF678
:101E2000AB21C3F62A610546304600F069FE014643
:101E3000284600F05BFD0146204600F055FD0446B3
:101E40002046BDE8F8830146284600F059FE4AF6D0
:101E5000AB21C3F62A6100F047FD314600F050FE89
:101E60000146204600F042FD04462046BDE8F883C6
:101E7000002070470000000000000000000000008B
:101E800000210020C7F6F871704700BF0000000075
:101E900020F00040704700BF00000000000000007C
:101EA000F8B520F0004601460446F50D7F3D162D9D
:101EB00020DC002D074625DB4FF6FF73C0F27F03C1
:101EC00043FA05F6064213D04FF2CA21C7F2491170
:101ED00000F00CFD002100F0CFFF40B1002CBEBF90
:101EE0004FF4000343FA05F5671927EA0604214673
:101EF0000846F8BDB6F1FF4FFAD300F0F7FC0146F3
:101F00000846F8BD4FF2CA21C7F2491100F0EEFCB5
:101F1000002100F0B1FF0028E9D0002C01DB0024F3
:101F2000E5E70023CBF68073002E18BF1C46DEE7E2
:101F300030F0004001D102207047A0F50003B3F15A
:101F4000FE4F01D2042070474FF6FE73421EC0F2CE
:101F50007F039A4201D803207047B0F1FF435842F3
:101F60005841704700000000000000000000000021
:101F700038B530F00044034602460D4611D0B4F1A6
:101F8000FF4F10D2B4F5000F13D3E40D6419FE2CEB
:101F9000C8BF194633DC002C1BDD22F0FF4242EAA9
:101FA000C453184638BD014600F0A0FC034618464D
:101FB00038BD4FF0984100F0A3FD43F6B042CFF694
:101FC000FF729542034612DBC0F3C7540246193C28
:101FD000DCE714F1160F20DA4CF250321946954224
:101FE0000DDC44F26020C0F6A25000F029F844F263
:101FF0006021C0F6A25100F083FD0346D1E74FF205
:10200000CA20C7F2491000F01BF84FF2CA21C7F2EC
:10201000491100F075FD0346C3E704F1190022F0F1
:10202000FF424FF04C5142EAC05000F069FD0346B8
:10203000B7E700BF00000000000000000000000043
:1020400001F0004120F0004008437047000000000C
:1020500081F0004102E000BF83F0004330B54FEA59
:1020600041044FEA430594EA050F08BF90EA020FC6
:102070001FBF54EA000C55EA020C7FEA645C7FEA59
:10208000655C00F0E2804FEA5454D4EB5555B8BF7C
:102090006D420CDD2C4480EA020281EA030382EAED
:1020A000000083EA010180EA020281EA0303362D7F
:1020B00088BF30BD11F0004F4FEA01314FF4801C52
:1020C0004CEA113102D0404261EB410113F0004F64
:1020D0004FEA03334CEA133302D0524263EB43031B
:1020E00094EA050F00F0A780A4F10104D5F1200EB9
:1020F0000DDB02FA0EFC22FA05F2801841F1000114
:1021000003FA0EF2801843FA05F359410EE0A5F1E7
:1021100020050EF1200E012A03FA0EFC28BF4CF018
:10212000020C43FA05F3C01851EBE37101F00045CE
:1021300007D54FF0000EDCF1000C7EEB00006EEBDB
:102140000101B1F5801F1BD3B1F5001F0CD3490865
:102150005FEA30004FEA3C0C04F101044FEA4452BC
:1021600012F5800F80F09A80BCF1004F08BF5FEA43
:10217000500C50F1000041EB045141EA050130BD23
:102180005FEA4C0C404141EB010111F4801FA4F1C6
:102190000104E9D191F0000F04BF01460020B1FA1B
:1021A00081F308BF2033A3F10B03B3F120020CDA53
:1021B0000C3208DD02F1140CC2F10C0201FA0CF031
:1021C00021FA02F10CE002F11402D8BFC2F1200C96
:1021D00001FA02F120FA0CFCDCBF41EA0C0190404C
:1021E000E41AA2BF01EB0451294330BD6FEA040495
:1021F0001F3C1CDA0C340EDC04F11404C4F1200280
:1022000020FA04F001FA02F340EA030021FA04F391
:1022100045EA030130BDC4F10C04C4F1200220FAE8
:1022200002F001FA04F340EA0300294630BD21FA26
:1022300004F0294630BD94F0000F83F4801306BFEC
:1022400081F480110134013D4EE77FEA645C18BFE0
:102250007FEA655C29D094EA050F08BF90EA020F77
:1022600005D054EA000C04BF1946104630BD91EA6F
:10227000030F1EBF0021002030BD5FEA545C05D172
:102280004000494128BF41F0004130BD14F58004B1
:102290003CBF01F5801130BD01F0004545F0FE4125
:1022A00041F470014FF0000030BD7FEA645C1ABF5A
:1022B000194610467FEA655C1CBF0B46024650EA91
:1022C000013406BF52EA033591EA030F41F40021BD
:1022D00030BD00BF90F0000F04BF0021704730B543
:1022E0004FF4806404F132044FF000054FF0000118
:1022F00050E700BF90F0000F04BF0021704730B5D9
:102300004FF4806404F1320410F0004548BF4042AD
:102310004FF000013EE700BF42004FEAE2014FEA02
:1023200031014FEA02701FBF12F07F4393F07F4FDD
:1023300081F06051704792F0000F14BF93F07F4F0F
:10234000704730B54FF4607401F0004521F0004152
:1023500020E700BF50EA010208BF704730B54FF0D8
:1023600000050AE050EA010208BF704730B511F0DD
:10237000004502D5404261EB41014FF4806404F115
:1023800032045FEA915C3FF4DCAE4FF003025FEA97
:10239000DC0C18BF03325FEADC0C18BF033202EB1F
:1023A000DC02C2F1200300FA03FC20FA02F001FA79
:1023B00003FE40EA0E0021FA02F11444C1E600BF18
:1023C00070B54FF0FF0C4CF4E06C1CEA11541DBFCB
:1023D0001CEA135594EA0C0F95EA0C0F00F0DEF896
:1023E0002C4481EA030621EA4C5123EA4C5350EA7B
:1023F000013518BF52EA033541F4801143F48013CC
:1024000038D0A0FB02CE4FF00005E1FB02E506F05C
:102410000042E0FB03E54FF00006E1FB03569CF0B1
:10242000000F18BF4EF0010EA4F1FF04B6F5007FB7
:1024300064F5407404D25FEA4E0E6D4146EB060629
:1024400042EAC62141EA55514FEAC52040EA5E50B2
:102450004FEACE2EB4F1FD0C88BFBCF5E06F1ED85C
:10246000BEF1004F08BF5FEA500E50F1000041EB93
:10247000045170BD06F0004646EA010140EA020040
:1024800081EA0301B4EB5C04C2BFD4EB0C0541EA62
:10249000045170BD41F480114FF0000E013C00F377
:1024A000AB8014F1360FDEBF002001F0004170BD9B
:1024B000C4F10004203C35DA0C341BDC04F11404B4
:1024C000C4F1200500FA05F320FA04F001FA05F240
:1024D00040EA020001F0004221F0004110EBD3700D
:1024E00021FA04F642EB06015EEA430E08BF20EA39
:1024F000D37070BDC4F10C04C4F1200500FA04F3DC
:1025000020FA05F001FA04F240EA020001F000416D
:1025100010EBD37041F100015EEA430E08BF20EAE0
:10252000D37070BDC4F1200500FA05F24EEA020E28
:1025300020FA04F301FA05F243EA020321FA04F057
:1025400001F0004121FA04F220EA020000EBD3700E
:102550005EEA430E08BF20EAD37070BD94F0000F0E
:102560000FD101F00046400041EB010111F4801F42
:1025700008BF013CF7D041EA060195F0000F18BFF3
:10258000704703F00046520043EB030313F4801F2F
:1025900008BF013DF7D043EA0603704794EA0C0FE9
:1025A0000CEA135518BF95EA0C0F0CD050EA4106FF
:1025B00018BF52EA4306D1D181EA030101F000417C
:1025C0004FF0000070BD50EA410606BF10461946A4
:1025D00052EA430619D094EA0C0F02D150EA0136B0
:1025E00013D195EA0C0F05D152EA03361CBF1046F1
:1025F00019460AD181EA030101F0004141F0FE4190
:1026000041F470014FF0000070BD41F0FE4141F413
:10261000780170BD70B54FF0FF0C4CF4E06C1CEA13
:1026200011541DBF1CEA135594EA0C0F95EA0C0FC8
:1026300000F0A7F8A4EB050481EA030E52EA033583
:102640004FEA013100F088804FEA03334FF08055A4
:1026500045EA131343EA12634FEA022245EA1115D1
:1026600045EA10654FEA00260EF000419D4208BF82
:10267000964244F1FD0404F5407402D25B084FEA2F
:102680003202B61A65EB03055B084FEA32024FF4DB
:1026900080104FF4002CB6EB020E75EB030E22BF38
:1026A000B61A754640EA0C005B084FEA3202B6EBF8
:1026B000020E75EB030E22BFB61A754640EA5C00A7
:1026C0005B084FEA3202B6EB020E75EB030E22BF37
:1026D000B61A754640EA9C005B084FEA3202B6EB38
:1026E000020E75EB030E22BFB61A754640EADC00F7
:1026F00055EA060E18D04FEA051545EA16754FEA59
:1027000006164FEAC30343EA52734FEAC2025FEA76
:102710001C1CC0D111F4801F0BD141EA00014FF005
:1027200000004FF0004CB6E711F4801F04BF0143D6
:102730000020B4F1FD0C88BFBCF5E06F3FF6AFAEF2
:10274000B5EB030C04BFB6EB020C5FEA500C50F182
:10275000000041EB045170BD0EF0004E4EEA113105
:1027600014EB5C04C2BFD4EB0C0541EA045170BD0C
:1027700041F480114FF0000E013C90E645EA060E50
:102780008DE60CEA135594EA0C0F08BF95EA0C0F7E
:102790003FF43BAF94EA0C0F0AD150EA01347FF4C6
:1027A00034AF95EA0C0F7FF425AF104619462CE79D
:1027B00095EA0C0F06D152EA03353FF4FDAE104600
:1027C000194622E750EA410618BF52EA43067FF451
:1027D000C5AE50EA41047FF40DAF52EA43057FF4E1
:1027E000EBAE12E700000000000000000000000057
:1027F0004FEA410212F5001215D211D56FF4787329
:10280000B3EB625212D94FEAC12343F0004343EACB
:10281000505311F0004F23FA02F018BF40427047A6
:102820004FF00000704750EA013005D111F0004030
:1028300008BF6FF0004070474FF00000704700BFC6
:102840004FEA4102B2F1E04324BFB3F5001CDCF1D2
:10285000FE5C0DD901F0004C4FEAC0024CEA50700A
:10286000B2F1004F40EB830008BF20F00100704739
:1028700011F0804F21D113F13872BCBF01F000403C
:10288000704741F480114FEA5252C2F11802C2F16E
:10289000200C10FA0CF320FA02F018BF40F00100EF
:1028A0004FEAC1234FEAD32303FA0CFC40EA0C00A1
:1028B00023FA02F34FEA4303CCE77FEA625307D1DE
:1028C00050EA01331EBF4FF0FE4040F44000704715
:1028D00001F0004040F0FE4040F40000704700BFAF
:1028E00080F0004002E000BF81F0004142001FBFC5
:1028F0005FEA410392EA030F7FEA226C7FEA236CCE
:102900006AD04FEA1262D2EB1363C1BFD2184140C2
:1029100048404140B8BF5B42192B88BF704710F058
:10292000004F40F4000020F07F4018BF404211F0FB
:10293000004F41F4000121F07F4118BF494292EA63
:10294000030F3FD0A2F1010241FA03FC10EB0C008F
:10295000C3F1200301FA03F100F0004302D549421C
:1029600060EB4000B0F5000F13D3B0F1807F06D3C9
:1029700040084FEA310102F10102FE2A51D2B1F1C1
:10298000004F40EBC25008BF20F0010040EA0300B6
:102990007047490040EB000010F4000FA2F1010263
:1029A000EDD1B0FA80FCACF1080CB2EB0C0200FAED
:1029B0000CF0AABF00EBC25052421843BCBFD0403B
:1029C0001843704792F0000F81F4000106BF80F4B5
:1029D00000000132013BB5E74FEA41037FEA226C78
:1029E00018BF7FEA236C21D092EA030F04D092F043
:1029F000000F08BF0846704790EA010F1CBF002077
:102A0000704712F07F4F04D1400028BF40F00040D3
:102A1000704712F100723CBF00F50000704700F0F3
:102A2000004343F0FE4040F4000070477FEA22621A
:102A300016BF08467FEA23630146420206BF5FEAEB
:102A4000412390EA010F40F4800070474FF00003EB
:102A500004E000BF10F0004348BF40425FEA000CB2
:102A600008BF704743F0964301464FF000001CE05A
:102A700050EA010208BF70474FF000030AE000BFB0
:102A800050EA010208BF704711F0004302D54042EE
:102A900061EB41015FEA010C02BF84460146002060
:102AA00043F0B64308BFA3F18053A3F50003BCFA7B
:102AB0008CF2083AA3EBC25310DB01FA02FC634428
:102AC00000FA02FCC2F12002BCF1004F20FA02F22F
:102AD00043EB020008BF20F00100704702F1200222
:102AE00001FA02FCC2F1200250EA4C0021FA02F283
:102AF00043EB020008BF20EADC70704700000000D2
:102B00004FF0FF0C1CEAD0521EBF1CEAD15392EAD0
:102B10000C0F93EA0C0F6FD01A4480EA010C4002AC
:102B200018BF5FEA41211ED04FF0006343EA501006
:102B300043EA5111A0FB01310CF00040B1F5000F48
:102B40003EBF490041EAD3715B0040EA010062F1F7
:102B50007F02FD2A1DD8B3F1004F40EBC25008BFE1
:102B600020F00100704790F0000F0CF0004C08BFFF
:102B700049024CEA502040EA51207F3AC2BFD2F1CC
:102B8000FF0340EAC250704740F400004FF00003DA
:102B9000013A5DDC12F1190FDCBF00F00040704714
:102BA000C2F10002410021FA02F1C2F1200200FA52
:102BB00002FC5FEA310040F1000053EA4C0308BF19
:102BC00020EADC70704792F0000F00F0004C02BF6A
:102BD000400010F4000F013AF9D040EA0C0093F0E5
:102BE000000F01F0004C02BF490011F4000F013B3F
:102BF000F9D041EA0C018FE70CEAD15392EA0C0FAD
:102C000018BF93EA0C0F0AD030F0004C18BF31F017
:102C1000004CD8D180EA010000F00040704790F0ED
:102C2000000F17BF90F0004F084691F0000F91F091
:102C3000004F14D092EA0C0F01D142020FD193EA57
:102C40000C0F03D14B0218BF084608D180EA0100DF
:102C500000F0004040F0FE4040F40000704740F0BB
:102C6000FE4040F4400070474FF0FF0C1CEAD05289
:102C70001EBF1CEAD15392EA0C0F93EA0C0F69D0E5
:102C8000A2EB030280EA010C49024FEA402037D050
:102C90004FF0805343EA111143EA10130CF0004047
:102CA0008B4238BF5B0042F17D024FF4000C8B4237
:102CB00024BF5B1A40EA0C00B3EB510F24BFA3EB17
:102CC000510340EA5C00B3EB910F24BFA3EB9103E7
:102CD00040EA9C00B3EBD10F24BFA3EBD10340EA41
:102CE000DC001B0118BF5FEA1C1CE0D1FD2A3FF687
:102CF00050AF8B4240EBC25008BF20F0010070473C
:102D00000CF0004C4CEA50207F32C2BFD2F1FF03DE
:102D100040EAC250704740F400004FF00003013A0F
:102D200037E792F0000F00F0004C02BF400010F4B3
:102D3000000F013AF9D040EA0C0093F0000F01F0C7
:102D4000004C02BF490011F4000F013BF9D041EAE9
:102D50000C0195E70CEAD15392EA0C0F08D142021C
:102D60007FF47DAF93EA0C0F7FF470AF084676E7EF
:102D700093EA0C0F04D14B023FF44CAF08466EE7C8
:102D800030F0004C18BF31F0004CCAD130F0004296
:102D90007FF45CAF31F000437FF43CAF5FE700BFEE
:102DA0004FF0FF3C06E000BF4FF0010C02E000BF17
:102DB0004FF0010C4DF804CD4FEA40024FEA4103B9
:102DC0007FEA226C18BF7FEA236C11D001B052EA6F
:102DD000530C18BF90EA010F58BFB2EB030088BF35
:102DE000C81738BF6FEAE17018BF40F001007047A4
:102DF0007FEA226C02D15FEA402C05D17FEA236C86
:102E0000E4D15FEA412CE1D05DF8040B704700BFCC
:102E1000844608466146FFE70FB5FFF7C9FF002863
:102E200048BF10F1000F0FBD4DF808EDFFF7F4FF9C
:102E30000CBF012000205DF808FB00BF4DF808ED35
:102E4000FFF7EAFF34BF012000205DF808FB00BF58
:102E50004DF808EDFFF7E0FF94BF012000205DF87A
:102E600008FB00BF4DF808EDFFF7D2FF94BF01202B
:102E700000205DF808FB00BF4DF808EDFFF7C8FF24
:102E800034BF012000205DF808FB00BF00000000F7
:102E90004FEA4002B2F1FE4F0FD34FF09E03B3EB67
:102EA00012620DD94FEA002343F0004310F0004FA7
:102EB00023FA02F018BF404270474FF000007047FD
:102EC00012F1610F01D1420205D110F0004008BF9C
:102ED0006FF0004070474FF00000704700000000A6
:102EE00040F20403C2F200031868704700000000BB
:102EF000032A2DE9F00F09D82AB10023CC5CC45471
:102F000001339342FAD1BDE8F00F704783070244C2
:102F10000ED0441C4D1C15F8017C04F0030623461A
:102F200001342946013504F8027C002EF3D100E07B
:102F3000034611F003046DD0D71A0D1B032F2E6822
:102F400019DDC4F1040C4FEAC4081C1D4FEACC0C77
:102F500055F8047FC4EB0209234604310434B9F167
:102F6000030F26FA08FA07FA0CFB3E464BEA0A075B
:102F700044F8087CECDC9A42C5D9013301310132B6
:102F800011F8014C01330131934203F8024CF7D19F
:102F9000B9E70C684033403143F8404C51F83C4CA1
:102FA00043F83C4C51F8384C43F8384C51F8344C09
:102FB00043F8344C51F8304C43F8304C51F82C4C19
:102FC00043F82C4C51F8284C43F8284C51F8244C29
:102FD00043F8244C51F8204C43F8204C51F81C4C39
:102FE00043F81C4C51F8184C43F8184C51F8144C49
:102FF00043F8144C51F8104C43F8104C51F80C4C59
:1030000043F80C4C51F8084C43F8084C51F8044C68
:1030100043F8044CD41A3F2CBBDC11E00C6810338D
:10302000103143F8104C51F80C4C43F80C4C51F84B
:10303000084C43F8084C51F8044C43F8044CD41A9B
:103040000F2CEBDC032C96DD1C1D0D1D55F8047CAC
:10305000161B2346294604340435032E44F8087C05
:10306000F4DC88E700000000000000000000000021
:10307000032AC9B270B408D82AB10346121803F85B
:10308000011B9342FBD170BC70478307024409D0F7
:10309000441C04F00305234604F8011C0134002DF0
:1030A000F7D100E00346D51A01EB01243F2D04EBD4
:1030B00004442CDD1C604033D51A43F83C4C3F2DB2
:1030C00043F8384C43F8344C43F8304C43F82C4C1C
:1030D00043F8284C43F8244C43F8204C43F81C4C4C
:1030E00043F8184C43F8144C43F8104C43F80C4C7C
:1030F00043F8084C43F8044CDCDC08E01C60103357
:10310000D51A43F80C4C43F8084C43F8044C0F2DE7
:10311000F4DC032D08DD1D1D561B45F8044C032E61
:103120002B4605F10405F7DC9A42ACD90133013294
:1031300003F8011C01339342FAD1A4E70000000018
:103140002DE9F04F1D4689B002EB420304465B00B7
:10315000029107939108A3070192049102F00302E0
:10316000069240F08980069B002B40F085800199F3
:10317000029AB1F1040A18BF4FF0010A062A40F280
:103180008180029A019B072A4FEA520C03FB0C4BE9
:1031900040F0158107996618BAF1000F40F03081B0
:1031A0002268DBF800302360CBF80020019BB34697
:1031B000019A4FF000095F425B46A218CB46904649
:1031C000994603920592B04540F2A0804B46D946FD
:1031D0009B46B9F1000F00F0FC81059A059B101B7E
:1031E000029AC3EB080303939842A8BF1846019BB9
:1031F000002803FB024712DDBAF1020FC0EB080200
:1032000040F01C81611C02EB000911F8013C013106
:10321000107801F8020C02F8013B4A45F5D10199FA
:10322000CBEB0702C6EB0B06521AB24228BF32465E
:10323000002A11DDBAF1020FC2EB070308BF08EB49
:10324000020040F05781197898F8002008F8011B17
:10325000804503F8012BF6D1019A039B9A42C0F0F6
:10326000E2800199B1424ED23046BC1B09F0D0F940
:10327000A30702903FF477AF029A4FF0020A062AA2
:103280003FF67FAF019B04EB030803FB0249C845EF
:1032900039D2019BDDF804B01A1D5F422346544623
:1032A0009A460292CDF81490D04528D9C14608E03C
:1032B000D9F800203368C9F8003032605645B1466D
:1032C0001DD909EB070649463046A847002816DDF8
:1032D000002CEDD0012C5B461CBF31460BEB0602E7
:1032E00000F0CE811078013B91F800C0002B02F86D
:1032F00001CB01F8010BF5DC5645B146E1D8059A42
:10330000D8449045D0D309B0BDE8F08F404621465F
:10331000A84700280DDC3CE03268D9F80030336063
:10332000C9F80020B9444FF0010BF619B0453FF63B
:103330004DAF30462146A8470028C0F2C581F4D1E0
:10334000BAF1000FE8D0BAF1010F019B1CBF314662
:103350004A460AD00878013B92F800C0002B01F8D9
:1033600001CB02F8010BF5DCDCE70499321D09F111
:103370000403A44652F8040C013953F8044C0432F7
:103380000433002942F8084C43F8080CF2DC644688
:10339000C8E711D1BAF1000F40F0BF80059B059935
:1033A0001A68D8F800300B60C8F80020059A4FF072
:1033B000010B019BD21805920199884403E7029AF8
:1033C000019B561E282A98BFA04603FB064698BFBD
:1033D000374652D859464046A847394600285846ED
:1033E0003FDBA84700283FF7D7AE40463946A847FD
:1033F00037EA200B28BFC346BAF1000F3FF4D0AE26
:10340000631CBAF1010F019A594600F0978013F836
:10341000010C013A0F780133002A03F8027C01F80D
:10342000010BF4DCC2E60199039809F0F1F8019A66
:103430002B4601462046FFF783FE12E78008211D38
:103440000432A44651F8043C013852F8044C0431CB
:103450000432002841F8084C42F8083CF2DC64468B
:10346000DDE6A8470028FFF697AE40463946A84754
:1034700038EA200B28BFBB468EE6D708204603FB60
:1034800007F704EB070841467A00059204EB0209AE
:10349000A847494600284046C0F28F80A847002828
:1034A00040F30A817B4259460BEB030903934846DC
:1034B0005F44A84739460028584673DBA8470028D0
:1034C00040F3F280059A039BC2EB0609F7184846C1
:1034D0003946A84731460028384642DBA84700282D
:1034E0003FF778AF48463146A84736EA200728BF5D
:1034F0004F466FE7920808F10408043353F8040CB0
:10350000013A58F8041C043308F10408002A48F86A
:10351000080C43F8081CF1DC9EE6BAF1010F019992
:103520002BD0059A43461078013993F800C0002942
:1035300002F801CB03F8010BF5DC37E7049A231DF1
:103540000BF1040C53F8041C013A5CF8040C04332E
:103550000CF1040C002A43F8080C4CF8081CF1DCB0
:1035600024E6A8470028FFF635AF48463146A8476D
:1035700039EA200728BF37462CE7059BA446049963
:103580001A1D08F1040352F8040C013953F8044CD5
:1035900004320433002942F8084C43F8080CF2DCEA
:1035A000644603E7A84700288CDB48463946A8470D
:1035B00039EA200B28BFBB4684E7A8470028FFF65E
:1035C00071AF20464946A84734EA200828BFC846BC
:1035D00068E7029A019B03FB0249039A4A45BFF43C
:1035E00092AE019BDDF80C801A1D5F42DDF804B03D
:1035F000234654469A460592CDF80890C24526D2F5
:10360000464608E03268D9F800303360C9F8002037
:10361000D1454E461BD906EB070931464846A84717
:10362000002814DD002CEDD0012C5B461CBF494660
:103630000BEB090210D01078013B0E78002B02F83A
:10364000016B01F8010BF6DCD1454E46E3D8029A36
:10365000D8449045D2D356E6059B049903EB090262
:1036600009F1040352F8040C013953F8046C0432D4
:103670000433002942F8086C43F8080CF2DCC7E771
:10368000029BA44604999A19331D52F8040C01397F
:1036900053F8044C04320433002942F8084C43F830
:1036A000080CF2DC644609E648463946A84737EA82
:1036B000200B28BFCB4605E720464946A84739EAF4
:1036C000200828BFA046EDE6B0453FF67FADBAF131
:1036D000000F0BD1D8F800203368C8F800303260F2
:1036E000019A4FF0010B9044B61A6CE5BAF1010F44
:1036F000019B1CBF414632460AD00878013B92F834
:1037000000C0002B01F801CB02F8010BF5DCE7E764
:10371000049908F10402331DA44652F8040C01393F
:1037200053F8044C04320433002942F8084C43F89F
:10373000080CF2DC6446D3E7000000000000000043
:103740000EB4F0B59CB021AC40F204060290C2F277
:10375000000654F8042B4FF40172069043F6250539
:10376000ADF8142000F094F802A9219A2346C0F67F
:10377000000501940B954FF6FF75ADF816500746FE
:1037800003903068002607970F96149600F0B0F863
:103790001CB0BDE8F04003B0704700BF0CB44FF45C
:1037A0000173F0B59DB022AC05460846029154F86D
:1037B000046BADF81430069100F06AF8324602A9A5
:1037C0002346002601940F9614960746284643F692
:1037D00025050397C0F6000507970B954FF6FF7573
:1037E000ADF8165000F084F81DB0BDE8F04002B00E
:1037F000704700BF00000000000000000000000053
:1038000010B50C46B1F90E100CF07AFC0028ABBFD5
:10381000636DA3891B1823F48053ACBF6365A38138
:1038200010BD00BF002070472DE9F0410C4689898A
:103830001D460746164601F480731BB233B1B4F936
:103840000E10002202230CF063FCA18921F48051A8
:103850003846A1813246B4F90E102B46BDE8F0413E
:103860000CF05EBC10B50C46B1F90E100CF050FC1B
:10387000A389421C16BF606523F4805343F4805330
:10388000A38110BDB1F90E100CF052BC0000000075
:1038900020F0030110F00300C0F1000051F8043BD8
:1038A00000F1040C4FEACC0C6FF000021CBF22FAAE
:1038B0000CF213434FF0010C4CEA0C2C4CEA0C4C6C
:1038C000A3EB0C0222EA030212EACC1204BF51F865
:1038D000043B0430F4D013F0FF0F1FBF013013F48A
:1038E0007F4F013013F47F0F18BF0130704700BFC6
:1038F0002DE9F04F0C46ADF5337D16468246079311
:1039000001F00AF8A38903F4005212B232B9626ED0
:1039100043F40053A38122F400526266324600252C
:1039200091460026069546F2D17E19F8013B40F2F9
:10393000F80541F6A010C0F6000EC0F601000B9687
:10394000B0460996C2F20005CDF83CE00E90159302
:1039500043B32968C818477807F00807FFB2002F5B
:1039600027D063680FE023682A68591C1B78D21897
:10397000537803F00803DBB26BB1636808F1010808
:103980002160013B6360002BEDDC5046214603F0D3
:103990000FF90028E7D04A46914619F8013B1593E4
:1039A000002BD6D100F0BAFF09980DF5337DBDE8A4
:1039B000F08F252B12D06368002B40F39180236891
:1039C00019F8012C19789142ECD16268013308F1A1
:1039D00001082360013A62604A46DDE753783E46BB
:1039E00009F10102782B00F29A83DFE813F0B403A7
:1039F00098039803980398039803980398039803EF
:103A000098039803980398039803980398039803DE
:103A100098039803980398039803980398039803CE
:103A200098039803980398039803980398039803BE
:103A300098039803980398035704980398039803EE
:103A400098035B0498039803980398039803BA03B8
:103A5000BA03BA03BA03BA03BA03BA03BA03BA037E
:103A6000BA0398039803980398039803980398035C
:103A7000980398039803C303D0039803D0039803D3
:103A8000980398039803D40398039803DA039803E0
:103A90009803980398039803980398039803E703FF
:103AA00098039803F40398039803980398039803E2
:103AB00098039803FF030504D003D003D00309043F
:103AC0001004980398031B0498032B043B0446043A
:103AD00098039803530498038F0098039803E7030F
:103AE0005046214603F064F800283FF468AF00F028
:103AF00015FF099D35B1A38903F040031BB2002BCC
:103B00003FF452AF4FF0FF3609964DE74FF00309EF
:103B100046F2D1700A21C0F6000008920B9106907F
:103B20006368002B40F30F837B0611D509F1FF3941
:103B3000B9F1030F00F2D180DFE819F06C018E00BB
:103B40001F00F1005046214603F032F80028CED184
:103B50002968236800E023601A7801338A185278B4
:103B600002F00802D2B2002AE0D0626808F101082F
:103B7000013A6260002AEEDCE4E7731E0DF5B47EC4
:103B8000B3F5AE7FAC4688BF6FF4AE700B9D86BFB9
:103B9000331840F25D160023424647F458674FF051
:103BA000000BF1469846CDF830E023681878A0F174
:103BB0002B014D2900F26A81DFE811F095016801BF
:103BC000950168016801A0019A019A019A019A0180
:103BD0009A019A019A018E018E01680168016801BB
:103BE0006801680168016801890189018901890109
:103BF000890189016801680168016801680168013B
:103C0000680168016801680168016801680168016C
:103C10006801680168015101680168016801680173
:103C200068016801680168018901890189018901C8
:103C300089018901680168016801680168016801FA
:103C4000680168016801680168016801680168012C
:103C50006801680168015101002E08BF4FF0FF366E
:103C600017F0010340F02583FF0600F1A983DDF87A
:103C70001CE022680EF10403DEF8009009F1010750
:103C80004E44CC469946107807F1FF3B2968091845
:103C9000497801F00801C9B2002940F0B283616897
:103CA000BB460139616012F8011BB74207F10107F9
:103CB00007F8021C226000F0A48361680029E2DC9E
:103CC00050462146CDF80CC002F072FFDDF80CC062
:103CD000002840F096832268D5E7002E08BF012611
:103CE00017F0010340F0A483F90640F119841F4640
:103CF0006268504621462368B24280F227849B18AE
:103D00002360BF18B61A02F053FF0028F0D0002F2E
:103D10003FF4EDAEDDF82090B8444A463CE6731E11
:103D20004FF0000BB3F5AE7F0DF5B47E88BF6FF496
:103D3000AE70CDF834A088BF3318109588BF40F21C
:103D40005D1647F4F06798BF0023F146DA465D46FA
:103D5000CDF830E0CDF844B0CDF84CB0CDF828B077
:103D6000CDF848B022681078A0F12B014E2900F25E
:103D7000F080DFE811F05E01EE005E01CD01EE00A3
:103D8000C101D900D900D900D900D900D900D90082
:103D9000D900D900EE00EE00EE00EE00EE00EE00DD
:103DA000EE009901EE00EE00EE00A701A001EE008A
:103DB000EE008701EE00EE00EE00EE006F01EE0077
:103DC000EE00EE00EE00EE006901EE00EE00EE0007
:103DD000EE006301EE00EE00EE00EE00EE00EE00FD
:103DE000EE009901EE00EE00EE00A701A001EE004A
:103DF000EE008701EE00EE00EE00EE006F01EE0037
:103E0000EE00EE00EE00EE006901EE00EE00EE00C6
:103E1000EE006301002E08BF4FF0FF36FA0640F1B6
:103E20008D82236800270DF168091A78013319F88B
:103E30000220002A00F08583626801372360013A7E
:103E4000BE4262603FF466AF002AEEDC5046214677
:103E500002F0AEFE00287FF45DAF2368E5E707F4CB
:103E6000C061B1F5007F11D127F40077102547F428
:103E7000A06709F8010B616801396160002940F30E
:103E80004F82591C2160013E7FF48FAEF9050B95DE
:103E9000904665460ED50C9EB14507D919F8011C10
:103EA0005046224609F1FF3902F042FE0C9EB14510
:103EB0003FF478AD17F0100600F014830C9EC6EBAB
:103EC0000903DDF820909B44D8444A4664E50A2D56
:103ED000DCDD27F43867CCE7DDF838E03EF9155033
:103EE000082DF6DCD2E73906D0D527F08007C0E7E9
:103EF0000E9927F4386731F91550BAE73905B8D566
:103F000015B947F400770825790548BF27F4B0674D
:103F1000AFD427F46077B8F1000F02D008F1FF3872
:103F200001360BF1010BA6E70AEB0B0189B927F467
:103F3000C07709F8010B6168013E08F101080139F9
:103F40006160002940F3DF81511C2160002E7FF465
:103F500009AF0A95D4460A9BDDF834A0109D0BB139
:103F600027F480770CF1FF33012B40F2D2830BF161
:103F7000FF33062B1DD8BBF1020F40F2E083BBF1EB
:103F8000030F16D0ABF1040309F1FF36CB46DBB2C9
:103F90000D93F61A1BF8011D5046224602F0C8FD8B
:103FA000B345F7D10D9E08F1FF38F343C6EB08087F
:103FB0009944FA0512D57B0500F1D28319F8011C4A
:103FC00008F1FF3801F0DF03452B08BF09F1FF3985
:103FD00040F0C3825046224602F0AAFD17F01002BC
:103FE00040F08C8107F4C06389F80020B3F5806F3E
:103FF00000F0DC82139E002E40F0C082002250466A
:104000000C9901F085FA17F0010F079E02460B4646
:1040100003D117F0020F00F053833168043607967E
:10402000C1E90023099EDDF82090013609964A4631
:10403000B2E439068DD527F080077AE7BBF1070F88
:1040400087D14FF0080B74E7BBF1060F81D14FF019
:10405000070B6EE7002D08BFBAF1000F40F0E181B9
:1040600007F4E061B1F5E06F00F08282BBF1010F6F
:1040700018BFBBF1040F7FF46CAF0BF1010B5FFABB
:104080008BFB56E7002D08BFBBF1000F05D107F4ED
:10409000E061B1F5E06F00F0B282BBF1030F18BF31
:1040A000BBF1050FE9D054E7BAF1010F7FF451AF2E
:1040B0004FF0020A3DE7BBF1020F7FF44AAF4FF029
:1040C000030B36E707F4A061B1F5806F05D07905E1
:1040D0007FF53FAF002D00F02C83B90527F4F06782
:1040E00058BFCDF8449047F4C0775EBF1299C1EB3A
:1040F0000505139500251CE7F9057FF515AF27F099
:1041000080070135002B3FF416AF013B013612E763
:10411000B9057FF51EAF27F42077129509E7CB1874
:10412000089246F2A1405B7803F00303012B24D0F0
:1041300063680A21C0F600000B91002B06904FF037
:1041400003093FF7F1AC5046214602F031FD00284B
:104150003FF4EAACCBE400F0E1FB4FF0FF3509950A
:1041600022E406EB860603EB460699F80130303E62
:10417000914635E446F2A1400892C0F600000A21BB
:1041800047F0010706900B914FF00309C8E408922D
:104190004FF00409C4E499F8013047F00207914652
:1041A0001EE4089246F2D172C0F60002082347F0DE
:1041B000010706920B934FF00309B1E4089246F20F
:1041C000D172C0F60002102347F4007706920B93D9
:1041D0004FF00309A4E41AA81146089201F010F860
:1041E00047F040074FF00109089099E4089247F022
:1041F00040074FF0000993E4089246F2A14097E788
:1042000099F8013047F004079146FFF7E9BB08929F
:1042100046F2A1420023C0F600020B934FF00309BF
:1042200006927DE499F801306C2B0BBF47F0020732
:1042300047F0010799F80230914608BF09F10209D9
:10424000FFF7CEBBFB06089258D4780740F1BA813D
:10425000079E9146043656F8043C0796A3F8008062
:10426000FFF799BB089246F2D1720823C0F600020C
:104270000B934FF00309069252E446F2D1701021DD
:10428000C0F60000089247F4087706900B914FF0B3
:10429000030945E408924FF0020941E4089291466F
:1042A000FFF789BB99F8013047F010079146FFF7F7
:1042B00097BB0021082218A8FEF7DAFE17F0100BB2
:1042C00018BF0DF1540904D10798043050F8049C2C
:1042D0000790002722682B6812789B185B7803F000
:1042E0000803DBB213B9002E40F08F81BBF1000F41
:1042F00004D1099EC9F800B001360996DDF8209076
:104300004A46FFF749BB0D982146049302F050FC42
:10431000049B00287FF41DAE002E7FF423AD18E629
:10432000504621460592CDF80CC002F041FC059A9A
:10433000DDF80CC000283FF4A6ADA7E5DDF81CE0D1
:10434000AC4621680DF168090EF10402DEF8003078
:1043500015465F1C9E19087807F1FF3B19F800000D
:10436000F8B16068BB460138606011F8010BB742D4
:1043700007F8010C216014D06068002801DD0137C6
:10438000E9E7504621460493CDF80CC002F010FC3A
:10439000049BDDF80CC0002840F0728121680137D1
:1043A000D9E72A466546BBEB03073FF4FBAA099E03
:1043B0004FF0000E079201368BF800E00996A9E451
:1043C0001F46296823681A7801338A18527802F048
:1043D0000802D2B2002A7FF49DAC626801372360E4
:1043E000013ABE4262603FF495AC002AEBDC5046D5
:1043F000214602F0DDFB00287FF48CAC296823689D
:10440000E1E74B46CCEB0B09C84400208BF80000D9
:10441000099EDDF820900136079309964A46FFF77A
:10442000BBBABAF1020F7FF421AE4FF0030A80E568
:104430000021082216A8FEF71BFE17F0100718BF70
:104440004FF0000B0A9704D1079B043353F804BCC8
:10445000079300270DF5B4790C9500F011FBB842D5
:104460003FF445ABD4F800E016AD636850465946BA
:104470004A461EF801CB013B0095636009F807C06E
:104480000137C4F800E03B4600F0EAFD451C3FF46C
:104490002EAB20BB0A9D0DB9CBF800500A9DB84445
:1044A000013E002715B90BF1040B2F466368002B62
:1044B0000ADD002ED1D10C9D0A9E002E7FF41EAF86
:1044C000099E0136099619E75046214602F070FB15
:1044D0000028EED00C9D002FEED0FFF708BB023075
:1044E000E4D0DBE7324689F8006050460C990B9B1C
:1044F000069EB047BA060CD47B0740F1C880079EE1
:10450000043656F8043C07961880099E0136099631
:10451000D4E4079E043656F8043C07961860F4E786
:10452000DDF81CE0334650460122DEF8001000940E
:1045300002F05CFB079E331D00283FF4D8AA80449C
:1045400066E7002F7FF4E6ABFFF72CBA921B9B19AE
:10455000BF1962602360FFF7DDBBA9F10209504675
:10456000224608F1FF3802F0E3FA99F8001031E52D
:1045700027F4F0674FF0010A0025DAE4119E504657
:104580000A23711C01F08CFF139E821B119E0DF2F9
:10459000BB2342F270519E42C0F6010124BF0DF2CE
:1045A000BA261196119800F095FE27E50A9EDDF8CF
:1045B00048E0CEEB06035A42002B3FF41FADCDF886
:1045C0004490E3E7F9070FD4BA070DD5079E42469A
:1045D000DDF820900436D11756F8043C0796C3F84E
:1045E00000805960FFF7D7B9079EDDF820900436A8
:1045F00056F8043C0796C3F80080FFF7CCB927F4BF
:10460000F0674FF0010B002593E400F039FAB8424F
:104610003FF46DAAD4F800E05AAA636850464946B0
:104620001EF801CB013B0A9318AB00930A9B02F8DA
:1046300007C00137C4F800E063603B4600F010FD9E
:10464000431C3FF454AAB0B9C9F8000000F0D8F9EF
:10465000002846D0002F3FF449AE0DF5B47E0EEB96
:104660000706013F504616F8011D224602F060FA87
:10467000002FF6D13AE602303CD0D9F80000E5E749
:10468000BB422A4665467FF48EAEFFF730BA17F07C
:1046900001027FF43EAFBE077FF53BAF069E50465A
:1046A000DDF83CE00C9976450B9B69D001F0A8FF42
:1046B000079E043656F8043C079683E8030024E777
:1046C000371D36680590049100F072FD059A049B31
:1046D000002858D0104619460797FEF7B1F8306009
:1046E000A0E4B844013E0746BBF1000F02D109F136
:1046F00004095F466368002B3FF7ECAD5046214646
:1047000002F056FA00283FF4E5AD002F7FF4EFA940
:10471000ECE50C9DA9457FF645A94D4615F8011D10
:104720005046224602F004FA0C9EB542F6D1FFF73D
:1047300039B90A95D446109DDDF834A012E40C9DD9
:10474000A94588BF4D467FF62DA915F8011D504695
:10475000224602F0EDF90C9EB542F6D1FFF722B9E0
:104760000C9DA9457FF61EA94D4615F8011D504622
:10477000224602F0DDF90C9EB542F6D1FFF712B9E0
:1047800002F0DEF894E700F07BFD0797306049E423
:10479000002070470020704749F68961C0F600018B
:1047A00000F0DEB810B5044600235C30A181194644
:1047B000E281082223606360A36063662361636112
:1047C000A361FEF755FC43F6010043F6290143F6C9
:1047D000650243F68503C0F60000C0F60001C0F68E
:1047E0000002C0F6000324626062A162E2622363F9
:1047F00010BD00BF70B568250E4605FB01F505F13B
:104800000C0100F05DF9044648B100F10C030021F1
:1048100046602A4618462160A360FEF729FC204620
:1048200070BD00BF41F69013C0F601031868FFF792
:10483000B3BF00BF70B50446856905B170BD44F2D1
:1048400099730126C0F6000386618362C0F8D850D0
:10485000C0F8DC50C0F8E05000F01AF86060204664
:1048600000F016F8A060204600F012F804212A4655
:10487000E0606068FFF796FFA06809213246FFF705
:1048800091FFE06812210222BDE87040FFF78ABF65
:1048900041F69013C0F6010370B506461D68AB697A
:1048A000002B2AD0D8356B68AC68013B04D520E0DA
:1048B000013B68345A1C1CD0B4F90C20002AF7D1F3
:1048C00000254FF6FF7304F15C00E3816566012368
:1048D0002946A38125600822A56065602561656180
:1048E000A561FEF7C5FB6563A563A564E564204685
:1048F00070BD286828B10546D5E72846FFF79AFF1E
:10490000D0E730460421FFF775FF28600028F2D178
:104910000C2304463360EAE7704700BF704700BFCE
:10492000704700BF704700BF40F2040344F291712A
:10493000C2F20003C0F60001186800F011B800BF11
:1049400040F2040344F29571C2F20003C0F6000184
:10495000186800F005B800BF00000000000000006B
:104960002DE9F04106468846FFF7D6FFD8361AD023
:1049700000277568B468013D0DD4B4F90C30013DD1
:1049800033B1B4F90E302046013301D0C04707439C
:1049900068346B1CF1D13668002EEAD1FFF7BEFFF8
:1049A0003846BDE8F0813746F8E700BF2DE9F84307
:1049B00007468846FFF7B0FF17F1D8061DD04FF025
:1049C00000097568B468013D0FD4B4F90C30013D9D
:1049D00043B1B4F90E3021463846013302D0C04706
:1049E00049EA000968346A1CEFD13668002EE8D124
:1049F000FFF794FF4846BDE8F883B146F8E700BFEB
:104A0000FF289FBF40F2F803C2F200031B6818188A
:104A10009DBF407800F00800C0B20020704700BF82
:104A200010B514463AB142F280511046C0F6010169
:104A300000F07EFC20B942F26050C0F6010010BDCB
:104A400042F260512046C0F6010100F071FC0028DE
:104A5000F1D042F2C0512046C0F6010100F068FCDE
:104A600042F26053C0F6010300280CBF1846002034
:104A700010BD00BF40F2FC00C2F20000704700BF52
:104A800040F2FC03C2F20003186A70470048704706
:104A9000200100200020704700487047400100209E
:104AA00040F204030A46C2F2000301461868FFF709
:104AB000B7BF00BF00487047400100200000000061
:104AC0002DE9F04F01F10B04162C83B0074630D9C5
:104AD00024F00704E30F8C422CBF194643F0010178
:104AE00000292FD1384600F05BFBB4F5FC7F2ED2B5
:104AF0004FEAD40C40F27816C2F2000606EBCC0264
:104B0000D368934200F01182596803F10808DA680B
:104B1000384621F0030499681B195C68CA6044F0A8
:104B2000010491605C6000F03DFB404603B0BDE8CD
:104B3000F08F002310248C422CBF194643F0010152
:104B40000029CFD00C234FF000083B60EDE75FEA6F
:104B5000542C04BF4FEAD40C4FEA4C0540F08F8030
:104B600040F27816C2F2000606EB8505EB689D421E
:104B700006D10DE0002A80F25581DB689D4207D006
:104B8000596821F003010A1B0F2AF3DD0CF1FF3CE9
:104B90000CF1010C40F278123369C2F2000202F10A
:104BA000080E734508BFD2F8049022D0586820F050
:104BB0000300011B0F2900F384810029C2F814E0CF
:104BC000C2F810E066DAB0F5007F80F04E81C108CF
:104BD0004FF0010802EBC100891008FA01F8516892
:104BE0008568D86048EA0109C2F804909D60EB60CE
:104BF000836001224FEAAC0302FA03F34B4554D819
:104C000019EA030F0DD193402CF0030C19EA030F9E
:104C10000CF1040C05D15B000CF1040C19EA030F34
:104C2000F9D006EBCC09E0464846C268904207D16D
:104C30005BE1002980F28381D268904200F05581C7
:104C4000556825F00305291B0F29F2DD904613193D
:104C5000D56844F0010058F8084F41F0010C50604D
:104C60003846C3F804C0E560AC6073613361C3F8D3
:104C70000CE0C3F808E0595000F094FA55E7BCF195
:104C8000040F00F2DE804FEA941C0CF1380C4FEA5E
:104C90004C0565E71A1803F108083846536843F0D5
:104CA0000103536000F07EFA3FE7B5686B6823F0BC
:104CB000030A544504D8C4EB0A030F2B00F3A48065
:104CC00040F2C859D6F80814C2F2000905EB0A02EE
:104CD0000131D9F80030234408BF03F1100B06D08E
:104CE00003F580530F3323F47F6323F00F0B384613
:104CF000594601920BF024FA019A411C804600F0BB
:104D00006881824200F23181D9F8043042455B4427
:104D1000C9F8043000F06681D6F8081440F2781023
:104D2000C2F20000013117BFC2EB0802C0F80884CC
:104D30009B18C9F8043018F0070338461FBFC3F1A9
:104D40000802C3F58053904403F1080208EB0B03FB
:104D500008BF4FF480521B051B0DC3EB020B5946D5
:104D60000BF0EEF9431C00F04981C8EB00015944F7
:104D700041F00101D9F80430B54240F2C852C6F8FA
:104D800008805B44C2F20002C8F80410C9F804307D
:104D900018D0BAF10F0F40F20B81AAF10C0069682C
:104DA00020F007004FF0050C05EB000E0F2801F076
:104DB000010140EA01016960CEF804C0CEF808C0E4
:104DC00000F2208140F2C852D9F82C10C2F2000241
:104DD000B5688B42D9F8301088BFD36240F2C85210
:104DE000C2F200028B4288BF13636A6822F003029A
:104DF0009442C4EB020301D80F2B05DC38464FF078
:104E0000000800F0CFF990E62A1943F0010344F0BE
:104E1000010438466C6005F108085360B26000F088
:104E2000C1F982E65918DA689C6838464D6803F182
:104E3000080845F00105E26094604D6000F0B2F9A9
:104E400073E6BCF1140F9CBF0CF15B0C4FEA4C05F0
:104E50007FF686AEBCF1540F00F293804FEA143C0B
:104E60000CF16E0C4FEA4C057AE6420A042A75D919
:104E7000142A9CBF02F15B094FEA490508D9542A5C
:104E800000F2C9804FEA103909F16E094FEA49056D
:104E900006EB850540F27818C2F20008AA68AA421B
:104EA00079D0516821F00301884202D2926895427C
:104EB000F7D1D068D6F80490D8609A60D360836048
:104EC00097E61D1941F00106556144F00104156192
:104ED00038465C6003F10808C5F80CE0C5F808E046
:104EE0006E60695000F05EF91FE608F101080830B5
:104EF00018F0030F7FF499AE4A461CF0030FA2F19D
:104F000008010CF1FF3C00F09E8012688A42F4D048
:104F100072685B0093423FF6C8AE002B3FF4C5AE0B
:104F20001A4200F09580C4467BE603F108025B69F3
:104F30009A4208BF0CF1020C3FF42CAEE4E5904617
:104F40005519D368384658F8082F6968D36041F07E
:104F500001019A60696000F025F9E6E54FEA9019D1
:104F600009F138094FEA490592E7B54240F2781352
:104F7000C2F200033FF4C8AE9D686A6822F00302E3
:104F800036E7BCF5AA7F19D84FEAD43C0CF1770C70
:104F90004FEA4C05E4E50125D8F804104FEAA909C9
:104FA000104605FA09F545EA0109C8F8049083E7B7
:104FB00001234546C8F80430002219E740F2545353
:104FC0009C450BD84FEA944C0CF17C0C4FEA4C05F5
:104FD000C6E5B5686A6822F0030209E7FC254FF0D0
:104FE0007E0CBDE51105090D00297FF495AEB26870
:104FF0000BEB0A0141F001015160E3E601214FF0A2
:10500000000BB7E6384605F10801019205F07AF881
:10501000019A5368D6E6B2F5AA7F06D84FEAD0398E
:1050200009F177094FEA490532E740F25451FC256E
:105030008A424FF07E099EBF4FEA904909F17C09F0
:105040004FEA490524E7726822EA0302726060E7CA
:105050005B0008F1040863E70000000000000000A6
:105060002DE9F04383B015460646894698460A9FC7
:10507000B2B140F28854C2F200042468FFF7FAFC8F
:10508000019749462A46434600903046A047431CB4
:1050900003D100233B608A23336003B0BDE8F08373
:1050A00040F28853C2F200031C68FFF7E3FC42F2AF
:1050B000C05201972946C0F60102012300903046F4
:1050C000A047E4E72DE9F0470E4682B081469046BE
:1050D0001F46E9B140F2885540F20404C2F20005CF
:1050E000C2F200042D68D4F800A0FFF7C3FC0197BA
:1050F00049463246434600905046A847421C04D1D8
:10510000236800223A608A221A6002B0BDE8F08764
:1051100040F2885340F20404C2F20003C2F20004D9
:105120001D68D4F80080FFF7A5FC42F2C052019739
:105130003146C0F60102012300904046A847DDE752
:1051400082B049B15AB163B113780B601078003066
:1051500018BF012002B0704701A9002AF3D1104600
:10516000F8E76FF00100F5E72DE9F04340F28854CD
:10517000C2F2000483B00646894690461F46256861
:10518000FFF778FC0A9C494642463B468DE81100F1
:105190003046A84703B0BDE8F08300BF0000000020
:1051A000704700BF704700BF000000000000000013
:1051B00050EA010201D102207047D0F1010238BF4C
:1051C0000022B1F1004F08BF0028F4D021F00043C5
:1051D0004FF6FF71A3F58010C7F6DF71884201D842
:1051E00004207047B3F5801F01D2032070470020D0
:1051F000C7F6F070834214BF002002F00100704730
:10520000F0B402460D785E2D33D00024481C2146B0
:105210000023D4540133B3F5807FFAD17DB181F0FE
:105220000104411C545511F8013C2D2B0BD05D2B72
:1052300007D00BB9F0BC70471D460846F1E70138AE
:10524000F8E70846F6E74678B6F15D0CDCF10007B2
:1052500057EB0C07AE42B8BF47F00107002FEBD168
:1052600002305319013503F8014FAE42FADC023126
:10527000D9E701244D78881C2146C9E700000000C9
:105280000020C7F6C070704700000000000000005A
:105290000CB4F0B59DB022AC0E4602A96FF00045EB
:1052A00054F8042B4FF40277049523460795029691
:1052B0004FF6FF75ADF814700696ADF816500194D0
:1052C00002F0D6F9029B00221A701DB0BDE8F04032
:1052D00002B070470EB440F20403F0B59CB021ACAC
:1052E000C2F20003064602A954F8042B6FF00045F1
:1052F00018684FF402772346049507954FF6FF751B
:105300000296ADF814700696ADF81650019402F0AE
:10531000AFF9029B00221A701CB0BDE8F04003B048
:10532000704700BF00000000000000000000000007
:1053300080EA010212F0030F40F03A8010F00302FD
:1053400020F0030021F0030150F804CB08BF51F80E
:10535000043B0DD082F003024FEAC2026FF07F439C
:1053600023FA02F251F8043B4CEA020C43EA02032E
:10537000ACF101329C4501BF22EA0C0212F0803FE1
:1053800050F804CB51F8043BF2D04FEA0C604FEADE
:105390001C2C012828BFB0EB036F08BF1B0AF4D0F8
:1053A00003F0FF034FEA1060A0EB0300704700BF5B
:1053B00010F0030F0AD010F8012B11F8013B012A5D
:1053C00028BF9A42F4D0A2EB030070474DF8045D69
:1053D0004DF8044D4FF0010242EA022242EA024235
:1053E00001F0030C21F0030150F8044B51F8045B69
:1053F000BCF1020F26D04BD824F07F4CBCEB152F0C
:10540000A4EB020323EA04030DD113EAC21308BF7D
:1054100051F8045B0AD18CEA040CBCEB056F0CD18B
:1054200050F8044BE8E74FEA15255CE033F07F4382
:1054300052D10D784FEA146C55E04FEA146C05F028
:10544000FF0550E04FEA044CA4EB02034FEA1C4C6A
:1054500023EA0403BCEB154F17D113EAC21308BFAC
:1054600051F8045B07D18CEA040CBCEB054F08D162
:1054700050F8044BE6E71B042ED10D884FEA144C7C
:1054800031E04FEA05454FEA144C4FEA15452AE052
:1054900004F0FF0CBCEB156FA4EB020323EA04033A
:1054A0000DD113EAC21308BF51F8045B0AD18CEA8C
:1054B000040CBCEB052F0AD150F8044BE8E74FEA87
:1054C000156510E014F0FF0F06D051F8045B4FEAA9
:1054D000142C25F07F4506E04FF000005DF8044BEA
:1054E0005DF8045B70470CF0FF0205F0FF00012837
:1054F00028BF904204BF4FEA1C2C2D0AF3D0A2EB28
:1055000000005DF8044B5DF8045B7047000000008C
:105510002DE9F04F9DB08C468346109262460020E4
:105520000021CDF85CC0CDE90601114612F8013B1F
:105530002D2B00F24781DFE813F0310145014501D1
:1055400045014501450145014501450164016401ED
:1055500064016401640145014501450145014501BE
:10556000450145014501450145014501450145010B
:1055700045014501450145014501640145014501DC
:1055800045014501450145014501450145014501EB
:105590002E0145012E00012512954E1C17964B78C1
:1055A00099469A46002B00F0FC80302B18BF4FF034
:1055B000000900F010812F2B1D464FF0000A40F328
:1055C000F984392B00F3F684721C5746544601E0E7
:1055D000392B18DC07EB8701082C03EB4101D8BFFE
:1055E000A1F1300707DD0AEB8A010F2C03EB410321
:1055F000D8BFA3F1300A1792904612F8013B01344C
:105600002F2B1D46E4DC5846CDF810C0FFF744FAB6
:10561000016858460591FFF73FFA0068FEF738F930
:1056200005990246404606F023F9DDF810C0804691
:10563000002800F042810020A0460146099025F094
:105640002003452B40F0DF8048EA000353EA0903BA
:1056500000F01D81DDF85CC00CF1010317939CF88C
:1056600001502B2D00F0AB842D2D00F03D83002246
:105670000A92A5F13003092B00F22C84302D06D1BB
:10568000179B0133179313F8015B302DFAD0A5F166
:105690003103082B00F2B780179A303D0D95531C4B
:1056A000179355780B922F2D16DD392D14DC931C92
:1056B0000C910D9A01E0392D0BDC1793194602EB82
:1056C0008202013305EB420213F8015C303A2F2DC0
:1056D000F1DC0B460C990D920B9A9B1A082BC8BF54
:1056E00044F61F6205DC0D9A44F61F639A42A8BF78
:1056F0001A460A9B03B15242B8F1000F00F08880AD
:10570000099D3846002C08BF44460A94521B099252
:10571000FCF7E0FDB8F1100FB4BFC1464FF010091F
:10572000B9F1090F02460B46CDE9062316DD41F615
:10573000D033C0F6010303EBC90353E91223FCF78E
:105740003FFE044650460D46FCF7C4FD02460B469C
:1057500020462946FCF782FCCDE90601B8F10F0F7F
:1057600000F3F280099C002C00F0A28040F39185A8
:10577000099D162D00F3458541F6D031DDE906235C
:10578000C0F6010101EBC501D1E90001FCF718FEEB
:1057900081468A4609E000241294FEE64FF0000993
:1057A000CA460024CDF85CC01294109C0CB1179B23
:1057B0002360129D0DB10AF1004A484651461DB0C2
:1057C000BDE8F08F0025302B0E46129518BF4FF024
:1057D00000097FF4F0AE7378582B00F08383721CBD
:1057E000782B00F07F831646179212F8013B302B7E
:1057F000F9D04FF00109002B7FF4DDAE99469A46AF
:10580000D3E7179291E60022B8F1000F7FF478AF4A
:1058100050EA09004CD1002939D1493D252D36D80F
:10582000DFE815F06A023500350035003500260046
:1058300035003500350035003500350035003500C0
:1058400035003500350035003500350035003500B0
:1058500035003500350035003500350035003500A0
:10586000350035006A023500350035003500260068
:105870005348179A10F8011F134669B15B7801323B
:10588000402B02DD5A2BD8BF20338B42F2D0DDF8FB
:105890001890DDF81CA084E7531C17935378282B2D
:1058A00000F07585002306931C46CFF6F874079424
:1058B000DDF81890DDF81CA077E75846179DFFF734
:1058C000EBF80068FDF7E4FFDDF810C02B18179324
:1058D0002D5C002C40F09B81302D204605D10133FA
:1058E000179301301D78302DF9D0A5F13103082B25
:1058F00000F29A81179E4FF000080990A5F130013F
:1059000001200A96002900F06C83099A01280244BC
:10591000099200F0328508EB00024346013ACDF8C7
:105920002C80904603E06F00434500F04B83013329
:1059300007EB87055A1E082AF5DD0AEB8A02102BB1
:10594000D8BF4FEA420AEFE7099DC9EB080905EB0A
:105950000904002C40F3DE8314F00F000DD041F653
:10596000D031DDE90623C0F6010101EBC001D1E928
:105970000001FCF725FDCDE9060134F00F0440F0ED
:105980005F81DDF81890DDF81CA00B940097584655
:1059900031460A9A434605F091F9099D002D119070
:1059A000C0F2728400240D94099D119C25EAE575CE
:1059B000CDF824900C340E951394CDF828A073E004
:1059C0009B2501080F9B002B00F0A8814FF00009D8
:1059D0000025DDF81CC00024C3F6F075C3F6F0798D
:1059E000CDF830804FF000084346C7F6F078C7F690
:1059F000E0730CEA0808984500F0C5810B9AB8F1ED
:105A0000D46F8CBF00230123002A08BF0023EBB111
:105A10000C98494688A3D3E9002306F0ABFF88B170
:105A20000C98494606F0C4FF002800F04682FCF7B7
:105A300051FC89460C900F9C09F1004304B14B4680
:105A40000C9C1D4605F1D663C8EB030509980A991D
:105A500005F0B4FB02460B4620462946FCF7B0FC95
:105A600002460B4609980A99FCF7F8FACDE90601B7
:105A7000079C09900A910B9D35B90023C7F6F07376
:105A80002340984500F0BC815846189905F0B6F8B7
:105A90005846514605F0B2F85846394605F0AEF87A
:105AA0005846314605F0AAF8119C584616AD616873
:105AB00005F06EF8236913999A1C920082460C3007
:105AC000FDF716FA099A0A9B19A800950190584605
:105AD00005F0EEFB01211890584605F087F9169A5B
