:020000040800F2
:100000000020002051160008411700084117000881
:100010004117000841170008411700084117000860
:100020004117000841170008411700087117000820
:10003000411700084117000841170008711800080F
:100040004117000841170008411700084117000830
:100050004117000841170008411700084117000820
:10006000411700084117000841170008712E0008C9
:10007000A12E0008D12E0008012F0008312F000802
:10008000612F0008912F0008013600084117000871
:1000900041170008411700084117000841170008E0
:1000A00041170008C137000841170008F137000860
:1000B00041170008411700084117000841170008C0
:1000C00041170008411700084117000841170008B0
:1000D00041170008411700084117000841170008A0
:1000E0004117000841170008411700084117000890
:1000F000913700084117000841170008C12F000878
:10010000411700084117000841170008411700086F
:10011000411700084117000841170008411700085F
:10012000F12F00082130000851300008813000080C
:10013000B1300008411700084117000841170008B6
:10014000411700084117000841170008D13D000879
:10015000E130000811310008413100084117000862
:10016000411700084117000841170008411700080F
:1001700041170008411700084117000841170008FF
:080180004117000841170008B7
:100190002DE9F047B34CB44B20680022C16B2DED24
:1001A000028B5A608D6BADF5425D25F400268AB056
:1001B0008E6302F01DF905F003FA01F0D1FBAB48A4
:1001C00002F0A6FA2146A94802F0CAFA4FF47A7062
:1001D00001F01EFE2068A64902F09AFB2768FB6B1F
:1001E0009A6B42F400249C63A04ED6F85402016836
:1001F0000D78042D03D0142001F00AFEF4E7002747
:100200009C4D9D4B00974FF4DC7140229B4801F0C0
:10021000D7FD0FCD0DAC0FC495E807000DF5E478C0
:1002200084E807009649782214A806F051FF394661
:1002300042F6E062404606F0F3FF30469149924AAA
:1002400004F0A6F802F0B4F890490246304604F0F3
:100250009FF830468E4904F09BF830468D4904F0F3
:1002600097F8304614A904F093F832A83946FF22D3
:1002700006F0D6FFB3EE0E7AF7EE007A4FF0FF33BA
:1002800001268DED067ACDED077A059334463D467D
:10029000F0EE478AB0EE678A744F32AA386802EBF4
:1002A0000509D0F81CC049463846FF226423E047C0
:1002B0005FFA80FABAF1000F05D0384676494A460F
:1002C00004F066F800240AEB0501CDB21CB101343C
:1002D000E4B2632C08D832AB5A1912F8017C0D2F06
:1002E00004D00A2FD8D101E0642C3BD007AE06AB76
:1002F0006A49009605AA32A807F0DAFD059A68490E
:1003000005465A4804F044F8069800F015FB0246EA
:100310000B465648634904F03BF8079800F00CFB85
:1003200002460B465148604904F032F8E8B203280F
:100330000DD105994B1C052B09D8059C022C9DED70
:10034000060A12D1F2EE0E0AB4EEE00A0FE04748B8
:10035000564904F01DF80026444814A904F018F882
:10036000354699E7002E97D0E7E7B4EEE80AF1EEBC
:1003700010FA0EDD3D484E4904F00AF8059AB2EE37
:100380000E1A022AF3EE0E1A18BFB0EE611A8DEDA6
:10039000061A9DED062ADFED472A22EE223AF2EEFA
:1003A000043A83EE234A42F6E066FCEEC44A14EEB9
:1003B000907ABCB2B6EB840F05D22C483E4903F0CC
:1003C000E7FF40F6B83403230625600005999DED4C
:1003D000071AB4FBF5F690FBF3F7B4FBF3FE6508E0
:1003E0004346002290B2A0426CD2042910D00329C7
:1003F00009D1A01AB0420BDBA84202DA4FF07C50C0
:100400000AE0B84203E0022908D1A01A704502DAD6
:1004100083ED001A23E02948186020E0B1F1FF3F86
:1004200012D102EE100A03EE104AA84271EE011A30
:10043000F8EE422AF8EE433A09D261EEA25AC5EE2E
:10044000A36AC3ED006A0AE00129EAD007E082EE60
:10045000A34A78EE444A21EEA45A83ED005A0132B1
:100460000433BFE7A00B010800380140C0AF0020F3
:10047000C00A0108E00401087146000808AE002027
:100480007B090108F8070108200801082C08010869
:100490004A08010884080108DA080108DD08010893
:1004A000E6080108F1080108F7080108FF0801083B
:1004B0001D09010800007A4447090108CDCC4C3ED3
:1004C000CDCC4C3E0DA804F0E3FC04F091FDFF20E0
:1004D00005F046F91FED065A8DED075AB0EE458A34
:1004E00057480799002201F0A3FD0028F8D055488D
:1004F00003A94FF0FF3201F0CBFDDDED035A75EE9D
:10050000C86A9FED517AB0EEE66AB4EEC76AF1EEC2
:1005100010FAE5D4F5EE405AF1EE10FAE0D004F00E
:10052000E7FD484801F044FD00274849282202FB26
:100530000710013701F03CFD052FF6D100252F46AD
:100540002E463F4858F82710002201F071FD38B9B7
:1005500001370120A74208BF002701F059FCF0E74E
:1005600003A94FF0FF32374801F092FD384804A943
:100570004FF0FF3201F08CFD4FF0000A334B282082
:100580000DF1200900FB0A3009EB8A014FF0FF3220
:100590000AF1010A01F07CFDBAF1050FEED107EE78
:1005A000906A9FED2C0AF8EE678A4FF0000AC8EEB9
:1005B000800A10EE900A00F0BFF902460B4626486A
:1005C000264903F0E5FE039800F0B6F902460B4613
:1005D0002148224903F0DCFE049800F0ADF9024600
:1005E0000B461D481E4903F0D3FE59F80A201A484D
:1005F0001C490AF1040A03F0CBFEBAF1140FF4D13E
:100600001949154803F0C4FE022001F001FC0599C8
:100610000136042995D1C823B6FBF3F203FB12601F
:1006200000288ED1042D02D80135EDB200E0054638
:10063000012101FA05F1C8B205F092F881E700BF87
:1006400048B2002068FA0020CDCC4C3D84E8002060
:100650004CE900205655E942C0AF0020710901085D
:10066000F3080108760901081A09010800000000D2
:1006700081F0004102E000BF83F0004330B54FEA53
:1006800041044FEA430594EA050F08BF90EA020FC0
:100690001FBF54EA000C55EA020C7FEA645C7FEA53
:1006A000655C00F0E2804FEA5454D4EB5555B8BF76
:1006B0006D420CDD2C4480EA020281EA030382EAE7
:1006C000000083EA010180EA020281EA0303362D79
:1006D00088BF30BD11F0004F4FEA01314FF4801C4C
:1006E0004CEA113102D0404261EB410113F0004F5E
:1006F0004FEA03334CEA133302D0524263EB430315
:1007000094EA050F00F0A780A4F10104D5F1200EB2
:100710000DDB02FA0EFC22FA05F2801841F100010D
:1007200003FA0EF2801843FA05F359410EE0A5F1E1
:1007300020050EF1200E012A03FA0EFC28BF4CF012
:10074000020C43FA05F3C01851EBE37101F00045C8
:1007500007D54FF0000EDCF1000C7EEB00006EEBD5
:100760000101B1F5801F1BD3B1F5001F0CD349085F
:100770005FEA30004FEA3C0C04F101044FEA4452B6
:1007800012F5800F80F09A80BCF1004F08BF5FEA3D
:10079000500C50F1000041EB045141EA050130BD1D
:1007A0005FEA4C0C404141EB010111F4801FA4F1C0
:1007B0000104E9D191F0000F04BF01460020B1FA15
:1007C00081F308BF2033A3F10B03B3F120020CDA4D
:1007D0000C3208DD02F1140CC2F10C0201FA0CF02B
:1007E00021FA02F10CE002F11402D8BFC2F1200C90
:1007F00001FA02F120FA0CFCDCBF41EA0C01904046
:10080000E41AA2BF01EB0451294330BD6FEA04048E
:100810001F3C1CDA0C340EDC04F11404C4F1200279
:1008200020FA04F001FA02F340EA030021FA04F38B
:1008300045EA030130BDC4F10C04C4F1200220FAE2
:1008400002F001FA04F340EA0300294630BD21FA20
:1008500004F0294630BD94F0000F83F4801306BFE6
:1008600081F480110134013D4EE77FEA645C18BFDA
:100870007FEA655C29D094EA050F08BF90EA020F71
:1008800005D054EA000C04BF1946104630BD91EA69
:10089000030F1EBF0021002030BD5FEA545C05D16C
:1008A0004000494128BF41F0004130BD14F58004AB
:1008B0003CBF01F5801130BD01F0004545F0FE411F
:1008C00041F470014FF0000030BD7FEA645C1ABF54
:1008D000194610467FEA655C1CBF0B46024650EA8B
:1008E000013406BF52EA033591EA030F41F40021B7
:1008F00030BD00BF90F0000F04BF0021704730B53D
:100900004FF4806404F132044FF000054FF0000111
:1009100050E700BF90F0000F04BF0021704730B5D2
:100920004FF4806404F1320410F0004548BF4042A7
:100930004FF000013EE700BF42004FEAE2014FEAFC
:1009400031014FEA02701FBF12F07F4393F07F4FD7
:1009500081F06051704792F0000F14BF93F07F4F09
:10096000704730B54FF4607401F0004521F000414C
:1009700020E700BF50EA010208BF704730B54FF0D2
:1009800000050AE050EA010208BF704730B511F0D7
:10099000004502D5404261EB41014FF4806404F10F
:1009A00032045FEA915C3FF4DCAE4FF003025FEA91
:1009B000DC0C18BF03325FEADC0C18BF033202EB19
:1009C000DC02C2F1200300FA03FC20FA02F001FA73
:1009D00003FE40EA0E0021FA02F11444C1E600BF12
:1009E00070B54FF0FF0C4CF4E06C1CEA11541DBFC5
:1009F0001CEA135594EA0C0F95EA0C0F00F0DEF890
:100A00002C4481EA030621EA4C5123EA4C5350EA74
:100A1000013518BF52EA033541F4801143F48013C5
:100A200038D0A0FB02CE4FF00005E1FB02E506F056
:100A30000042E0FB03E54FF00006E1FB03569CF0AB
:100A4000000F18BF4EF0010EA4F1FF04B6F5007FB1
:100A500064F5407404D25FEA4E0E6D4146EB060623
:100A600042EAC62141EA55514FEAC52040EA5E50AC
:100A70004FEACE2EB4F1FD0C88BFBCF5E06F1ED856
:100A8000BEF1004F08BF5FEA500E50F1000041EB8D
:100A9000045170BD06F0004646EA010140EA02003A
:100AA00081EA0301B4EB5C04C2BFD4EB0C0541EA5C
:100AB000045170BD41F480114FF0000E013C00F371
:100AC000AB8014F1360FDEBF002001F0004170BD95
:100AD000C4F10004203C35DA0C341BDC04F11404AE
:100AE000C4F1200500FA05F320FA04F001FA05F23A
:100AF00040EA020001F0004221F0004110EBD37007
:100B000021FA04F642EB06015EEA430E08BF20EA32
:100B1000D37070BDC4F10C04C4F1200500FA04F3D5
:100B200020FA05F001FA04F240EA020001F0004167
:100B300010EBD37041F100015EEA430E08BF20EADA
:100B4000D37070BDC4F1200500FA05F24EEA020E22
:100B500020FA04F301FA05F243EA020321FA04F051
:100B600001F0004121FA04F220EA020000EBD37008
:100B70005EEA430E08BF20EAD37070BD94F0000F08
:100B80000FD101F00046400041EB010111F4801F3C
:100B900008BF013CF7D041EA060195F0000F18BFED
:100BA000704703F00046520043EB030313F4801F29
:100BB00008BF013DF7D043EA0603704794EA0C0FE3
:100BC0000CEA135518BF95EA0C0F0CD050EA4106F9
:100BD00018BF52EA4306D1D181EA030101F0004176
:100BE0004FF0000070BD50EA410606BF104619469E
:100BF00052EA430619D094EA0C0F02D150EA0136AA
:100C000013D195EA0C0F05D152EA03361CBF1046EA
:100C100019460AD181EA030101F0004141F0FE4189
:100C200041F470014FF0000070BD41F0FE4141F40D
:100C3000780170BD70B54FF0FF0C4CF4E06C1CEA0D
:100C400011541DBF1CEA135594EA0C0F95EA0C0FC2
:100C500000F0A7F8A4EB050481EA030E52EA03357D
:100C60004FEA013100F088804FEA03334FF080559E
:100C700045EA131343EA12634FEA022245EA1115CB
:100C800045EA10654FEA00260EF000419D4208BF7C
:100C9000964244F1FD0404F5407402D25B084FEA29
:100CA0003202B61A65EB03055B084FEA32024FF4D5
:100CB00080104FF4002CB6EB020E75EB030E22BF32
:100CC000B61A754640EA0C005B084FEA3202B6EBF2
:100CD000020E75EB030E22BFB61A754640EA5C00A1
:100CE0005B084FEA3202B6EB020E75EB030E22BF31
:100CF000B61A754640EA9C005B084FEA3202B6EB32
:100D0000020E75EB030E22BFB61A754640EADC00F0
:100D100055EA060E18D04FEA051545EA16754FEA52
:100D200006164FEAC30343EA52734FEAC2025FEA70
:100D30001C1CC0D111F4801F0BD141EA00014FF0FF
:100D400000004FF0004CB6E711F4801F04BF0143D0
:100D50000020B4F1FD0C88BFBCF5E06F3FF6AFAEEC
:100D6000B5EB030C04BFB6EB020C5FEA500C50F17C
:100D7000000041EB045170BD0EF0004E4EEA1131FF
:100D800014EB5C04C2BFD4EB0C0541EA045170BD06
:100D900041F480114FF0000E013C90E645EA060E4A
:100DA0008DE60CEA135594EA0C0F08BF95EA0C0F78
:100DB0003FF43BAF94EA0C0F0AD150EA01347FF4C0
:100DC00034AF95EA0C0F7FF425AF104619462CE797
:100DD00095EA0C0F06D152EA03353FF4FDAE1046FA
:100DE000194622E750EA410618BF52EA43067FF44B
:100DF000C5AE50EA41047FF40DAF52EA43057FF4DB
:100E0000EBAE12E700000000000000000000000050
:100E10004FEA410212F5001215D211D56FF4787322
:100E2000B3EB625212D94FEAC12343F0004343EAC5
:100E3000505311F0004F23FA02F018BF40427047A0
:100E40004FF00000704750EA013005D111F000402A
:100E500008BF6FF0004070474FF00000704700BFC0
:100E60004FEA4102B2F1E04324BFB3F5001CDCF1CC
:100E7000FE5C0DD901F0004C4FEAC0024CEA507004
:100E8000B2F1004F40EB830008BF20F00100704733
:100E900011F0804F21D113F13872BCBF01F0004036
:100EA000704741F480114FEA5252C2F11802C2F168
:100EB000200C10FA0CF320FA02F018BF40F00100E9
:100EC0004FEAC1234FEAD32303FA0CFC40EA0C009B
:100ED00023FA02F34FEA4303CCE77FEA625307D1D8
:100EE00050EA01331EBF4FF0FE4040F4400070470F
:100EF00001F0004040F0FE4040F40000704700BFA9
:100F00004FF0FF3C06E000BF4FF0010C02E000BFD5
:100F10004FF0010C4DF804CD4FEA410C7FEA6C5CB8
:100F20004FEA430C18BF7FEA6C5C1BD001B050EA5B
:100F3000410C0CBF52EA430C91EA030F02BF90EA46
:100F4000020F0020704710F1000F91EA030F58BF05
:100F5000994208BF90422CBFD8176FEAE37040F067
:100F6000010070474FEA410C7FEA6C5C02D150EA05
:100F7000013C07D14FEA430C7FEA6C5CD6D152EAC0
:100F8000033CD3D05DF8040B704700BF8446104685
:100F900062468C461946634600E000BF01B5FFF784
:100FA000B7FF002848BF10F1000F01BD4DF808ED54
:100FB000FFF7F4FF0CBF012000205DF808FB00BF25
:100FC0004DF808EDFFF7EAFF34BF012000205DF87F
:100FD00008FB00BF4DF808EDFFF7E0FF94BF0120CC
:100FE00000205DF808FB00BF4DF808EDFFF7CEFFCD
:100FF00094BF012000205DF808FB00BF4DF808ED0C
:10100000FFF7C4FF34BF012000205DF808FB00BFDC
:101010004A0011D212F5001211D20DD56FF4787377
:10102000B3EB62520ED44FEAC12343F0004343EACC
:10103000505323FA02F070474FF00000704750EA17
:10104000013002D14FF0FF3070474FF00000704781
:101050004BB942B9002908BF002802D04FF0FF3138
:10106000084600F03DB882B0EC462DE9005000F093
:101070001DF8DDF804E002B00CBC70470000000071
:10108000F8B5164604460D461F4600F031F806FB3B
:1010900001F300FB0737A6FB0023FB18A21A65EB40
:1010A0000303069CC4E90023F8BD00BFF8B516464B
:1010B00004460D461F4600F07BF900FB07F7A0FB36
:1010C000062306FB0177FB18A21A65EB0303069CB7
:1010D000C4E90023F8BD00BF0000000000000000CC
:1010E000704700BF0000000000000000000000008A
:1010F00000292DE9F00F1D46C0F29D800024002D2F
:10110000C0F2948080460F4694461E46E3BB8A4256
:1011100055D9B2FA82F747B1C7F1200520FA05F692
:1011200001FA07F1BA403143B840170CB1FBF7F6AA
:10113000030C1FFA82FC07FB16110CFB06F543EAB1
:1011400001439D4208D9711E9B1880F013819D4276
:1011500040F21081023E9B18591BB1FBF7F507FBCB
:10116000151380B20CFB05FC40EA03418C4507D9FE
:101170006B1E8A1880F00081944540F2FD80023D8C
:1011800045EA0641002503E08B420CD9002529469B
:101190000A462B4614B1524263EB430310461946EC
:1011A000BDE8F00F7047B3FA83F5002D40F087805B
:1011B0008B4201D38242EAD800250121E8E712B927
:1011C0000126B6FBF2F2B2FA82F6002E39D18E1A5F
:1011D000130C1FFA82FC0125B6FBF3F703FB176122
:1011E0004FEA10490CFB07F849EA0146B04506D919
:1011F000791EB61802D2B04500F2D3800F46C8EB74
:101200000606B6FBF3F103FB116380B20CFB01FC95
:1012100040EA03439C4506D94E1E9A1802D29445D3
:1012200000F2C280314641EA0741B1E7E44352424D
:1012300063EB430366E7404261EB41014FF0FF344B
:101240005DE7B240C6F1200921FA09F720FA09F555
:10125000130C01FA06F1B7FBF3F845EA01091FFA8E
:1012600082FC03FB18774FEA19410CFB08F541EAB1
:101270000747B040BD420AD9BF1808F1FF3680F0D9
:101280008E80BD4240F28B80A8F10208BF18791B06
:10129000B1FBF3F503FB15171FFA89F90CFB05F6F3
:1012A00049EA07418E4206D96F1E891871D28E42D3
:1012B0006FD9023D89188E1B45EA08458CE7C5F1B8
:1012C000200122FA01F306FA05F61E4327FA01F27D
:1012D0004FEA164907FA05F720FA01F1B2FBF9F8CF
:1012E0000F433B0C1FFA86FA09FB18220AFB08FB86
:1012F00043EA024293450CFA05FC08D9921908F119
:10130000FF314AD2934548D9A8F102089219CBEB94
:101310000203B3FBF9F109FB1132BFB20AFB01FA78
:1013200047EA02439A4506D94A1E9B1933D29A4589
:1013300031D902399B1941EA08410F0C1FFA8CF888
:1013400008FB07F68AB24FEA1C4C08FB02F80CFBBC
:10135000026202EB18420CFB07FC964288BF0CF5B8
:10136000803CCAEB03030CEB124C63450ED305D053
:1013700000250DE70E46EFE61D4601E71FFA88F847
:1013800000FA05F008EB0245A842F1D20139002528
:10139000FEE63D468FE71146CDE78846B7E7B04603
:1013A00075E7023FB6182AE702393CE70000000063
:1013B0002DE9F007144605460E46002B3DD18A4222
:1013C00049D9B2FA82F747B1C7F1200120FA01F2F8
:1013D00006FA07F6BC401643BD40220CB6FBF2F0FD
:1013E0002F0CA1B202FB106601FB00F347EA064690
:1013F000B34208D9471E361980F0F880B34240F254
:10140000F58002383619F61AB6FBF2F302FB1362C6
:10141000ADB201FB03F145EA0242914207D95E1EDB
:10142000121980F0E580914240F2E280023B43EAEB
:1014300000400021BDE8F00770478B4243D8B3FA63
:1014400083F4002C42D18B4202D3824200F2DF802F
:1014500000210120EEE712B90127B7FBF2F4B4FA3C
:1014600084F2002A40F088800A1B230CA7B20121D5
:10147000B2FBF3F603FB16224FEA154C07FB06F00E
:101480004CEA0242904207D9121906F1FF3C02D2FF
:10149000904200F2CE806646121AB2FBF3F003FBD4
:1014A0001023ADB207FB00F745EA03439F4207D97B
:1014B000421E1B1980F09E809F4240F29B800238A2
:1014C00040EA0640B6E700210846B3E7C4F120062B
:1014D00022FA06F503FA04F32B434FEA134C21FAE0
:1014E00006F501FA04F120FA06F6B5FBFCF746EA28
:1014F000010A1FFA83F80CFB17554FEA1A4108FB43
:1015000007F941EA0545A94502FA04F203D97E1E0E
:10151000ED187FD33746C9EB0501B1FBFCF60CFB98
:1015200016151FFA8AFA08FB06F84AEA05418845AB
:1015300003D9751EC91873D32E4646EA0746370CE1
:101540001FFA82FC0CFB07F5120CB3B20CFB03FC78
:1015500002FB035303EB1C4302FB07F29D4288BFCF
:1015600002F58032C8EB010102EB134291424BD3EA
:1015700042D0304600215DE79440C2F1200521FAB7
:1015800005F6230C20FA05F701FA02F1B6FBF3FC8D
:1015900039430D0CA7B203FB1C6645EA064607FB60
:1015A0000CF8B04500FA02F508D936190CF1FF30F5
:1015B0003DD2B0453BD9ACF1020C3619C8EB06025E
:1015C000B2FBF3F003FB10268AB242EA064207FBA5
:1015D00000F1914206D9461E121926D2914224D911
:1015E00002381219521A40EA0C4141E738460AE71C
:1015F00033461CE7104663E71FFA8CFC00FA04F040
:101600000CEB03439842B4D2701E002112E721462E
:1016100020460FE7A9457FF67DAF023FED187AE738
:10162000884589D9023EC91887E73046DAE78446FB
:10163000C4E7023E12192FE700000000000000007E
:10164000FEE70000000000000000000000000000B5
:1016500072B62A4B83F3098829484FF04042A0F51F
:10166000D67102600C6844F470030B600020E1EE58
:10167000100A244A0621106081F31488BFF36F8F8B
:101680002149224CA14204D24FF0553441F8044B79
:10169000F7E71F4B1948834204D24FF0553243F805
:1016A000042BF7E702F03CFE00201A4A1A4984187E
:1016B0008C4204D21949445884500430F5E7184B41
:1016C0001848834203D2002243F8042BF8E702F0C3
:1016D000B7FF154C154B9C4203D254F8040B8047BE
:1016E000F8E7FEF755FD124C124A944203D254F823
:1016F000041B8847F8E7FFF7A3FF00BF00A0002006
:1017000034EF00E03CEF00E000000020002000206B
:101710000020002000A00020E0A80020B014010854
:10172000E0A8002008FE00208801000888010008C9
:101730008801000888010008000000000000000087
:10174000FEE70000000000000000000000000000B4
:1017500072B6FEE70000000000000000000000007C
:1017600000F0D6FA00DF00000000000000000000DA
:10177000EFF30982064BD2F8CC10596098686830B4
:101780009860683282F30988002383F311887047D8
:1017900030EF00E00000000000000000000000004A
:1017A00008B50A480A4B00229A601021D860072029
:1017B00000F0AEF80A204FF4007100F0A9F80B20F9
:1017C0008021BDE8084000F0A3B800BF0003FA057F
:1017D00000ED00E00000000000000000000000003C
:1017E000202383F311881A4B586810F400632BD020
:1017F000EFF30983A3F1680282F30988154A4FF0D9
:10180000807143F84C1C9169126891F8230092682A
:10181000896820B18A4294BF0022012203E08A42F3
:1018200034BF002201222AB10B4943F8501CF1EECB
:1018300010FA02E0094843F8500C094A506858660B
:1018400040F001035360704783F31188704700BF75
:1018500000ED00E08CAA0020611700086417000862
:1018600030EF00E000000000000000000000000079
:1018700008B5202383F3118800F0AAF8002383F32E
:101880001188BDE80840FFF7ABBF00000000000072
:101890002DE9F04F2DED108AC1F80CD0D0F80CD006
:1018A000BDEC108ABDE8F08F0000000000000000D1
:1018B000002383F311882846A04700F0D9FA704727
:1018C00082080F4BC03270B500F0030453F8226059
:1018D000E400FF2505FA04F501FA04F126EA0505FE
:1018E0000D4343F822500121420900F01F0001FA84
:1018F00000F002F1600143F8210043F8220070BDBE
:1019000000E100E000000000000000000000000016
:101910008208094B063200F0030030B5C00053F8CE
:101920002250FF2404FA00F425EA040401FA00F12D
:101930000C4343F8224030BD00ED00E00000000001
:10194000024B034A9869826130BFFDE78CAA0020F0
:101950004005010800000000000000000000000039
:1019600007B5FFF71DFF00F0ABF800F069F800F0D5
:10197000DFFC00F02DFD40210C4800F0D9F90C49A6
:101980000C4B88610122C36180F82020002383F37F
:10199000118862B608488969886100934FF4A47180
:1019A000064B074800F00CFA0EBD00BFE0A800206F
:1019B0008CAA0020002000206005010841190008C1
:1019C00030A900200000000000000000000000001E
:1019D00010B5134B986990F8232012B1511E80F86E
:1019E0002310436A5A1C42620E48C16802684B1CAD
:1019F0008242C36013D09068411E916009490A6811
:101A0000936863B91068D4684160D360086083F359
:101A100011881069A047202383F31188EEE710BDD9
:101A20008CAA00207CAA002000000000000000001A
:101A3000014B1860FFF78CBE78AA00200000000060
:101A4000044B4FF0FF3200205B601B609A60D8604F
:101A5000704700BF7CAA00200000000000000000CA
:101A600003610A4BC2601B689A688A4201D2891AD4
:101A7000F9E75A680360426010605860816003486B
:101A8000834202D09A68511A996070477CAA00205C
:101A90000368074A934203D099688268891899605D
:101AA00042681360036800215A60C160704700BF3C
:101AB0007CAA0020000000000000000000000000E0
:101AC000034B00225B601B609A605B611B61704787
:101AD0008CAA0020000000000000000000000000B0
:101AE000002380F820308168054B1B689A688A4281
:101AF000FBD259680360416008605860704700BFBE
:101B00008CAA00200000000000000000000000007F
:101B100008B5202383F3118890F82030032B07D0D9
:101B200001D8A3B10DE0052B06D00D2B09D103E0A0
:101B3000836A9A68511C996090E80C001A600268E8
:101B400053604FF0FF338362FFF7CAFF002383F334
:101B5000118808BD00000000000000000000000027
:101B600038B50F4B9C6984F820001868142201686E
:101B700084F823200125E26980F820504B609861A9
:101B8000ADF16400824219601D4602D90548FFF795
:101B90004FFFA8692146BDE83840FFF779BE00BF76
:101BA0008CAA002050050108000000000000000081
:101BB00010B54B1C86B004460ED00B4B0B4A9B69EC
:101BC00001A8FFF74DFF2046FFF7CAFF049828B190
:101BD00001A8FFF75DFF01E0FFF7C2FF02498A6934
:101BE000906A06B010BD00BF8CAA0020111B00082F
:101BF00070B5114E8162B36981689A68914204465A
:101C000003D8BDE87040FFF76BBF1846FFF768FFC9
:101C10000546ADF16401EB69B46101208B4284F8A3
:101C2000200002D90548FFF703FF20462946BDE8FA
:101C30007040FFF72DBE00BF8CAA002050050108A0
:101C400038B50F4C2368A5691A6801201421546027
:101C500083F8200085F8231028462260A361FFF74F
:101C60003FFFEB69ADF16402934202D90548FFF7EB
:101C7000DFFEA0692946BDE83840FFF709BE00BF76
:101C80008CAA0020500501080000000000000000A0
:101C9000134B1A6810B511689C69196001204B60DC
:101CA00082F820009A61A168002284F820201B6835
:101CB00098688842FBD85A68236062605C60E36978
:101CC0001460ADF164018B4202D90648FFF7B0FE03
:101CD000034880692146BDE81040FFF7D9BD00BF29
:101CE0008CAA002050050108000000000000000040
:101CF000044B1A68986991688368994201D9FFF783
:101D0000C7BF70478CAA0020000000000000000040
:101D1000044B986990F8231009B9FFF791BFFFF7BA
:101D2000B7BF00BF8CAA0020000000000000000028
:101D3000022280F82020002280F821200264C26361
:101D4000426282610C4A81604164012180F8221064
:101D50005169026110B54161506100F12C021424F7
:101D60000861C26200F1300100F14C0280F82340AA
:101D700041630163C26110BD8CAA00200000000015
:101D8000884202D200F8012BFAE7704700000000F9
:101D90006439411810B5C1600B64029B4B64044B5D
:101DA00004460B661146BDE81040FFF7C1BF00BFF7
:101DB000B118000800000000000000000000000052
:101DC00073B51E4600F14C050024FF230355013472
:101DD0004C2CFAD143189D4203D2552405F8014BEF
:101DE000F9E7202383F31188069B00933346FFF71E
:101DF000CFFF00210446FFF7FBFE002383F3118889
:101E000020467CBD00000000000000000000000033
:101E100008B50146202383F311880620FFF7C8FE8A
:101E2000002383F3118808BD0000000000000000BB
:101E30000D4B10B59C69A062214651F82C0F8842C9
:101E400004D00368E362FFF74BFEF5E794F8210046
:101E5000830704D1636922691A6121694B610E20ED
:101E6000BDE81040FFF77CBE8CAA002000000000F7
:101E7000202383F31188FFF7DBBF00000000000080
:101E800040600060816070470000000000000000BA
:101E900038B58568816004460135002D09DC60682D
:101EA000436863601C60FFF71BFE6FF001018162F5
:101EB000F2E738BD00000000000000000000000054
:101EC00083685A1E002A10B50C46826011DA19B9CF
:101ED00083604FF0FF3010BD074B9B6998624268EA
:101EE00018605A60436003201360BDE81040FFF79C
:101EF0005FBE002010BD00BF8CAA002000000000C3
:101F000082680346501C0028986007DC1868016846
:101F100019604B6000238362FFF7E2BD7047000049
:101F200000234060006083607047000000000000F4
:101F300008B5C36B90F820201943082AC16303D168
:101F4000826A114206D108BD092A07D1836A194065
:101F5000994203D1FFF7C4FD0021816208BD000052
:101F600070B5046805460E46AC4208D0E368606868
:101F7000A1683343E360FFF7DBFF2468F4E770BD3B
:101F800010B5C1608160016001EB820104464160CF
:101F9000114600F11C00FFF773FF04F1100000214F
:101FA000BDE81040FFF76CBF00000000000000001B
:101FB00010B52023044683F3118803684168C36089
:101FC000CA1A8360911000F11C00FFF761FF04F151
:101FD00010000021FFF75CFFFFF78AFE002383F368
:101FE000118810BD0000000000000000000000008B
:101FF00070B504460E4600F11C001146FFF760FF65
:10200000054678B9A368626843F8046B9342A360FD
:1020100028BF236804F1100028BFA360FFF770FFFA
:10202000FFF766FE284670BD0000000000000000BB
:1020300008B5202383F31188FFF7DAFF002383F329
:10204000118808BD00000000000000000000000032
:1020500070B504460E4600F110001146FFF730FF40
:10206000054680B9E368606853F8042B8342326008
:10207000E36028BF236804F11C0028BFE360FFF77A
:102080003FFFFFF735FE284670BD0000000000004E
:1020900008B5202383F31188FFF7DAFF002383F3C9
:1020A000118808BD000000000000000000000000D2
:1020B00008B58369002B10DD5A1EC368826153F88E
:1020C000042B0A604168C3608B4224BF0368C3606D
:1020D0001C30FFF715FF002008BD4FF0FF3008BD92
:1020E00051B1074B9B699862426818605A6043601F
:1020F0000D201360FFF75CBD4FF0FF30704700BF4D
:102100008CAA002000000000000000000000000079
:1021100010B5C361029B406000248A18006084608F
:1021200041618161C1600261036210BD0000000075
:10213000C36810B50446436183610020A060206835
:10214000A04208D0016821604C60FFF7C9FC6FF025
:1021500001028262F3E710BD0000000000000000F1
:1021600070B5202304460E4683F31188C36903B17A
:102170009847A5683DB920463146FFF7B1FF0028D2
:10218000F7DA2B460BE0A1692269013DA56011F841
:10219000010B9142A16124BFE168A161002383F397
:1021A000118870BD00000000000000000000000069
:1021B0002DE9F0479A46044688469146C769202390
:1021C00083F3118800250FB12046B847A6684EB9A1
:1021D00020465146FFF784FF0028F7D0334683F3AB
:1021E000118816E0A069013EA66010F8013B08F8CE
:1021F00005302169A061884224BFE168A161002304
:1022000083F311880135A94503D0202383F3118876
:10221000D9E72846BDE8F087000000000000000074
:10222000C361009B41618161C160891840600060A9
:10223000826001610362704700000000000000003E
:10224000C368026910B5044643618361D01AA06077
:102250002068A04208D0016821604C60FFF740FC74
:102260006FF001038362F3E710BD0000000000007F
:10227000F8B504460E461746202383F31188A56857
:102280004DB920463946FFF72BFF0028F7DA2B46D9
:1022900083F31188F8BD6369013DA56003F8016B04
:1022A00022696361934228BFE368E16928BF6361E3
:1022B00009B120468847002383F311881846F8BDEA
:1022C0002DE9F0479A46044689461646D0F81C8008
:1022D000202383F311880027A5684DB92046514675
:1022E000FFF7FEFE0028F7D02B4683F311881BE092
:1022F000013DA56019F8013B656905F8013B2069BE
:102300006561854224BFE0686061B8F1000F01D0CB
:102310002046C047002383F311880137013E03D0D4
:10232000202383F31188D7E73846BDE8F087000003
:10233000054A064B064922F007001860054821F0BF
:1023400007020260704700BF87010010ACAA00209E
:1023500000C00120A8AA002000000000000000002A
:10236000074B0849073020F0070209681868091A66
:10237000914202D382181A6070470020704700BF54
:10238000ACAA0020A8AA0020000000000000000065
:1023900008B5202383F31188FFF7E2FF002383F3BE
:1023A000118808BD000000000000000000000000CF
:1023B000024B034918680A68801A7047A8AA0020CF
:1023C000ACAA002000000000000000000000000097
:1023D0000448054B002103608160C1601030FFF7A5
:1023E0009FBD00BFB0AA002091230008000000009C
:1023F00008B500F025FF084801F052FA00F038F85F
:1024000000F096F800F0CCF800F072FA00F078F9DD
:10241000BDE8084001F08CBFE006010800000000A4
:10242000094B81425A6805D982420AD38A4208D2AE
:10243000012070478242FBD28A422CBF002001203B
:1024400070470020704700BF001000E0000000004F
:1024500038B5054B5C68051920462946FFF7E0FFB3
:102460000028F9D138BD00BF001000E000000000D6
:1024700000F096BF00000000000000000000000017
:1024800000210123037041608160C16001614161ED
:102490001830FFF745BD00000000000000000000FC
:1024A00010B52023044683F31188416000F0A8FF93
:1024B00002232370002383F3118810BD0000000065
:1024C00038B51D460446202383F311880323037087
:1024D0008260C560016100F0D3FF002383F311889F
:1024E00038BD0000000000000000000000000000F7
:1024F00038B51D460446202383F311880323C560A5
:10250000084D82600161037000F0BAFFA869606144
:102510000220FFF725FBA9690023886A83F311884D
:1025200038BD00BF8CAA00200000000000000000A1
:1025300001F0D6B80000000000000000000000001C
:10254000012300210370416070470000000000007B
:1025500010B52023044683F31188416001F0D0F8C0
:1025600002232370002383F3118810BD00000000B4
:102570000323037001F0F4B8000000000000000025
:1025800008B5202383F31188FFF7F2FF002383F3BC
:10259000118808BD000000000000000000000000DD
:1025A00001F05EB900000000000000000000000023
:1025B000012300210370416070470000000000000B
:1025C00038B5046AD4F8543218680278042A25D140
:1025D000C389416903F0020083B24D8AF3B9E1690E
:1025E000A269881A6169421AAA4217D383F3118833
:1025F000D4F85402B2FBF5F36B430068012104F1F7
:102600000C0200F0DDF9202383F31188D4F8543252
:1026100018680121BDE8384000F0F2B938BD00006B
:1026200038B5046AD4F8543218680278042A21D1E3
:10263000818901F0020398B2E0B9256CE26BA36BCB
:10264000A91ACD1A16D0034683F31188D4F8540280
:102650002B460068012104F1300200F0C1F920236B
:1026600083F31188D4F8542210680121BDE8384062
:1026700000F0DEB938BD00000000000000000000DE
:102680000C30FFF795BD00000000000000000000C6
:102690000C304FF0FF33FFF78BBD0000000000004F
:1026A0003030FFF70DBE0000000000000000000009
:1026B00030304FF0FF33FFF703BE00000000000092
:1026C0000C30FFF74DBD00000000000000000000CE
:1026D0000C304FF0FF31FFF743BD00000000000059
:1026E0003030FFF7C5BD0000000000000000000012
:1026F00030304FF0FF32FFF7BBBD0000000000009C
:102700007047000000000000000000000000000012
:1027100013B503460D4A43F8042B044643600120D9
:10272000207204F1540104F10C0000944FF4807203
:10273000074BFFF7EDFC009404F1300004F5AA719B
:102740004FF48072034BFFF76BFD1CBD8005010841
:10275000C12500082126000800000000000000003C
:10276000202383F311880B68C0F85412022198606B
:102770000172002383F311887047000000000000FD
:1027800070B5856805F10C0604463046FFF7D0FCAD
:1027900005F13000FFF754FD281D0121FFF7E0FB94
:1027A00063692046012132465B8A00F009F9204620
:1027B0000121BDE8704000F023B9000000000000D6
:1027C00090F8303003F06001202919D190F83120C1
:1027D000212A0AD0222A4FF000030CD0202A0FD140
:1027E000084907224162826207E0064B07214362E3
:1027F0008162002301E043628362C362012070476B
:102800000020704700A00020000000000000000031
:10281000F8B5856804460E46202383F31188082105
:10282000281DFFF79DFB2A6CEB6BA96BD01A471A8A
:1028300008D0002383F311882046314605F1300289
:102840003B460EE0321D54F822305A69188A53680C
:10285000411E0B400ED183F311882046314605F10D
:10286000300200F0BDF8202383F311882046314662
:1028700000F0DEF8002383F31188F8BD00000000AB
:10288000F8B5846805460F46202383F31188042198
:10289000201DFFF765FB6B69E269A0695E8A6369C9
:1028A000111ACA1AB24212D3002383F31188B2FB61
:1028B000F6F373432846394604F10C0200F080F821
:1028C000202383F311882846394600F099F8002325
:1028D00083F31188F8BD0000000000000000000034
:1028E0007047000000000000000000000000000031
:1028F00001F0DEBA0000000000000000000000004F
:10290000002101230370416081608181C181704792
:1029100038B50446202383F3118800254160056102
:1029200045618561C56101F0EBFA022323702B46F6
:1029300083F3118838BD0000000000000000000093
:1029400070B5064650690D46144618B10021102294
:1029500004F066FCA06918B10021102204F060FCAC
:102960002B1D3046294646F82340BDE8704001F053
:102970009FBB0000000000000000000000000000FD
:1029800030B50C1D50F82450AC6900252560E2607C
:102990006360A560BDE8304001F04ABC0000000063
:1029A00030B50C1D50F824506C6900252560E2609C
:1029B0006360A560BDE8304001F052BC000000003B
:1029C00030B50C1D50F82450AC690125636000231C
:1029D0002560E260A360BDE8304001F029BC000042
:1029E00030B50C1D50F824506C690125636000233C
:1029F0002560E260A360BDE8304001F031BC00001A
:102A000070B5C48944FA01F313F001060D464FF086
:102A1000010307D103FA01F31C43C48101F040FC18
:102A2000304670BD184670BD000000000000000078
:102A300070B5848944FA01F313F001060D464FF096
:102A4000010307D103FA01F31C43848101F030FC38
:102A5000304670BD184670BD000000000000000048
:102A60000346022202700022028783F83A2080F88F
:102A70003B208281C281026142618261C26183F82E
:102A8000202001F0A5BA00000000000000000000B6
:102A9000F8B50446002380F8203000F1300201F040
:102AA000B7FB6068816831B994F8302012F0600695
:102AB00040F0DB8004E0204688470028F4D0E6E0C0
:102AC00094F8315002F07F0343EA0525B5F5407FC5
:102AD0003FD010DC022D00F0888004DC4DB3012DC6
:102AE00040F0C3807BE0B5F5807F29D0B5F5817FCC
:102AF00040F0BB8093E0B5F5C06F4AD009DC40F2EE
:102B00000230854200F09C80B5F5A06F40F0AD80AA
:102B10002BE0B5F5106F51D040F6024295425ED0E1
:102B2000B5F5006F40F0A18004F13B036362012022
:102B300042E004F1380002216062A162E562A6E091
:102B400094F83230012B40F09080208F20F0020268
:102B500007E094F83200012840F08780218F41F08F
:102B6000020222876662A66257E0258EB5F5A06F45
:102B700076D194F83210204684F83A1001F088FAA1
:102B80006268136813B12046012198470320207022
:102B900066E0626894F8357094F83430556894F8BB
:102BA000331094F83220204643EA0723A847002830
:102BB0005BD0456800686562A0622EE094F8322020
:102BC00084F83B200AB9032300E0042360682370E3
:102BD0000568002D44D020460221A84740E058490E
:102BE00002256162A56200213DE094F8341011F0E5
:102BF000800F204601F00F0102D001F0F9FA01E048
:102C000001F0E6FA012805D002282ED14D4AA06233
:102C1000626202E04C4BA5626362E66237E094F8C0
:102C2000322012BB94F8345015F00F0118D02A0648
:102C3000204602D501F06CFB12E001F061FB0FE0D1
:102C400094F8321089B994F8345015F00F0107D078
:102C50002B06204602D501F04BFB01E001F040FBC2
:102C600000216162A162E16211E02046002101F0D1
:102C70003FFB2046002101F033FB63681A6812B164
:102C8000204605219047052084F82000F8BD94F8DF
:102C9000375094F83630A16A94F9302043EA052081
:102CA000814288BFA062002AA56A22DA85B101228A
:102CB00084F820202B4620460021626AFFF770FE30
:102CC000202383F3118800212046FFF7B1FE21E085
:102CD000022184F820102B46204629462A46FFF779
:102CE0004FFE202383F3118820462946FFF788FEF4
:102CF00022E08DB1032084F820002B4620460021DD
:102D0000626AFFF73DFE202383F3118800212046ED
:102D1000FFF776FE002310E0042384F820302046DD
:102D20002B4629462A46FFF73BFE202383F31188D2
:102D300020462946FFF77CFE2B4683F31188F8BD19
:102D4000A0050108B0050108C00501080000000049
:102D500038B590F82030012B044602D0042B37D12F
:102D600031E090F8371090F83620836A42EA01216A
:102D70008B4214D205692A8AB3FBF2F102FB1135AA
:102D80006DB92B4629462A46FFF70AFE202383F316
:102D9000118820462946FFF74BFE2B4610E0002104
:102DA000022084F820000B4620460A46FFF7E8FD83
:102DB000202383F3118800212046FFF721FE002302
:102DC00083F3118838BDC36A03B1984700210DE031
:102DD000002101F08DFA2046002101F081FA60689F
:102DE000026812B1204605219047052184F8201081
:102DF00038BD0000000000000000000000000000DE
:102E000090F82030022B10B5044614D0032B1BD1B0
:102E1000042180F8201000210B460A46FFF7C0FD70
:102E2000202383F3118800212046FFF701FE0023B1
:102E300083F3118810BD02699369996821B9C26A48
:102E400002B1904700210EE02046002101F050FA27
:102E50002046002101F044FA6068036813B120465F
:102E600005219847052184F8201010BD00000000BE
:102E700008B50748074B3D2219689A60036801F0BE
:102E80003D010BB140689847BDE80840FEF7A8BC7B
:102E9000D0AA0020006002400000000000000000F6
:102EA00008B5084B1968880900F03D0106484FF441
:102EB00074629A6083680BB1C0689847BDE80840A7
:102EC000FEF78EBC00600240D0AA00200000000087
:102ED00008B5084B1968080C00F03D0106484FF48E
:102EE00074129A6003690BB140699847BDE80840C5
:102EF000FEF776BC00600240D0AA0020000000006F
:102F000008B5084B1968880D00F03D0106484FF0E0
:102F100074629A6083690BB1C0699847BDE8084044
:102F2000FEF75EBC00600240D0AA00200000000056
:102F300008B50748074B3D225968DA60036A01F07B
:102F40003D010BB1406A9847BDE80840FEF748BC18
:102F5000D0AA002000600240000000000000000035
:102F600008B5084B5968880900F03D0106484FF440
:102F70007462DA60836A0BB1C06A9847BDE80840A2
:102F8000FEF72EBC00600240D0AA00200000000026
:102F900008B5084B5968080C00F03D0106484FF48D
:102FA0007412DA60036B0BB1406B9847BDE80840C0
:102FB000FEF716BC00600240D0AA0020000000000E
:102FC00008B5084B5968880D00F03D0106484FF0E0
:102FD0007462DA60836B0BB1C06B9847BDE8084040
:102FE000FEF7FEBB00600240D0AA002000000000F7
:102FF00008B50748074B3D2219689A60036C01F039
:103000003D010BB1406C9847BDE80840FEF7E8BBB6
:10301000D0AA002000640240000000000000000070
:1030200008B5084B1968880900F03D0106484FF4BF
:1030300074629A60836C0BB1C06C9847BDE808401D
:10304000FEF7CEBB00640240D0AA002000000000C2
:1030500008B5084B1968080C00F03D0106484FF40C
:1030600074129A60036D0BB1406D9847BDE808403B
:10307000FEF7B6BB00640240D0AA002000000000AA
:1030800008B5084B1968880D00F03D0106484FF05F
:1030900074629A60836D0BB1C06D9847BDE80840BB
:1030A000FEF79EBB00640240D0AA00200000000092
:1030B00008B50748074B3D225968DA60036E01F0F6
:1030C0003D010BB1406E9847BDE80840FEF788BB54
:1030D000D0AA0020006402400000000000000000B0
:1030E00008B5084B5968880900F03D0106484FF4BF
:1030F0007462DA60836E0BB1C06E9847BDE8084019
:10310000FEF76EBB00640240D0AA00200000000061
:1031100008B5084B5968080C00F03D0106484FF40B
:103120007412DA60036F0BB1406F9847BDE8084036
:10313000FEF756BB00640240D0AA00200000000049
:1031400008B5084B5968880D00F03D0106484FF05E
:103150007462DA60836F0BB1C06F9847BDE80840B6
:10316000FEF73EBB00640240D0AA00200000000031
:103170000B4B00221A6013460A495858002101607F
:1031800009480C3311500832C02BF5D1074A4FF0D3
:10319000FF339360D360C2F80834C2F80C34704730
:1031A00050AB0020D0050108D0AA002000600240EA
:1031B000F8B51F4E447A3768012505FA04FC1CEA6D
:1031C000070F31D11B4D45F8342005EBC404636073
:1031D0004CEA070313F0FF0F336004D0164E376B31
:1031E00047F40015356313F47F4F04D0124B1C6B6A
:1031F00044F480061E6303681F6827F001051D6004
:103200001C6814F00104FBD1067A45683D2707FAD3
:1032100006F62E6021251C605D613AB1807A0901B5
:10322000FEF74EFB2046F8BD2846F8BD1046F8BD17
:1032300050AB0020D0AA002000380240000000005F
:10324000254B1A6942F00100002218611A61596980
:1032500041F0010058615A61996941F0010098619B
:103260009A61196A19621A62586A40F0010159623A
:103270001A481B495A62486007208A600860D1F8E2
:10328000EC0D40F08070C1F8EC0D1649086840F074
:1032900001000860196C41F08050134918640868F7
:1032A00040F480700860196F01F44070B0F5007F41
:1032B00003D04FF4803119671A671B6F064A1B044D
:1032C00007D4106F40F400711167136F43F400408E
:1032D0001067FFF74DBF00BF003802403F9002006B
:1032E00010E000E0001000E000700040000000006E
:1032F000244B25484FF080524FF480411A640160FE
:1033000042685104FCD5186840F0010119601D4B5A
:103310001A689007FBD5186840F480311960186866
:10332000184A8103FBD5536F43F001015167154AD9
:10333000506F8007FBD5154B5360116841F08070CA
:10334000106011680F4B8901FBD59868104A40EA5C
:103350000201104A996040F205701060996841F0CE
:1033600002009860074B9A6802F00C010829F9D115
:10337000586C40F480425A64596E41F4804058665B
:10338000704700BF003802400070004008544007FA
:1033900000B40838003C02400000000000000000BB
:1033A00010B50D4C2046FFF76BF80C4B0C490D483F
:1033B000A362E06221630C4C2046FFF761F80B48E2
:1033C0000B4A0C4B206360211220A262E362BDE82D
:1033D0001040FEF775BA00BF54AB0020002001403A
:1033E000162C02006006010888AB0020162C020291
:1033F0000021014048060108000000000000000014
:103400000378012B10B504462BD1164884420ED107
:103410000621154AE06A2346FFF7CAFEE06A134A0E
:1034200001688A6012494B6C43F4807310E01149C3
:103430008C420ED106210C4AE06A2346FFF7B8FE03
:10344000E26A0D4813680A4998604A6C42F40073B6
:103450004B64A36A094900200122486058609860C3
:103460009A6010BD54AB0020213500084C2001406B
:103470000038024088AB00204C210140002301406D
:103480000269016B136830B50BB141F48071C56AF4
:10349000C4682B688568806ADD609588012C88BFC8
:1034A00041F008016C435C601960196841F001014A
:1034B0001960002391690360D369C160116A0361D7
:1034C000536AC162916A036313695269416343F0AD
:1034D000806141F4807312F0804F42F4407114BF58
:1034E00041F0030141F001014360816030BD000003
:1034F000C36A1A68116810B521F0010414601168DC
:1035000011F00101FBD15A681B7A806A3D2404FA4C
:1035100003F31360416081600121816010BD0000F0
:1035200011F00C0F38B504460D461BD0FFF7E0FF35
:103530002069C3684BB105220021227020469847BC
:103540002178052901D10220207000222261202348
:1035500083F31188606900284CD04FF0FF3362611B
:10356000836245E00369002B47D0CA0605D59B68F6
:103570001BB1C268816852089847AB063DD52169E6
:10358000086888B18B68002B37D0E268012A07D918
:103590008D88A16852085543204601EB450101E0A2
:1035A000A1682046984738BD2046FFF7A1FF216952
:1035B0008B6893B104222270E268012A07D98D88B2
:1035C000A16852085543204601EB450101E0A1687E
:1035D000204698472078042801D102232370002236
:1035E0002261202383F31188606918B162618262CD
:1035F000FEF776FA002383F3118838BD000000003F
:10360000304B1A680021900610B5196027D52E4C52
:10361000E06A03685A6812B3216901B32046FFF7D4
:1036200067FF2069C3684BB1052201212270204643
:1036300098472178052901D102202070224A0021D3
:103640001161202383F31188506928B14FF0FF33B3
:1036500083625161FEF744FA002383F311881B480B
:10366000026800210160910627D5194CE36A1868A9
:10367000426812B3216901B32046FFF739FF23697D
:10368000DB684BB105202070012120469847227845
:10369000052A01D1022121700D4A00211161202348
:1036A00083F31188506928B14FF0FF338362516171
:1036B000FEF716FA002383F31188BDE81040FEF7E9
:1036C0008FB800BF0020014054AB00200021014012
:1036D00088AB002000000000000000000000000097
:1036E0000248034BC360FEF72BBF00BFBCAB0020FA
:1036F0000004014000000000000000000000000085
:103700000378012B10B5044613D11148844210D11F
:1037100010494A6C42F002034B64486A002340F0AF
:1037200002024A622C204B627021FEF7C9F80A4956
:10373000A1606068A2680368B2FBF3F1481EE36809
:1037400081B2002208201A80988019859A8110BDC4
:10375000BCAB00200038024000BD010500000000A5
:10376000C3680139D9620122002005219A8258627A
:1037700018829A8119807047000000000000000044
:10378000C36800221A801A829A81704700000000E4
:1037900010B50A4C2078E368002204281A8204D16C
:1037A000022120462170FFF7EBFF636803485A6847
:1037B0009047BDE81040FEF713B800BFBCAB002037
:1037C000064808B54168064B4FF6FE721A828A68B1
:1037D0009047BDE80840FEF703B800BFCCAB00201F
:1037E0000000014000000000000000000000000098
:1037F000164B10B51A8A9C89A4B214404FF6E1709A
:1038000004F0020118828BB21BB1114842681169A1
:10381000884704F0040083B21BB10D4842689169E7
:10382000884704F0080083B21BB109484268116A56
:10383000884704F01004A4B21CB1054843689A6A92
:103840009047BDE81040FDF7CBBF00BF000001402E
:10385000CCAB0020000000000000000000000000D1
:1038600010B5034C2046FEF7A3FE024B236110BDAA
:10387000CCAB002000000140000000000000000070
:103880004B688A684360CB6882600A69C3604261A2
:103890004B698A69096803624262016070470000EF
:1038A0001E4B1A6B10B504466FEA52206FEA402196
:1038B00019631A6D6FEA52206FEA402119651848A2
:1038C0002146FFF7DDFF04F11C011648FFF7D8FF82
:1038D00004F138011448FFF7D3FF04F154011348F1
:1038E000FFF7CEFF04F170011148FFF7C9FF04F1A3
:1038F0008C011048FFF7C4FF04F1A8010E48FFF740
:10390000BFFF04F1C4010D48FFF7BAFF0C4804F1F2
:10391000E001BDE81040FFF7B3BF00BF0038024030
:10392000000002400004024000080240000C024077
:10393000001002400014024000180240001C024027
:103940000020024000000000000000000000000015
:10395000026CC36B30B59468002202F148014D013E
:103960005859002809DA4FF08040585103EB4215AE
:10397000D5F808198807F9D501E00021595103EB62
:10398000421100204FF0FF35C1F81009C1F8085965
:1039900002F1580149015D58854209DA4FF0804033
:1039A000585003EB4211D1F8080BC106F9D500E0DD
:1039B000585003EB421100200132C1F8100BA24213
:1039C0004FF0FF30C1F8080BC7D94FF00111C3F811
:1039D0001C1830BD000000000000000000000000C6
:1039E000F8B5C66B06EB41134FF0FF32D3F8087BF6
:1039F000C3F8082B3A0704460D4608D5D6F8143804
:103A00001B0704D50A1D50F822305A689047FA0760
:103A100011D5D6F81408C3070DD5E389281D012157
:103A200001FA05F123EA010254F82010E281CB6883
:103A3000204629469847F8BD00000000000000001D
:103A4000C36B890141F0200018611A699106FCD40A
:103A50000C20FEF7FDBC000000000000000000008C
:103A6000AD4B2DE9F74F0546C66BAC4A98698261AC
:103A7000202383F311882978012904D0AC6C64B920
:103A80007769F80609D4A44AB369916943F0100034
:103A9000B06129650220FEF763F8002383F31188E3
:103AA0001F462C6CA3689F42E2D8706910F0100189
:103AB00000F08980EC6B236A03F4F012B2F5802FDA
:103AC00018D0B2F5402FF0D103F00F0104F580506B
:103AD0000C1DC3F30A1355F82420DC1C116AA3083B
:103AE0000222002BE1D0046812B141F8044B013AE4
:103AF000013BF6E703F00F0909F10400C3F30A18CC
:103B000055F820108B691A6804F58050DC68002A8B
:103B100038D04146F1B1032906D9626923699A4236
:103B200002D3E2686261F5E7D0F800B00022D4F871
:103B300014E02BFA02F30EF8013B2369C4F814E0F9
:103B40009E4524BFE3686361013903D00832202A0F
:103B5000EDD1DFE7202383F31188A06800EB080292
:103B6000A2602068A04207D0036823605C60FDF774
:103B7000B7FF00218162F4E7FEF7BAF8002383F370
:103B8000118816E05A6802F1030C9A6808F10301E3
:103B9000C2EB0C028908920839B1D0F800A012B12A
:103BA00044F804AB013A0139F6E7DC6804EB08009D
:103BB000D86009F1040455F824309969886800EB4D
:103BC00008028A6071E74FF00109AA6C09FA07F947
:103BD00019EA020F00F0B880202383F31188B4683B
:103BE000A86C24F0010320EA0902B360AA640B4622
:103BF00083F31188391D55F8214063699A68586824
:103C0000824280F08D80B4F81080EC6B811A04EB56
:103C10004712884528BF8846D2F8180981B2B8EB08
:103C2000810F7FD81A68781C04EB0030002A5BD023
:103C3000DC680190424622B390082AD0D4F818E0FC
:103C4000D4F810A00423CEEB0A0C9CFBF3F18842BD
:103C500038BF01464FEA810BCBEB0202F4460CF170
:103C6000040C29B15CF8040C019B01391860F6E7DB
:103C70000EEB0B015145A16102D3E068A061DAE7C8
:103C80003AB9202383F31188A36803EB0801A160EC
:103C900019E00020D4F810B08646A36913F801ABF0
:103CA0005B45A36128BFE3680AFA00F128BFA3615E
:103CB000013A4EEA010E02D008302028EDD10198D9
:103CC000C0F800E0B7E72068A04207D00268226091
:103CD0005460FDF705FF00238362F4E7FEF708F860
:103CE000002383F311880EE008F10304A208DC68C6
:103CF000043422B154F8041C013A0160F8E7D96891
:103D000001EB0802DA603C1D55F8242050698368F5
:103D100003EB080181606DE78CAA0020A006010872
:103D2000012400E00024202383F31188B26842F0CC
:103D30000100B0602CB9D6F8343849EA0301C6F85E
:103D40003418002383F311880137FFB2A9E600BFBE
:103D5000F8B5C56B05EB41134FF0FF32D3F8087986
:103D6000C3F80829FB0704460E460FD5D5F81038CE
:103D7000DA070BD58289012303FA01F322EA030350
:103D80000A1D838150F822309A6890473B061BD564
:103D90000121D5F8340801FA06F6064214D0202392
:103DA00083F31188A36CD5F83428206D334322EABD
:103DB0000606A364C5F8346818B1FDF791FE00202B
:103DC0002065002383F31188F8BD00000000000087
:103DD00070B5344EF46B6369A5691D40E9046561F3
:103DE00008D53046FEF73CFE73681B6813B13046B9
:103DF00000219847AA0448BFD4F808382B0704D5F7
:103E000028484168CA6802B19047E80610D52023C7
:103E100083F31188A06920F01006A661214E306D51
:103E200018B1FDF75DFE00233365002383F311888D
:103E30006903D4F8184817D5E20703D519480021BB
:103E4000FFF786FFA30703D516480121FFF780FF80
:103E5000600703D513480221FFF77AFF210703D536
:103E600010480321FFF774FF2A0317D5E30303D596
:103E70000C480021FFF7B4FDA00303D50948012138
:103E8000FFF7AEFD610303D506480221FFF7A8FD49
:103E9000220303D503480321FFF7A2FDBDE87040CC
:103EA000FDF79EBCE0AB0020000000000000000019
:103EB00038B50E4C2046FEF723FD0D4904F1A4054C
:103EC0004FF0A0400023E063216404F1580029462C
:103ED000FF22E3642365FDF753FF284604F5E271F2
:103EE0005522BDE83840FDF74BBF00BFE0AB0020D6
:103EF0009006010800000000000000000000000023
:103F00000378012B73B50546C46B52D1294885420D
:103F10000ED129494A6B42F080064E634B6900225C
:103F200043F0800048614A614320E021FDF7C8FC6E
:103F3000EE6C0021A96456B9009505F158004FF4C4
:103F4000DC7102221D4BFDF723FF2865E8641C4B42
:103F50001C48EE6BE36000224FF450210123C4F8AB
:103F60000008C4F8002EA16333613069C007FCD497
:103F70000C20FEF76DFA3269002AFCDA0026A660F2
:103F80002846FFF7E5FC6968C4F81068CB68C4F8F8
:103F90001468C4F81C6813B94FF4405001E043F2B0
:103FA00008004FF0FF32A0616261A16841F0010397
:103FB000A3607CBDE0AB002000380240613A0008FD
:103FC0004014004003002002000000000000000038
:103FD00070B505460021C46BFFF732FD2A6C966868
:103FE000002303F1480040014FF00061215003F12C
:103FF00058004001215004EB43110133FF20B3422C
:10400000C1F80809C1F8080BEBD91268E86B4FF04A
:10401000FF364FF001111023C4F81868C4F81C18BB
:104020006A6462620361066916F01006FBD10C2017
:10403000FEF70EFAD4F8001821F4FE62C4F8002846
:10404000A06940F4402343F01001A1610B48696C62
:104050000B4B0922C4F81028C4F81428286101F178
:10406000100241F48010C4F8106BC4F8003BC4F88F
:104070001069C4F800396A64A06270BDB006010816
:104080004080001000000000000000000000000060
:10409000C36B90F83A10D3F8002822F4FE6040EA8F
:1040A0000112C3F800287047000000000000000063
:1040B000F8B50B1D064650F82330C46B1A6802F0A1
:1040C000030002280D4607D0032807D03B493C4F88
:1040D000012818BF0F4602E03A4F00E03A4F04EBC8
:1040E0004512D9680020C2F8100B05F1580269B1D9
:1040F000598A520147EA0100A05005F11002D4F894
:104100001C18012000FA02F008430DE0500121586C
:1041100021F4004222500120D4F81C1805F11002AD
:1041200000FA02F221EA0200C4F81C0804EB45126E
:1041300098680021C2F8101928B3988B198A736CFB
:104140008A08012888BF424305F13F00D11843EA9D
:10415000024204EB8003716430465A602946FFF73F
:104160006FFC291D56F82120108A05F1480140EA0C
:1041700085534A011F43A7500123D4F81C0803FAB2
:1041800005F5054317E005F13F0304EB83010F4AF2
:1041900030464A602946FFF753FC05F148004301C9
:1041A000E15821F40042E2500123D4F81C0803FA3C
:1041B00005F520EA0505C4F81C58F8BD008000107C
:1041C000008004100080081000800C100004000221
:1041D0005831C36B49015A5812F4004004D012F40C
:1041E000001F0CBF022001207047000000000000EB
:1041F0004831C36B49015A5812F4004004D012F4FC
:10420000001F0CBF022001207047000000000000CA
:10421000043150F82130186A016811604368536016
:1042200070470000000000000000000000000000D7
:104230000B1D10B550F82320C06B538A9269526849
:10424000013AD21843F0C04400EB4111B2FBF3F342
:1042500044EAC342C1F8102B10BD0000000000006A
:104260000B1D10B550F8234062695368C26B23B927
:1042700002EB41114FF4002308E0208A5C1E241851
:10428000B4FBF0F043EAC04302EB4111C1F810392E
:1042900010BD000000000000000000000000000051
:1042A0005831C36B49015A5842F0806058507047EA
:1042B00001F14802C36B5201985840F004409850F5
:1042C0000120D3F8342800FA01F11143C3F834185F
:1042D0007047000000000000000000000000000027
:1042E0005831C36B49015A5842F400105850704776
:1042F0004831C36B49015A5842F400105850704776
:104300005831C36B49015A5822F400105850704775
:104310004831C36B49015A5822F400105850704775
:10432000FEF7E6BF000000000000000000000000F3
:1043300070470000000000000000000000000000C6
:10434000F0B5002B08BF0B4600F10B0C00F10A077B
:10435000B1FBF2F602FB161101F13005392DC8BF91
:1043600001F13705B3FBF2F33C463D703146013FA6
:10437000002BEDD1C4EB0C02E15CC154013393423C
:10438000FAD1C018F0BD00000000000000000000DD
:104390000EB42DE9F04F2DED028B88B013AA07461D
:1043A00052F8043B01921E4616F8011B002900F04A
:1043B0002881252905D03B6838469A6890473346BE
:1043C000F1E758782D2803D19E1C4FF0010B01E036
:1043D0004FF0000B33782E2B03D101364FF030080D
:1043E00001E04FF02008019A31464FF0000911F822
:1043F000013BA3F13004E5B2092D0E4603D92A2B67
:1044000005D1157804320A2000FB0959EFE72E2B5D
:10441000019213D100250E4616F8013BA3F130009E
:10442000C4B2092C314605D92A2B01D0019206E0ED
:10443000147804320A2606FB0545ECE700256C2BB0
:1044400001D04C2B03D132780AB101361346642BCC
:104450003ED016D8552B00F08F8003D8442B37D090
:104460004F2B14E0582B19D0632B40F09080019C07
:10447000251D2168019508AC4FF0200804F8181D8F
:1044800088E0732B0CD005D8662B31D06F2B7ED1F2
:10449000082272E0752B6FD0782B78D110226CE057
:1044A00001995D480C680A1D002C08BF044647F6B8
:1044B000FF730192002D08BF1D46214608460131B9
:1044C0000278002A68D063195A1A002AF6DA63E0E3
:1044D000019C251D01952168002906DA2D208DF803
:1044E000080049420DF1090000E002A80A2249E053
:1044F0000198C21D22F0070303F10804D3E900016B
:104500000194FCF7ADFC08EE100AB5EEC08AF1EE9E
:1045100010FA07D52D258DF80850B1EE488A0DF117
:10452000090000E002A8FDEEC88A0A22002318EE66
:10453000901AFFF705FF82462E210AF8011B18EE9C
:10454000100AFCF7F9F9044618EE900A0D46FCF73C
:10455000E1F902460B4620462946FCF78DF82CA3CC
:10456000D3E90023FCF73CFAFCF752FC0A2201468F
:1045700042F21073504606E00A220198031D01938F
:10458000016802A80023FFF7DBFE02AC06E008ACDE
:1045900004F8183D601C01E04FF02008C4EB000A4D
:1045A000CAEB090929EAE975BBF1000F15D16D4283
:1045B0009DB121782D2909D1B8F1300F06D13B6882
:1045C00038469A68904701340AF1FF3A396838460C
:1045D0008B68414698470135F8D1BAF1010A06D4F3
:1045E000396838468B6814F8011B9847F5E7002DA9
:1045F0003FF4E5AE38684146826838469047013D51
:10460000F5E708B0BDEC028BBDE8F04F03B0704792
:1046100000000000006AF840E0070108AFF30080E6
:1046200010B504460846FDF7B3FE18B90C23236005
:104630004FF0FF3010BD000000000000000000003F
:104640000023054A05499818884204D2044819589D
:1046500099500433F5E77047000000108001001006
:10466000901D010800000000000000000000000094
:1046700038B5094B094A98698261094C4FF40055D5
:1046800025834FF4FA70FDF7C3FB65834FF4FA708E
:10469000FDF7BEFBF1E700BF8CAA0020F007010880
:1046A000000C0240000000000000000000000000BC
:1046B00002290CD0032904D00748012918BF002083
:1046C0007047032A05D8054800EBC200704704482C
:1046D00070470020704700BFB00B0108800B010835
:1046E000800A010800000000000000000000000037
:1046F000022938B504460D4611D1202383F31188D1
:104700000121074AFEF71CF920462946054AFEF713
:1047100017F92046FEF734F8002383F3118838BDDB
:10472000000A0108900A01080000000000000000D3
:1047300070470000000000000000000000000000C2
:104740002DE9F04F2DED108BBC4E99B000211022B9
:1047500007460BA802F064FD96E8070005AB06F1DA
:104760000C0583E807000FCD0FAC0FC40FCD0FC4AD
:1047700028683036206096E8070008AB83E8070019
:10478000AF49B04A8E69B048B26100214FF0000BCA
:10479000CDF810B0FDF784FEAC48AD49FDF7D8FE6A
:1047A000AA484FF4FA71FDF7EBFE0020B9EE000ABB
:1047B00000F0D6FE8DED030A04240022A5480399DB
:1047C000013CFDF735FC14F0FF04F6D1202383F300
:1047D00011889B4DA04BA86918600220FDF7C0F915
:1047E000234683F311889D490E88C6F5805206EE54
:1047F000902AB8EEE60AF3EE0E7A60EE270ADFEDB5
:1048000098FA20EEAF1AB1EE047AB4EEC71AF1EEC0
:1048100010FACADC8F48CDF80CB021462246FDF7CD
:1048200007FC89488F490DF10A02012304F01005A5
:104830000134FDF75DFEA4B215B10A20FDF7E8FAD8
:10484000BDF80A0000F0C4FC0028EAD11420FDF7EE
:10485000DFFA854804A90022FDF71AFC0028F5D1EB
:10486000DFED829A0446F0EE69AAB0EE699AF0EEA6
:1048700069DAF0EE69BAB0EE69AAB0EE698A20236F
:1048800083F311886E48744B816902201960FDF72B
:1048900067F9002383F311887548764B4FF49D71B7
:1048A000022202F055FDDFED712A0020704E321811
:1048B0000230B2F89C5001EE905AB8EEE12AB0F501
:1048C0009E7F72EE822AF1D19FED6B3A82EE830ACF
:1048D00000F0A6FC6149694A0B88C3F580560CEECE
:1048E000106A97ED065AB6EE00FA39EE4A6AF8EE0B
:1048F000CC3A04EE102A65EE0F5AF0EEC68A63EE4B
:10490000844AF4EEE58AF1EE10FAB0EE40BA64EEB5
:10491000AFCA0FDDB4EEC9AABFEE00DAF1EE10FAAD
:10492000B7EE00EAC8BFB0EE4DEAB0EE4ADA05EEE7
:104930008EDA01E0B0EE49DAF5EE008AB4EEE8BABC
:10494000F1EE10FA11DD05A80FA97DEE490A9FEDE1
:104950004C0A08AA00F004FD05A80FA9B0EE4B0A06
:10496000DFED480A00F06CFC01E08DED05BA9DED2D
:10497000059ADDED06EA9FED44AAB5EE409ADDED1D
:10498000076AF1EE10FAF5EE40EA48BFB0EE4A9A37
:10499000F1EE10FAF5EE406A48BFF0EE4AEAF1EEA9
:1049A00010FAB5EE40BA48BFF0EE4A6AF1EE10FADE
:1049B00058BFB0EE4BAA2C4804A900228DED059AF1
:1049C000CDED06EACDED076A8DED01AAFDF760FB9E
:1049D000B8B9DDED07AA9DED060AC0EE2A7ADDED35
:1049E000040A9DED017A37EEA01A77EE271A81EEC0
:1049F000210A00F0E5FF9DED072AC0EE022A7DEEB8
:104A000022AA9FED1F9A9DED0ECA3CEEAA3A6CEECB
:104A1000093A33EE6BBA03EEA8BA97ED034A1B4D81
:104A2000B4EEC4BAF1EE10FAC5ED00AACDED03DA8A
:104A300030DD7BEE44CA7AEEECAA36E000050108D0
:104A40008CAA0020F00B010888AB0020BCAB002032
:104A500008A0002070B4002098B40020DCD700200B
:104A600000008039C00B010848B20020000000009F
:104A700008DA00205154000800001D430000F041F6
:104A80000AD7233C17B7D13917B7D138D8D7002068
:104A90000AD7233BD7ED024AB4EEE4BAF1EE10FA9E
:104AA00044BF34EECBBA7AEE8BAA0DF12C0AB0EEED
:104AB0006BAAB0EE6BCAF0EE48CA0026D7ED065AD4
:104AC0003CEE698A25EE8F6AB0EEC85AB4EE465ABB
:104AD000F1EE10FAC8BFF0EE4C9A3AEEE9BAD7ED13
:104AE00005EAB0EECBEAB4EEEEEAF1EE10FA0DD53F
:104AF0009DED038A97ED040AF0EEC86AF4EEC06AF1
:104B0000F1EE10FA02D5CDF80CB0E6E09DED030A07
:104B100000F07EFEB0EE4B0A054600F079FE8542BD
:104B200040F09E809DED038AD7ED005A68EE08EABA
:104B300035EEA56ACEEE86EAB4EEEEEAF1EE10FAB4
:104B400028DDB0EE4B0A00F063FED7ED003ADDED54
:104B5000034A23EE894A10B944EE284A01E044EEA4
:104B6000684ACDED034ADDED03CAD7ED015AB0EE38
:104B7000EC5AB4EEE55AF1EE10FA40F3AD80B0EE27
:104B80004B0A00F045FE97ED013A002865D0B1EEE2
:104B9000433A62E0002E4ED016EE100AFBF7CCFE30
:104BA00004461EEE900A0D46FBF7C6FE80461EEE3A
:104BB000100A8946FBF7C0FE02460B4640464946AE
:104BC000FBF75AFD02460B4620462946FBF708FF35
:104BD000FCF746F900EE100A00F072FF9DED03EAC3
:104BE000B0EE408AB0EE4B0A7EEE6CEA00F010FEAA
:104BF00008B9B1EE488AD7ED007A67EE890A3EEE31
:104C0000880A20EEA81AF0EEC06AF4EEC16AF1EE4E
:104C100010FA0ADD00F0FCFD97ED000A08B1B1EED4
:104C2000400A1FED657A20EE070A7CEE801ACDED72
:104C3000031A4AED011AB0EE4B0A9DED038A00F00B
:104C4000E7FD97ED00BA10B12BEE092A01E02BEE3B
:104C5000492A62EE282A38EE223A8DED033A3BE0EB
:104C600024BB1EB3DDED037A97ED007A77EEEC0AF4
:104C700067EE091A30EEE70A21EEA82AB0EEC01A54
:104C8000B4EEC21AF1EE10FA0ADD00F0C1FDD7ED64
:104C9000002A08B1F1EE622A1FED833A22EE830A60
:104CA0007CEE803ACDED033A4AED013AB0EE4B0A84
:104CB0009DED038A00F0ACFD97ED004A10B164EE63
:104CC000094A01E064EE494A64EEA8CA012438EEBC
:104CD0006C5A8DED035A00E00024042E16D003A870
:104CE0009DED030A00F03CFC9DED036A8AED000A8D
:104CF00026B966EE096A06EEA8AA07E0012E05D1DC
:104D000026EE09EAF4EE00EA0EEE2EAADDED037AB5
:104D100067EE890A06F1010000EEA8CA032EC6B2AA
:104D200008BFF0EE67DA08BFF0EE4CBA052E0AF1C4
:104D3000040A02D0F0EE48CAC0E600250BA9002202
:104D400051F8251006480135FDF772F9042DF5D10B
:104D5000044801990022FDF76BF9B0EE4D9A8EE5FB
:104D600070B40020E0D70020000000000000000028
:104D700037B5202383F31188314801A9FDF798F94D
:104D80000346B8BB83F31188DDED017AF5EE407A76
:104D9000F1EE10FA02D100F0ABFB13E0012000F0BD
:104DA000A7FB9DED010AB5EEC00AF1EE10FAD4BFE3
:104DB0000020012000F0ACFBDDED010AB0EEE01AAE
:104DC0008DED011ADDED011AF5EE401AF1EE10FA43
:104DD00009D09FED1C7A87EE212AFCEEC22A12EE42
:104DE000900A80B201E04FF6FF7000F0A1FB202393
:104DF00083F31188124B1C7E002383F31188A4B91E
:104E0000202383F31188104D2B6843B19C62184610
:104E1000FCF766FE2C60234683F311880EE083F3D3
:104E20001188184600F064FB08E0032C06D10748FF
:104E30000749084A40F23B13FDF742FB3EBD00BF65
:104E400070B4002000401C4498B4002088AB0020BF
:104E5000300C010808DA002000000000000000000B
:104E6000044B8B4205D004480449054A0123FDF751
:104E700027BB704708DA002088AB0020000C01082F
:104E8000DCD700200000000000000000000000004F
:104E900013B5802204460E490E48FDF771F88022B2
:104EA0000D480E49FDF76CF880220D490D48FDF7BD
:104EB00067F8002000F01CFB00F0DAFA009442F2E0
:104EC00038114122084B0948FCF77AFF1CBD00BF8E
:104ED00008D8002048B20020E0D7002070B200209F
:104EE000D8D5002070B4002041470008A0B40020AD
:104EF00070470000000000000000000000000000FB
:104F00001F4B204A73B59869002182611E48FDF746
:104F1000C7FA1D481D491E4A40F2DC53FDF7D0FA7E
:104F200000251024202383F31188154E194BB169F5
:104F300002201960FCF714FEB0690023826A83F333
:104F40001188134E14481549002A18BF3046013CF9
:104F50000BF0BEFA14F0FF04E4D1114801A9224677
:104F6000FDF796F800B9019D294600220D48FDF78E
:104F70005FF80D490D4809680022FDF759F8D0E7A0
:104F80008CAA0020600C010854AB0020700C0108B2
:104F9000B0EE002080E800208CF4002084E800209F
:104FA000E0D7002068FA0020D8D700204CE9002084
:104FB00010B5202383F31188084C206848B1084BB2
:104FC000CA1A514251EB02038362FCF789FD0020AB
:104FD0002060002383F3118810BD00BF80E800200B
:104FE000B0EE002000000000000000000000000003
:104FF00013B50024104B1149282000FB043001EBAD
:10500000442180220134FCF7BBFF052CF2D1802221
:105010000B480C49FCF7B4FF80220B480B49FCF706
:10502000AFFF002200924FF4A7614222084B0948CB
:10503000FCF7C6FE1CBD00BF84E8002080DC002019
:1050400068FA002090FA00204CE9002080E6002059
:10505000014F000878E90020000000000000000077
:1050600007EE900ADFED050AB8EE670ADFED041AD5
:1050700080EE201A21EE210A00F002BC0000E1457A
:10508000DB0F4940000000000000000000000000AD
:1050900010B504460846FFF7E3FF07EE104ADFEDC0
:1050A000100AF8EE477AF7EE001A80EEA71A20EE03
:1050B000010AB4EE610AF1EE10FAC8BFB0EE610A5F
:1050C00000F01EFC9FED072A80EE020ADFED062AA3
:1050D00020EE223AFCEEC33A13EE900A80B210BDE5
:1050E0002A57444CDB0F49400000E1450000000016
:1050F00010B586B0684600210A2202F091F89DE8BA
:10510000070003AB03C300241A80E0B203280FD8C2
:10511000DFE800F00206080B4FF08042116C09E056
:10512000234903E0234B996B04E02349C96B01E059
:105130002248416B224B03EB8402D2ED007ABCEE95
:10514000E70A89B210EE100AFFF7A2FF2DF814004B
:105150000134052CD9D1BDF80000BDF80230BDF8EE
:1051600004204FF080410864C1F83C38C1F8382C65
:1051700001F58061BDF80600BDF80820C86301F59F
:105180009E3322205A63FCF743FE002303A83DF818
:1051900003101A5A6420891A0029B8BF4942B2FB89
:1051A000F0F29142ABDC02330A2BEFD106B010BD16
:1051B00000080040000C0040000400400040014096
:1051C000B8FC00200000000000000000000000000B
:1051D0000E4B1A78511CCAB21A700D4B5AB100EE20
:1051E000900AD3ED001AB8EEE01A012031EE812AC0
:1051F00083ED002A704793ED007ADFED067A87EEA3
:10520000270A104683ED000A704700BFCDFC00203E
:10521000D0FC002000007F430000000000000000E0
:10522000044BD3ED007A9FED047A30EE670A20EE4E
:10523000070A7047D0FC002028FA62BC000000007A
:1052400091ED007AD0ED007A77EE200A30EE670A11
:1052500070B580EE201A8AB00B460A4601AC01F107
:10526000200690ED012A47EE017A90ED023AC0ED5A
:10527000007AD1ED031A01EE212A80ED012AD1ED49
:10528000062A01EE223A80ED023A1068516825465E
:1052900003C50832B2422C46F7D110682860D3ED1E
:1052A000003A93ED016A93ED032A63EE865A93ED7B
:1052B000020AC5EEA06A62EE232A23EEA34A23EE79
:1052C000807AC4EE204A82EEA03A87EE201A76EE6B
:1052D000667A33EEE45A32EE434A62EE064AC3ED92
:1052E000017A62EE007A93ED062A70EE411AC4EE5E
:1052F000A05A62EE233A22EE066A22EE000A87EEF8
:10530000A07AC3EEA02A83ED034A86EE204AC0EEBF
:10531000200A83ED005A93ED045A93ED051A75EEB9
:10532000656AD3ED074A93ED085AC3ED021AC3ED3F
:10533000046A71EE471A32EE623A74EEC45A75EEA0
:10534000606AC3ED051A83ED063AC3ED075AC3ED53
:10535000086A0AB070BD00000000000000000000F4
:10536000D0ED006A90ED027AD0ED017A46EE877AB0
:10537000F0B547EEA06AF7EE007AC0ED006A47EE9E
:10538000207A91ED011AD1ED001A91ED044A21EE37
:10539000206A07EEA16A64EE201A91ED032AF0EE6E
:1053A000615A47EE825A91ED072A91ED067A22EE74
:1053B000205A66EEA06A91ED023AD1ED052AD1EDB0
:1053C000084A07EE875A64EEA63A03EE266A42EED2
:1053D000A65A8BB035EE235A0B460C4601AD01F1AF
:1053E0002007206861682E4603C60834BC42354653
:1053F000F7D120EEA57A07EE867A206847EE811A6B
:10540000306006EE857A60EEA20A92ED006A47EE01
:10541000830A46EE821A00EE067A70EEA37A83EDD6
:10542000007AC3ED011AC3ED027AC3ED035AD2ED3F
:10543000016A00EE264A83ED065A83ED044A92ED96
:10544000021A40EE014AC3ED084A0BB0F0BD00005D
:1054500003880A88934203D394BF00200120704739
:105460004FF0FF3070470000000000000000000017
:105470001C4B5A6C42F001005864596A41F0010219
:105480005A62586A20F001015962174B1749DA68CD
:1054900042F00100D8600B889AB242F0800053239A
:1054A00041F2873208800B85CA62088B83B243F4CD
:1054B000605241F286300A8388630B8C9AB242F0C4
:1054C00010000884B1F844306FEA43426FEA52405A
:1054D00083B2A1F844300A8890B240F001030B80F7
:1054E000704700BF00380240002004E00000014087
:1054F000044B002814BF4FF080604FF48060986127
:10550000704700BF001002400000000000000000D3
:10551000044B002814BF4FF000504FF40050986126
:10552000704700BF001002400000000000000000B3
:10553000094B1A8822F080010A04110C19805A6A5A
:10554000911C421ED9629A6319888AB242F0800186
:105550001980D862704700BF0000014000000000C1
:1055600010B5DFED157A9FED157A20EE270A2DEDA7
:10557000028B60EE070AF5EE008A20EEA80A0446C8
:1055800000F04EF930EE008AB0EE480A00F040F923
:10559000BEEE001A0028F6EE001A18BFF0EE411A0F
:1055A00038EE212A1CB128EE288A84ED008A22EEEA
:1055B000280ABDEC028B10BD0AD7233B00004845EA
:1055C000624B1A6C42F00F0070B51864596C41F4CC
:1055D00080345C641D6A45F00F061E625A6A42F40C
:1055E00080305862196A21F00F041C625D6A4FF026
:1055F000804025F480365E6283889AB242F0600172
:1056000041F61F448180C4620589AEB246F0800332
:105610000381828B91B241F0680441F60345848393
:10562000C563868BB3B243F4F04282832425484A93
:10563000056491888CB244F0500641F6BB339680E5
:10564000D36211898CB244F095061681138B99B2FE
:1056500041F4D04441F6983614839663938B99B203
:1056600041F078043B4B9483D5639E88B1B241F0FE
:10567000400441F643469C80DE6219898CB244F0B6
:10568000A5061E81198B8CB244F0680641F63E4196
:105690001E8359631C8BA6B246F4F04119832E4930
:1056A0009D638C88A6B246F0500441F68C368C80FF
:1056B000CE620C89A6B246F0A5040C810E8BB4B262
:1056C00044F4D04641F676340E838C638E8BB4B2AC
:1056D00044F07806214C8E83CD63A688B6B246F09E
:1056E0004006A68041F69A46E6622689B6B246F0A2
:1056F00015062681268BB6B246F0780626836563AA
:105700000025456255624FF498755D6241F2D215ED
:105710004D6241F2E54565620588ADB245F001058F
:105720000580088880B240F001000880118888B2A6
:1057300040F0010111801A8890B240F001011980F7
:1057400023889AB242F00100208070BD00380240E8
:1057500000080040000C00400004004000400140F0
:105760004FF0804210F0010F138C03D09BB243F432
:10577000805103E023F480510B04190C118400F0D4
:105780000802D1B21E4A21B1138C99B241F4807142
:1057900004E0138C23F480710B04190C118400F0C5
:1057A0000202D3B2174923B10A8C93B243F4807337
:1057B00004E00A8C22F480731A04130C0B8400F0AA
:1057C0000401CBB2104A23B1118C8BB243F0100309
:1057D00004E0118C21F0100319040B0C138400F069
:1057E00010000A4AC1B2138C19B198B240F00103FB
:1057F00003E023F0010001040B0C1384704700BF89
:105800000004004000080040000C0040004001403F
:1058100010EE103A03F00040704700BF0000000097
:1058200010EE103AC3F3C7527F3A162A10EE101A40
:1058300013DC002A1ADB4FF6FF70C0F27F0040FA3B
:1058400002F0184206D04FF4800343FA02F35B18CB
:1058500023EA000300EE103A7047802AFAD130EEB6
:10586000000A10EE103A00EE103A7047013203F0D1
:105870000043EFD143F07E53ECE700BF000000008F
:1058800000B510EE101A40F6D87321F00042C3F6AE
:1058900049739A4283B018DDB2F1FF4F03DB30EE5B
:1058A000400A03B000BD684600F062FB00F0030050
:1058B00001289DED000ADDED010A12D002280AD070
:1058C00090B9012001F0ACFAEBE7DFED0A0A002005
:1058D00001F0A6FAE5E7012001F0A2FAB1EE400AD4
:1058E000DFE700F0F5FCDCE700F0F2FCB1EE400A87
:1058F000D7E700BF0000000000000000000000002B
:1059000010B52DED028B294C8AB0F0EE408A00F0E4
:1059100037F994F900300133B0EE408A04D0B0EE8C
:10592000680A01F025FB28B9B0EE480A0AB0BDECC0
:10593000028B10BDB0EE680A01F0CAFAF7EE007AE9
:10594000B4EEE70AF1EE10FAEEDD194A0023012168
:1059500018EE900A019208930091FAF7EDFF0246C3
:105960000B461448CDE90423CDE9022301F0A8FA3F
:1059700094F9000002288DED060B0CD0684601F06A
:1059800097FA40B1089A5AB9DDE90601FBF768FABF
:1059900008EE100AC8E701F093FB21210160F1E74E
:1059A00001F08EFB089B0360EEE700BF10A0002013
:1059B000400D010820130108000000000000000055
:1059C00010B52DED028B384C8AB0B0EE408A00F055
:1059D000CFF994F900300133F0EE408A09D0B0EEEF
:1059E000480A01F0C5FA20B1B5EEC08AF1EE10FA0E
:1059F00005DDB0EE680A0AB0BDEC028B10BD2B4984
:105A0000002218EE100A01910892FAF795FF237808
:105A1000CDE90401CDE902016BBB4FF6FF714FF0F8
:105A20006040CCF2EF7141EC100B8DED060BB5EE42
:105A3000408AF1EE10FA10D102229342009228D04F
:105A4000684601F035FA20B3089838BBDDE9060155
:105A5000FBF706FA08EE900ACBE70120022B009034
:105A600012D0684601F024FA70B1114801F028FA0A
:105A70008DED060BE8E700210020CFF6F07141EC38
:105A8000170B8DED067BD2E701F01AFB2121016097
:105A9000EBE701F015FB22230360D5E701F010FBD3
:105AA00008990160D2E700BF10A00020500D010846
:105AB00020130108000000000000000000000000AA
:105AC00010B52DED028B294C8AB0F0EE408A00F023
:105AD00097FB94F900300133B0EE408A09D0B0EE64
